:100000000C94F2000C94E3200C940F010C940F015B
:100010000C940F010C940F010C940F010C940F0120
:100020000C940F010C947A1B0C940F010C94561B2A
:100030000C940F010C940F010C940F010C940F0100
:100040000C940F010C940F010C94E4180C940F0104
:100050000C940F010C940F010C940F010C940F01E0
:100060000C940F010C940F0107634236B79BD8A77D
:100070001A39685618AEBAAB558C1D3CB7CC5763CD
:10008000BD6DEDFD753EF6177231BF000000803F7B
:1000900008000000BE922449123EABAAAA2ABECD97
:1000A000CCCC4C3E00000080BEABAAAAAA3E000009
:1000B0000000BF000000803F000000000008417801
:1000C000D3BB4387D1133D190E3CC3BD4282AD2B38
:1000D0003E68EC8276BED98FE1A93E4C80EFFFBE30
:1000E00001C4FF7F3F000000000000407A10F35A77
:1000F00000A0724E18090010A5D4E80000E8764868
:10010000170000E40B54020000CA9A3B000000E113
:10011000F505000080969800000040420F000000A6
:10012000A08601000000102700000000E803000086
:1001300000006400000000000A0000000000010050
:10014000000000002C76D888DC674F0823DFC1DF71
:10015000AE59E1B1B796E5E3E453C63AE651997674
:1001600096E8E6C28426EB898C9B62ED407C6FFCAE
:10017000EFBC9C9F40F2BAA56FA5F490055A2AF7F0
:100180005C936B6CF9676DC11BFCE0E40D47FEF5F9
:1001900020E6B500D0ED902E030094357705008061
:1001A000841E080000204E0A000000C80C333333C0
:1001B000330F986E12831141EF8D2114893BE65560
:1001C00016CFFEE6DB18D1844B381BF77C1D901D43
:1001D000A4BBE424203284725E228100C9F124ECA5
:1001E000A1E53D2711241FBECFEFD8E0DEBFCDBF74
:1001F00012E0A0E0B1E0EAE0F9E602C005900D925D
:10020000A433B107D9F725E0A4E3B2E001C01D9201
:10021000AB3CB207E1F70E944C180C9483340C9469
:100220000000A8E0B0E0E7E1F1E00C9456348B0167
:10023000FC01608171818281938120E831E541E098
:1002400050E00E94D32D69017A012CE330E040E0B8
:1002500050E00E942D3429833A834B835C8389814B
:100260009A81AB81BC81F80160836CE370E00E94ED
:100270001934DC01CB01F801A1838283C601069603
:1002800067E070E00E94BF2D84832DEA3EE840E0E5
:1002900050E0C701B6010E942D3429833A836D8353
:1002A0007E838F83988789819A8124E6289F6001C5
:1002B000299FD00C11246D817E818F81988525EB3B
:1002C00035E040E050E00E942D3429833A836D836D
:1002D0007E83E980FA80EE0CFF1CEE0CFF1CEC0C18
:1002E000FD1C8D819E81F5E6EF16F10410F001965C
:1002F00004C024E6E216F10419F021E030E002C067
:1003000020E030E0A90144595E4F4817590768F4CE
:100310006DE671E0821B930B0E941934DC01CB0166
:10032000E80EF91ECD0120E030E044E6E40EF11CB9
:10033000F801F782E68291878087255C3F4F82171C
:10034000930748F46FE170E00E941934DC01CB019F
:10035000F801858322C069E970E0821B930B0E943B
:100360001934DC01CB01F82EFF0CFF0CF80E6DE305
:1003700070E0CD010E941934DC01CB01E82EEE0CB7
:100380006FE170E0CD010E941934DC01CB0122E065
:10039000280FF20EFE0CF801F582A383F8011386F4
:1003A000128683818F5F83832896E8E00C947234F1
:1003B000FC0162817381CB01A0E0B0E0BA2FA92FCC
:1003C000982F88272181822BBA2FA92F982F882731
:1003D0002081BC01CD01622B0895DC01FB012D9130
:1003E000819130E0B901681B7109CB01415051097D
:1003F00011F00097A1F308950F931F93FC019A0148
:10040000AB0122503109410951098789908DA18D95
:10041000B28D0297A109B109281739074A075B076E
:1004200068F4A185B2850E94F52D03A514A525A524
:1004300036A5600F711F821F931F03C060E070E03C
:10044000CB011F910F910895DC01ED91FC91309744
:10045000C1F0DF019D014D91413280F04A33D1F767
:10046000AF014F5F5F4F2417350759F44081403388
:1004700041F42F5F3F4FFC013183208380E090E007
:1004800008958FEF9FEF08950F931F93CF93DF93FE
:10049000EC018B01892BF1F0E881F9813097D1F0E3
:1004A00080818823B9F02A813B8185819681281734
:1004B000390781F481810E94C01780FD0BC028811B
:1004C000398180E0F80131832083DF91CF911F9142
:1004D0000F91089589E020E030E0F4CFFB01428DD8
:1004E000538D60E070E0833059F484899589A0E0F1
:1004F000B0E0DC0199278827482B592B6A2B7B2BEE
:10050000CB01BA0108958F929F92AF92BF92EF9262
:10051000FF920F931F93CF93DF93EC017C0143E392
:10052000E40EF11C2FA538A949A95AA901E010E051
:10053000B70189810E94CD17811128C01B820FA5A8
:1005400018A929A93AA98B8D9C8DAD8DBE8D8BA044
:100550009CA0ADA0BEA0B901A801481959096A091B
:100560007B09481759076A077B0790F46A81623054
:1005700079F4A9019801280F391F4A1F5B1F01E078
:1005800010E0B70189810E94CD1702C081E001C04F
:1005900080E0DF91CF911F910F91FF90EF90BF907E
:1005A000AF909F908F900895CF92DF92EF92FF923D
:1005B0000F931F93CF93DF93EC016A017B018FA50B
:1005C00098A9A9A9BAA984179507A607B70709F199
:1005D0008B81811112C001E010E0A7019601BE01DC
:1005E0006D5C7F4F89810E94C317882361F081E091
:1005F000CC24CA94DC2C760107C0CE010E94830271
:10060000811108C0E8CF80E0CFA6D8AAE9AAFAAA4B
:1006100001C080E0DF91CF911F910F91FF90EF908B
:10062000DF90CF900895CF93DF93EC011B828FEF83
:100630009FEFDC018FA798ABA9ABBAABCE010E94AC
:10064000D402811127C0FE01EF5CFD4F80819181B2
:1006500085359A4A09F58BA9893E29F08B3E01F52B
:100660008DA98039E9F443E050E062E371E0CE0106
:1006700087599F4F0E94ED01892B81F045E050E0A2
:1006800066E371E0CE018B579F4F0E94ED01892BED
:1006900039F404C084E005C083E003C080E001C0F9
:1006A00082E0DF91CF9108952F923F924F925F9217
:1006B0006F927F928F929F92AF92BF92CF92DF9272
:1006C000EF92FF920F931F93CF93DF93CDB7DEB7D7
:1006D0006E970FB6F894DEBF0FBECDBF5B01F42E50
:1006E000DB011D921C920E9424026C0197FD42C204
:1006F000FC01EE0FFF1FEA5CFD4F00811181011527
:10070000110509F439C2F50111830083FF2DFE7F25
:10071000FF2ED8018C91882369F011968C910E944C
:10072000C01780FD07C0FF2009F428C282FF26C23F
:100730008AE02CC2F8011082C1828C2D0E94BE1763
:1007400080FD1EC2FF2011F082FDF2CF40E050E09C
:10075000BA01C8010E941303823009F043C09E0110
:100760002F5F3F4F7901680137E0C31A3EEFD30A8C
:10077000480147EC841A4DEF940A5701F60134976B
:100780008081882321F0C6010E94D80103C060E067
:1007900070E0CB01D5016D937D938D939D935D01A9
:1007A000B0E1CB0ED11CC814D90441F76E01E1E1D0
:1007B000CE0ED11CD7014D905D906D907D907D0146
:1007C000411451046104710441F0B301A201C80154
:1007D0000E941303823010F40FC083E0CE14DF04B4
:1007E00049F7D0C1843009F4D0C1823010F08DE0D7
:1007F000CDC1412C512C3201F80186AD97AD811548
:100800009240A9F7F801E75BFF4F80809180811447
:10081000910419F0A12CB12C07C0C801895A9F4F2F
:100820000E94D8014B015C01D8015B968D929D928C
:10083000AD92BC925E97F801ED5BFF4FB081B98B32
:10084000F801B2838B2F8150823088F6E05CFF4F35
:1008500030813A8F832F90E0D8011A969C938E9323
:100860001997009721F29C0121503109822393238B
:10087000892B09F0BCCF349620803180F801308676
:100880002782C1018F709927892B09F0B0CFEA5BCD
:10089000FF4F808191816C01E12CF12C892B39F47F
:1008A000C8018D5A9F4F0E94D8016B017C01F8014D
:1008B000EF5BFF4F0190F081E02D309709F497CF67
:1008C0002989A22FB0E0A50194010E94F52D6E8B1D
:1008D0007F8B888F998FCF01A0E0B0E08B8F9C8FAA
:1008E000AD8FBE8FC10154E0969587955A95E1F77B
:1008F0002B8D3C8D4D8D5E8D280F391F411D511D57
:10090000DA01C9012E893F89488D598D280F391F79
:100910004A1F5B1F2A8B3B8B4C8B5D8BC216D30609
:10092000E406F50608F463CFC701B601621B730B3A
:10093000840B950BAA8D2A2F30E040E050E00E94F6
:10094000D32DDA01C9010197A109B109853F9F4F54
:10095000AF4FBF4008F04BCF263FFFEF3F074105A9
:10096000510548F4263F6FE036074105510530F444
:1009700081E0898B05C093E0998B02C0A2E0A98B2E
:1009800069017A01B2E0CB0ED11CE11CF11CF80127
:10099000C78AD08EE18EF28E478E50A261A272A2DB
:1009A0008B8D9C8DAD8DBE8D840D951DA61DB71DA7
:1009B00083A394A3A5A3B6A34A895B896C897D8987
:1009C000440D551D661D771D43A754A765A776A73F
:1009D000F989F330F9F4F801E35AFF4F80819181EE
:1009E000892B09F004CF232809F001CFC801815ACF
:1009F0009F4F0E94D801D80197966D937D938D9358
:100A00009C939A9742E0CC0CDD1CEE1CFF1C4A958F
:100A1000D1F72DC0232809F4EACE2E893F89488DCD
:100A2000598D820F931FA41FB51FF80187A390A7AC
:100A3000A1A7B2A7F989F23029F4CC0CDD1CEE1C79
:100A4000FF1C15C0A3E0B0E0A70196010E94F52DA0
:100A5000DC01CB01B695A7959795879521E0C22239
:100A6000DD24EE24FF24C80ED91EEA1EFB1E3FEF34
:100A7000C30E31E0D31EE11CF11C89E0F694E7942B
:100A8000D794C7948A95D1F78C149D04AE04BF0403
:100A900008F4ADCE8FEF9FEFDC01F8018787908BD4
:100AA000A18BB28B83879487A587B68780E88483E0
:100AB000F989F33009F047C0F801ED59FF4F808103
:100AC0009181019709F03FC0B301A2014F5F5F4FD1
:100AD0006F4F7F4FC8010E94D402811134C0D801EA
:100AE00014961C92F801EF5CFD4F80819181853551
:100AF0009A4A49F5C801C3960E94D80162357245E9
:100B00008146914401F5C801895E9D4F0E94D8013C
:100B10006237724781449146B1F4C801855E9D4FAA
:100B20000E94D801D8011F966D937D938D939C935D
:100B30005297C801815E9D4F0E94D801F8016387DA
:100B4000748785879687E989D801EC938091340270
:100B50009091350201969093350280933402169657
:100B60009C938E93159753961D921D921D921C92E5
:100B7000569704C08BE00AC08CE008C080E006C035
:100B800083E004C0843009F032CE81E06E960FB667
:100B9000F894DEBF0FBECDBFDF91CF911F910F91B3
:100BA000FF90EF90DF90CF90BF90AF909F908F908D
:100BB0007F906F905F904F903F902F900895AF92ED
:100BC000BF92CF92DF92EF92FF920F931F93CF933A
:100BD000DF93423051056105710508F4A1C0FC01A5
:100BE0000789108D218D328D4017510762077307D9
:100BF00008F096C06A017B018C018081823009F483
:100C00004DC0833009F469C0813009F089C0EA0120
:100C1000D695C795CC0DDD1DCE01892F99278695D8
:100C200043A154A165A176A1480F591F611D711DF3
:100C3000CF010E94D402882321F06FEF7FEFCB0118
:100C400073C05E01FFEFAF1ABF0AD170C00FD11F92
:100C5000CBA9C501892F99278695F80143A154A1F5
:100C600065A176A1480F591F611D711DC8010E9421
:100C7000D4028111E2CFF1E0BF22F801EA0DFB1DA1
:100C800083A96C2F70E0782BC0FE06C054E07695E7
:100C900067955A95E1F71EC07F701CC077276F2DAE
:100CA0005E2D4D2D83A194A1A5A1B6A1480F591F7A
:100CB0006A1F7B1FCF010E94D4028111BECFCC0CD2
:100CC000DD1CE894C0F8F1E0DF22F801EC0DFD1D19
:100CD00063A974A980E090E027C083A194A1A5A195
:100CE000B6A127E076956795579547952A95D1F750
:100CF000480F591F6A1F7B1FCF010E94D402811128
:100D00009CCF0D5C1F4FCC0CDD1CCC0CDD1CC60138
:100D10008C7F9170800F911F0E94D8019F7004C03A
:100D200061E070E080E090E0DF91CF911F910F9142
:100D3000FF90EF90DF90CF90BF90AF900895CF924B
:100D4000DF92EF92FF920F931F93CF93DF938C016B
:100D5000FC01C081D18116861786108A118AC6804F
:100D6000D780E084F184C114D104E104F104E9F4F2
:100D70008881833040F08FA198A5A9A5BAA50097D6
:100D8000A105B10581F48F819885892B11F482E04A
:100D90004CC08FA198A5A9A5BAA5F801868B978B01
:100DA000A08FB18F2EC06C017D0189859A85892B1A
:100DB000F1F4B701A601F801808191810E94DF055D
:100DC0006B017C016F3F7F4F8F4F9F4F69F182E036
:100DD000C816D104E104F104D0F28F89988DA98D51
:100DE000BA8DC816D906EA06FB0618F3D0CFB701AC
:100DF000A601CE010E94FC01F801668B778B808FE3
:100E0000918FF801C28AD38AE48AF58A8689978904
:100E1000A08DB18D892B8A2B8B2B09F4B8CFE3964B
:100E2000D38FC28F80E001C081E0DF91CF911F910D
:100E30000F91FF90EF90DF90CF9008953F924F92E7
:100E40005F926F927F928F929F92AF92BF92CF925A
:100E5000DF92EF92FF920F931F93CF93DF9300D017
:100E600000D000D0CDB7DEB79E838D836A017B01B1
:100E700048015901FC018081823009F471C083303E
:100E800009F490C0813009F0CAC08A01169507950F
:100E9000040F151FC801892F9927869543A154A1D6
:100EA00065A176A1480F591F611D711DCF010E94D8
:100EB000D402382E8111B5C02D813E812D5C3F4F6B
:100EC0003A832983C80101969C838B831170F901B1
:100ED000E00FF11F2601370191E0492255246624D5
:100EE0007724C0FE09C08081282F2F7030E1839EB7
:100EF000C0011124822B01C0882D808381E0ED8107
:100F0000FE81838343A154A165A176A18B819C813D
:100F1000892F99278695480F591F611D711DCF0193
:100F20000E94D402382E81117CC0EB81FC81F170CB
:100F300029813A81E20FF31F45284628472841F0CE
:100F400064E0B694A794979487946A95D1F706C005
:100F50009081907F892D8F70892E882A80825AC037
:100F600077276F2D5E2D4D2DED81FE8183A194A1FC
:100F7000A5A1B6A1480F591F6A1F7B1FCF010E9470
:100F8000D402382E81114DC0ED81FE81F396CC0C38
:100F9000DD1CE894C0F821E0D222EC0DFD1D80821A
:100FA000918238C0ED81FE8183A194A1A5A1B6A153
:100FB00037E076956795579547953A95D1F7480F5D
:100FC000591F6A1F7B1FCF010E94D402382E811146
:100FD00028C0FFE0BF228D819E81C396CC0CDD1C12
:100FE000CC0CDD1C2CEFC22221E0D222C80ED91E6F
:100FF000C6010E94D801DC01CB0188279927AA27C6
:10100000B07F882A992AAA2ABB2AF6018082918277
:10101000A282B38281E0ED81FE81838302C082E0FF
:10102000382E832D26960FB6F894DEBF0FBECDBFA7
:10103000DF91CF911F910F91FF90EF90DF90CF90B4
:10104000BF90AF909F908F907F906F905F904F90E8
:101050003F9008954F925F926F927F928F929F92EE
:10106000AF92BF92CF92DF92EF92FF920F931F93B6
:10107000CF93DF938C012A013B01FC01C081D18118
:10108000411551056105710599F48B849C84AD84EB
:10109000BE8481149104A104B10459F18F89988D03
:1010A000A98DBA8D88169906AA06BB0630F121C013
:1010B000CE010E94DF05623071058105910508F4BB
:1010C0000EC16F3FFFEF7F078F079F0729F44FEF98
:1010D0003FEF2FEF9FEF0BC1CF88D88CE98CFA8CB4
:1010E0006C157D058E059F0508F4FEC05301420175
:1010F00004C0812C912C540183948F859889A989EF
:10110000BA89892B8A2B8B2B11F440E0E9C0841417
:101110009504A604B70409F047C0750164012FEFD8
:10112000C21AD20AE20AF20A8F89988DA98DBA8D65
:10113000C816D906EA06FB0628F092E0C92ED12C83
:10114000E12CF12CB701A601F801808191810E9468
:10115000DF05613071058105910509F4C0C06F3F5D
:10116000FFEF7F078F079F0709F4B1CF672B682B2D
:10117000692BA9F08B859C85AD85BE858230910554
:10118000A105B10588F04F89588D698D7A8D841736
:101190009507A607B70740F44C015D0105C0C114CF
:1011A000D104E104F104D1F5750164012FEFC21AF5
:1011B000D20AE20AF20A8F89988DA98DBA8DC816D3
:1011C000D906EA06FB0660F082E088169104A104C5
:1011D000B10408F49ACF82E0C82ED12CE12CF12C76
:1011E000B701A601F801808191810E94DF05611598
:1011F00071058105910591F06130710581059105B9
:1012000009F46DC06F3F7F4F8F4F9F4F09F45FCF41
:10121000C814D904EA04FB0449F677CF22E0C216C9
:10122000D104E104F10408F45AC08F89988DA98D86
:10123000BA8DC816D906EA06FB0608F050C00FEFB3
:101240001FEF9801B701A601CE010E941E07811170
:1012500043C04114510461047104E9F4CB86DC8677
:10126000ED86FE868F859889A989BA894F89588D20
:10127000698D7A8D425051096109710948175907E2
:101280006A077B0708F10197A109B1098F87988B3D
:10129000A98BBA8B19C082E048165104610471040D
:1012A000F0F08F89988DA98DBA8D481659066A0677
:1012B0007B06A8F497018601B301A201CE010E942A
:1012C0001E07882359F208C08C8181608C834C2DC5
:1012D0003D2D2E2D9F2D0BC0813009F4F8CE41E01D
:1012E00030E020E090E003C0462F372F282F642FF6
:1012F000732F822FDF91CF911F910F91FF90EF906D
:10130000DF90CF90BF90AF909F908F907F906F9025
:101310005F904F9008952F923F924F925F926F92FD
:101320007F928F929F92AF92BF92CF92DF92EF9275
:10133000FF920F931F93CF93DF9300D000D000D084
:10134000CDB7DEB73B01FC0146895789608D718DB1
:10135000411551056105710509F415C1C684D7848D
:10136000E088F188F0E2CF0ED11CE11CF11CC11421
:10137000D10420E2E206F10408F005C11C01FC01E1
:101380000190F081E02DFE83ED83D701C6019170BD
:10139000AA27BB27892B8A2B8B2B09F0E4C04F5F30
:1013A0005F4F6F4F7F4FF101468B578B608F718F6F
:1013B0004289538964897589ED81FE814115510502
:1013C00061057105C9F487819085A0E0B0E0B7019F
:1013D000A60135E076956795579547953A95D1F7EB
:1013E000481759076A077B0708F4BDC0F101168A40
:1013F000178A108E118EC7C0818592850197A0E053
:10140000B0E04601570129E0B694A79497948794D9
:101410002A95D1F788219921AA21BB21892B8A2BD2
:101420008B2B09F0A0C0CF010E94DF054B015C01AE
:10143000623071058105910510F482E0A7C06F3F0D
:101440007F4F8F4F9F4F11F481E0A0C0ED81FE814F
:101450008789908DA18DB28D88169906AA06BB0644
:1014600008F471C0672811F2F10142895389648937
:101470007589C1010E942A084B015C016115710543
:101480008105910509F481C06130710581059105DF
:10149000A1F26F3F7F4F8F4F9F4FB1F2ED81FE81E1
:1014A0008381811116C0B501A4018D819E810E94A6
:1014B000FC012B013C01ED81FE8167A770AB81AB84
:1014C00092ABF396FC83EB838D819E818D5C9D4F67
:1014D00007C08D819E810E9483028111B5CFE3CF29
:1014E0001192E817F907E1F71A821982ED81FE815E
:1014F0008185928529813A812817390750F0ED813D
:10150000FE818185928529813A8128173907D9F092
:101510009BCF01E010E0A301920189819A81280FFD
:10152000391F411D511D6B817C81ED81FE818181BF
:101530000E94CD178111E3CF29813A812F5F3F4F60
:101540003A832983D3CFF101828A938AA48AB58A08
:10155000B501A4018D819E810E94FC01F101668B81
:10156000778B808F918FF101C686D786E08AF18ACA
:101570008D819E81C39696013170280F391F338F5C
:10158000228F80E003C084E001C087E026960FB67A
:10159000F894DEBF0FBECDBFDF91CF911F910F91A9
:1015A000FF90EF90DF90CF90BF90AF909F908F9083
:1015B0007F906F905F904F903F902F9008953F9253
:1015C0004F925F926F927F928F929F92AF92BF9253
:1015D000CF92DF92EF92FF920F931F93CF93DF93FF
:1015E000EC018B01C880D980DB018C918F3211F026
:1015F0008C3511F498010AC0F60183899489A58974
:10160000B6898E839F83A887B9870DC08901D901C8
:101610008C912F5F3F4F8F32C9F38C35B9F31E8207
:101620001F8218861986F8018081803288F07E0139
:10163000FCE1EF0EF11C3E0187E2680E711C30E206
:10164000332E45E0542E460193E3890E911C50C081
:1016500080E88FA3CE01DF91CF911F910F91FF9072
:10166000EF90DF90CF90BF90AF909F908F907F9042
:101670006F905F904F903F900C949F06D80180E050
:1016800090E001962D912E3209F444C02F3209F0DA
:1016900047C0080F191F213208F049C084E28FA308
:1016A000A880B980CE010E949F06482E81110BC0F0
:1016B0004E895F89688D798DC5010E94D402482EBC
:1016C000882309F4ADC08FA14110C7C082FDE0C0DE
:1016D0008C8184FFD2C06E857F857170680D791D05
:1016E000F60180810E946E026E837F8388879987CE
:1016F000F701D7013D92A615B705E1F7D8018C9106
:101700008E3209F4BBCF80E090E060E070E048E00A
:1017100050E03DC08330910509F47FC02193B1CFE3
:101720002C3509F4B6CF213208F4B3CF76C080E26D
:10173000B6CFBF32B1F1BC35A1F1BE3209F4A0C0C1
:101740008417950708F069C0B13808F44FC0B03A63
:10175000A8F56E5F7F4FF801E20FF31FA081A03460
:1017600008F45BC0AF37E8F59A01215031098217C0
:10177000930708F052C0F701E80FF91FB083FC018E
:101780003196EE0DFF1D0296A0839B01B9019B01CE
:101790002F5F3F4FF801E60FF71FB081B13248F6D7
:1017A00012C0F801E20FF31F02C04C3561F49F0133
:1017B000201B310B41914F32C1F7F9CFE0E2EB0F23
:1017C000ED3138F213C0892B41F18C8D853E09F43F
:1017D0005C8EB13210F484E001C080E0020F131F70
:1017E0005ECFAF37D1F0AD3FC0F4BECFAB2EB12C42
:1017F000ECE3F1E06191662329F070E0A616B706EC
:10180000C9F70BC06FE96B0F6A3108F4B052F701EA
:10181000E80FF91FB0830196B9CF86E0482E38C093
:10182000EA8DFB8D80818823A9F083858F738C835B
:10183000838583FD09C04BE050E0B701CF010E94D2
:10184000ED01892B09F43FCF60E070E0CE010E94EA
:101850008B092BCF24E0422E36CFB4E04B1218C0B8
:10186000982F947085FF07C0992309F441CF80E831
:101870008FA3412C0DC091110BC095E0492E08C0DB
:101880004B30510551F288E090E04BE050E07ECFC4
:10189000842DDF91CF911F910F91FF90EF90DF90FA
:1018A000CF90BF90AF909F908F907F906F905F9000
:1018B0004F903F9008951F93CF93DF9300D000D0B7
:1018C00000D0CDB7DEB79C838B837E836D83142FCE
:1018D0007A836983CE0101960E94240297FD20C07D
:1018E000880F991FFC01EA5CFD4F0190F081E02D0B
:1018F000309709F01082EB81FC81309709F010825B
:10190000DC01AA5CBD4FED93FC93112359F040E03C
:10191000BE016D5F7F4FCE0105960E94540303C048
:101920008BE001C080E026960FB6F894DEBF0FBEB4
:10193000CDBFDF91CF911F9108952F923F924F928B
:101940005F926F927F928F929F92AF92BF92CF924F
:10195000DF92EF92FF920F931F93CF93DF93CDB758
:10196000DEB7E4970FB6F894DEBF0FBECDBF7CA7FD
:101970006BA7009709F4FEC1142F1C01242F2F73AD
:101980002DA7422FBE01675D7F4FCE018B960E942F
:1019900054038EA7811114C289A59AA59A838983BD
:1019A0006BA57CA5CE0101960E94DF0A811103C0C0
:1019B00098A597FD86E0912F9C7109F40AC18823B0
:1019C00009F44AC0843009F041C0E980FA80CE01B0
:1019D00001960E949F068111FAC14F89588D698D29
:1019E0007A8DC7010E94D4028111F1C1EB8DFC8D6B
:1019F0008081853E79F44F89588D698D7A8DC70134
:101A00000E94D402811122C0EB8DFC8D9F01205ECB
:101A10003F4F09C0882379F361E070E0CE01019661
:101A20000E948B09D8CF1192E217F307E1F7DE018C
:101A30005D96EB8DFC8D9F01255F3F4F9D919193AE
:101A40002E173F07D9F791E0F7019383FDA5F860C2
:101A5000FDA7882339F0B0C18D81817109F0ABC138
:101A600012FD8AC12DA523FFC3C06B8D7C8DE9A516
:101A7000FAA580810E946E026B017C010E94DB1737
:101A8000EB8DFC8D66877787808B918BEB8DFC8D42
:101A900080E28387EB8DFC8DA9A5BAA5128E138EEB
:101AA0008C91833011F4148A158AEB8DFC8D148E81
:101AB000158E168E178E81E013968C931397C11492
:101AC000D104E104F10409F490C032E0C316D1045A
:101AD000E104F10408F469C149815A8158AB4FA768
:101AE000FA014789508D618D728DC416D506E606C0
:101AF000F70608F05AC19F962D913D914D915C914A
:101B0000D29729AB3AAB4BAB5CAB46015701B50161
:101B1000A40189819A810E94DF052B013C01611596
:101B200071058105910509F429C1613071058105AF
:101B3000910509F43AC16F3F7F4F8F4F9F4F09F4D2
:101B400036C152E085169104A104B10408F42DC1F8
:101B5000EFA5F8A98789908DA18DB28D8816990679
:101B6000AA06BB0608F021C100E010E09801B5010B
:101B7000A401CF010E941E0781111EC1EFA5F8A983
:101B800087859089A189B2894789508D618D728D31
:101B90004A015B01F2E08F1A9108A108B10888158B
:101BA0009905AA05BB0560F40196A11DB11DEFA51D
:101BB000F8A98787908BA18BB28B84818160848305
:101BC00053014201441655066606770608F49FCF76
:101BD000D5C08111F1C08D8184FDEBC011FF02C021
:101BE00080FDE9C0FDA5F3FF03C02DA520642DA74E
:101BF000E9A4FAA4F70187A590A9A1A9B2A9F101C6
:101C0000848F958FA68FB78FCB8CDC8CD1A2C0A28E
:101C1000B601F70180810E946E02F101668377832D
:101C200080879187C6014C960E94D801F101628796
:101C3000738784879587F182E082F7018581968199
:101C4000F101938382832DA526871786108E118E2E
:101C5000128E138E108A118A128A138A6101F2E29F
:101C6000CF0ED11CF601C1018E5D9D4F1192E81778
:101C7000F907E1F72DA525FFA8C0F101828493841F
:101C8000A484B58481149104A104B10409F49DC015
:101C9000808A918AA28AB38AF70141845284612C96
:101CA000712C59E0440C551C661C771C5A95D1F7D1
:101CB000F1014681578160857185481459046A0491
:101CC0007B04D8F4F101808191810E94DF05AB0192
:101CD000BC0184189508A608B70842305105610573
:101CE000710548F04F3FFFEF5F076F077F0729F748
:101CF00021E02EA702C0F2E0FEA7F101448B558B34
:101D0000668B778BFEA5F1115BC0D501C401917084
:101D1000AA27BB27892B8A2B8B2B09F456C0E9A451
:101D2000FAA4C7010E94FC016115710581059105A6
:101D300009F444C09501840149E03695279517952B
:101D400007954A95D1F7A9019801260F371F481F1B
:101D5000591FF101208F318F428F538F01E010E026
:101D6000B601F70181810E94C317882371F141E018
:101D70004EA726C089E030C088E01EC049A95AA9F4
:101D80006BA97CA989A59AA50E94D402E9A5FAA508
:101D900021E0C21AD108E108F108C386D486E5869D
:101DA000F686882309F41ECF07C082E005C081E0D3
:101DB00003C084E001C087E08EA702C032E03EA7E6
:101DC000F101118210828EA507C080E005C0843029
:101DD00009F03CCE87E03ACEE4960FB6F894DEBF29
:101DE0000FBECDBFDF91CF911F910F91FF90EF906C
:101DF000DF90CF90BF90AF909F908F907F906F902B
:101E00005F904F903F902F9008952F923F924F9266
:101E10005F926F927F928F929F92AF92BF92CF927A
:101E2000DF92EF92FF920F931F93CF93DF93CDB783
:101E3000DEB728970FB6F894DEBF0FBECDBF7C018A
:101E40003B015A013E832D83D9011D921C92BE0194
:101E50006F5F7F4F0E944402811167C1F701878540
:101E6000811163C1868581FF5FC180899189A289C3
:101E7000B389AC01BD014A0D5B1D611D711D481781
:101E800059076A077B0718F45C01A094B094C70156
:101E9000829698878F83A114B10409F446C0F70194
:101EA00080899189A289B389AC01BD0151706627EF
:101EB0007727452B462B472B09F0E7C0E981FA81AC
:101EC00081849284F1E08F1A9108AC01BD0129E070
:101ED00076956795579547952A95D1F7842295224F
:101EE0008114910409F04FC0892B8A2B8B2B81F42C
:101EF000D70116966D917D918D919C9119976115E1
:101F0000710581059105D1F440E050E0BA0105C0AA
:101F1000F7014489558966897789C7010E942A0893
:101F2000611571058105910549F4D7011E968C91C3
:101F30001E9780641E968C9380E0F7C06130710517
:101F40008105910521F482E0F7018787EEC06F3F9C
:101F5000FFEF7F078F079F0729F481E0D7011F96C6
:101F60008C93E3C0F701648B758B868B978B06810E
:101F7000178120853185012B022B032B21F46683E9
:101F8000778380879187F701868587FF16C0208D2C
:101F9000318D428D538DE981FA8101E010E06F812E
:101FA000788581810E94CD178111D7CFD7011E96E8
:101FB0008C911E978F771E968C93E981FA81FC8312
:101FC000EB83D70154964D915D916D917C9157971C
:101FD000CF010E94FC01611571058105910509F48D
:101FE000B2CF1B012C01280C391C411C511C65016E
:101FF000CD2CDD24C694C114D104E9F0EB81FC8121
:102000008185928594012C0D3D1D8217930718F44C
:102010006C01C818D9088601A2019101B301AB81F6
:10202000BC8111968C910E94CD17811196CFDC2C2A
:10203000CC24DD0C4DC0F701808D918DA28DB38D28
:10204000281639064A065B06D9F04089518962890B
:10205000738982859385A485B585481759076A07D2
:102060007B0770F401E010E0A20191016F81788597
:10207000AB81BC8111968C910E94C31781116DCFE9
:10208000F701208E318E428E538ED7015096ED91FE
:10209000FC915197F17080E092E08E1B9F0B6501DF
:1020A0008A159B0508F46C01D3018F819885E80F90
:1020B000F91FCF018C0D9D1D2D9121938E179F0728
:1020C000D9F7D7011E968C911E9780681E968C9327
:1020D000AC18BD08ED81FE81808191818C0D9D1D24
:1020E000918380836C0C7D1CF70180899189A28982
:1020F000B3898C0D9D1DA11DB11D808B918BA28B71
:10210000B38B4285538564857585481759076A07DF
:102110007B0710F4AC01BD01D7011A964D935D9376
:102120006D937C931D97B7CE87E028960FB6F894F1
:10213000DEBF0FBECDBFDF91CF911F910F91FF90FA
:10214000EF90DF90CF90BF90AF909F908F907F9057
:102150006F905F904F903F902F900895EF92FF9275
:102160000F931F93CF93DF9300D0CDB7DEB7FC0161
:102170002281338137FD2EC08C017901FFEFEF1AE8
:10218000FF0AFC01E20FF31F66838DE3E816F104FA
:10219000CCF09E012F5F3F4FA701B8016A5F7F4FD0
:1021A000F801808191810E94050F81E090E02981F2
:1021B0003A812E153F0511F480E090E0EE24FF24D3
:1021C000E81AF90AF801F382E28284819581019686
:1021D000958384830F900F90DF91CF911F910F9182
:1021E000FF90EF9008950F931F93CF93DF9300D04C
:1021F000CDB7DEB7FC014281538157FF03C08FEF9B
:102200009FEF18C08C01BC016A5F7F4F9E012F5F5A
:102210003F4FFC01808191810E94050F8111EFCF1A
:10222000F8012281338189819A812817390739F78A
:10223000848195810F900F90DF91CF911F910F9125
:102240000895CF92DF92EF92FF920F931F93CF9357
:10225000DF9300D0CDB7DEB76C01BE016F5F7F4F5B
:102260000E9444028111E7C0D6011E968C911E97F0
:1022700086FFDEC087FF16C058962D913D914D9187
:102280005C915B97E981FA8101E010E0B6016E5D37
:102290007F4F81810E94CD178111CCC0F6018685C8
:1022A0008F7786870E94DB178B017C01D6015C96B5
:1022B0004D915D916D917C915F9789819A810E948A
:1022C000D4028111B8C0D6019096ED91FC919197FE
:1022D00083858062838716964D915D916D917C9187
:1022E00019972D913C91428F538FD9012C91233016
:1022F00029F4CB01AA27BB27848B958BD6011A968C
:102300003C911A971B962C911B971C969C911C979D
:102310001D968C91348F258F968F878F068B178B08
:10232000E08EF18E128A138AE980FA8081E0F7014B
:102330008383C7010E948302982F811173C0D70144
:102340008C91833009F062C014968C91813009F031
:102350005DC0B7016D5C7F4FFB01C7018D5C9D4F78
:1023600011928E179F07E1F785E5F701EF5CFD4FAE
:1023700080838AEA3196808382E5F70183AB84AB60
:1023800081E685AB91E496AB22E7E95EFD4F2083C1
:10239000319620833196908331968083D7011F96A2
:1023A0003C911F9750962C91509751969C91519724
:1023B00052968C913196308331962083319690835A
:1023C00031968083F7013385248595858685E15E86
:1023D000FD4F3083319620833196908331968083F0
:1023E000F701878D90A1A1A1B2A19C01AD012F5F42
:1023F0003F4F4F4F5F4F27A730AB41AB52AB01E090
:1024000010E081810E94CD17F701148240E050E076
:1024100060E0D70111968C910E94D71791E081114D
:1024200001C090E0F60186858F7B8687892F03C0E7
:1024300080E001C081E00F900F90DF91CF911F915C
:102440000F91FF90EF90DF90CF9008950F931F931F
:10245000CF93DF9300D0CDB7DEB78C010E9421115E
:1024600081110BC0BE016F5F7F4FC8010E94440203
:10247000811103C0F801118210820F900F90DF913B
:10248000CF911F910F910895CF93DF93CDB7DEB712
:10249000C654D1090FB6F894DEBF0FBECDBF7A8304
:1024A00069831C821B821E821D82682FCE010196C9
:1024B0000E94AE10CE0101960E94F310CA5BDF4F5E
:1024C0000FB6F894DEBF0FBECDBFDF91CF91089558
:1024D0001CBC8091000181608093000108958EBD35
:1024E0000DB407FEFDCF8EB508956AE070E00E943E
:1024F000BF2D609339028FEF0E946F12282F8F3FFC
:1025000021F0809139028111F6CF81E090E02F3FD8
:1025100011F080E090E008955B9A8FEF0C946F12B9
:10252000CF93DF935B988FEF0E946F1284EF91E05F
:102530000E947512EC01892B19F40E948C1202C0C2
:10254000C1E0D0E0CE01DF91CF910895FF920F93CB
:102550001F93CF93DF93C82FD42F152F062FF72E5D
:1025600087FF09C040E050E0BA0187E30E94A6124D
:102570008230A8F5CF77CC3099F48C2F80640E94FC
:102580006F128F2D0E946F12802F0E946F12812F69
:102590000E946F128D2F0E946F12CC23F1F008C0A1
:1025A0000E948C120E949012892B39F78FEF17C06E
:1025B000C83011F487E801C081E00E946F12CC306E
:1025C00019F48FEF0E946F12CAE08FEF0E946F1212
:1025D00087FF05C0C150C9F702C085E9F3CFDF917D
:1025E000CF911F910F91FF9008950F931F93CF9359
:1025F000DF938C01EB0184E180933A028FEF0E941C
:102600006F128F3F29F480913A028111F7CF1DC0DC
:102610008E3FD9F4F8018FEF8EBD0DB407FEFDCFCC
:102620009EB590838EBD0DB407FEFDCF9EB5918300
:1026300022973296209781F78FEF0E946F128FEFCB
:102640000E946F1281E090E002C080E090E0DF9194
:10265000CF911F910F9108959C013E5FFC01408135
:102660004EBD0DB407FEFDCFFC0141814EBD0DB442
:1026700007FEFDCF02968217930781F78FEF0E9426
:102680006F128FEF0E946F128FEF0E946F12282F30
:102690002F7181E090E0253011F080E090E0089506
:1026A000CF92DF92EF92FF920F931F93CF93DF931E
:1026B00000D000D0CDB7DEB70E9468128AE08093C8
:1026C0003A0280913A028111FCCF8091000181FD94
:1026D000AAC082E080933A0280913A028111FCCF35
:1026E00084B18C6284B985B1806385B91DBC82E5F3
:1026F0008CBD1AE08FEF0E946F121150D9F740E0A5
:1027000050E0BA0180E00E94A612813009F078C042
:1027100084E680933A024AEA51E060E070E088E0A3
:102720000E94A612813009F043C08E010F5F1F4F37
:102730006E0185E0C80ED11C78018FEF0E946F12E8
:10274000F70181937F01CE16DF06B9F78B818130C7
:1027500009F056C08C818A3A09F052C080913A0241
:10276000811106C080913A02882309F449C00AC049
:1027700040E050E060E070E489EA0E94A612811116
:10278000EDCFF0CF40E050E0BA018AE30E94A612FC
:10279000811136C08FEF0E946F12F80181938F0173
:1027A000CE16DF06B9F7898186FD2CC014E02BC058
:1027B00040E050E0BA0189EA0E94A612823018F087
:1027C00011E001E002C012E009EA80913A028111B1
:1027D00005C080913A02882399F009C040E050E09A
:1027E000BA01802F0E94A6128111EFCFF2CF40E0F4
:1027F00052E060E070E080E10E94A612882319F0A8
:1028000010E001C01CE0109338020E948C121123CA
:1028100041F0809100018E7F8093000180E58CBDA6
:1028200002C00E946812809100010F900F900F90DB
:102830000F90DF91CF911F910F91FF90EF90DF905C
:10284000CF900895EF92FF921F93CF93DF937C0177
:10285000E9012097A1F18091000180FD32C08091B3
:10286000380283FD07C089E0440F551F661F771F9C
:102870008A95D1F7C230D10510F411E101C012E1FF
:10288000812F0E94A612811113C060E072E0C7017F
:102890000E94F512892B21F08EEFF81A2197A9F7E3
:1028A000123131F440E050E0BA018CE00E94A612EF
:1028B0000E948C1281E0CD2B29F480E003C084E0DB
:1028C00001C083E0DF91CF911F91FF90EF900895B9
:1028D000CF92DF92EF92FF920F931F93CF93DF93EC
:1028E0008C016A017B01E901209709F464C08091A1
:1028F000000180FD62C08091000182FD60C0809176
:10290000380283FD07C099E0CC0CDD1CEE1CFF1CD7
:102910009A95D1F7C130D105F1F4B701A60188E14C
:102920000E94A612882319F0C1E0D0E03DC084EFD8
:1029300091E00E947512892BB9F38EEF0E946F12FD
:10294000C8010E942C1331E020E0892B09F030E00F
:10295000C32FD22F29C0867031F0AE0160E070E045
:1029600087E90E94A612B701A60189E10E94A6127A
:1029700081111AC084EF91E00E947512892B59F0E1
:102980008CEF0E946F12C8010E942C13892B19F042
:102990001E5F219779F784EF91E00E947512892BD1
:1029A00019F28DEF0E946F120E948C1281E0CD2BE4
:1029B00039F480E005C084E003C083E001C082E018
:1029C000DF91CF911F910F91FF90EF90DF90CF900B
:1029D0000895BF92CF92DF92EF92FF920F931F93D1
:1029E000CF93DF93CDB7DEB760970FB6F894DEBF15
:1029F0000FBECDBF9091000190FD9AC28B01833331
:102A000009F45AC198F4833009F48DC028F488235E
:102A100009F1813011F18AC2873009F488C182330B
:102A200009F445C1843009F081C2F3C0863309F44A
:102A300069C138F4843309F444C1853309F44CC1C5
:102A400075C2883309F4D9C108F47AC1893309F40D
:102A500026C26CC20E94901265C140E050E0BA01EB
:102A600089E00E94A61281115DC260E170E0CE0192
:102A700001960E94F512892B09F454C2998192950E
:102A800096959695937029854A8588859130D9F4D5
:102A900030E0322F2227240F311D8F7390E0A0E009
:102AA000B0E0DC01992788270196A11DB11D820F96
:102AB000931FA11DB11D5AE0880F991FAA1FBB1FAC
:102AC0005A95D1F729C02295269526952370F4E0D2
:102AD0008F9FC0011124820F911D01962F812370B9
:102AE00030E0322F2227330F330F820F931FA0E0E5
:102AF000B0E02E81322F3F702B85221F2227221F0C
:102B0000230F4370440F420F475004C0880F991F92
:102B1000AA1FBB1F4A95D2F7F80180839183A28335
:102B2000B38310E000C2F090380240E050E0BA01F8
:102B3000F2FE28C08DE80E94A6128111F3C18FEF2A
:102B40000E946F1260E170E0CE0101960E94F512C2
:102B5000892B09F4E7C1A0E3FA2E8FEF0E946F12D0
:102B6000FA94F110FACF2B8522952F7080E190E036
:102B7000A0E0B0E004C0880F991FAA1FBB1F2A95D0
:102B8000D2F7CACF89E00E94A6128111CBC160E1C1
:102B900070E0CE0101960E94F512892B09F4C2C1A2
:102BA0002B858C85F1FE16C02F73881F8827881F00
:102BB00090E00196820F911D820F911D2E85229526
:102BC000269526952370215002C0880F991F2A95BB
:102BD000E2F71CC0382F337082958695877090E09D
:102BE000F8E03F9F800D911D112401962C7730E075
:102BF00035952795359527952F5F3F4F829FA001EB
:102C0000839F500D929F500D1124CA01A0E0B0E0A7
:102C100083CFB09038028B2D867011F411E089C1FA
:102C2000BE016F5F7F4F83E30E94E9148111F6CFED
:102C30008981829586958695837019F48B8586FFA8
:102C4000EDCFF8014081518162817381C480D580CC
:102C5000E680F780B3FC0EC039E0440F551F661FB5
:102C6000771F3A95D1F7E9E0CC0CDD1CEE1CFF1C78
:102C7000EA95D1F780E20E94A6128111CFCFB70169
:102C8000A60181E20E94A6128111C8CF40E050E067
:102C9000BA0186E20E94A6128111C0CF80E395E7B7
:102CA0000E94751211E0892B09F443C147C080913D
:102CB0003802FB01808342C040E050E0BA0189E065
:102CC00004C040E050E0BA018AE00E94A6128111DF
:102CD00029C160E170E023C040E050E0BA018AE31E
:102CE0000E94A61281111EC17801F4E0EF0EF11CC2
:102CF0008FEF0E946F12F80181938F01EE15FF058F
:102D0000B9F70FCF40E050E0BA018DE80E94A6125B
:102D1000811108C18FEF0E946F1260E470E0C8015A
:102D20000E94F51211E0892B09F4FDC0FACE0E9431
:102D300068128091000181608093000110E0F9C069
:102D4000FB01438154816581768139E0440F551F31
:102D5000661F771F3A95D1F77068808190E0A0E0F8
:102D6000B0E02CE1880F991FAA1FBB1F2A95D1F74D
:102D7000482B592B6A2B7B2B818192810197917073
:102D8000A0E0B0E0482B592B6A2B7B2B80E30E94FC
:102D9000A6128111C7C084E680933A028FEF0E9489
:102DA0006F128F3F29F480913A028111F7CFBAC098
:102DB0008E3F09F0B7C0F801E780F084C180D2806F
:102DC000CE0CDF1CCE14DF0439F08FEF0E946F129F
:102DD000F70181937F01F6CFF8018181928102E0B2
:102DE00012E0081B190B0115110509F49ACE8FEF9B
:102DF0000E946F1201501109F6CFFB0143815481EB
:102E00006581768139E0440F551F661F771F3A951B
:102E1000D1F77068808190E0A0E0B0E02CE1880FED
:102E2000991FAA1FBB1F2A95D1F7482B592B6A2B34
:102E30007B2B8181928101979170A0E0B0E0482BBB
:102E4000592B6A2B7B2B81E30E94A61281116AC049
:102E50008FEF0E946F128EEF0E946F12F801E780D1
:102E6000F084C180D280CE0CDF1CEC14FD0431F064
:102E7000F70181917F010E946F12F7CFF8018181E4
:102E8000928102E012E0081B190B8FEF011511056A
:102E900009F441C00E946F1201501109F6CFFB01E5
:102EA000438154816581768189E0440F551F661FF7
:102EB000771F8A95D1F77468808190E0A0E0B0E038
:102EC0002CE1880F991FAA1FBB1F2A95D1F7482B09
:102ED000592B6A2B7B2B828190E0A0E0B0E0482B3D
:102EE000592B6A2B7B2B81E30E94A61281111AC0F9
:102EF0008FEF0E946F128EEF0E946F12F801818196
:102F00000E946F1201E012E08FEF0E946F120150D9
:102F10001109D1F78FEF0E946F128F7111E0853088
:102F200011F4FFCD11E00E948C1203C014E001C027
:102F300013E0812F60960FB6F894DEBF0FBECDBFB1
:102F4000DF91CF911F910F91FF90EF90DF90CF9085
:102F5000BF90089580913A02882319F081508093A0
:102F60003A0280913902882319F081508093390206
:102F700080910001897F8093000108950C94501383
:102F80008091000108950F931F93CB01BA01A9010D
:102F900098011F910F910C9422140F931F93CB0152
:102FA000BA01A90198011F910F910C946814862F02
:102FB000BA010C94E9140F931F93EEEAF5E04281F5
:102FC00050E060E070E085E1440F551F661F771FF9
:102FD0008A95D1F78381682B858190E0A0E0B0E0ED
:102FE0002BE0880F991FAA1FBB1F2A95D1F7482BEA
:102FF000592B6A2B7B2B868190E0A0E0B0E035E076
:10300000880F991FAA1FBB1F3A95D1F7842B952BC8
:10301000A62BB72B27812695AC01BD01422B8081C1
:1030200091818C5B9740A0E0B0E0E9E1880F991FA7
:10303000AA1FBB1FEA95D1F78A019B01082B192B08
:103040002A2B3B2BC901B8011F910F91089541987C
:10305000289808955D9AEFE4F3EC3197F1F700C0FA
:1030600000005D9821E030E028173907A4F4FFEF55
:1030700040E752E0F15040405040E1F700C000000E
:103080005D9AEFE4F3EC3197F1F700C000005D9832
:103090002F5F3F4FE9CF08950E940F210E943926EC
:1030A000539A559A519A579A399A509A0E942718CA
:1030B00038983A98509852985A9AF89487E880939A
:1030C0007A0084B7826084BFE89A0E94942788E8D7
:1030D0000E949B270E946A2980E197E290938900D1
:1030E00080938800109285001092840010928000D6
:1030F0008AE08093810080916F00826080936F00EE
:103100008091B60080628093B6001092B200109257
:10311000B00085E88093B100809170008160809359
:1031200070005F982FEF84E39CE021508040904036
:10313000E1F700C0000078948091B6058823C9F0BB
:1031400081E08093A905809301011092DC04109224
:10315000DD048091AA059091AB05A091AC05B091DA
:10316000AD058093030190930401A0930501B093F2
:1031700006018091A905811110C08091D2048111AE
:103180000CC041E069E571E08FE992E00E945B0CC0
:10319000811103C081E08093D2048091A905882326
:1031A00041F08091DD04811104C083B7817F866086
:1031B00002C083B7817F83BF83B7816083BF889557
:1031C00083B78E7F83BFD5CF1F920F920FB60F921A
:1031D00011242F923F924F925F926F927F928F9223
:1031E0009F92AF92BF92CF92DF92EF92FF920F9396
:1031F0001F932F933F934F935F936F937F938F937F
:103200009F93AF93BF93EF93FF93CF93DF93CDB78C
:10321000DEB76197DEBFCDBF2091C6002E3731F4F7
:1032200081E08093A7058093A80517C28091A80527
:10323000882309F412C23091A705313091F1323060
:1032400021F42D5F2093A6052CC0333041F42039A2
:1032500031F02D3A31F584E08093020122C0409193
:1032600002014317F0F46091A605832F90E050E02F
:10327000841B950BFC01EF5BFA4F361788F0108228
:103280001092A8051092A6051092A70580E090E084
:10329000FC01E252FB4F2081222349F00196F8CF36
:1032A00020838091A7058F5F8093A705D6C18336C1
:1032B000910569F000E010E027E6A22E21E0B22E91
:1032C000F801EE5BFA4F2081211104C0EACF80E0C3
:1032D00090E0F0CF0336110521F32081FC01E2528A
:1032E000FB4F208301960F5F1F4F2D3049F7FC01E4
:1032F000E252FB4F108243E050E06BE471E08EED50
:1033000094E00E94742E892B19F48FE491E09EC101
:1033100043E050E06AE571E08EED94E00E94742E87
:10332000892B09F060C01B864AE050E061EE74E032
:10333000CE0101960E94822ECE0101960E944D2E52
:103340006093AA057093AB058093AC059093AD058F
:1033500081E09091EB04943709F080E080930101C3
:1033600081E09091EC04943709F080E08093DD04D3
:1033700081E09091ED04943709F080E08093DC04C3
:1033800080910D0190910E019093DB048093DA04FB
:1033900080910B0190910C019093D9048093D804F3
:1033A0008091090190910A019093D7048093D604EB
:1033B00080910701909108019093D5048093D404E3
:1033C0000E949E268EE591E00E94282A2FEF80E73A
:1033D00092E0215080409040E1F700C0000021E0E1
:1033E0002093A90535C143E050E063E671E08EED1E
:1033F00094E00E94742E892B09F0A3C01092A905B5
:10340000FF24F3948091E104843709F0F12CF092C9
:103410001201EE24E3948091E704843709F0E12C53
:10342000E0921101DD24D3948091ED04843709F0FA
:10343000D12CD0921001CC24C3948091F304843712
:1034400009F0C12CC0920F01198A45E050E062EEEC
:1034500074E0CE010C960E94822ECE010C960E9442
:103460002F2E982E892E80930D0190930E0145E00A
:1034700050E068EE74E0CE010C960E94822ECE01E0
:103480000C960E942F2E782E692E80930B0190931C
:103490000C0145E050E06EEE74E0CE010C960E9407
:1034A000822ECE010C960E942F2E582E492E8093EC
:1034B000090190930A0145E050E064EF74E0CE0109
:1034C0000C960E94822ECE010C960E942F2E382E32
:1034D000292E80930701909308011B864AE050E053
:1034E00069EF74E0CE0101960E94822ECE01019612
:1034F0000E944D2E60930301709304018093050197
:10350000909306018091030190910401A09105011F
:10351000B0910601BF93AF939F938F932F923F92E9
:103520001F92CF924F925F921F92DF926F927F9283
:103530001F92EF928F929F921F92FF92BF92AF9233
:1035400043C043E050E068E871E08EED94E00E94F3
:10355000742E892B09F048C08091030190910401D9
:10356000A0910501B0910601BF93AF939F938F93F4
:10357000809108018F93809107018F9380910F01B3
:103580001F928F9380910A018F93809109018F93ED
:10359000809110011F928F9380910C018F938091E5
:1035A0000B018F93809111011F928F9380910E01D7
:1035B0008F9380910D018F93809112011F928F93B1
:1035C0008CE891E09F938F938BE392E09F938F938E
:1035D0000E94DE2E8BE392E00E94282A0FB6F89418
:1035E000DEBF0FBECDBF34C043E050E06DEA71E0F6
:1035F0008EED94E00E94742E892B29F41092A90577
:1036000081EB91E023C043E050E066EB71E08EED8A
:1036100094E00E94742E892B39F48EED94E00E9480
:10362000662266EB71E00CC043E050E06AEB71E0AB
:103630008EED94E00E94742E892B51F46AEB71E0B8
:103640008BE392E00E94F0248BE392E00E94282A10
:103650001092DE0480E090E033CE61960FB6F894CD
:10366000DEBF0FBECDBFDF91CF91FF91EF91BF9134
:10367000AF919F918F917F916F915F914F913F910A
:103680002F911F910F91FF90EF90DF90CF90BF90FF
:10369000AF909F908F907F906F905F904F903F90F2
:1036A0002F900F900FBE0F901F9018951F920F92A2
:1036B0000FB60F9211242F933F934F935F936F9305
:1036C0007F938F939F93AF93BF93EF93FF930E944A
:1036D000AA17FF91EF91BF91AF919F918F917F9129
:1036E0006F915F914F913F912F910F900FBE0F906F
:1036F0001F9018951F920F920FB60F9211242F92C0
:103700003F924F925F926F927F928F929F92AF9271
:10371000BF92CF92DF92EF92FF920F931F932F935E
:103720003F934F935F936F937F938F939F93AF9349
:10373000BF93EF93FF93CF93DF93CDB7DEB7CE5711
:10374000D240DEBFCDBF8091AA059091AB05A0917C
:10375000AC05B091AD050196A11DB11D8093AA05E0
:103760009093AB05A093AC05B093AD058091A905EE
:10377000882309F473C44091AA055091AB05609168
:10378000AC057091AD058091030190910401A09169
:103790000501B0910601481759076A077B0708F42D
:1037A000E8C42091D6043091D7048091090190910A
:1037B0000A01821B930B449710F4419A289A9E01A8
:1037C00028593D4FCD58DD4F39832883C357D24008
:1037D00084E0EBE2F1E0D90101900D928A95E1F7E6
:1037E00083E0F9013496DF01F82E1D92FA94E9F78F
:1037F00027503109CB58DD4F39832883C557D24034
:1038000094E0EBE2F1E0D90101900D929A95E1F795
:10381000F9013496DF01F82E1D92FA94E9F71E01A2
:1038200026EA221A2DEF320A94E0EBE2F1E0D10110
:1038300001900D929A95E1F7F1013496DF01F82E8F
:103840001D92FA94E9F74E012DEA821A2DEF920AA1
:1038500094E0EBE2F1E0D40101900D929A95E1F74A
:10386000F4013496DF01F82E1D92FA94E9F79E01D7
:10387000245B3D4FC958DD4F39832883C757D24059
:1038800094E0EBE2F1E0D90101900D929A95E1F715
:10389000F9013496DF01F82E1D92FA94E9F72750CA
:1038A0003109C758DD4F39832883C957D24094E086
:1038B000EBE2F1E0D90101900D929A95E1F7F9015F
:1038C0003496DF011D928A95E9F75E01B4ECAB1ADC
:1038D000BDEFBB0A84E0EBE2F1E0D50101900D926F
:1038E0008A95E1F7F501349685E0DF011D928A950E
:1038F000E9F78091D6049091D70401969093D7046C
:103900008093D60480911001882309F4B2C080917D
:10391000D6049091D7042091090130910A018217B1
:10392000930708F4A6C023E230E060E070E0CB012A
:10393000412C512C3201FEE4E7EC12E4F0937C00C0
:10394000AFE0B7E21197F1F700C00000E0937A0012
:1039500040917A0046FDFCCF40917800509179006B
:10396000440E551E611C711C10937C00AFE0B7E241
:103970001197F1F700C00000E0937A0040917A00BF
:1039800046FDFCCF4091780050917900640F751F7F
:10399000811D911D2150310989F60E94182B6B0160
:1039A0007C01C301B2010E94182B9B01AC01C7012D
:1039B000B6010E94A42A2DEC3CEC4CE85FE30E9487
:1039C000CD2B2B013C018E010B5B1D4F24E046E00B
:1039D0000E940F2E20911301309114014091150186
:1039E00050911601C301B2010E94A42A20E030E0E8
:1039F00040E85FE30E94322A2B013C0120E030E0E6
:103A0000A9010E949F2A87FF04C0412C512C612CE0
:103A1000712C2EEE3CE74FE952E4B201C3010E9443
:103A2000CD2B29EC36E740E451E40E94322A920182
:103A3000A3010E94CD2B2CE032E047E150E40E942C
:103A4000332A9201A3010E94CD2B8E01045B1D4FEE
:103A500024E046E00E940F2E1092D7041092D60464
:103A60008091090190910A01449728F00E9427183B
:103A700002C080E001C081E02091DA043091DB04D3
:103A80002F5F3F4F3093DB042093DA0490911201B3
:103A9000992309F49DC02091DA043091DB04409110
:103AA0000D0150910E012417350708F491C0CD5D2A
:103AB000DD4F188219821A821B82C352D2401982AA
:103AC0001A821B821C82BE016F5F7F4FCE018D5D0B
:103AD0009D4F0E94C527882309F475C0CD5DDD4F39
:103AE000288139814A815B81C352D240609127018C
:103AF000709128018091290190912A010E94CD2B7B
:103B00002091C7053091C8054091C9055091CA055B
:103B10000E94332A2B013C0120E030E048E452E4CB
:103B20000E94C82B18160CF0BCC2412C512C58E432
:103B3000652E52E4752ECD5DDD4F488259826A8232
:103B40007B82C352D24029813A814B815C81609152
:103B500023017091240180912501909126010E94FA
:103B6000CD2B2091C3053091C4054091C5055091DE
:103B7000C6050E94332A6B017C0120E030E048EC4E
:103B800052E40E94C82B18160CF09CC2C12CD12CF8
:103B900038ECE32E32E4F32EC982DA82EB82FC8227
:103BA0008E0108591D4F22E046E0C301B2010E9478
:103BB0000F2E69817A818B819C810750110922E047
:103BC00046E00E940F2E1092DB041092DA0481E08E
:103BD0002091D8043091D9042F5F3F4F3093D904FE
:103BE0002093D80490911101992309F4BCC020912D
:103BF000D8043091D90440910B0150910C01241745
:103C0000350708F4B0C023E230E060E070E0CB019B
:103C1000412C512C3201FEEEE7EC10EEF0937C00CB
:103C2000AFE0B7E21197F1F700C00000E0937A002F
:103C300040917A0046FDFCCF409178005091790088
:103C4000440E551E611C711C10937C00AFE0B7E25E
:103C50001197F1F700C00000E0937A0040917A00DC
:103C600046FDFCCF4091780050917900640F751F9C
:103C7000811D911D2150310989F60E94182BC558CC
:103C8000DD4F688379838A839B83CB57D240C301FE
:103C9000B2010E94182B9B01AC01C558DD4F688111
:103CA00079818A819B81CB57D2400E94A42A2DEC36
:103CB0003CEC4CE85FE30E94CD2B2B013C018401DE
:103CC00024E046E00E940F2E20E030E040E05FE379
:103CD000C301B2010E94322A2AE037ED43E25CE3DD
:103CE0000E94A42A20911F013091200140912101BE
:103CF000509122010E94CD2B2091BF053091C0052B
:103D00004091C1055091C2050E94332A2B013C010C
:103D100020E030E048E452E40E94C82B18168CF0F2
:103D200020E030E040E251ECC301B2010E949F2A42
:103D300087FF0DC0412C512C90E2692E91EC792E19
:103D400006C0412C512C28E4622E22E4722E8101FF
:103D500022E046E0C301B2010E940F2E1092D90466
:103D60001092D80481E02091D4043091D5042F5FC3
:103D70003F4F3093D5042093D40490910F019923A1
:103D800061F02091D4043091D50440910701509105
:103D900008012417350708F0A2C1882309F449C196
:103DA000809101018111DDC18091DD048111D9C1B2
:103DB0008091AA059091AB05A091AC05B091AD059D
:103DC00080589344AD46B843C159DD4F88839983E9
:103DD000AA83BB83CF56D240BE01605D7D4FCE012A
:103DE00081599D4F0E941101C05DDD4FB881C053C4
:103DF000D240EB2F0B2E000CFF0BCF5CDD4FA881C8
:103E0000C153D2406A2E0A2E000C7708CE5CDD4FDB
:103E10007881C253D240472E072E000C5508CD5C46
:103E2000DD4F6881C353D240062F062E000C110BC4
:103E3000CB5CDD4F8881C553D240082E000C990B16
:103E40000196CA5CDD4F28813981C653D24024597E
:103E5000384F4091DC04411103C04EEB51E002C0E9
:103E600049E551E0C658DD4FF880CA57D240FF926D
:103E7000C758DD4FF880C957D240FF929F928F926A
:103E8000BF92AF92C858DD4FF880C857D240FF921A
:103E9000C958DD4FF880C757D240FF923F922F920A
:103EA000CA58DD4FF880C657D240FF92CB58DD4F3D
:103EB000F880C557D240FF92CC58DD4FF880C457E8
:103EC000D240FF92CD58DD4FF880C357D240FF92C9
:103ED000FF93BF937F92AF935F927F931F936F93F4
:103EE0009F938F933F932F935F934F9383EC91E036
:103EF0009F938F931F9284E68F938BE392E09F931F
:103F00008F930E94AE2E8DE080939D0210929E02B0
:103F1000809101010FB6F894DEBF0FBECDBF88239C
:103F200021F08BE392E00E948C298091DD048823AC
:103F300021F08BE392E00E94E2298091DC04882347
:103F400009F477C08091D204882309F472C0C05D5F
:103F5000DD4FB880C053D240CF5CDD4FA880C15345
:103F6000D240CE5CDD4F9880C253D240CD5CDD4F55
:103F7000C880C353D240CB5CDD4FD880C553D240FC
:103F8000CA5CDD4F08811981C653D2407E013DEDE8
:103F9000E31A3DEFF30A2DE0D701E22F1D92EA95D7
:103FA000E9F70459184F8C2D0C2C000C990B9F939A
:103FB000CF928D2D0D2C000C990B01969F938F9312
:103FC0001F930F9389EF91E09F938F931F922F93ED
:103FD000FF92EF920E94AE2E1093AF050093AE05B4
:103FE000D394D092B005C092B1059092B305A0923F
:103FF000B405B092B50542E3B701CE0101960E9427
:104000009D0C0FB6F894DEBF0FBECDBF811111C05D
:104010000BE312E0D8018D918D01882331F0BE01B0
:104020006F5F7F4F0E944412F5CFCE0101960E9430
:1040300026120E9476298823E1F3EFE1FEE431970E
:10404000F1F700C000008091DD04811101C05F9A8A
:104050008091DC04882309F48CC01BC05F988FEC2E
:1040600097E00197F1F700C000008091D30481111F
:1040700007C08AE092E00E94282A86E08093D30459
:104080008091D30481508093D3048091D204811114
:1040900003C081E090E002C082E090E00E942A1814
:1040A00068C020E030E040E251ECC301B2010E9460
:1040B0009F2A87FF40CD412C512C40E2642E41ECD9
:1040C000742E39CD20E030E0A901C701B6010E946D
:1040D0009F2A87FF61CDC12CD12C76015DCD88E868
:1040E0000E94FF2820911B0130911C0140911D016D
:1040F00050911E010E94CD2B2091BB053091BC0533
:104100004091BD055091BE050E94332A2B013C0110
:104110002FEF3FE443EC57E40E94C82B18166CF0D5
:1041200020E030E0A901C301B2010E949F2A87FF6D
:104130000CC0412C512C320108C044244A948FE415
:10414000582E83EC682E87E4782E850122E048E023
:10415000C301B2010E940F2E1092D5041092D40414
:104160001FCE5F98AFECB7E01197F1F700C00000E9
:104170001FCEC258DD4F0FB6F894DEBF0FBECDBFC5
:10418000DF91CF91FF91EF91BF91AF919F918F916F
:104190007F916F915F914F913F912F911F910F915F
:1041A000FF90EF90DF90CF90BF90AF909F908F9057
:1041B0007F906F905F904F903F902F900F900FBE29
:1041C0000F901F9018951F920F920FB60F92112407
:1041D0002F933F934F935F936F937F938F939F930F
:1041E000AF93BF93EF93FF931092A9051092D2045F
:1041F0000E94271883E090E00E942A18FF91EF9117
:10420000BF91AF919F918F917F916F915F914F91EE
:104210003F912F910F900FBE0F901F901895F99915
:10422000FECF89E390E00E94C333843509F4B3C024
:10423000F999FECF40E050E060E87FE385E390E04D
:104240000E94E933F999FECF40E050E0BA0181E3E2
:1042500090E00E94E933F999FECF40E050E060E839
:104260007FE38DE290E00E94E933F999FECF40E0D0
:1042700050E0BA0189E290E00E94E933F999FECF5B
:1042800040E050E060E87FE385E290E00E94E9339F
:10429000F999FECF40E050E0BA0181E290E00E943F
:1042A000E933F999FECF40E050E060E87FE38DE12B
:1042B00090E00E94E933F999FECF40E050E0BA0166
:1042C00089E190E00E94E933F999FECF40E050E0A7
:1042D00060E87FE385E190E00E94E933F999FECF41
:1042E00040E050E0BA0181E190E00E94E933F999A1
:1042F000FECF4AE959E969EB7FE38DE090E00E9447
:10430000E933F999FECF64E58CE090E00E94D73361
:10431000F999FECF64E58BE090E00E94D733F999DC
:10432000FECF64E58AE090E00E94D733F999FECF92
:1043300064E589E090E00E94D733F999FECF6CE301
:1043400070E087E090E00E94F533F999FECF6CE3CE
:1043500070E085E090E00E94F533F999FECF6CE3C0
:1043600070E083E090E00E94F533F999FECF6CE3B2
:1043700070E081E090E00E94F533F999FECF66E4A9
:1043800080E090E00E94FB33F999FECF64E589E379
:1043900090E00E94FB33F999FECF85E390E00E9404
:1043A000CB33609327017093280180932901909368
:1043B0002A01F999FECF81E390E00E94CB3360930C
:1043C000C7057093C8058093C9059093CA05F999EC
:1043D000FECF8DE290E00E94CB3360932301709377
:1043E00024018093250190932601F999FECF89E25B
:1043F00090E00E94CB336093C3057093C405809313
:10440000C5059093C605F999FECF85E290E00E941C
:10441000CB3360931F01709320018093210190930F
:104420002201F999FECF81E290E00E94CB336093A4
:10443000BF057093C0058093C1059093C205F9999B
:10444000FECF8DE190E00E94CB3360931B0170930F
:104450001C0180931D0190931E01F999FECF89E103
:1044600090E00E94CB336093BB057093BC058093B2
:10447000BD059093BE05F999FECF85E190E00E94BD
:10448000CB336093170170931801809319019093B7
:104490001A01F999FECF81E190E00E94CB3360933D
:1044A000B7057093B8058093B9059093BA05F9994B
:1044B000FECF8DE090E00E94CB33609313017093A8
:1044C000140180931501909316010895CF92DF9205
:1044D000EF92FF920F931F93CF93DF9300D000D002
:1044E0001F92CDB7DEB78C011D82BC016D5F7F4F7F
:1044F00044E050E0CE0101960E94822ECE0101964A
:104500000E944D2E0E94182B2FE632E143E85AE319
:104510000E94CD2B6B017C012DEC3CEC4CE45FE365
:104520000E94C82B87FD1AC02AE939E949E95FE3EF
:10453000C701B6010E949F2A181684F0C092270175
:10454000D0922801E0922901F0922A01F999FECF38
:10455000B701A60185E390E00E94E93344E050E012
:10456000B801695F7F4FCE0101960E94822ECE0175
:1045700001960E944D2E0E94182B2AE037ED43E24F
:104580005CE30E94CD2B6B017C0120E030E040E435
:1045900050EC0E94C82B87FD1AC020E030E040E4B8
:1045A00050E4C701B6010E949F2A181684F0C092F9
:1045B000C705D092C805E092C905F092CA05F999DD
:1045C000FECFB701A60181E390E00E94E93344E009
:1045D00050E0B801655F7F4FCE0101960E94822EA8
:1045E000CE0101960E944D2E0E94182B2FE632E13B
:1045F00043E85AE30E94CD2B6B017C012DEC3CEC8F
:104600004CE45FE30E94C82B87FD1AC02AE939E910
:1046100049E95FE3C701B6010E949F2A181684F09A
:10462000C0922301D0922401E0922501F09226014C
:10463000F999FECFB701A6018DE290E00E94E9331F
:1046400044E050E0B801615F7F4FCE0101960E94C7
:10465000822ECE0101960E944D2E0E94182B2AE038
:1046600037ED43E25CE30E94CD2B6B017C012AE035
:1046700037ED4FE151EC0E94C82B87FD1AC02AE0AC
:1046800037ED4FE151E4C701B6010E949F2A181689
:1046900084F0C092C305D092C405E092C505F092A3
:1046A000C605F999FECFB701A60189E290E00E9404
:1046B000E93344E050E0B8016D5E7F4FCE010196D2
:1046C0000E94822ECE0101960E944D2E0E94182B30
:1046D0002FE632E143E85AE30E94CD2B6B017C01C7
:1046E0002DEC3CEC4CE45FE30E94C82B87FD1AC024
:1046F0002AE939E949E95FE3C701B6010E949F2A27
:10470000181684F0C0921F01D0922001E09221017E
:10471000F0922201F999FECFB701A60185E290E05F
:104720000E94E93344E050E0B801695E7F4FCE015A
:1047300001960E94822ECE0101960E944D2E0E946B
:10474000182B2AE037ED43E25CE30E94CD2B6B018E
:104750007C0120E030E040E450EC0E94C82B87FD53
:104760001AC020E030E040E450E4C701B6010E94E6
:104770009F2A181684F0C092BF05D092C005E0921F
:10478000C105F092C205F999FECFB701A60181E2F9
:1047900090E00E94E93344E050E0B801655E7F4F4D
:1047A000CE0101960E94822ECE0101960E944D2ECE
:1047B0000E94182B2FE632E143E85AE30E94CD2BEA
:1047C0006B017C012DEC3CEC4CE45FE30E94C82BB8
:1047D00087FD1AC02AE939E949E95FE3C701B60153
:1047E0000E949F2A181684F0C0921B01D0921C01CF
:1047F000E0921D01F0921E01F999FECFB701A601CA
:104800008DE190E00E94E93344E050E0B801615E40
:104810007F4FCE0101960E94822ECE0101960E940A
:104820004D2E0E94182B6B017C0120E030EC49E7F3
:1048300054EC0E94C82B87FD1AC020E030EC49E7F9
:1048400054E4C701B6010E949F2A181684F0C09252
:10485000BB05D092BC05E092BD05F092BE05F9996A
:10486000FECFB701A60189E190E00E94E93344E060
:1048700050E0B8016D5D7F4FCE0101960E94822EFF
:10488000CE0101960E944D2E0E94182B2FE632E198
:1048900043E85AE30E94CD2B6B017C012DEC3CECEC
:1048A0004CE45FE30E94C82B87FD1AC02AE939E96E
:1048B00049E95FE3C701B6010E949F2A181684F0F8
:1048C000C0921701D0921801E0921901F0921A01DA
:1048D000F999FECFB701A60185E190E00E94E93386
:1048E00044E050E0B801695D7F4FCE0101960E941F
:1048F000822ECE0101960E944D2E0E94182B2FE68B
:1049000032E143E85AE30E94CD2B6B017C0120E0A9
:1049100030E040E05FEB0E94C82B87FD1AC020E02A
:1049200030E040E05FE3C701B6010E949F2A1816FD
:1049300084F0C092B705D092B805E092B905F09224
:10494000BA05F999FECFB701A60181E190E00E9476
:10495000E933B801655D7F4F44E050E0CE01019638
:104960000E94822ECE0101960E944D2E0E94182B8D
:104970002FE632E143E85AE30E94CD2B6B017C0124
:1049800023E333E343EB5FE30E94C82B87FD1AC0A8
:1049900020E030E040EC5FE3C701B6010E949F2AAF
:1049A000181684F0C0921301D0921401E092150100
:1049B000F0921601F999FECFB701A6018DE090E0C3
:1049C0000E94E9330F900F900F900F900F90DF919E
:1049D000CF911F910F91FF90EF90DF90CF900895AE
:1049E0002F923F924F925F926F927F928F929F92FF
:1049F000AF92BF92CF92DF92EF92FF920F931F93ED
:104A0000CF93DF93CDB7DEB7CC54D1090FB6F8946E
:104A1000DEBF0FBECDBF2A968FAF2A972B969FAFD2
:104A20002B972C966FAF2C972D967FAF2D972E013D
:104A300088E3480E511C60912701709128018091F4
:104A4000290190912A01820123E045E00E940F2E66
:104A50001E0192E3290E311C6091C7057091C805B3
:104A60008091C9059091CA05810122E045E00E942C
:104A70000F2ECE018C9625969FAF8EAF2597609115
:104A80002301709124018091250190912601065007
:104A9000110923E045E00E940F2ECE01869627964D
:104AA0009FAF8EAF27976091C3057091C405809129
:104AB000C5059091C6050650110922E045E00E9407
:104AC0000F2ECE01809629969FAF8EAF29976091C9
:104AD0001F017091200180912101909122010650C7
:104AE000110923E045E00E940F2E7E019AE1E90EB4
:104AF000F11C6091BF057091C0058091C105909136
:104B0000C205870122E045E00E940F2E6E0184E17C
:104B1000C80ED11C60911B0170911C0180911D0178
:104B200090911E01860123E045E00E940F2E5E0158
:104B30009EE3A90EB11C6091BB057091BC058091EC
:104B4000BD059091BE05850120E044E00E940F2E36
:104B50004E018EE0880E911C609117017091180132
:104B60008091190190911A01840123E045E00E948F
:104B70000F2E6091B7057091B8058091B90590919D
:104B8000BA050D50110923E046E00E940F2E3E01A8
:104B900098E0690E711C609113017091140180916D
:104BA000150190911601830123E045E00E940F2E2C
:104BB0007F926F9281E090E08C0F9D1F9F938F9367
:104BC0009F928F92BF92AF92DF92CF92FF92EF921D
:104BD00029969FAD29979F9328968FAD28978F93FD
:104BE00027969FAD27979F9326968FAD26978F93F5
:104BF00025969FAD25979F9324968FAD24978F93ED
:104C00003F922F925F924F922D969FAD2D979F933B
:104C10002C968FAD2C978F938FE092E09F938F937C
:104C20002B969FAD2B979F932A968FAD2A978F93A4
:104C30000E94DE2E0FB6F894DEBF0FBECDBFC45B60
:104C4000DF4F0FB6F894DEBF0FBECDBFDF91CF911F
:104C50001F910F91FF90EF90DF90CF90BF90AF909A
:104C60009F908F907F906F905F904F903F902F908C
:104C70000895F999FECF80E090E00E94C33391E05F
:104C8000843509F090E09093B605F999FECF8CE059
:104C900090E00E94C33391E0843509F090E0909356
:104CA0001201F999FECF87E090E00E94D1339093F2
:104CB0000E0180930D01F999FECF8BE090E00E94E8
:104CC000C33391E0843509F090E090931101F99994
:104CD000FECF85E090E00E94D13390930C01809349
:104CE0000B01F999FECF8AE090E00E94C33391E076
:104CF000843509F090E090931001F999FECF83E09C
:104D000090E00E94D13390930A0180930901F999B0
:104D1000FECF89E090E00E94C33391E0843509F032
:104D200090E090930F01F999FECF81E090E00E940E
:104D3000D13390930801809307010895F999FECF2C
:104D40008091B605811102C066E401C064E580E08F
:104D500090E00E94D733F999FECF80911201811122
:104D600002C066E401C064E58CE090E00E94D733A5
:104D7000F999FECF60910D0170910E0187E090E0EE
:104D80000E94F533F999FECF80911101811102C083
:104D900066E401C064E58BE090E00E94D733F999A6
:104DA000FECF60910B0170910C0185E090E00E94B4
:104DB000F533F999FECF80911001811102C066E4AC
:104DC00001C064E58AE090E00E94D733F999FECFF4
:104DD0006091090170910A0183E090E00E94F5332F
:104DE000F999FECF80910F01811102C066E401C0E4
:104DF00064E589E090E00E94D733F999FECF609195
:104E000007017091080181E090E00C94F5333D9822
:104E100085E88A95F1F7000008953D9A85E88A951E
:104E2000F1F7000008953D983C9A85E88A95F1F7DE
:104E300000000C940D273C9A85E88A95F1F7000054
:104E40003D9880E58A95F1F73C9885E88A95F1F7D9
:104E500000000895CF93DF93D82FC8E00E940D275C
:104E6000D7FF02C03C9801C03C9A85E88A95F1F7CB
:104E700000000E940727359BFECFDD0FC15071F760
:104E80000E940D273C9885E88A95F1F700003D982F
:104E9000359BFECF85E88A95F1F70000C6B10E94E8
:104EA0000D27C295C17081E08C27DF91CF910895C5
:104EB000EF92FF920F931F93CF93DF93082FC0E0E1
:104EC000D0E010E080E8E82EF12C0E940D270E942F
:104ED0000727359BFECF349B08C0C7010C2E02C0AC
:104EE000959587950A94E2F7182B2196C830D1053D
:104EF00061F70E940D27002311F03C9A01C03C98F5
:104F000085E88A95F1F700000E9407270E940D2787
:104F10003C9820E52A95F1F7812FDF91CF911F91E1
:104F20000F91FF90EF90089587B18F7C87B988B17A
:104F3000807388B90895CF93C82F0E9413278C2FB0
:104F40000E942A2781E00E942A278EEC0E942A27AD
:104F500080E00E942A270E941B278FEC97E0019790
:104F6000F1F700C000000E9413278C2F0E942A270F
:104F700080E00E942A270E941B278FEC97E0019770
:104F8000F1F700C00000CF9108958F929F92AF92E9
:104F9000BF92CF92DF92EF92FF920F931F93CF9326
:104FA000DF938C016B010E94132780E70E942A2760
:104FB0008EEB0E942A2788E00E942A2780E00E9428
:104FC0002A270E941B278FE19EE40197F1F700C07A
:104FD00000000E94132780E70E942A2785EF0E9485
:104FE0002A27EFE3FCE93197F1F700C000000E94A7
:104FF0001B270E94132780E70E942A2783EF0E9425
:105000002A278FE39CE90197F1F700C000000E9476
:105010001B270E94132780E70E942A278CEA0E9400
:105020002A2783E30E942A2780E00E942A270E94E1
:105030001B279FEFE0E7F2E09150E040F040E1F7FE
:1050400000C000000E94132781E70E942A2781E008
:105050000E94582787FF12C080E090E0A6ECB2ECD7
:10506000F60180839183A283B383F80180839183C7
:10507000A283B3830E941B2780E0B4C081E00E941A
:105080005827B82E81E00E945827E82E81E00E9420
:105090005827C82F81E00E945827F82E81E00E94EF
:1050A0005827D82F80E00E9458270E941B276B2D7D
:1050B00070E080E090E00E94182B20E030E0A90131
:1050C0000E94332A20E030E040E853E40E94CD2BD8
:1050D0004B015C016E2D70E080E090E00E94182B87
:1050E000A50194010E94332A20E030E040E851E419
:1050F0000E94CD2B4B015C016C2F70E084E0759514
:1051000067958A95E1F7072E000C880B990B0E9492
:10511000182BA50194010E94332A20E030E048ECCE
:1051200052E40E94CD2B20E030E040E85AE30E9498
:10513000CD2B20E030E040E85AE30E94CD2BF60171
:1051400060837183828393836C2F6F7070E080E043
:1051500090E00E94182B20E030E0A9010E94332A41
:1051600020E030E040E853E40E94CD2B4B015C018D
:105170006F2D70E080E090E00E94182BA501940153
:105180000E94332A20E030E040E853E40E94CD2B17
:105190006B017C016D2F70E080E090E00E94182B85
:1051A000A70196010E94332A20E030E048E453E44E
:1051B0000E94CD2B20E030E040E85AE30E94CD2B46
:1051C00020E030E040E85AE30E94CD2B20E030E0C0
:1051D00048E452E40E94322AF8016083718382839A
:1051E000938381E0DF91CF911F910F91FF90EF901A
:1051F000DF90CF90BF90AF909F908F9008958F9247
:105200009F92AF92BF92CF92DF92EF92FF92CF9395
:10521000C82F0E94132781E08C0F0E942A2785E85F
:105220008A95F1F7000081E00E945827C82F80E09E
:105230000E945827B82E0E941B276C2F62956F7012
:1052400070E080E090E00E94182B9B01AC0160E0D0
:1052500070E080E090E40E943A2C6B017C01CF70FA
:105260006C2F70E0762F66276B0D711D072E000CDA
:10527000880B990B0E94182B4B015C012AE037ED3B
:1052800043E25CE3C701B6010E94CD2B9B01AC0158
:10529000C501B4010E94CD2BD62EE72EF82EC92FC2
:1052A0002DEC3CEC43EA57E40E94C82B181624F47A
:1052B000D12CE12CF12CC0E06D2D7E2D8F2D9C2F5B
:1052C000CF91FF90EF90DF90CF90BF90AF909F90E5
:1052D0008F9008951092C50083E38093C40088E9FD
:1052E0008093C10086E08093C20008958091C00041
:1052F00085FB882780F908959091C00095FFFCCF29
:105300008093C6000895FC019F01281B390B419131
:105310004111FACFC9010895AF92BF92CF92DF92A7
:10532000EF92FF920F931F93CF93DF937C010E9424
:1053300083298C018EE70E947C29C8010E96892F53
:105340000E947C298EE0800F0E947C2980E10E94CF
:105350007C2980E00E947C29C8E0D0E080E00E94A7
:105360007C292197D9F78FEF0E947C298EEF0E942C
:105370007C2980E00E947C2980E00E947C296701D2
:10538000CDE0D0E0C6018E199F098017910764F423
:105390005601F60181916F010E947C29F5018081FF
:1053A000C80FD11DDD27EECF8C2F8095DF91CF91D7
:1053B0001F910F91FF90EF90DF90CF90BF90AF9033
:1053C0000C947C29AF92BF92CF92DF92EF92FF9222
:1053D0000F931F93CF93DF936C010E9483297C016D
:1053E0008EE70E947C29C7010396892F0E947C29A1
:1053F00083E08E0D0E947C298DE20E947C2980E052
:105400000E947C2981E00E947C298601CEE2D0E0C6
:10541000C8018C199D098E159F0564F45801F80187
:1054200081918F010E947C29F5018081C80FD11DD7
:10543000DD27EECF8C2F8095DF91CF911F910F91BB
:10544000FF90EF90DF90CF90BF90AF900C947C29AD
:10545000CF93DF93EC010E948C29CE01DF91CF9195
:105460000C94E2295058BB27AA270E944A2A0C9480
:105470008E2B0E94802B38F00E94872B20F039F46D
:105480009F3F19F426F40C947D2B0EF4E095E7FB76
:105490000C94772BE92F0E949F2B58F3BA176207C1
:1054A00073078407950720F079F4A6F50C94C12BB7
:1054B0000EF4E0950B2EBA2FA02D0B01B90190012F
:1054C0000C01CA01A0011124FF27591B99F0593F73
:1054D00050F4503E68F11A16F040A22F232F342FBB
:1054E0004427585FF3CF469537952795A795F04009
:1054F0005395C9F77EF41F16BA0B620B730B840B1E
:10550000BAF09150A1F0FF0FBB1F661F771F881FD5
:10551000C2F70EC0BA0F621F731F841F48F487952D
:1055200077956795B795F7959E3F08F0B0CF93951F
:10553000880F08F09927EE0F9795879508950E9498
:10554000532B08F481E008950E94B82A0C948E2B06
:105550000E94872B58F00E94802B40F029F45F3F77
:1055600029F00C94772B51110C94C22B0C947D2BA9
:105570000E949F2B68F39923B1F3552391F3951B58
:10558000550BBB27AA2762177307840738F09F5F64
:105590005F4F220F331F441FAA1FA9F335D00E2ED1
:1055A0003AF0E0E832D091505040E695001CCAF73E
:1055B0002BD0FE2F29D0660F771F881FBB1F261701
:1055C00037074807AB07B0E809F0BB0B802DBF01D8
:1055D000FF2793585F4F3AF09E3F510578F00C94A7
:1055E000772B0C94C22B5F3FE4F3983ED4F386955F
:1055F00077956795B795F7959F5FC9F7880F911DC8
:105600009695879597F90895E1E0660F771F881FB3
:10561000BB1F621773078407BA0720F0621B730B66
:10562000840BBA0BEE1F88F7E0950895E89409C043
:1056300097FB3EF490958095709561957F4F8F4FC5
:105640009F4F9923A9F0F92F96E9BB279395F695DB
:10565000879577956795B795F111F8CFFAF4BB0F59
:1056600011F460FF1BC06F5F7F4F8F4F9F4F16C0BD
:10567000882311F096E911C0772321F09EE8872F47
:10568000762F05C0662371F096E8862F70E060E003
:105690002AF09A95660F771F881FDAF7880F96957C
:1056A000879597F90895990F0008550FAA0BE0E820
:1056B000FEEF16161706E807F907C0F012161306D4
:1056C000E407F50798F0621B730B840B950B39F414
:1056D0000A2661F0232B242B252B21F408950A267A
:1056E00009F4A140A6958FEF811D811D089597F9BA
:1056F0009F6780E870E060E008959FEF80EC089578
:1057000000240A94161617061806090608950024A0
:105710000A9412161306140605060895092E03941A
:10572000000C11F4882352F0BB0F40F4BF2B11F48E
:1057300060FF04C06F5F7F4F8F4F9F4F089557FDED
:105740009058440F551F59F05F3F71F04795880FEF
:1057500097FB991F61F09F3F79F087950895121686
:1057600013061406551FF2CF4695F1DF08C0161632
:1057700017061806991FF1CF8695710561050894E3
:105780000895E894BB2766277727CB0197F90895FA
:105790000E94532B08F48FEF08950E94E02B0C9485
:1057A0008E2B0E94802B38F00E94872B20F09523AF
:1057B00011F00C94772B0C947D2B11240C94C22B9C
:1057C0000E949F2B70F3959FC1F3950F50E0551FDA
:1057D000629FF001729FBB27F00DB11D639FAA2746
:1057E000F00DB11DAA1F649F6627B00DA11D661F95
:1057F000829F2227B00DA11D621F739FB00DA11DB6
:10580000621F839FA00D611D221F749F3327A00D6F
:10581000611D231F849F600D211D822F762F6A2F0B
:1058200011249F5750409AF0F1F088234AF0EE0F70
:10583000FF1FBB1F661F771F881F91505040A9F79D
:105840009E3F510580F00C94772B0C94C22B5F3F48
:10585000E4F3983ED4F3869577956795B795F795D9
:10586000E7959F5FC1F7FE2B880F911D9695879551
:1058700097F90895FA01EE0FFF1F309621053105C3
:10588000A1F16115710561F48038BFE39B0749F10F
:1058900068949038810561F08038BFEF9B0741F034
:1058A00099234AF5FF3FE1053105210519F1E894F7
:1058B0000894E795D901AA2329F4AB2FBE2FF85FEE
:1058C000D0F310C0FF5F70F4A695E0F7F73950F001
:1058D00019F0FF3A38F49F779F930DD00F9007FC93
:1058E0009058089546F00C947D2B60E070E080E8BD
:1058F0009FE308954FE79F775F934F933F932F93D5
:105900000E94352D2F913F914F915F910E94CD2B99
:105910000C94922C29F416F00C94772B0C94C12B38
:105920000C947D2B0E94A72BA8F39638A0F707F8BC
:105930000F92E8942BE33AEA48EB5FE70E94E32BEF
:105940000F920F920F924DB75EB70F920E947D2D6E
:10595000E8E6F0E00E94C42C4F915F91EF91FF9137
:10596000E595EE1FFF1F49F0FE57E0684427EE0F54
:10597000441FFA95E1F74195550B0E94F72C0F90C3
:1059800007FE0C94EB2C0895DF93CF931F930F9396
:10599000FF92EF92DF927B018C01689406C0DA2EB1
:1059A000EF010E94E02BFE01E894A591259135912D
:1059B00045915591A6F3EF010E944A2AFE019701F5
:1059C000A801DA9469F7DF90EF90FF900F911F9193
:1059D000CF91DF9108959B01AC0160E070E080E819
:1059E0009FE30C94A42A0C94772B0C94B12D0E9465
:1059F000A72BD8F39923C9F3940F511DA3F391500A
:105A0000504094F059F0882332F0660F771F881FBA
:105A100091505040C1F79E3F51052CF7880F911DC2
:105A20009695879597F908955F3FACF0983E9CF066
:105A3000BB27869577956795B79508F4B1609395E0
:105A4000C1F7BB0F58F711F460FFE8CF6F5F7F4FCE
:105A50008F4F9F4FE3CF0C94C22B16F00C94B12DB7
:105A60000C947D2B68940C94772B0E94A72BA8F3A1
:105A70009923C1F3AEF3DF93CF931F930F93FF925C
:105A8000C92FDD2788232AF02197660F771F881FEB
:105A9000DAF720E030E040E85FEB9FE3883920F060
:105AA000803E38F021968F770E94332AE0E9F0E0BB
:105AB00004C00E94332AEDEBF0E00E94C42C8B015D
:105AC000BE01EC01FB2E6F5771097595771F880B8E
:105AD000990B0E94182B28E132E741E35FE30E9413
