S00F00006D6C6F676765722E7372656328
S11300000C94F2000C9485200C940F010C940F01B5
S11300100C940F010C940F010C940F010C940F011C
S11300200C940F010C94911B0C940F010C946D1BF8
S11300300C940F010C940F010C940F010C940F01FC
S11300400C940F010C940F010C94F6180C940F01EE
S11300500C940F010C940F010C940F010C940F01DC
S11300600C940F010C940F0107634236B79BD8A779
S11300701A39685618AEBAAB558C1D3CB7CC5763C9
S1130080BD6DEDFD753EF6177231BF000000803F77
S113009008000000BE922449123EABAAAA2ABECD93
S11300A0CCCC4C3E00000080BEABAAAAAA3E000005
S11300B00000BF000000803F0000000000084178FD
S11300C0D3BB4387D1133D190E3CC3BD4282AD2B34
S11300D03E68EC8276BED98FE1A93E4C80EFFFBE2C
S11300E001C4FF7F3F000000000000407A10F35A73
S11300F000A0724E18090010A5D4E80000E8764864
S1130100170000E40B54020000CA9A3B000000E10F
S1130110F505000080969800000040420F000000A2
S1130120A08601000000102700000000E803000082
S113013000006400000000000A000000000001004C
S1130140000000002C76D888DC674F0823DFC1DF6D
S1130150AE59E1B1B796E5E3E453C63AE651997670
S113016096E8E6C28426EB898C9B62ED407C6FFCAA
S1130170EFBC9C9F40F2BAA56FA5F490055A2AF7EC
S11301805C936B6CF9676DC11BFCE0E40D47FEF5F5
S113019020E6B500D0ED902E03009435770500805D
S11301A0841E080000204E0A000000C80C333333BC
S11301B0330F986E12831141EF8D2114893BE6555C
S11301C016CFFEE6DB18D1844B381BF77C1D901D3F
S11301D0A4BBE424203284725E228100C9F124ECA1
S11301E0A1E53D2711241FBECFEFD8E0DEBFCDBF70
S11301F012E0A0E0B1E0E4E8FAE602C005900D9256
S1130200AA33B107D9F723E0AAE3B2E001C01D92F3
S1130210A43AB207E1F70E9454180C9440350C94A8
S11302200000A8E0B0E0E7E1F1E00C9413358B01A5
S1130230FC01608171818281938120E831E541E094
S113024050E00E946F2D69017A012CE330E040E018
S113025050E00E94EA3429833A834B835C8389818A
S11302609A81AB81BC81F80160836CE370E00E94E9
S1130270D634DC01CB01F801A1838283C601069642
S113028067E070E00E945B2D84832DEA3EE840E045
S113029050E0C701B6010E94EA3429833A836D8392
S11302A07E838F83988789819A8124E6289F6001C1
S11302B0299FD00C11246D817E818F81988525EB37
S11302C035E040E050E00E94EA3429833A836D83AC
S11302D07E83E980FA80EE0CFF1CEE0CFF1CEC0C14
S11302E0FD1C8D819E81F5E6EF16F10410F0019658
S11302F004C024E6E216F10419F021E030E002C063
S113030020E030E0A90144595E4F4817590768F4CA
S11303106DE671E0821B930B0E94D634DC01CB01A5
S1130320E80EF91ECD0120E030E044E6E40EF11CB5
S1130330F801F782E68291878087255C3F4F821718
S1130340930748F46FE170E00E94D634DC01CB01DE
S1130350F801858322C069E970E0821B930B0E9437
S1130360D634DC01CB01F82EFF0CFF0CF80E6DE344
S113037070E0CD010E94D634DC01CB01E82EEE0CF6
S11303806FE170E0CD010E94D634DC01CB0122E0A4
S1130390280FF20EFE0CF801F582A383F8011386F0
S11303A0128683818F5F83832896E8E00C942F352F
S11303B0FC0162817381CB01A0E0B0E0BA2FA92FC8
S11303C0982F88272181822BBA2FA92F982F88272D
S11303D02081BC01CD01622B0895DC01FB012D912C
S11303E0819130E0B901681B7109CB014150510979
S11303F011F00097A1F308950F931F93FC019A0144
S1130400AB0122503109410951098789908DA18D91
S1130410B28D0297A109B109281739074A075B076A
S113042068F4A185B2850E94912D03A514A525A584
S113043036A5600F711F821F931F03C060E070E038
S1130440CB011F910F910895DC01ED91FC91309740
S1130450C1F0DF019D014D91413280F04A33D1F763
S1130460AF014F5F5F4F2417350759F44081403384
S113047041F42F5F3F4FFC013183208380E090E003
S113048008958FEF9FEF08950F931F93CF93DF93FA
S1130490EC018B01892BF1F0E881F9813097D1F0DF
S11304A080818823B9F02A813B8185819681281730
S11304B0390781F481810E94C81780FD0BC028810F
S11304C0398180E0F80131832083DF91CF911F913E
S11304D00F91089589E020E030E0F4CFFB01428DD4
S11304E0538D60E070E0833059F484899589A0E0ED
S11304F0B0E0DC0199278827482B592B6A2B7B2BEA
S1130500CB01BA0108958F929F92AF92BF92EF925E
S1130510FF920F931F93CF93DF93EC017C0143E38E
S1130520E40EF11C2FA538A949A95AA901E010E04D
S1130530B70189810E94D517811128C01B820FA59C
S113054018A929A93AA98B8D9C8DAD8DBE8D8BA040
S11305509CA0ADA0BEA0B901A801481959096A0917
S11305607B09481759076A077B0790F46A81623050
S113057079F4A9019801280F391F4A1F5B1F01E074
S113058010E0B70189810E94D51702C081E001C043
S113059080E0DF91CF911F910F91FF90EF90BF907A
S11305A0AF909F908F900895CF92DF92EF92FF9239
S11305B00F931F93CF93DF93EC016A017B018FA507
S11305C098A9A9A9BAA984179507A607B70709F195
S11305D08B81811112C001E010E0A7019601BE01D8
S11305E06D5C7F4F89810E94CB17882361F081E085
S11305F0CC24CA94DC2C760107C0CE010E9483026D
S1130600811108C0E8CF80E0CFA6D8AAE9AAFAAA47
S113061001C080E0DF91CF911F910F91FF90EF9087
S1130620DF90CF900895CF93DF93EC011B828FEF7F
S11306309FEFDC018FA798ABA9ABBAABCE010E94A8
S1130640D402811127C0FE01EF5CFD4F80819181AE
S113065085359A4A09F58BA9893E29F08B3E01F527
S11306608DA98039E9F443E050E068E371E0CE01FC
S113067087599F4F0E94ED01892B81F045E050E09E
S11306806CE371E0CE018B579F4F0E94ED01892BE3
S113069039F404C084E005C083E003C080E001C0F5
S11306A082E0DF91CF9108952F923F924F925F9213
S11306B06F927F928F929F92AF92BF92CF92DF926E
S11306C0EF92FF920F931F93CF93DF93CDB7DEB7D3
S11306D06E970FB6F894DEBF0FBECDBF5B01F42E4C
S11306E0DB011D921C920E9424026C0197FD42C200
S11306F0FC01EE0FFF1FE45CFD4F00811181011529
S1130700110509F439C2F50111830083FF2DFE7F21
S1130710FF2ED8018C91882369F011968C910E9448
S1130720C81780FD07C0FF2009F428C282FF26C233
S11307308AE02CC2F8011082C1828C2D0E94C61757
S113074080FD1EC2FF2011F082FDF2CF40E050E098
S1130750BA01C8010E941303823009F043C09E010C
S11307602F5F3F4F7901680137E0C31A3EEFD30A88
S1130770480147EC841A4DEF940A5701F601349767
S11307808081882321F0C6010E94D80103C060E063
S113079070E0CB01D5016D937D938D939D935D01A5
S11307A0B0E1CB0ED11CC814D90441F76E01E1E1CC
S11307B0CE0ED11CD7014D905D906D907D907D0142
S11307C0411451046104710441F0B301A201C80150
S11307D00E941303823010F40FC083E0CE14DF04B0
S11307E049F7D0C1843009F4D0C1823010F08DE0D3
S11307F0CDC1412C512C3201F80186AD97AD811544
S11308009240A9F7F801E75BFF4F80809180811443
S1130810910419F0A12CB12C07C0C801895A9F4F2B
S11308200E94D8014B015C01D8015B968D929D9288
S1130830AD92BC925E97F801ED5BFF4FB081B98B2E
S1130840F801B2838B2F8150823088F6E05CFF4F31
S113085030813A8F832F90E0D8011A969C938E931F
S11308601997009721F29C01215031098223932387
S1130870892B09F0BCCF349620803180F801308672
S11308802782C1018F709927892B09F0B0CFEA5BC9
S1130890FF4F808191816C01E12CF12C892B39F47B
S11308A0C8018D5A9F4F0E94D8016B017C01F80149
S11308B0EF5BFF4F0190F081E02D309709F497CF63
S11308C02989A22FB0E0A50194010E94912D6E8B7D
S11308D07F8B888F998FCF01A0E0B0E08B8F9C8FA6
S11308E0AD8FBE8FC10154E0969587955A95E1F777
S11308F02B8D3C8D4D8D5E8D280F391F411D511D53
S1130900DA01C9012E893F89488D598D280F391F75
S11309104A1F5B1F2A8B3B8B4C8B5D8BC216D30605
S1130920E406F50608F463CFC701B601621B730B36
S1130930840B950BAA8D2A2F30E040E050E00E94F2
S11309406F2DDA01C9010197A109B109853F9F4FB4
S1130950AF4FBF4008F04BCF263FFFEF3F074105A5
S1130960510548F4263F6FE036074105510530F440
S113097081E0898B05C093E0998B02C0A2E0A98B2A
S113098069017A01B2E0CB0ED11CE11CF11CF80123
S1130990C78AD08EE18EF28E478E50A261A272A2D7
S11309A08B8D9C8DAD8DBE8D840D951DA61DB71DA3
S11309B083A394A3A5A3B6A34A895B896C897D8983
S11309C0440D551D661D771D43A754A765A776A73B
S11309D0F989F330F9F4F801E35AFF4F80819181EA
S11309E0892B09F004CF232809F001CFC801815ACB
S11309F09F4F0E94D801D80197966D937D938D9354
S1130A009C939A9742E0CC0CDD1CEE1CFF1C4A958B
S1130A10D1F72DC0232809F4EACE2E893F89488DC9
S1130A20598D820F931FA41FB51FF80187A390A7A8
S1130A30A1A7B2A7F989F23029F4CC0CDD1CEE1C75
S1130A40FF1C15C0A3E0B0E0A70196010E94912D00
S1130A50DC01CB01B695A7959795879521E0C22235
S1130A60DD24EE24FF24C80ED91EEA1EFB1E3FEF30
S1130A70C30E31E0D31EE11CF11C89E0F694E79427
S1130A80D794C7948A95D1F78C149D04AE04BF04FF
S1130A9008F4ADCE8FEF9FEFDC01F8018787908BD0
S1130AA0A18BB28B83879487A587B68780E88483DC
S1130AB0F989F33009F047C0F801ED59FF4F8081FF
S1130AC09181019709F03FC0B301A2014F5F5F4FCD
S1130AD06F4F7F4FC8010E94D402811134C0D801E6
S1130AE014961C92F801EF5CFD4F8081918185354D
S1130AF09A4A49F5C801C3960E94D80162357245E5
S1130B008146914401F5C801895E9D4F0E94D80138
S1130B106237724781449146B1F4C801855E9D4FA6
S1130B200E94D801D8011F966D937D938D939C9359
S1130B305297C801815E9D4F0E94D801F8016387D6
S1130B40748785879687E989D801EC9380913A0266
S1130B5090913B02019690933B0280933A02169641
S1130B609C938E93159753961D921D921D921C92E1
S1130B70569704C08BE00AC08CE008C080E006C031
S1130B8083E004C0843009F032CE81E06E960FB663
S1130B90F894DEBF0FBECDBFDF91CF911F910F91AF
S1130BA0FF90EF90DF90CF90BF90AF909F908F9089
S1130BB07F906F905F904F903F902F900895AF92E9
S1130BC0BF92CF92DF92EF92FF920F931F93CF9336
S1130BD0DF93423051056105710508F4A1C0FC01A1
S1130BE00789108D218D328D4017510762077307D5
S1130BF008F096C06A017B018C018081823009F47F
S1130C004DC0833009F469C0813009F089C0EA011C
S1130C10D695C795CC0DDD1DCE01892F99278695D4
S1130C2043A154A165A176A1480F591F611D711DEF
S1130C30CF010E94D402882321F06FEF7FEFCB0114
S1130C4073C05E01FFEFAF1ABF0AD170C00FD11F8E
S1130C50CBA9C501892F99278695F80143A154A1F1
S1130C6065A176A1480F591F611D711DC8010E941D
S1130C70D4028111E2CFF1E0BF22F801EA0DFB1D9D
S1130C8083A96C2F70E0782BC0FE06C054E07695E3
S1130C9067955A95E1F71EC07F701CC077276F2DAA
S1130CA05E2D4D2D83A194A1A5A1B6A1480F591F76
S1130CB06A1F7B1FCF010E94D4028111BECFCC0CCE
S1130CC0DD1CE894C0F8F1E0DF22F801EC0DFD1D15
S1130CD063A974A980E090E027C083A194A1A5A191
S1130CE0B6A127E076956795579547952A95D1F74C
S1130CF0480F591F6A1F7B1FCF010E94D402811124
S1130D009CCF0D5C1F4FCC0CDD1CCC0CDD1CC60134
S1130D108C7F9170800F911F0E94D8019F7004C036
S1130D2061E070E080E090E0DF91CF911F910F913E
S1130D30FF90EF90DF90CF90BF90AF900895CF9247
S1130D40DF92EF92FF920F931F93CF93DF938C0167
S1130D50FC01C081D18116861786108A118AC6804B
S1130D60D780E084F184C114D104E104F104E9F4EE
S1130D708881833040F08FA198A5A9A5BAA50097D2
S1130D80A105B10581F48F819885892B11F482E046
S1130D904CC08FA198A5A9A5BAA5F801868B978BFD
S1130DA0A08FB18F2EC06C017D0189859A85892B16
S1130DB0F1F4B701A601F801808191810E94DF0559
S1130DC06B017C016F3F7F4F8F4F9F4F69F182E032
S1130DD0C816D104E104F104D0F28F89988DA98D4D
S1130DE0BA8DC816D906EA06FB0618F3D0CFB701A8
S1130DF0A601CE010E94FC01F801668B778B808FDF
S1130E00918FF801C28AD38AE48AF58A8689978900
S1130E10A08DB18D892B8A2B8B2B09F4B8CFE39647
S1130E20D38FC28F80E001C081E0DF91CF911F9109
S1130E300F91FF90EF90DF90CF9008953F924F92E3
S1130E405F926F927F928F929F92AF92BF92CF9256
S1130E50DF92EF92FF920F931F93CF93DF9300D013
S1130E6000D000D0CDB7DEB79E838D836A017B01AD
S1130E7048015901FC018081823009F471C083303A
S1130E8009F490C0813009F0CAC08A01169507950B
S1130E90040F151FC801892F9927869543A154A1D2
S1130EA065A176A1480F591F611D711DCF010E94D4
S1130EB0D402382E8111B5C02D813E812D5C3F4F67
S1130EC03A832983C80101969C838B831170F901AD
S1130ED0E00FF11F2601370191E0492255246624D1
S1130EE07724C0FE09C08081282F2F7030E1839EB3
S1130EF0C0011124822B01C0882D808381E0ED8103
S1130F00FE81838343A154A165A176A18B819C8139
S1130F10892F99278695480F591F611D711DCF018F
S1130F200E94D402382E81117CC0EB81FC81F170C7
S1130F3029813A81E20FF31F45284628472841F0CA
S1130F4064E0B694A794979487946A95D1F706C001
S1130F509081907F892D8F70892E882A80825AC033
S1130F6077276F2D5E2D4D2DED81FE8183A194A1F8
S1130F70A5A1B6A1480F591F6A1F7B1FCF010E946C
S1130F80D402382E81114DC0ED81FE81F396CC0C34
S1130F90DD1CE894C0F821E0D222EC0DFD1D808216
S1130FA0918238C0ED81FE8183A194A1A5A1B6A14F
S1130FB037E076956795579547953A95D1F7480F59
S1130FC0591F6A1F7B1FCF010E94D402382E811142
S1130FD028C0FFE0BF228D819E81C396CC0CDD1C0E
S1130FE0CC0CDD1C2CEFC22221E0D222C80ED91E6B
S1130FF0C6010E94D801DC01CB0188279927AA27C2
S1131000B07F882A992AAA2ABB2AF6018082918273
S1131010A282B38281E0ED81FE81838302C082E0FB
S1131020382E832D26960FB6F894DEBF0FBECDBFA3
S1131030DF91CF911F910F91FF90EF90DF90CF90B0
S1131040BF90AF909F908F907F906F905F904F90E4
S11310503F9008954F925F926F927F928F929F92EA
S1131060AF92BF92CF92DF92EF92FF920F931F93B2
S1131070CF93DF938C012A013B01FC01C081D18114
S1131080411551056105710599F48B849C84AD84E7
S1131090BE8481149104A104B10459F18F89988DFF
S11310A0A98DBA8D88169906AA06BB0630F121C00F
S11310B0CE010E94DF05623071058105910508F4B7
S11310C00EC16F3FFFEF7F078F079F0729F44FEF94
S11310D03FEF2FEF9FEF0BC1CF88D88CE98CFA8CB0
S11310E06C157D058E059F0508F4FEC05301420171
S11310F004C0812C912C540183948F859889A989EB
S1131100BA89892B8A2B8B2B11F440E0E9C0841413
S11311109504A604B70409F047C0750164012FEFD4
S1131120C21AD20AE20AF20A8F89988DA98DBA8D61
S1131130C816D906EA06FB0628F092E0C92ED12C7F
S1131140E12CF12CB701A601F801808191810E9464
S1131150DF05613071058105910509F4C0C06F3F59
S1131160FFEF7F078F079F0709F4B1CF672B682B29
S1131170692BA9F08B859C85AD85BE858230910550
S1131180A105B10588F04F89588D698D7A8D841732
S11311909507A607B70740F44C015D0105C0C114CB
S11311A0D104E104F104D1F5750164012FEFC21AF1
S11311B0D20AE20AF20A8F89988DA98DBA8DC816CF
S11311C0D906EA06FB0660F082E088169104A104C1
S11311D0B10408F49ACF82E0C82ED12CE12CF12C72
S11311E0B701A601F801808191810E94DF05611594
S11311F071058105910591F06130710581059105B5
S113120009F46DC06F3F7F4F8F4F9F4F09F45FCF3D
S1131210C814D904EA04FB0449F677CF22E0C216C5
S1131220D104E104F10408F45AC08F89988DA98D82
S1131230BA8DC816D906EA06FB0608F050C00FEFAF
S11312401FEF9801B701A601CE010E941E0781116C
S113125043C04114510461047104E9F4CB86DC8673
S1131260ED86FE868F859889A989BA894F89588D1C
S1131270698D7A8D425051096109710948175907DE
S11312806A077B0708F10197A109B1098F87988B39
S1131290A98BBA8B19C082E0481651046104710409
S11312A0F0F08F89988DA98DBA8D481659066A0673
S11312B07B06A8F497018601B301A201CE010E9426
S11312C01E07882359F208C08C8181608C834C2DC1
S11312D03D2D2E2D9F2D0BC0813009F4F8CE41E019
S11312E030E020E090E003C0462F372F282F642FF2
S11312F0732F822FDF91CF911F910F91FF90EF9069
S1131300DF90CF90BF90AF909F908F907F906F9021
S11313105F904F9008952F923F924F925F926F92F9
S11313207F928F929F92AF92BF92CF92DF92EF9271
S1131330FF920F931F93CF93DF9300D000D000D080
S1131340CDB7DEB73B01FC0146895789608D718DAD
S1131350411551056105710509F415C1C684D78489
S1131360E088F188F0E2CF0ED11CE11CF11CC1141D
S1131370D10420E2E206F10408F005C11C01FC01DD
S11313800190F081E02DFE83ED83D701C6019170B9
S1131390AA27BB27892B8A2B8B2B09F0E4C04F5F2C
S11313A05F4F6F4F7F4FF101468B578B608F718F6B
S11313B04289538964897589ED81FE8141155105FE
S11313C061057105C9F487819085A0E0B0E0B7019B
S11313D0A60135E076956795579547953A95D1F7E7
S11313E0481759076A077B0708F4BDC0F101168A3C
S11313F0178A108E118EC7C0818592850197A0E04F
S1131400B0E04601570129E0B694A79497948794D5
S11314102A95D1F788219921AA21BB21892B8A2BCE
S11314208B2B09F0A0C0CF010E94DF054B015C01AA
S1131430623071058105910510F482E0A7C06F3F09
S11314407F4F8F4F9F4F11F481E0A0C0ED81FE814B
S11314508789908DA18DB28D88169906AA06BB0640
S113146008F471C0672811F2F10142895389648933
S11314707589C1010E942A084B015C01611571053F
S11314808105910509F481C06130710581059105DB
S1131490A1F26F3F7F4F8F4F9F4FB1F2ED81FE81DD
S11314A08381811116C0B501A4018D819E810E94A2
S11314B0FC012B013C01ED81FE8167A770AB81AB80
S11314C092ABF396FC83EB838D819E818D5C9D4F63
S11314D007C08D819E810E9483028111B5CFE3CF25
S11314E01192E817F907E1F71A821982ED81FE815A
S11314F08185928529813A812817390750F0ED8139
S1131500FE818185928529813A8128173907D9F08E
S11315109BCF01E010E0A301920189819A81280FF9
S1131520391F411D511D6B817C81ED81FE818181BB
S11315300E94D5178111E3CF29813A812F5F3F4F54
S11315403A832983D3CFF101828A938AA48AB58A04
S1131550B501A4018D819E810E94FC01F101668B7D
S1131560778B808F918FF101C686D786E08AF18AC6
S11315708D819E81C39696013170280F391F338F58
S1131580228F80E003C084E001C087E026960FB676
S1131590F894DEBF0FBECDBFDF91CF911F910F91A5
S11315A0FF90EF90DF90CF90BF90AF909F908F907F
S11315B07F906F905F904F903F902F9008953F924F
S11315C04F925F926F927F928F929F92AF92BF924F
S11315D0CF92DF92EF92FF920F931F93CF93DF93FB
S11315E0EC018B01C880D980DB018C918F3211F022
S11315F08C3511F498010AC0F60183899489A58970
S1131600B6898E839F83A887B9870DC08901D901C4
S11316108C912F5F3F4F8F32C9F38C35B9F31E8203
S11316201F8218861986F8018081803288F07E0135
S1131630FCE1EF0EF11C3E0187E2680E711C30E202
S1131640332E45E0542E460193E3890E911C50C07D
S113165080E88FA3CE01DF91CF911F910F91FF906E
S1131660EF90DF90CF90BF90AF909F908F907F903E
S11316706F905F904F903F900C949F06D80180E04C
S113168090E001962D912E3209F444C02F3209F0D6
S113169047C0080F191F213208F049C084E28FA304
S11316A0A880B980CE010E949F06482E81110BC0EC
S11316B04E895F89688D798DC5010E94D402482EB8
S11316C0882309F4ADC08FA14110C7C082FDE0C0DA
S11316D08C8184FFD2C06E857F857170680D791D01
S11316E0F60180810E946E026E837F8388879987CA
S11316F0F701D7013D92A615B705E1F7D8018C9102
S11317008E3209F4BBCF80E090E060E070E048E006
S113171050E03DC08330910509F47FC02193B1CFDF
S11317202C3509F4B6CF213208F4B3CF76C080E269
S1131730B6CFBF32B1F1BC35A1F1BE3209F4A0C0BD
S11317408417950708F069C0B13808F44FC0B03A5F
S1131750A8F56E5F7F4FF801E20FF31FA081A0345C
S113176008F45BC0AF37E8F59A01215031098217BC
S1131770930708F052C0F701E80FF91FB083FC018A
S11317803196EE0DFF1D0296A0839B01B9019B01CA
S11317902F5F3F4FF801E60FF71FB081B13248F6D3
S11317A012C0F801E20FF31F02C04C3561F49F012F
S11317B0201B310B41914F32C1F7F9CFE0E2EB0F1F
S11317C0ED3138F213C0892B41F18C8D853E09F43B
S11317D05C8EB13210F484E001C080E0020F131F6C
S11317E05ECFAF37D1F0AD3FC0F4BECFAB2EB12C3E
S11317F0E2E4F1E06191662329F070E0A616B706F1
S1131800C9F70BC06FE96B0F6A3108F4B052F701E6
S1131810E80FF91FB0830196B9CF86E0482E38C08F
S1131820EA8DFB8D80818823A9F083858F738C8357
S1131830838583FD09C04BE050E0B701CF010E94CE
S1131840ED01892B09F43FCF60E070E0CE010E94E6
S11318508B092BCF24E0422E36CFB4E04B1218C0B4
S1131860982F947085FF07C0992309F441CF80E82D
S11318708FA3412C0DC091110BC095E0492E08C0D7
S11318804B30510551F288E090E04BE050E07ECFC0
S1131890842DDF91CF911F910F91FF90EF90DF90F6
S11318A0CF90BF90AF909F908F907F906F905F90FC
S11318B04F903F9008951F93CF93DF9300D000D0B3
S11318C000D0CDB7DEB79C838B837E836D83142FCA
S11318D07A836983CE0101960E94240297FD20C079
S11318E0880F991FFC01E45CFD4F0190F081E02D0D
S11318F0309709F01082EB81FC81309709F0108257
S1131900DC01A45CBD4FED93FC93112359F040E03E
S1131910BE016D5F7F4FCE0105960E94540303C044
S11319208BE001C080E026960FB6F894DEBF0FBEB0
S1131930CDBFDF91CF911F9108952F923F924F9287
S11319405F926F927F928F929F92AF92BF92CF924B
S1131950DF92EF92FF920F931F93CF93DF93CDB754
S1131960DEB7E4970FB6F894DEBF0FBECDBF7CA7F9
S11319706BA7009709F4FEC1142F1C01242F2F73A9
S11319802DA7422FBE01675D7F4FCE018B960E942B
S113199054038EA7811114C289A59AA59A838983B9
S11319A06BA57CA5CE0101960E94DF0A811103C0BC
S11319B098A597FD86E0912F9C7109F40AC18823AC
S11319C009F44AC0843009F041C0E980FA80CE01AC
S11319D001960E949F068111FAC14F89588D698D25
S11319E07A8DC7010E94D4028111F1C1EB8DFC8D67
S11319F08081853E79F44F89588D698D7A8DC70130
S1131A000E94D402811122C0EB8DFC8D9F01205EC7
S1131A103F4F09C0882379F361E070E0CE0101965D
S1131A200E948B09D8CF1192E217F307E1F7DE0188
S1131A305D96EB8DFC8D9F01255F3F4F9D919193AA
S1131A402E173F07D9F791E0F7019383FDA5F860BE
S1131A50FDA7882339F0B0C18D81817109F0ABC134
S1131A6012FD8AC12DA523FFC3C06B8D7C8DE9A512
S1131A70FAA580810E946E026B017C010E94E3172B
S1131A80EB8DFC8D66877787808B918BEB8DFC8D3E
S1131A9080E28387EB8DFC8DA9A5BAA5128E138EE7
S1131AA08C91833011F4148A158AEB8DFC8D148E7D
S1131AB0158E168E178E81E013968C931397C1148E
S1131AC0D104E104F10409F490C032E0C316D10456
S1131AD0E104F10408F469C149815A8158AB4FA764
S1131AE0FA014789508D618D728DC416D506E606BC
S1131AF0F70608F05AC19F962D913D914D915C9146
S1131B00D29729AB3AAB4BAB5CAB46015701B5015D
S1131B10A40189819A810E94DF052B013C01611592
S1131B2071058105910509F429C1613071058105AB
S1131B30910509F43AC16F3F7F4F8F4F9F4F09F4CE
S1131B4036C152E085169104A104B10408F42DC1F4
S1131B50EFA5F8A98789908DA18DB28D8816990675
S1131B60AA06BB0608F021C100E010E09801B50107
S1131B70A401CF010E941E0781111EC1EFA5F8A97F
S1131B8087859089A189B2894789508D618D728D2D
S1131B904A015B01F2E08F1A9108A108B108881587
S1131BA09905AA05BB0560F40196A11DB11DEFA519
S1131BB0F8A98787908BA18BB28B84818160848301
S1131BC053014201441655066606770608F49FCF72
S1131BD0D5C08111F1C08D8184FDEBC011FF02C01D
S1131BE080FDE9C0FDA5F3FF03C02DA520642DA74A
S1131BF0E9A4FAA4F70187A590A9A1A9B2A9F101C2
S1131C00848F958FA68FB78FCB8CDC8CD1A2C0A28A
S1131C10B601F70180810E946E02F1016683778329
S1131C2080879187C6014C960E94D801F101628792
S1131C30738784879587F182E082F7018581968195
S1131C40F101938382832DA526871786108E118E2A
S1131C50128E138E108A118A128A138A6101F2E29B
S1131C60CF0ED11CF601C1018E5D9D4F1192E81774
S1131C70F907E1F72DA525FFA8C0F101828493841B
S1131C80A484B58481149104A104B10409F49DC011
S1131C90808A918AA28AB38AF70141845284612C92
S1131CA0712C59E0440C551C661C771C5A95D1F7CD
S1131CB0F1014681578160857185481459046A048D
S1131CC07B04D8F4F101808191810E94DF05AB018E
S1131CD0BC0184189508A608B7084230510561056F
S1131CE0710548F04F3FFFEF5F076F077F0729F744
S1131CF021E02EA702C0F2E0FEA7F101448B558B30
S1131D00668B778BFEA5F1115BC0D501C401917080
S1131D10AA27BB27892B8A2B8B2B09F456C0E9A44D
S1131D20FAA4C7010E94FC016115710581059105A2
S1131D3009F444C09501840149E036952795179527
S1131D4007954A95D1F7A9019801260F371F481F17
S1131D50591FF101208F318F428F538F01E010E022
S1131D60B601F70181810E94CB17882371F141E00C
S1131D704EA726C089E030C088E01EC049A95AA9F0
S1131D806BA97CA989A59AA50E94D402E9A5FAA504
S1131D9021E0C21AD108E108F108C386D486E58699
S1131DA0F686882309F41ECF07C082E005C081E0CF
S1131DB003C084E001C087E08EA702C032E03EA7E2
S1131DC0F101118210828EA507C080E005C0843025
S1131DD009F03CCE87E03ACEE4960FB6F894DEBF25
S1131DE00FBECDBFDF91CF911F910F91FF90EF9068
S1131DF0DF90CF90BF90AF909F908F907F906F9027
S1131E005F904F903F902F9008952F923F924F9262
S1131E105F926F927F928F929F92AF92BF92CF9276
S1131E20DF92EF92FF920F931F93CF93DF93CDB77F
S1131E30DEB728970FB6F894DEBF0FBECDBF7C0186
S1131E403B015A013E832D83D9011D921C92BE0190
S1131E506F5F7F4F0E944402811167C1F70187853C
S1131E60811163C1868581FF5FC180899189A289BF
S1131E70B389AC01BD014A0D5B1D611D711D48177D
S1131E8059076A077B0718F45C01A094B094C70152
S1131E90829698878F83A114B10409F446C0F70190
S1131EA080899189A289B389AC01BD0151706627EB
S1131EB07727452B462B472B09F0E7C0E981FA81A8
S1131EC081849284F1E08F1A9108AC01BD0129E06C
S1131ED076956795579547952A95D1F7842295224B
S1131EE08114910409F04FC0892B8A2B8B2B81F428
S1131EF0D70116966D917D918D919C9119976115DD
S1131F00710581059105D1F440E050E0BA0105C0A6
S1131F10F7014489558966897789C7010E942A088F
S1131F20611571058105910549F4D7011E968C91BF
S1131F301E9780641E968C9380E0F7C06130710513
S1131F408105910521F482E0F7018787EEC06F3F98
S1131F50FFEF7F078F079F0729F481E0D7011F96C2
S1131F608C93E3C0F701648B758B868B978B06810A
S1131F70178120853185012B022B032B21F46683E5
S1131F80778380879187F701868587FF16C0208D28
S1131F90318D428D538DE981FA8101E010E06F812A
S1131FA0788581810E94D5178111D7CFD7011E96DC
S1131FB08C911E978F771E968C93E981FA81FC830E
S1131FC0EB83D70154964D915D916D917C91579718
S1131FD0CF010E94FC01611571058105910509F489
S1131FE0B2CF1B012C01280C391C411C511C65016A
S1131FF0CD2CDD24C694C114D104E9F0EB81FC811D
S11320008185928594012C0D3D1D8217930718F448
S11320106C01C818D9088601A2019101B301AB81F2
S1132020BC8111968C910E94D517811196CFDC2C1E
S1132030CC24DD0C4DC0F701808D918DA28DB38D24
S1132040281639064A065B06D9F040895189628907
S1132050738982859385A485B585481759076A07CE
S11320607B0770F401E010E0A20191016F81788593
S1132070AB81BC8111968C910E94CB1781116DCFDD
S1132080F701208E318E428E538ED7015096ED91FA
S1132090FC915197F17080E092E08E1B9F0B6501DB
S11320A08A159B0508F46C01D3018F819885E80F8C
S11320B0F91FCF018C0D9D1D2D9121938E179F0724
S11320C0D9F7D7011E968C911E9780681E968C9323
S11320D0AC18BD08ED81FE81808191818C0D9D1D20
S11320E0918380836C0C7D1CF70180899189A2897E
S11320F0B3898C0D9D1DA11DB11D808B918BA28B6D
S1132100B38B4285538564857585481759076A07DB
S11321107B0710F4AC01BD01D7011A964D935D9372
S11321206D937C931D97B7CE87E028960FB6F894ED
S1132130DEBF0FBECDBFDF91CF911F910F91FF90F6
S1132140EF90DF90CF90BF90AF909F908F907F9053
S11321506F905F904F903F902F900895EF92FF9271
S11321600F931F93CF93DF9300D0CDB7DEB7FC015D
S11321702281338137FD2EC08C017901FFEFEF1AE4
S1132180FF0AFC01E20FF31F66838DE3E816F104F6
S1132190CCF09E012F5F3F4FA701B8016A5F7F4FCC
S11321A0F801808191810E94050F81E090E02981EE
S11321B03A812E153F0511F480E090E0EE24FF24CF
S11321C0E81AF90AF801F382E28284819581019682
S11321D0958384830F900F90DF91CF911F910F917E
S11321E0FF90EF9008950F931F93CF93DF9300D048
S11321F0CDB7DEB7FC014281538157FF03C08FEF97
S11322009FEF18C08C01BC016A5F7F4F9E012F5F56
S11322103F4FFC01808191810E94050F8111EFCF16
S1132220F8012281338189819A812817390739F786
S1132230848195810F900F90DF91CF911F910F9121
S11322400895CF92DF92EF92FF920F931F93CF9353
S1132250DF9300D0CDB7DEB76C01BE016F5F7F4F57
S11322600E9444028111E7C0D6011E968C911E97EC
S113227086FFDEC087FF16C058962D913D914D9183
S11322805C915B97E981FA8101E010E0B6016E5D33
S11322907F4F81810E94D5178111CCC0F6018685BC
S11322A08F7786870E94E3178B017C01D6015C96A9
S11322B04D915D916D917C915F9789819A810E9486
S11322C0D4028111B8C0D6019096ED91FC919197FA
S11322D083858062838716964D915D916D917C9183
S11322E019972D913C91428F538FD9012C91233012
S11322F029F4CB01AA27BB27848B958BD6011A9688
S11323003C911A971B962C911B971C969C911C9799
S11323101D968C91348F258F968F878F068B178B04
S1132320E08EF18E128A138AE980FA8081E0F70147
S11323308383C7010E948302982F811173C0D70140
S11323408C91833009F062C014968C91813009F02D
S11323505DC0B7016D5C7F4FFB01C7018D5C9D4F74
S113236011928E179F07E1F785E5F701EF5CFD4FAA
S113237080838AEA3196808382E5F70183AB84AB5C
S113238081E685AB91E496AB22E7E95EFD4F2083BD
S1132390319620833196908331968083D7011F969E
S11323A03C911F9750962C91509751969C91519720
S11323B052968C9131963083319620833196908356
S11323C031968083F7013385248595858685E15E82
S11323D0FD4F3083319620833196908331968083EC
S11323E0F701878D90A1A1A1B2A19C01AD012F5F3E
S11323F03F4F4F4F5F4F27A730AB41AB52AB01E08C
S113240010E081810E94D517F701148240E050E06A
S113241060E0D70111968C910E94DF1791E0811141
S113242001C090E0F60186858F7B8687892F03C0E3
S113243080E001C081E00F900F90DF91CF911F9158
S11324400F91FF90EF90DF90CF9008950F931F931B
S1132450CF93DF9300D0CDB7DEB78C010E9421115A
S113246081110BC0BE016F5F7F4FC8010E944402FF
S1132470811103C0F801118210820F900F90DF9137
S1132480CF911F910F9108950F931F93CF93DF93D3
S1132490CDB7DEB7C654D1090FB6F894DEBF0FBE70
S11324A0CDBF7A8369831C821B821E821D828C01AC
S11324B0F80161918F01CE010196662319F00E9403
S11324C0AE10F6CF0E94F310CA5BDF4F0FB6F8943C
S11324D0DEBF0FBECDBFDF91CF911F910F91089545
S11324E01CBC8091060181608093060108958EBD15
S11324F00DB407FEFDCF8EB508956AE070E00E942A
S11325005B2D60933F028FEF0E947712282F8F3F3D
S113251021F080913F028111F6CF81E090E02F3FBE
S113252011F080E090E008955B9A8FEF0C9477129D
S1132530CF93DF935B988FEF0E94771284EF91E043
S11325400E947D12EC01892B19F40E94941202C09E
S1132550C1E0D0E0CE01DF91CF910895FF920F93B7
S11325601F93CF93DF93C82FD42F152F062FF72E49
S113257087FF09C040E050E0BA0187E30E94AE1231
S11325808230A8F5CF77CC3099F48C2F80640E94E8
S113259077128F2D0E947712802F0E947712812F3D
S11325A00E9477128D2F0E947712CC23F1F008C07D
S11325B00E9494120E949812892B39F78FEF17C04A
S11325C0C83011F487E801C081E00E947712CC3052
S11325D019F48FEF0E947712CAE08FEF0E947712EE
S11325E087FF05C0C150C9F702C085E9F3CFDF9169
S11325F0CF911F910F91FF9008950F931F93CF9345
S1132600DF938C01EB0184E1809340028FEF0E9401
S113261077128F3F29F4809140028111F7CF1DC0BA
S11326208E3FD9F4F8018FEF8EBD0DB407FEFDCFB8
S11326309EB590838EBD0DB407FEFDCF9EB59183EC
S113264022973296209781F78FEF0E9477128FEFAF
S11326500E94771281E090E002C080E090E0DF9178
S1132660CF911F910F9108959C013E5FFC01408121
S11326704EBD0DB407FEFDCFFC0141814EBD0DB42E
S113268007FEFDCF02968217930781F78FEF0E9412
S113269077128FEF0E9477128FEF0E947712282F04
S11326A02F7181E090E0253011F080E090E00895F2
S11326B0CF92DF92EF92FF920F931F93CF93DF930A
S11326C000D000D0CDB7DEB70E9470128AE08093AC
S11326D04002809140028111FCCF8091060181FD6E
S11326E0AAC082E080934002809140028111FCCF15
S11326F084B18C6284B985B1806385B91DBC82E5DF
S11327008CBD1AE08FEF0E9477121150D9F740E088
S113271050E0BA0180E00E94AE12813009F078C026
S113272084E6809340024AEA51E060E070E088E089
S11327300E94AE12813009F043C08E010F5F1F4F1B
S11327406E0185E0C80ED11C78018FEF0E947712CC
S1132750F70181937F01CE16DF06B9F78B818130B3
S113276009F056C08C818A3A09F052C08091400227
S1132770811106C080914002882309F449C00AC02F
S113278040E050E060E070E489EA0E94AE128111FA
S1132790EDCFF0CF40E050E0BA018AE30E94AE12E0
S11327A0811136C08FEF0E947712F80181938F0157
S11327B0CE16DF06B9F7898186FD2CC014E02BC044
S11327C040E050E0BA0189EA0E94AE12823018F06B
S11327D011E001E002C012E009EA80914002811197
S11327E005C080914002882399F009C040E050E080
S11327F0BA01802F0E94AE128111EFCFF2CF40E0D8
S113280052E060E070E080E10E94AE12882319F08B
S113281010E001C01CE010933E020E9494121123A8
S113282041F0809106018E7F8093060180E58CBD86
S113283002C00E947012809106010F900F900F90B9
S11328400F90DF91CF911F910F91FF90EF90DF9048
S1132850CF900895EF92FF921F93CF93DF937C0163
S1132860E9012097A1F18091060180FD32C0809199
S11328703E0283FD07C089E0440F551F661F771F82
S11328808A95D1F7C230D10510F411E101C012E1EB
S1132890812F0E94AE12811113C060E072E0C70163
S11328A00E94FD12892B21F08EEFF81A2197A9F7C7
S11328B0123131F440E050E0BA018CE00E94AE12D3
S11328C00E94941281E0CD2B29F480E003C084E0BF
S11328D001C083E0DF91CF911F91FF90EF900895A5
S11328E0CF92DF92EF92FF920F931F93CF93DF93D8
S11328F08C016A017B01E901209709F464C080918D
S1132900060180FD62C08091060182FD60C0809155
S11329103E0283FD07C099E0CC0CDD1CEE1CFF1CBD
S11329209A95D1F7C130D105F1F4B701A60188E138
S11329300E94AE12882319F0C1E0D0E03DC084EFBC
S113294091E00E947D12892BB9F38EEF0E947712D9
S1132950C8010E94341331E020E0892B09F030E0F3
S1132960C32FD22F29C0867031F0AE0160E070E031
S113297087E90E94AE12B701A60189E10E94AE1256
S113298081111AC084EF91E00E947D12892B59F0C5
S11329908CEF0E947712C8010E943413892B19F01E
S11329A01E5F219779F784EF91E00E947D12892BB5
S11329B019F28DEF0E9477120E94941281E0CD2BC0
S11329C039F480E005C084E003C083E001C082E004
S11329D0DF91CF911F910F91FF90EF90DF90CF90F7
S11329E00895BF92CF92DF92EF92FF920F931F93BD
S11329F0CF93DF93CDB7DEB760970FB6F894DEBF01
S1132A000FBECDBF9091060190FD9AC28B01833316
S1132A1009F45AC198F4833009F48DC028F488234A
S1132A2009F1813011F18AC2873009F488C18233F7
S1132A3009F445C1843009F081C2F3C0863309F436
S1132A4069C138F4843309F444C1853309F44CC1B1
S1132A5075C2883309F4D9C108F47AC1893309F4F9
S1132A6026C26CC20E94981265C140E050E0BA01CF
S1132A7089E00E94AE1281115DC260E170E0CE0176
S1132A8001960E94FD12892B09F454C299819295F2
S1132A9096959695937029854A8588859130D9F4C1
S1132AA030E0322F2227240F311D8F7390E0A0E0F5
S1132AB0B0E0DC01992788270196A11DB11D820F82
S1132AC0931FA11DB11D5AE0880F991FAA1FBB1F98
S1132AD05A95D1F729C02295269526952370F4E0BE
S1132AE08F9FC0011124820F911D01962F812370A5
S1132AF030E0322F2227330F330F820F931FA0E0D1
S1132B00B0E02E81322F3F702B85221F2227221FF7
S1132B10230F4370440F420F475004C0880F991F7E
S1132B20AA1FBB1F4A95D2F7F80180839183A28321
S1132B30B38310E000C2F0903E0240E050E0BA01DE
S1132B40F2FE28C08DE80E94AE128111F3C18FEF0E
S1132B500E94771260E170E0CE0101960E94FD129E
S1132B60892B09F4E7C1A0E3FA2E8FEF0E947712B4
S1132B70FA94F110FACF2B8522952F7080E190E022
S1132B80A0E0B0E004C0880F991FAA1FBB1F2A95BC
S1132B90D2F7CACF89E00E94AE128111CBC160E1A5
S1132BA070E0CE0101960E94FD12892B09F4C2C186
S1132BB02B858C85F1FE16C02F73881F8827881FEC
S1132BC090E00196820F911D820F911D2E85229512
S1132BD0269526952370215002C0880F991F2A95A7
S1132BE0E2F71CC0382F337082958695877090E089
S1132BF0F8E03F9F800D911D112401962C7730E061
S1132C0035952795359527952F5F3F4F829FA001D6
S1132C10839F500D929F500D1124CA01A0E0B0E093
S1132C2083CFB0903E028B2D867011F411E089C1E0
S1132C30BE016F5F7F4F83E30E94F1148111F6CFD1
S1132C408981829586958695837019F48B8586FF94
S1132C50EDCFF8014081518162817381C480D580B8
S1132C60E680F780B3FC0EC039E0440F551F661FA1
S1132C70771F3A95D1F7E9E0CC0CDD1CEE1CFF1C64
S1132C80EA95D1F780E20E94AE128111CFCFB7014D
S1132C90A60181E20E94AE128111C8CF40E050E04B
S1132CA0BA0186E20E94AE128111C0CF80E395E79B
S1132CB00E947D1211E0892B09F443C147C0809121
S1132CC03E02FB01808342C040E050E0BA0189E04B
S1132CD004C040E050E0BA018AE00E94AE128111C3
S1132CE029C160E170E023C040E050E0BA018AE30A
S1132CF00E94AE1281111EC17801F4E0EF0EF11CA6
S1132D008FEF0E947712F80181938F01EE15FF0572
S1132D10B9F70FCF40E050E0BA018DE80E94AE123F
S1132D20811108C18FEF0E94771260E470E0C8013E
S1132D300E94FD1211E0892B09F4FDC0FACE0E9415
S1132D4070128091060181608093060110E0F9C041
S1132D50FB01438154816581768139E0440F551F1D
S1132D60661F771F3A95D1F77068808190E0A0E0E4
S1132D70B0E02CE1880F991FAA1FBB1F2A95D1F739
S1132D80482B592B6A2B7B2B81819281019791705F
S1132D90A0E0B0E0482B592B6A2B7B2B80E30E94E8
S1132DA0AE128111C7C084E6809340028FEF0E9467
S1132DB077128F3F29F4809140028111F7CFBAC076
S1132DC08E3F09F0B7C0F801E780F084C180D2805B
S1132DD0CE0CDF1CCE14DF0439F08FEF0E94771283
S1132DE0F70181937F01F6CFF8018181928102E09E
S1132DF012E0081B190B0115110509F49ACE8FEF87
S1132E000E94771201501109F6CFFB0143815481CE
S1132E106581768139E0440F551F661F771F3A9507
S1132E20D1F77068808190E0A0E0B0E02CE1880FD9
S1132E30991FAA1FBB1F2A95D1F7482B592B6A2B20
S1132E407B2B8181928101979170A0E0B0E0482BA7
S1132E50592B6A2B7B2B81E30E94AE1281116AC02D
S1132E608FEF0E9477128EEF0E947712F801E780AD
S1132E70F084C180D280CE0CDF1CEC14FD0431F050
S1132E80F70181917F010E947712F7CFF8018181C8
S1132E90928102E012E0081B190B8FEF0115110556
S1132EA009F441C00E94771201501109F6CFFB01C9
S1132EB0438154816581768189E0440F551F661FE3
S1132EC0771F8A95D1F77468808190E0A0E0B0E024
S1132ED02CE1880F991FAA1FBB1F2A95D1F7482BF5
S1132EE0592B6A2B7B2B828190E0A0E0B0E0482B29
S1132EF0592B6A2B7B2B81E30E94AE1281111AC0DD
S1132F008FEF0E9477128EEF0E947712F801818171
S1132F100E94771201E012E08FEF0E9477120150B5
S1132F201109D1F78FEF0E9477128F7111E085306C
S1132F3011F4FFCD11E00E94941203C014E001C00B
S1132F4013E0812F60960FB6F894DEBF0FBECDBF9D
S1132F50DF91CF911F910F91FF90EF90DF90CF9071
S1132F60BF90089580914002882319F08150809386
S1132F70400280913F02882319F0815080933F02E0
S1132F8080910601897F8093060108950C9458135B
S1132F908091060108950F931F93CB01BA01A901F3
S1132FA098011F910F910C942A140F931F93CB0136
S1132FB0BA01A90198011F910F910C947014862FE6
S1132FC0BA010C94F1140F931F93E3E8F3E04281E8
S1132FD050E060E070E085E1440F551F661F771FE5
S1132FE08A95D1F78381682B858190E0A0E0B0E0D9
S1132FF02BE0880F991FAA1FBB1F2A95D1F7482BD6
S1133000592B6A2B7B2B868190E0A0E0B0E035E061
S1133010880F991FAA1FBB1F3A95D1F7842B952BB4
S1133020A62BB72B27812695AC01BD01422B8081AD
S113303091818C5B9740A0E0B0E0E9E1880F991F93
S1133040AA1FBB1FEA95D1F78A019B01082B192BF4
S11330502A2B3B2BC901B8011F910F910895419868
S1133060289808955D9AEFE4F3EC3197F1F700C0E6
S113307000005D9821E030E028173907A4F4FFEF41
S113308040E752E0F15040405040E1F700C00000FA
S11330905D9AEFE4F3EC3197F1F700C000005D981E
S11330A02F5F3F4FE9CF08950E94B1200E94DB2596
S11330B0539A559A519A579A399A509A0E942F18AE
S11330C038983A98509852985A9AF89487E8809386
S11330D07A0084B7826084BFE89A0E94362788E821
S11330E00E943D270E940C2980E197E29093890079
S11330F080938800109285001092840010928000C2
S11331008AE08093810080916F00826080936F00D9
S11331108091B60080628093B6001092B200109243
S1133120B00085E88093B100809170008160809345
S113313070005F9883E392E00E94CB2D9093A602E7
S11331408093A5022FEF84E39CE0215080409040BF
S1133150E1F700C00000789480918B038823C9F0C4
S113316081E080937E03809307011092B102109254
S1133170B20280917F0390918003A0918103B0916A
S113318082038093090190930A01A0930B01B093E9
S11331900C0180917E03811112C08091A7028111DC
S11331A00EC041E06FE571E08091A5029091A60206
S11331B00E945B0C811103C081E08093A70280917F
S11331C07E03882341F08091B202811104C083B749
S11331D0817F866002C083B7817F83BF83B78160AC
S11331E083BF889583B78E7F83BFD3CF1F920F92FF
S11331F00FB60F9211244F925F926F927F92BF92FB
S1133200CF92DF92EF92FF920F931F932F933F93EE
S11332104F935F936F937F938F939F93AF93BF93DA
S1133220EF93FF93CF93DF93CDB7DEB76197DEBF04
S1133230CDBF2091C6002E3731F481E080937C030A
S113324080937D0326C280917D03882309F421C2E3
S113325030917C03313091F1323021F42D5F209391
S11332607B032CC0333041F4203931F02D3A31F551
S113327084E08093080122C0409108014317F0F4D0
S113328060917B03832F90E050E0841B950BFC013D
S1133290EA5EFC4F361788F0108210927D0310927C
S11332A07B0310927C0380E090E0FC01ED54FD4F21
S11332B02081222349F00196F8CF208380917C035A
S11332C08F5F80937C03E5C18336910599F000E01C
S11332D010E022E9E22E21E0F22EBB24B3943DE675
S11332E0C32E31E0D32EF801E95EFC4F2081211179
S11332F004C0E4CF80E090E0EACF03361105F1F298
S11333002081FC01ED54FD4F208301960F5F1F4F78
S11333102D3049F7FC01ED54FD4F108243E050E09D
S113332061E571E083EB92E00E94312F892B19F45F
S113333085E591E0A7C143E050E060E671E083EBEE
S113334092E00E94312F892B09F05FC01B864AE06E
S113335050E066EB72E0CE0101960E943F2FCE0151
S113336001960E940A2F60937F03709380038093D9
S113337081039093820381E09091C002943709F015
S113338080E08093070181E09091C102943709F0B5
S113339080E08093B20281E09091C202943709F0F8
S11333A080E08093B1028091130190911401909375
S11333B0B0028093AF028091110190911201909319
S11333C0AE028093AD0280910F0190911001909311
S11333D0AC028093AB0280910D0190910E01909309
S11333E0AA028093A9020E94402684E691E00E94EA
S11333F0C4292FEF80E792E0215080409040E1F70C
S113340000C00000B0927E033FC143E050E069E693
S113341071E083EB92E00E94312F892B09F0AFC059
S113342010927E0381E09091B602943709F080E017
S11334308093180181E09091BC02943709F080E0F8
S11334408093170181E09091C202943709F080E0E3
S11334508093160181E09091C802943709F080E0CE
S113346080931501198A45E050E067EB72E0CE01C4
S11334700C960E943F2FCE010C960E94EC2E909346
S113348014018093130145E050E06DEB72E0CE012E
S11334900C960E943F2FCE010C960E94EC2E909326
S11334A012018093110145E050E063EC72E0CE011B
S11334B00C960E943F2FCE010C960E94EC2E909306
S11334C0100180930F0145E050E069EC72E0CE01F9
S11334D00C960E943F2FCE010C960E94EC2E9093E6
S11334E00E0180930D011B864AE050E06EEC72E001
S11334F0CE0101960E943F2FCE0101960E940A2F11
S11335006093090170930A0180930B0190930C015D
S11335104090090150900A0160900B0170900C01D9
S113352060910D0170910E01B091150140910F0150
S113353050911001A09116012091110130911201B6
S1133540F09117018091130190911401E0911801F9
S11335507F926F925F924F927F936F931F92BF936C
S11335605F934F931F92AF933F932F931F92FF93B9
S11335709F938F931F92EF93DF92CF9241C043E0CA
S113358050E06EE871E083EB92E00E94312F892BCA
S113359009F046C04090090150900A0160900B0167
S11335A070900C0160910D0170910E01B0911501A4
S11335B040910F0150911001A09116012091110129
S11335C030911201F091170180911301909114012F
S11335D0E09118017F926F925F924F927F936F9365
S11335E01F92BF935F934F931F92AF933F932F9379
S11335F01F92FF939F938F931F92EF93FF92EF92EB
S113360081E492E09F938F930E949B2F81E492E048
S11336100E94C4290FB6F894DEBF0FBECDBF34C0DC
S113362043E050E063EB71E083EB92E00E94312FC2
S1133630892B29F410927E0387EB91E023C043E0A9
S113364050E06CEB71E083EB92E00E94312F892B08
S113365039F483EB92E00E9408226CEB71E00CC019
S113366043E050E060EC71E083EB92E00E94312F84
S1133670892B51F460EC71E081E492E00E94922481
S113368081E492E00E94C4291092B30280E090E0A9
S11336902ACE61960FB6F894DEBF0FBECDBFDF9180
S11336A0CF91FF91EF91BF91AF919F918F917F91B6
S11336B06F915F914F913F912F911F910F91FF90C7
S11336C0EF90DF90CF90BF907F906F905F904F907E
S11336D00F900FBE0F901F9018951F920F920FB668
S11336E00F9211242F933F934F935F936F937F9384
S11336F08F939F93AF93BF93EF93FF930E94B2175F
S1133700FF91EF91BF91AF919F918F917F916F91B5
S11337105F914F913F912F910F900FBE0F901F908B
S113372018951F920F920FB60F9211244F925F9229
S11337306F927F928F929F92AF92BF92CF92DF92BD
S1133740EF92FF920F931F932F933F934F935F93A7
S11337506F937F938F939F93AF93BF93EF93FF9355
S1133760CF93DF93CDB7DEB7C455D109DEBFCDBF4C
S113377080917F0390918003A0918103B091820393
S11337800196A11DB11D80937F0390938003A093A4
S11337908103B093820380917E03882309F4FEC3DE
S11337A040917F0350918003609181037091820363
S11337B08091090190910A01A0910B01B0910C0133
S11337C0481759076A077B0708F477C480910F01EB
S11337D0909110012091AB023091AC02821B930BAB
S11337E0449710F4419A289A7E0126E4E20EF11CD3
S11337F084E0E1E3F1E0D70101900D928A95E1F7CD
S113380083E0F7013496DF01282F1D922A95E9F70A
S113381094E0E1E3F1E0DE01DF9601900D929A95E8
S1133820E1F7FE01ED5BFF4FDF01282F1D922A9582
S1133830E9F794E0E1E3F1E0DE01D89601900D921E
S11338409A95E1F7FE01FC96DF01282F1D922A9537
S1133850E9F794E0E1E3F1E0DE01D19601900D9205
S11338609A95E1F7FE01F596DF01282F1D922A951E
S1133870E9F794E0E1E3F1E0DE019A9601900D921C
S11338809A95E1F7FE01BE96DF01282F1D922A9535
S1133890E9F794E0E1E3F1E0DE01939601900D9203
S11338A09A95E1F7FE01B796DF011D928A95E9F733
S11338B084E0E1E3F1E0DE015A9601900D928A95ED
S11338C0E1F7FE017E9685E0DF011D928A95E9F716
S11338D08091AB029091AC0201969093AC028093DC
S11338E0AB0280911601882309F4B2C020910F0124
S11338F0309110018091AB029091AC028217930732
S113390008F4A6C023E230E060E070E0CB01812C33
S1133910912C54015EE447ECA2E450937C00EFE068
S1133920F7E23197F1F700C0000040937A00E0918C
S11339307A00E6FDFCCFE0917800F09179008E0EDC
S11339409F1EA11CB11CA0937C00EFE0F7E231970D
S1133950F1F700C0000040937A00E0917A00E6FDA0
S1133960FCCFE0917800F09179006E0F7F1F811DEC
S1133970911D2150310989F60E94B42A2B013C0182
S1133980C501B4010E94B42A9B01AC01C301B20178
S11339900E94402A2DEC3CEC4CE85FE30E94692B2A
S11339A04B015C018E010D5D1F4F24E046E00E9437
S11339B0AB2D2091190130911A0140911B015091B6
S11339C01C01C501B4010E94402A20E030E040E817
S11339D05FE30E94CE296B018C0120E030E0A90155
S11339E00E943B2A87FF04C0C12CD12C00E010E0C8
S11339F02EEE3CE74FE952E4B601C8010E94692B60
S1133A0029EC36E740E451E40E94CE299601A8014E
S1133A100E94692B2CE032E047E150E40E94CF2958
S1133A209601A8010E94692B8E01065D1F4F24E0B8
S1133A3046E00E94AB2D1092AC021092AB02809132
S1133A400F0190911001449728F00E942F1802C092
S1133A5080E001C081E02091AF023091B0022F5F7D
S1133A603F4F3093B0022093AF02909118019923F5
S1133A7009F493C040911301509114012091AF02B5
S1133A803091B0022417350708F487C01E861F86BC
S1133A90188A198A19821A821B821C82BE016F5FDE
S1133AA07F4FCE010E960E946727882309F470C0C9
S1133AB060912D0170912E0180912F019091300120
S1133AC080909C0390909D03A0909E03B0909F03D0
S1133AD02E853F85488959890E94692BA501940147
S1133AE00E94CF294B015C0120E030E048E452E41D
S1133AF00E94642B18160CF074C2812C912C58E48B
S1133B00A52E52E4B52E8E869F86A88AB98A609126
S1133B10290170912A0180912B0190912C014090F0
S1133B2098035090990360909A0370909B032981A5
S1133B303A814B815C810E94692BA30192010E940E
S1133B40CF292B013C0120E030E048EC52E40E94F4
S1133B50642B18160CF056C2412C512C38EC632EF1
S1133B6032E4732E49825A826B827C82870122E07E
S1133B7046E0C501B4010E94AB2D69817A818B8135
S1133B809C818E01015C1F4F22E046E00E94AB2D18
S1133B901092B0021092AF0281E02091AD023091F8
S1133BA0AE022F5F3F4F3093AE022093AD0290914F
S1133BB01701992309F4C2C04091110150911201D7
S1133BC02091AD023091AE022417350708F4B6C037
S1133BD023E230E060E070E0CB01812C912C5401B1
S1133BE05EEE47ECA0EE50937C00EFE0F7E23197F5
S1133BF0F1F700C0000040937A00E0917A00E6FDFE
S1133C00FCCFE0917800F09179008E0E9F1EA11CEC
S1133C10B11CA0937C00EFE0F7E23197F1F700C00C
S1133C20000040937A00E0917A00E6FDFCCFE09139
S1133C307800F09179006E0F7F1F811D911D215036
S1133C40310989F60E94B42A2B013C01C501B40153
S1133C500E94B42A9B01AC01C301B2010E94402A14
S1133C602DEC3CEC4CE85FE30E94692B4B015C01BA
S1133C708E010F5C1F4F24E046E00E94AB2D809123
S1133C80250190912601A0912701B0912801659604
S1133C908CAF9DAFAEAFBFAF65974090940350908B
S1133CA09503609096037090970320E030E040E025
S1133CB05FE3C501B4010E94CE292AE037ED43E257
S1133CC05CE30E94402A65962CAD3DAD4EAD5FADE0
S1133CD065970E94692BA30192010E94CF294B0191
S1133CE05C0120E030E048E452E40E94642B1816A2
S1133CF08CF020E030E040E251ECC501B4010E94B8
S1133D003B2A87FF0DC0812C912C90E2A92E91ECC7
S1133D10B92E06C0812C912C28E4A22E22E4B22EC6
S1133D208E01085C1F4F22E046E0C501B4010E94E9
S1133D30AB2D1092AE021092AD0281E02091A90247
S1133D403091AA022F5F3F4F3093AA022093A90219
S1133D5090911501992361F040910D0150910E014C
S1133D602091A9023091AA022417350708F057C1FF
S1133D70882309F402C180910701811196C18091C1
S1133D80B202811192C180917F0390918003A0912E
S1133D908103B091820380589344AD46B843619641
S1133DA08CAF9DAFAEAFBFAF6197BE01625F7F4F77
S1133DB0CE01835B9F4F0E941101BE84CB2C0B2C40
S1133DC0000CDD087F85072F072E000C110B788867
S1133DD0A72D072C000CBB0BA988EA2D0A2C000C7C
S1133DE0FF0B8B89082E000C990B01962C893D89B9
S1133DF02459384F4091B102411103C044EC51E0C1
S1133E0002C04FE551E04E0163E2860E911C9F9281
S1133E108F924E0161E3860E911C9F928F924E0108
S1133E206AE1860E911C9F928F924E016AE2860E81
S1133E30911C9F928F924E0168E3860E911C9F9273
S1133E408F924E016FE3860E911C9F928F92FF9288
S1133E50EF92DF92BF921F937F93BF937F92FF9362
S1133E60AF929F938F933F932F935F934F9389ECDC
S1133E7091E09F938F931F9284E68F9381E492E065
S1133E809F938F930E946B2F8DE08093A3021092D7
S1133E90A402809107010FB6F894DEBF0FBECDBF18
S1133EA0882321F081E492E00E9428298091B202C3
S1133EB0882321F081E492E00E947E298091B1025E
S1133EC0882309F45AC08091A702882309F455C0B5
S1133ED0BE84AF849888E988FB880C891D892DE00D
S1133EE0FE0131966F01DF01E22F1D92EA95E9F799
S1133EF00459184F8E2D0E2C000C990B9F93EF92A2
S1133F008F2D0F2C000C990B01969F938F931F9369
S1133F100F938FEF91E09F938F931F922F93DF92D4
S1133F20CF920E946B2F1093840300938303F39426
S1133F30F0928503E092860390928803A09289030D
S1133F40B0928A0382E292E00E94CB2D8C0142E37C
S1133F50B6010E949D0C0FB6F894DEBF0FBECDBF14
S1133F60811108C0B80181E492E00E944412C801A2
S1133F700E942612C8010E94632E8FE19EE40197DD
S1133F80F1F700C000008091B202811101C05F9A74
S1133F908091B102882309F490C01BC05F98AFECF4
S1133FA0B7E01197F1F700C000008091A8028111D9
S1133FB007C080E192E00E94C42986E08093A802B1
S1133FC08091A80281508093A8028091A702811158
S1133FD003C081E090E002C082E090E00E943218C9
S1133FE06CC020E030E040E251ECC501B4010E9415
S1133FF03B2A87FF88CD812C912C40E2A42E41ECF2
S1134000B42E81CD20E030E0A901C301B2010E94A9
S11340103B2A87FFA7CD412C512C3201A3CD88E840
S11340200E94A12820912101309122014091230175
S1134030509124018090900390909103A09092035A
S1134040B09093030E94692BA50194010E94CF298B
S11340504B015C012FEF3FE443EC57E40E94642BD7
S113406018166CF020E030E0A901C501B4010E94EB
S11340703B2A87FF0CC0812C912C540108C0882452
S11340808A948FE4982E83ECA82E87E4B82E8E01B0
S1134090065E1F4F22E048E0C501B4010E94AB2D2B
S11340A01092AA021092A90266CE5F98EFECF7E094
S11340B03197F1F700C0000066CECC5ADF4F0FB63F
S11340C0F894DEBF0FBECDBFDF91CF91FF91EF918A
S11340D0BF91AF919F918F917F916F915F914F911C
S11340E03F912F911F910F91FF90EF90DF90CF9010
S11340F0BF90AF909F908F907F906F905F904F9004
S11341000F900FBE0F901F9018951F920F920FB62D
S11341100F9211242F933F934F935F936F937F9349
S11341208F939F93AF93BF93EF93FF9310927E036C
S11341301092A7020E942F1883E090E00E94321888
S1134140FF91EF91BF91AF919F918F917F916F916B
S11341505F914F913F912F910F900FBE0F901F9041
S11341601895F999FECF89E390E00E948034843554
S113417009F4B3C0F999FECF40E050E060E87FE372
S113418085E390E00E94A634F999FECF40E050E028
S1134190BA0181E390E00E94A634F999FECF40E091
S11341A050E060E87FE38DE290E00E94A634F99944
S11341B0FECF40E050E0BA0189E290E00E94A634CC
S11341C0F999FECF40E050E060E87FE385E290E0BB
S11341D00E94A634F999FECF40E050E0BA0181E292
S11341E090E00E94A634F999FECF40E050E060E8E8
S11341F07FE38DE190E00E94A634F999FECF40E080
S113420050E0BA0189E190E00E94A634F999FECF0A
S113421040E050E060E87FE385E190E00E94A6344E
S1134220F999FECF40E050E0BA0181E190E00E94AC
S1134230A634F999FECF4AE959E969EB7FE38DE0A9
S113424090E00E94A634F999FECF64E58CE090E0FA
S11342500E949434F999FECF64E58BE090E00E94CB
S11342609434F999FECF64E58AE090E00E94943496
S1134270F999FECF64E589E090E00E949434F999BD
S1134280FECF6CE370E087E090E00E94B234F999CD
S1134290FECF6CE370E085E090E00E94B234F999BF
S11342A0FECF6CE370E083E090E00E94B234F999B1
S11342B0FECF6CE370E081E090E00E94B234F999A3
S11342C0FECF66E480E090E00E94B834F999FECF16
S11342D064E589E390E00E94B834F999FECF85E360
S11342E090E00E94883460932D0170932E01809396
S11342F02F0190933001F999FECF81E390E00E9461
S1134300883460939C0370939D0380939E039093E1
S11343109F03F999FECF8DE290E00E948834609368
S1134320290170932A0180932B0190932C01F99910
S1134330FECF89E290E00E948834609398037093E2
S1134340990380939A0390939B03F999FECF85E296
S113435090E00E9488346093250170932601809335
S1134360270190932801F999FECF81E290E00E9401
S11343708834609394037093950380939603909389
S11343809703F999FECF8DE190E00E948834609301
S11343902101709322018093230190932401F999C0
S11343A0FECF89E190E00E9488346093900370937B
S11343B091038093920390939303F999FECF85E13F
S11343C090E00E94883460931D0170931E018093D5
S11343D01F0190932001F999FECF81E190E00E94A2
S11343E0883460938C0370938D0380938E03909331
S11343F08F03F999FECF8DE090E00E94883460939A
S1134400190170931A0180931B0190931C01089564
S1134410CF92DF92EF92FF920F931F93CF93DF938C
S113442000D000D01F92CDB7DEB78C011D82BC0135
S11344306D5F7F4F44E050E0CE0101960E943F2F14
S1134440CE0101960E940A2F0E94B42A2FE632E17F
S113445043E85AE30E94692B6B017C012DEC3CEC90
S11344604CE45FE30E94642B87FD1AC02AE939E912
S113447049E95FE3C701B6010E943B2A181684F09C
S1134480C0922D01D0922E01E0922F01F0923001C2
S1134490F999FECFB701A60185E390E00E94A63406
S11344A044E050E0B801695F7F4FCE0101960E945D
S11344B03F2FCE0101960E940A2F0E94B42A2AE0BF
S11344C037ED43E25CE30E94692B6B017C0120E041
S11344D030E040E450EC0E94642B87FD1AC020E0D9
S11344E030E040E450E4C701B6010E943B2A1816AC
S11344F084F0C0929C03D0929D03E0929E03F092BC
S11345009F03F999FECFB701A60181E390E00E94D1
S1134510A63444E050E0B801655F7F4FCE010196B8
S11345200E943F2FCE0101960E940A2F0E94B42AB6
S11345302FE632E143E85AE30E94692B6B017C01C8
S11345402DEC3CEC4CE45FE30E94642B87FD1AC025
S11345502AE939E949E95FE3C701B6010E943B2A28
S1134560181684F0C0922901D0922A01E0922B01FE
S1134570F0922C01F999FECFB701A6018DE290E0EB
S11345800E94A63444E050E0B801615F7F4FCE0141
S113459001960E943F2FCE0101960E940A2F0E948D
S11345A0B42A2AE037ED43E25CE30E94692B6B01F5
S11345B07C012AE037ED4FE151EC0E94642B87FD2A
S11345C01AC02AE037ED4FE151E4C701B6010E9459
S11345D03B2A181684F0C0929803D0929903E09273
S11345E09A03F0929B03F999FECFB701A60189E2E1
S11345F090E00E94A63444E050E0B8016D5E7F4F25
S1134600CE0101960E943F2FCE0101960E940A2FEF
S11346100E94B42A2FE632E143E85AE30E94692B50
S11346206B017C012DEC3CEC4CE45FE30E94642BB9
S113463087FD1AC02AE939E949E95FE3C701B601F0
S11346400E943B2A181684F0C0922501D0922601BC
S1134650E0922701F0922801F999FECFB701A60153
S113466085E290E00E94A63444E050E0B801695E1F
S11346707F4FCE0101960E943F2FCE0101960E94EA
S11346800A2F0E94B42A2AE037ED43E25CE30E9439
S1134690692B6B017C0120E030E040E450EC0E9487
S11346A0642B87FD1AC020E030E040E450E4C701E9
S11346B0B6010E943B2A181684F0C0929403D0924B
S11346C09503E0929603F0929703F999FECFB70110
S11346D0A60181E290E00E94A63444E050E0B801D3
S11346E0655E7F4FCE0101960E943F2FCE01019659
S11346F00E940A2F0E94B42A2FE632E143E85AE3CB
S11347000E94692B6B017C012DEC3CEC4CE45FE3D3
S11347100E94642B87FD1AC02AE939E949E95FE35D
S1134720C701B6010E943B2A181684F0C0922101E9
S1134730D0922201E0922301F0922401F999FECF54
S1134740B701A6018DE190E00E94A63444E050E058
S1134750B801615E7F4FCE0101960E943F2FCE01CA
S113476001960E940A2F0E94B42A6B017C0120E06A
S113477030EC49E754EC0E94642B87FD1AC020E01A
S113478030EC49E754E4C701B6010E943B2A1816ED
S113479084F0C0929003D0929103E0929203F0923D
S11347A09303F999FECFB701A60189E190E00E9435
S11347B0A63444E050E0B8016D5D7F4FCE01019610
S11347C00E943F2FCE0101960E940A2F0E94B42A14
S11347D02FE632E143E85AE30E94692B6B017C0126
S11347E02DEC3CEC4CE45FE30E94642B87FD1AC083
S11347F02AE939E949E95FE3C701B6010E943B2A86
S1134800181684F0C0921D01D0921E01E0921F017F
S1134810F0922001F999FECFB701A60185E190E05D
S11348200E94A63444E050E0B801695D7F4FCE0198
S113483001960E943F2FCE0101960E940A2F0E94EA
S1134840B42A2FE632E143E85AE30E94692B6B0154
S11348507C0120E030E040E05FEB0E94642B87FDA8
S11348601AC020E030E040E05FE3C701B6010E94D7
S11348703B2A181684F0C0928C03D0928D03E092E8
S11348808E03F0928F03F999FECFB701A60181E15F
S113489090E00E94A634B801655D7F4F44E050E08B
S11348A0CE0101960E943F2FCE0101960E940A2F4D
S11348B00E94B42A2FE632E143E85AE30E94692BAE
S11348C06B017C0123E333E343EB5FE30E94642B3E
S11348D087FD1AC020E030E040EC5FE3C701B60179
S11348E00E943B2A181684F0C0921901D0921A0132
S11348F0E0921B01F0921C01F999FECFB701A601C9
S11349008DE090E00E94A6340F900F900F900F90CE
S11349100F90DF91CF911F910F91FF90EF90DF9057
S1134920CF9008952F923F924F925F926F927F9211
S11349308F929F92AF92BF92CF92DF92EF92FF92AB
S11349400F931F93CF93DF93CDB7DEB7CC54D10928
S11349500FB6F894DEBF0FBECDBF2A968FAF2A974D
S11349602B969FAF2B972C966FAF2C972D967FAFDE
S11349702D9760912D0170912E0180912F019091BE
S113498030012E0128E3420E511C820123E045E050
S11349900E94AB2D60919C0370919D0380919E03B6
S11349A090919F031E0132E3230E311C810122E00A
S11349B045E00E94AB2D6091290170912A018091FC
S11349C02B0190912C019E01245D3F4F25963FAF12
S11349D02EAF2597890123E045E00E94AB2D60911D
S11349E098037091990380919A0390919B039E017F
S11349F02A5D3F4F27963FAF2EAF2797890122E0CC
S1134A0045E00E94AB2D60912501709126018091B3
S1134A102701909128019E01205E3F4F29963FAFC8
S1134A202EAF2997890123E045E00E94AB2D6091C8
S1134A3094037091950380919603909197037E015E
S1134A403AE1E30EF11C870122E045E00E94AB2D20
S1134A5060912101709122018091230190912401A0
S1134A606E0124E1C20ED11C860123E045E00E94C0
S1134A70AB2D60919003709191038091920390917A
S1134A8093035E013EE3A30EB11C850120E044E0E4
S1134A900E94AB2D60911D0170911E0180911F0138
S1134AA0909120014E012EE0820E911C840123E09E
S1134AB045E00E94AB2D60918C0370918D03809131
S1134AC08E0390918F030D50110923E046E00E945C
S1134AD0AB2D6091190170911A0180911B01909185
S1134AE01C013E0138E0630E711C830123E045E0A4
S1134AF00E94AB2D7F926F9281E090E08C0F9D1FFE
S1134B009F938F939F928F92BF92AF92DF92CF9297
S1134B10FF92EF9229969FAD29979F9328962FADE8
S1134B2028972F9327963FAD27973F9326968FADCF
S1134B3026978F9325969FAD25979F9324962FAD07
S1134B4024972F933F922F925F924F922D963FADD1
S1134B502D973F932C968FAD2C978F9385E192E000
S1134B609F938F932B969FAD2B979F932A962FAD50
S1134B702A972F930E949B2F0FB6F894DEBF0FBE87
S1134B80CDBFC45BDF4F0FB6F894DEBF0FBECDBF01
S1134B90DF91CF911F910F91FF90EF90DF90CF9015
S1134BA0BF90AF909F908F907F906F905F904F9049
S1134BB03F902F900895F999FECF80E090E00E94F5
S1134BC0803491E0843509F090E090938B03F99957
S1134BD0FECF8CE090E00E94803491E0843509F0AF
S1134BE090E090931801F999FECF87E090E00E943D
S1134BF08E349093140180931301F999FECF8BE0C6
S1134C0090E00E94803491E0843509F090E0909324
S1134C101701F999FECF85E090E00E948E349093BD
S1134C20120180931101F999FECF8AE090E00E946D
S1134C30803491E0843509F090E090931601F9995D
S1134C40FECF83E090E00E948E3490931001809315
S1134C500F01F999FECF89E090E00E94803491E041
S1134C60843509F090E090931501F999FECF81E025
S1134C7090E00E948E3490930E0180930D0108956C
S1134C80F999FECF80918B03811102C066E401C0C3
S1134C9064E580E090E00E949434F999FECF80911D
S1134CA01801811102C066E401C064E58CE090E063
S1134CB00E949434F999FECF60911301709114010C
S1134CC087E090E00E94B234F999FECF80911701F9
S1134CD0811102C066E401C064E58BE090E00E94AB
S1134CE09434F999FECF609111017091120185E01D
S1134CF090E00E94B234F999FECF8091160181119F
S1134D0002C066E401C064E58AE090E00E94943445
S1134D10F999FECF60910F017091100183E090E04A
S1134D200E94B234F999FECF80911501811102C01D
S1134D3066E401C064E589E090E00E949434F99946
S1134D40FECF60910D0170910E0181E090E00C9412
S1134D50B2343D9885E88A95F1F7000008953D9AAC
S1134D6085E88A95F1F7000008953D983C9A85E816
S1134D708A95F1F700000C94AF263C9A85E88A9551
S1134D80F1F700003D9880E58A95F1F73C9885E8B5
S1134D908A95F1F700000895CF93DF93D82FC8E0E8
S1134DA00E94AF26D7FF02C03C9801C03C9A85E818
S1134DB08A95F1F700000E94A926359BFECFDD0FEE
S1134DC0C15071F70E94AF263C9885E88A95F1F7A7
S1134DD000003D98359BFECF85E88A95F1F70000E9
S1134DE0C6B10E94AF26C295C17081E08C27DF91C5
S1134DF0CF910895EF92FF920F931F93CF93DF9378
S1134E00082FC0E0D0E010E080E8E82EF12C0E94EA
S1134E10AF260E94A926359BFECF349B08C0C7014C
S1134E200C2E02C0959587950A94E2F7182B2196CB
S1134E30C830D10561F70E94AF26002311F03C9AD7
S1134E4001C03C9885E88A95F1F700000E94A926E4
S1134E500E94AF263C9820E52A95F1F7812FDF9137
S1134E60CF911F910F91FF90EF90089587B18F7CA0
S1134E7087B988B1807388B90895CF93C82F0E94E9
S1134E80B5268C2F0E94CC2681E00E94CC268EEC85
S1134E900E94CC2680E00E94CC260E94BD268FEC86
S1134EA097E00197F1F700C000000E94B5268C2F0F
S1134EB00E94CC2680E00E94CC260E94BD268FEC66
S1134EC097E00197F1F700C00000CF9108958F9209
S1134ED09F92AF92BF92CF92DF92EF92FF920F9385
S1134EE01F93CF93DF938C016B010E94B52680E75B
S1134EF00E94CC268EEB0E94CC2688E00E94CC2611
S1134F0080E00E94CC260E94BD268FE19EE401979A
S1134F10F1F700C000000E94B52680E70E94CC266D
S1134F2085EF0E94CC26EFE3FCE93197F1F700C04E
S1134F3000000E94BD260E94B52680E70E94CC2670
S1134F4083EF0E94CC268FE39CE90197F1F700C020
S1134F5000000E94BD260E94B52680E70E94CC2650
S1134F608CEA0E94CC2683E30E94CC2680E00E9437
S1134F70CC260E94BD269FEFE0E7F2E09150E0408E
S1134F80F040E1F700C000000E94B52681E70E94CE
S1134F90CC2681E00E94FA2687FF12C080E090E0D0
S1134FA0A6ECB2ECF60180839183A283B383F8016B
S1134FB080839183A283B3830E94BD2680E0B4C022
S1134FC081E00E94FA26B82E81E00E94FA26E82E9B
S1134FD081E00E94FA26C82F81E00E94FA26F82E6A
S1134FE081E00E94FA26D82F80E00E94FA260E94CF
S1134FF0BD266B2D70E080E090E00E94B42A20E092
S113500030E0A9010E94CF2920E030E040E853E4D9
S11350100E94692B4B015C016E2D70E080E090E0F2
S11350200E94B42AA50194010E94CF2920E030E017
S113503040E851E40E94692B4B015C016C2F70E045
S113504084E0759567958A95E1F7072E000C880B27
S1135050990B0E94B42AA50194010E94CF2920E053
S113506030E048EC52E40E94692B20E030E040E854
S11350705AE30E94692B20E030E040E85AE30E94A2
S1135080692BF60160837183828393836C2F6F7025
S113509070E080E090E00E94B42A20E030E0A901B2
S11350A00E94CF2920E030E040E853E40E94692BBD
S11350B04B015C016F2D70E080E090E00E94B42A07
S11350C0A50194010E94CF2920E030E040E853E498
S11350D00E94692B6B017C016D2F70E080E090E0F1
S11350E00E94B42AA70196010E94CF2920E030E053
S11350F048E453E40E94692B20E030E040E85AE39E
S11351000E94692B20E030E040E85AE30E94692BBA
S113511020E030E048E452E40E94CE29F8016083A4
S113512071838283938381E0DF91CF911F910F91EB
S1135130FF90EF90DF90CF90BF90AF909F908F90B3
S113514008958F929F92AF92BF92CF92DF92EF9287
S1135150FF92CF93C82F0E94B52681E08C0F0E9446
S1135160CC2685E88A95F1F7000081E00E94FA26B2
S1135170C82F80E00E94FA26B82E0E94BD266C2F0C
S113518062956F7070E080E090E00E94B42A9B0109
S1135190AC0160E070E080E090E40E94D62B6B01EB
S11351A07C01CF706C2F70E0762F66276B0D711D1C
S11351B0072E000C880B990B0E94B42A4B015C014A
S11351C02AE037ED43E25CE3C701B6010E94692B94
S11351D09B01AC01C501B4010E94692BD62EE72EB8
S11351E0F82EC92F2DEC3CEC43EA57E40E94642BC3
S11351F0181624F4D12CE12CF12CC0E06D2D7E2D59
S11352008F2D9C2FCF91FF90EF90DF90CF90BF9088
S1135210AF909F908F9008951092C50083E3809380
S1135220C40088E98093C10086E08093C200089599
S11352309091C00095FFFCCF8093C6000895FC01B7
S11352409F01281B390B41914111FACFC9010895DF
S1135250AF92BF92CF92DF92EF92FF920F931F9380
S1135260CF93DF937C010E941F298C018EE70E945B
S11352701829C8010E96892F0E9418298EE0800FE4
S11352800E94182980E10E94182980E00E941829B0
S1135290C8E0D0E080E00E9418292197D9F78FEF69
S11352A00E9418298EEF0E94182980E00E94182974
S11352B080E00E9418296701CDE0D0E0C6018E1974
S11352C09F098017910764F45601F60181916F01DB
S11352D00E941829F5018081C80FD11DDD27EECF6A
S11352E08C2F8095DF91CF911F910F91FF90EF90BC
S11352F0DF90CF90BF90AF900C941829AF92BF92DB
S1135300CF92DF92EF92FF920F931F93CF93DF938D
S11353106C010E941F297C018EE70E941829C70195
S11353200396892F0E94182983E08E0D0E94182964
S11353308DE20E94182980E00E94182981E00E94D1
S113534018298601CEE2D0E0C8018C199D098E157A
S11353509F0564F45801F80181918F010E94182976
S1135360F5018081C80FD11DDD27EECF8C2F8095EC
S1135370DF91CF911F910F91FF90EF90DF90CF902D
S1135380BF90AF900C941829CF93DF93EC010E9447
S11353902829CE01DF91CF910C947E295058BB2748
S11353A0AA270E94E6290C942A2B0E941C2B38F071
S11353B00E94232B20F039F49F3F19F426F40C9417
S11353C0192B0EF4E095E7FB0C94132BE92F0E94A4
S11353D03B2B58F3BA17620773078407950720F02D
S11353E079F4A6F50C945D2B0EF4E0950B2EBA2FF0
S11353F0A02D0B01B90190010C01CA01A0011124D7
S1135400FF27591B99F0593F50F4503E68F11A1682
S1135410F040A22F232F342F4427585FF3CF469513
S113542037952795A795F0405395C9F77EF41F1635
S1135430BA0B620B730B840BBAF09150A1F0FF0FFF
S1135440BB1F661F771F881FC2F70EC0BA0F621FEB
S1135450731F841F48F4879577956795B795F795DB
S11354609E3F08F0B0CF9395880F08F09927EE0F70
S11354709795879508950E94EF2A08F481E008958E
S11354800E94542A0C942A2B0E94232B58F00E9429
S11354901C2B40F029F45F3F29F00C94132B51117D
S11354A00C945E2B0C94192B0E943B2B68F39923CC
S11354B0B1F3552391F3951B550BBB27AA2762170C
S11354C07307840738F09F5F5F4F220F331F441F19
S11354D0AA1FA9F335D00E2E3AF0E0E832D091504D
S11354E05040E695001CCAF72BD0FE2F29D0660F3A
S11354F0771F881FBB1F261737074807AB07B0E87D
S113550009F0BB0B802DBF01FF2793585F4F3AF082
S11355109E3F510578F00C94132B0C945E2B5F3F47
S1135520E4F3983ED4F3869577956795B795F79508
S11355309F5FC9F7880F911D9695879597F90895F0
S1135540E1E0660F771F881FBB1F6217730784078C
S1135550BA0720F0621B730B840BBA0BEE1F88F79B
S1135560E0950895E89409C097FB3EF490958095E2
S1135570709561957F4F8F4F9F4F9923A9F0F92F15
S113558096E9BB279395F695879577956795B79593
S1135590F111F8CFFAF4BB0F11F460FF1BC06F5F79
S11355A07F4F8F4F9F4F16C0882311F096E911C08B
S11355B0772321F09EE8872F762F05C0662371F0AC
S11355C096E8862F70E060E02AF09A95660F771FC0
S11355D0881FDAF7880F9695879597F90895990F9C
S11355E00008550FAA0BE0E8FEEF16161706E807A9
S11355F0F907C0F012161306E407F50798F0621BCA
S1135600730B840B950B39F40A2661F0232B242B9E
S1135610252B21F408950A2609F4A140A6958FEFBD
S1135620811D811D089597F99F6780E870E060E00F
S113563008959FEF80EC089500240A941616170627
S113564018060906089500240A941216130614066F
S113565005060895092E0394000C11F4882352F0D2
S1135660BB0F40F4BF2B11F460FF04C06F5F7F4F8A
S11356708F4F9F4F089557FD9058440F551F59F071
S11356805F3F71F04795880F97FB991F61F09F3F2B
S113569079F087950895121613061406551FF2CF54
S11356A04695F1DF08C0161617061806991FF1CFA4
S11356B086957105610508940895E894BB276627CB
S11356C07727CB0197F908950E94EF2A08F48FEF0A
S11356D008950E947C2B0C942A2B0E941C2B38F0DA
S11356E00E94232B20F0952311F00C94132B0C947F
S11356F0192B11240C945E2B0E943B2B70F3959F65
S1135700C1F3950F50E0551F629FF001729FBB27B4
S1135710F00DB11D639FAA27F00DB11DAA1F649F50
S11357206627B00DA11D661F829F2227B00DA11D03
S1135730621F739FB00DA11D621F839FA00D611D89
S1135740221F749F3327A00D611D231F849F600DAA
S1135750211D822F762F6A2F11249F5750409AF0D3
S1135760F1F088234AF0EE0FFF1FBB1F661F771F5F
S1135770881F91505040A9F79E3F510580F00C942A
S1135780132B0C945E2B5F3FE4F3983ED4F3869581
S113579077956795B795F795E7959F5FC1F7FE2BCA
S11357A0880F911D9695879597F90895FA01EE0F44
S11357B0FF1F309621053105A1F16115710561F4D2
S11357C08038BFE39B0749F168949038810561F004
S11357D08038BFEF9B0741F099234AF5FF3FE1056D
S11357E03105210519F1E8940894E795D901AA2314
S11357F029F4AB2FBE2FF85FD0F310C0FF5F70F415
S1135800A695E0F7F73950F019F0FF3A38F49F778E
S11358109F930DD00F9007FC9058089546F00C9478
S1135820192B60E070E080E89FE308954FE79F77CD
S11358305F934F933F932F930E94D12C2F913F91CD
S11358404F915F910E94692B0C942E2C29F416F031
S11358500C94132B0C945D2B0C94192B0E94432B4A
S1135860A8F39638A0F707F80F92E8942BE33AEAE6
S113587048EB5FE70E947F2B0F920F920F924DB778
S11358805EB70F920E94192DE8E6F0E00E94602CAA
S11358904F915F91EF91FF91E595EE1FFF1F49F046
S11358A0FE57E0684427EE0F441FFA95E1F741954F
S11358B0550B0E94932C0F9007FE0C94872C08958F
S11358C0DF93CF931F930F93FF92EF92DF927B01AD
S11358D08C01689406C0DA2EEF010E947C2BFE0135
S11358E0E894A5912591359145915591A6F3EF0141
S11358F00E94E629FE019701A801DA9469F7DF9076
S1135900EF90FF900F911F91CF91DF9108959B012C
S1135910AC0160E070E080E89FE30C94402A0C94B2
S1135920132B0C944D2D0E94432BD8F39923C9F3C8
S1135930940F511DA3F39150504094F059F08823D3
S113594032F0660F771F881F91505040C1F79E3F79
S113595051052CF7880F911D9695879597F9089511
S11359605F3FACF0983E9CF0BB2786957795679592
S1135970B79508F4B1609395C1F7BB0F58F711F4CC
S113598060FFE8CF6F5F7F4F8F4F9F4FE3CF0C9443
S11359905E2B16F00C944D2D0C94192B68940C94DA
S11359A0132B0E94432BA8F39923C1F3AEF3DF9387
S11359B0CF931F930F93FF92C92FDD2788232AF0DB
S11359C02197660F771F881FDAF720E030E040E860
S11359D05FEB9FE3883920F0803E38F021968F7783
S11359E00E94CF29E0E9F0E004C00E94CF29EDEB4A
S11359F0F0E00E94602C8B01BE01EC01FB2E6F577E
S1135A0071097595771F880B990B0E94B42A28E1B8
S1135A1032E741E35FE30E947C2BAF2D9801AE0196
S1135A20FF900F911F91CF91DF910E94E6290C9472
S1135A302A2BFA01DC01AA0FBB1F9B01AC01BF5743
S1135A4028F4222733274427507820C0B75190F4F4
S1135A50AB2F0024469537952795011CA395D2F3C7
S1135A60002071F0220F331F441FB395DAF30ED0D8
S1135A700C94CE2961307105A0E88A07B94630F448
S1135A809B01AC016627772788279078309621F010
S1135A90208331834283538308959F3F31F0915093
S1135AA020F4879577956795B795880F911D9695FE
S1135AB0879597F90895AA1BBB1B51E107C0AA1F3C
S1135AC0BB1FA617B70710F0A61BB70B881F991F9B
S1135AD05A95A9F780959095BC01CD010895A1E24E
S1135AE01A2EAA1BBB1BFD010DC0AA1FBB1FEE1F54
S1135AF0FF1FA217B307E407F50720F0A21BB30B9F
S1135B00E40BF50B661F771F881F991F1A9469F71A
S1135B1060957095809590959B01AC01BD01CF0176
S1135B2008950E949C2DA59F900DB49F900DA49F55
S1135B30800D911D11240895A29FB001B39FC0014F
S1135B40A39F700D811D1124911DB29F700D811DA5
S1135B501124911D0895EF920F931F93CF93DF9318
S1135B60E80147FD02C034E001C034E1042E000C1A
S1135B70550B57FF03C0519541955109E32E022F50
S1135B80242FAE010E949E31CE01DF91CF911F914F
S1135B900F91EF9008950F931F93CF93DF9382306B
S1135BA0910510F482E090E0E091A203F091A30348
S1135BB020E030E0A0E0B0E0309719F1408151815D
S1135BC00281138148175907C8F08417950769F4AF
S1135BD0109731F012960C93129713961C9327C0CA
S1135BE00093A2031093A30322C02115310519F0D9
S1135BF04217530718F49A01BD01EF01DF01F801C0
S1135C00DBCF21153105F9F0281B390B2430310580
S1135C1080F48A819B816115710521F0FB019383D6
S1135C20828304C09093A3038093A203FE0132965F
S1135C3044C0FE01E20FF31F819391932250310976
S1135C40398328833AC02091A0033091A103232BE8
S1135C5041F420910201309103013093A103209378
S1135C60A00320910001309101012115310541F477
S1135C702DB73EB74091040150910501241B350B0B
S1135C80E091A003F091A103E217F307A0F42E1B07
S1135C903F0B2817390778F0AC014E5F5F4F24178C
S1135CA0350748F04E0F5F1F5093A1034093A003A4
S1135CB08193919302C0E0E0F0E0CF01DF91CF91B6
S1135CC01F910F910895CF93DF93009709F481C03A
S1135CD0FC01329713821282A091A203B091A30314
S1135CE0109781F420813181820F931F2091A003AA
