S00F00006D6C6F676765722E7372656328
S11300000C9416010C9433010C9433010C943301B9
S11300100C9433010C94391C0C9433010C9433016B
S11300200C94E1200C94151C0C9433010C943301B2
S11300300C9433010C9433010C9433010C9433016C
S11300400C9433010C9433010C9433010C9433015C
S11300500C9433010C94A7190C9433010C943301C0
S11300600C9433010C9433010C9433010C9433013C
S11300700C9433010C9433010C9433010C9433012C
S11300800C9433010C9433010C9433010C9433011C
S11300900C9433010C9433010C9433010C9433010C
S11300A00C9433010C9433010C9433010C943301FC
S11300B007634236B79BD8A71A39685618AEBAAB4D
S11300C0558C1D3CB7CC5763BD6DEDFD753EF617E1
S11300D07231BF000000803F08000000BE92244936
S11300E0123EABAAAA2ABECDCCCC4C3E0000008066
S11300F0BEABAAAAAA3E00000000BF000000803FD9
S11301000000000000084178D3BB4387D1133D1998
S11301100E3CC3BD4282AD2B3E68EC8276BED98FC5
S1130120E1A93E4C80EFFFBE01C4FF7F3F00000009
S1130130000000407A10F35A00A0724E1809001013
S1130140A5D4E80000E87648170000E40B54020048
S113015000CA9A3B000000E1F50500008096980073
S1130160000040420F000000A0860100000010279C
S113017000000000E803000000006400000000002C
S11301800A00000000000100000000002C76D8885E
S1130190DC674F0823DFC1DFAE59E1B1B796E5E371
S11301A0E453C63AE651997696E8E6C28426EB898A
S11301B08C9B62ED407C6FFCEFBC9C9F40F2BAA527
S11301C06FA5F490055A2AF75C936B6CF9676DC1BF
S11301D01BFCE0E40D47FEF520E6B500D0ED902EC3
S11301E00300943577050080841E080000204E0A21
S11301F0000000C80C333333330F986E128311415F
S1130200EF8D2114893BE65516CFFEE6DB18D18429
S11302104B381BF77C1D901DA4BBE4242032847250
S11302205E228100C9F124ECA1E53D2711241FBE03
S1130230CFEFCDBFDFE7DEBF10E7A0E0B0E7E1E836
S1130240FDE602C005900D92A233B107D9F721E76C
S1130250A2E3B0E701C01D92AC39B207E1F70E94F6
S113026085180C943A360C940000A8E0B0E0EBE357
S1130270F1E00C9413368B01FC0160817181828161
S1130280938120E831E541E050E00E947A2E690133
S11302907A012CE330E040E050E00E94EA35298303
S11302A03A834B835C8389819A81AB81BC81F80159
S11302B060836CE370E00E94D635DC01CB01F80169
S11302C0A1838283C601069667E070E00E94662ED1
S11302D084832DEA3EE840E050E0C701B6010E9465
S11302E0EA3529833A836D837E838F839887898156
S11302F09A8124E6289F6001299FD00C11246D81E6
S11303007E818F81988525EB35E040E050E00E94A6
S1130310EA3529833A836D837E83E980FA80EE0C83
S1130320FF1CEE0CFF1CEC0CFD1C8D819E81F5E680
S1130330EF16F10410F0019604C024E6E216F1046D
S113034019F021E030E002C020E030E0A901445976
S11303505E4F4817590768F46DE671E0821B930BF2
S11303600E94D635DC01CB01E80EF91ECD0120E058
S113037030E044E6E40EF11CF801E682F78280875F
S11303809187255C3F4F8217930748F46FE170E033
S11303900E94D635DC01CB01F801858322C069E9CE
S11303A070E0821B930B0E94D635DC01CB01F82E42
S11303B0FF0CFF0CF80E6DE370E0CD010E94D63502
S11303C0DC01CB01E82EEE0C6FE170E0CD010E9460
S11303D0D635DC01CB0122E0280FF20EFE0CF80129
S11303E0F582A383F8011286138683818F5F83834A
S11303F02896E8E00C942C36FC0162817381CB01D1
S1130400A0E0B0E0BA2FA92F982F88272181822B52
S1130410BA2FA92F982F88272081BC01CD01622BE8
S11304200895DC01FB012D91819130E0B901681B35
S11304307109CB014150510911F00097A1F30895BE
S11304400F931F93FC019A01AB012250310941091A
S113045051098789908DA18DB28D0297A109B109A7
S1130460281739074A075B0768F4A185B2850E94FB
S11304709C2E03A514A525A536A5600F711F821F08
S1130480931F03C060E070E0CB011F910F910895AA
S1130490DC01ED91FC913097C1F0DF019D014D919C
S11304A0413280F04A33D1F7AF014F5F5F4F2417D9
S11304B0350759F44081403341F42F5F3F4FFC012D
S11304C02083318380E090E008958FEF9FEF0895BB
S11304D00F931F93CF93DF93EC018B01892BF1F0E2
S11304E0E881F9813097D1F080818823B9F02A819D
S11304F03B81858196812817390781F481810E9487
S1130500F61780FD0BC02881398180E0F801208333
S11305103183DF91CF911F910F91089589E020E0FD
S113052030E0F4CFFB01428D538D60E070E0833006
S113053059F484899589A0E0B0E0DC0199278827E3
S1130540482B592B6A2B7B2BCB01BA0108958F9230
S11305509F92AF92BF92EF92FF920F931F93CF930C
S1130560DF93EC017C0143E3E40EF11C2FA538A9D1
S113057049A95AA901E010E0B70189810E94031832
S1130580811128C01B820FA518A929A93AA98B8D0E
S11305909C8DAD8DBE8D8BA09CA0ADA0BEA0B901DD
S11305A0A801481959096A097B09481759076A07B4
S11305B07B0790F46A81623079F4A9019801280FCD
S11305C0391F4A1F5B1F01E010E0B70189810E94B7
S11305D0031802C081E001C080E0DF91CF911F9138
S11305E00F91FF90EF90BF90AF909F908F900895E0
S11305F0CF92DF92EF92FF920F931F93CF93DF93EB
S1130600EC016A017B018FA598A9A9A9BAA984174D
S11306109507A607B70709F18B81811112C001E084
S113062010E0A7019601BE016D5C7F4F89810E9495
S1130630F917882361F081E0CC24CA94DC2C76017C
S113064007C0CE010E94A702811108C0E8CF80E054
S1130650CFA6D8AAE9AAFAAA01C080E0DF91CF9177
S11306601F910F91FF90EF90DF90CF900895CF935B
S1130670DF93EC011B828FEF9FEFDC018FA798AB18
S1130680A9ABBAABCE010E94F802811127C0FE01CA
S1130690EF5CFD4F8081918185359A4A09F58BA9DC
S11306A0893E29F08B3E01F58DA98039E9F443E0B8
S11306B050E06FE77CEECE0187599F4F0E941102F4
S11306C0892B81F045E050E063E87CEECE018B5746
S11306D09F4F0E941102892B39F404C084E005C0A5
S11306E083E003C080E001C082E0DF91CF910895F0
S11306F02F923F924F925F926F927F928F929F922E
S1130700AF92BF92CF92DF92EF92FF920F931F931B
S1130710CF93DF93CDB7DEB76E97CDBFDEBF5B015E
S1130720F42EDB011D921C920E9448026C0197FD7D
S113073042C2FC01EE0FFF1FEC5CFF4800811181F7
S11307400115110509F439C2F50100831183FF2D48
S1130750FE7FFF2ED8018C91882369F011968C912D
S11307600E94F61780FD07C0FF2009F428C282FF0B
S113077026C28AE02CC2F8011082C1828C2D0E940C
S1130780F41780FD1EC2FF2011F082FDF2CF40E07D
S113079050E0BA01C8010E943703823009F043C017
S11307A09E012F5F3F4F7901680137E0C31A3EEF86
S11307B0D30A480147EC841A4DEF940A5701F60115
S11307C034978081882321F0C6010E94FC0103C074
S11307D060E070E0CB01D5016D937D938D939D9383
S11307E05D01B0E1CB0ED11CC814D90441F76E01F0
S11307F0E1E1CE0ED11CD7014D905D906D907D90BE
S11308007D01411451046104710441F0B301A2015A
S1130810C8010E943703823010F40FC083E0CE1465
S1130820DF0449F7D0C1843009F4D0C1823010F01C
S11308308DE0CDC1412C512C3201F80186AD97AD2C
S113084081159240A9F7F801E75BFF4F8080918002
S11308508114910419F0A12CB12C07C0C801895A44
S11308609F4F0E94FC014B015C01D8015B968D9265
S11308709D92AD92BC925E97F801ED5BFF4FB08103
S1130880B98BF801B2838B2F8150823088F6E05CFB
S1130890FF4F30813A8F832F90E0D80119968D93C2
S11308A09C931A97009721F29C01215031098223CD
S11308B09323892B09F0BCCF349620803180F80132
S11308C027823086C1018F709927892B09F0B0CF18
S11308D0EA5BFF4F808191816C01E12CF12C892B23
S11308E039F4C8018D5A9F4F0E94FC016B017C01B1
S11308F0F801EF5BFF4F0190F081E02D309709F490
S113090097CF2989A22FB0E0A50194010E949C2EC3
S11309106E8B7F8B888F998FCF01A0E0B0E08B8F97
S11309209C8FAD8FBE8FC10154E0969587955A95E3
S1130930E1F72B8D3C8D4D8D5E8D280F391F411DA8
S1130940511DDA01C9012E893F89488D598D280F1F
S1130950391F4A1F5B1F2A8B3B8B4C8B5D8BC21646
S1130960D306E406F50608F463CFC701B601621B9B
S1130970730B840B950BAA8D2A2F30E040E050E0D6
S11309800E947A2EDA01C9010197A109B109853FB4
S11309909F4FAF4FBF4008F04BCF263FFFEF3F07BD
S11309A04105510548F4263F6FE0360741055105DE
S11309B030F481E0898B05C093E0998B02C0A2E0FA
S11309C0A98B69017A01B2E0CB0ED11CE11CF11CA8
S11309D0F801C78AD08EE18EF28E478E50A261A2B2
S11309E072A28B8D9C8DAD8DBE8D840D951DA61D23
S11309F0B71D83A394A3A5A3B6A34A895B896C8975
S1130A007D89440D551D661D771D43A754A765A711
S1130A1076A7F989F330F9F4F801E35AFF4F80819E
S1130A209181892B09F004CF232809F001CFC80153
S1130A30815A9F4F0E94FC01D80197966D937D9334
S1130A408D939C939A9742E0CC0CDD1CEE1CFF1C0A
S1130A504A95D1F72DC0232809F4EACE2E893F897F
S1130A60488D598D820F931FA41FB51FF80187A3CA
S1130A7090A7A1A7B2A7F989F23029F4CC0CDD1C08
S1130A80EE1CFF1C15C0A3E0B0E0A70196010E9474
S1130A909C2EDC01CB01B695A7959795879521E00F
S1130AA0C222DD24EE24FF24C80ED91EEA1EFB1E3A
S1130AB03FEFC30E31E0D31EE11CF11C89E0F69434
S1130AC0E794D794C7948A95D1F78C149D04AE0407
S1130AD0BF0408F4ADCE8FEF9FEFDC01F8018787E8
S1130AE0908BA18BB28B83879487A587B68780E888
S1130AF08483F989F33009F047C0F801ED59FF4FB9
S1130B0080819181019709F03FC0B301A2014F5F39
S1130B105F4F6F4F7F4FC8010E94F802811134C0AC
S1130B20D80114961C92F801EF5CFD4F80819181ED
S1130B3085359A4A49F5C801C3960E94FC0162357D
S1130B4072458146914401F5C801895E9D4F0E941A
S1130B50FC016237724781449146B1F4C801855E55
S1130B609D4F0E94FC01D8011F966D937D938D9338
S1130B709C935297C801815E9D4F0E94FC01F8012D
S1130B806387748785879687E989D801EC93809178
S1130B9032709091337001968093327090933370D9
S1130BA015968D939C93169753961D921D921D92A4
S1130BB01C92569704C08BE00AC08CE008C080E009
S1130BC006C083E004C0843009F032CE81E06E9622
S1130BD0CDBFDEBFDF91CF911F910F91FF90EF90BA
S1130BE0DF90CF90BF90AF909F908F907F906F9049
S1130BF05F904F903F902F900895AF92BF92CF9205
S1130C00DF92EF92FF920F931F93CF93DF934230C3
S1130C1051056105710508F4A1C0FC010789108D17
S1130C20218D328D401751076207730708F096C073
S1130C306A017B018C018081823009F44DC08330CC
S1130C4009F469C0813009F089C0EA01D695C795D5
S1130C50CC0DDD1DCE01892F9927869543A154A182
S1130C6065A176A1480F591F611D711DCF010E9416
S1130C70F802882321F06FEF7FEFCB0173C05E0190
S1130C80FFEFAF1ABF0AD170C00FD11FCBA9C501A6
S1130C90892F99278695F80143A154A165A176A1CE
S1130CA0480F591F611D711DC8010E94F80281116E
S1130CB0E2CFF1E0BF22F801EA0DFB1D83A96C2FFE
S1130CC070E0782BC0FE06C054E0769567955A957F
S1130CD0E1F71EC07F701CC077276F2D5E2D4D2D50
S1130CE083A194A1A5A1B6A1480F591F6A1F7B1F18
S1130CF0CF010E94F8028111BECFCC0CDD1CE89418
S1130D00C0F8F1E0DF22F801EC0DFD1D63A974A920
S1130D1080E090E027C083A194A1A5A1B6A127E01B
S1130D2076956795579547952A95D1F7480F591F9A
S1130D306A1F7B1FCF010E94F80281119CCF0D5CBA
S1130D401F4FCC0CDD1CCC0CDD1CC6018C7F9170BC
S1130D50800F911F0E94FC019F7004C061E070E04D
S1130D6080E090E0DF91CF911F910F91FF90EF9081
S1130D70DF90CF90BF90AF900895CF92DF92EF9223
S1130D80FF920F931F93CF93DF938C01FC01C081DB
S1130D90D18116861786108A118AC680D780E0848E
S1130DA0F184C114D104E104F104E9F488818330AD
S1130DB040F08FA198A5A9A5BAA50097A105B105F2
S1130DC081F48F819885892B11F482E04CC08FA126
S1130DD098A5A9A5BAA5F801868B978BA08FB18F8A
S1130DE02EC06C017D0189859A85892BF1F4B701A8
S1130DF0A601F801808191810E94FD056B017C01AF
S1130E006F3F7F4F8F4F9F4F69F182E0C816D10427
S1130E10E104F104D0F28F89988DA98DBA8DC8169A
S1130E20D906EA06FB0618F3D0CFB701A601CE0116
S1130E300E942002F801668B778B808F918FF801D6
S1130E40C28AD38AE48AF58A86899789A08DB18D6E
S1130E50892B8A2B8B2B09F4B8CFE396C28FD38FBF
S1130E6080E001C081E0DF91CF911F910F91FF904D
S1130E70EF90DF90CF9008953F924F925F926F92E0
S1130E807F928F929F92AF92BF92CF92DF92EF9216
S1130E90FF920F931F93CF93DF93CDB7DEB72697BF
S1130EA0CDBFDEBF8D839E836A017B01480159015A
S1130EB0FC018081823009F471C0833009F490C050
S1130EC0813009F0CAC08A0116950795040F151FD1
S1130ED0C801892F9927869543A154A165A176A1BC
S1130EE0480F591F611D711DCF010E94F802382E51
S1130EF08111B5C02D813E812D5C3F4F29833A83FA
S1130F00C80101968B839C831170F901E00FF11FD6
S1130F102601370191E04922552466247724C0FE36
S1130F2009C08081282F2F7030E1839EC0011124D5
S1130F30822B01C0882D808381E0ED81FE81838333
S1130F4043A154A165A176A18B819C81892F992706
S1130F508695480F591F611D711DCF010E94F8022B
S1130F60382E81117CC0EB81FC81F17029813A819A
S1130F70E20FF31F45284628472841F064E0B69461
S1130F80A794979487946A95D1F706C09081907F2F
S1130F90892D8F70892E882A80825AC077276F2DD9
S1130FA05E2D4D2DED81FE8183A194A1A5A1B6A155
S1130FB0480F591F6A1F7B1FCF010E94F802382E69
S1130FC081114DC0ED81FE81F396CC0CDD1CE894BB
S1130FD0C0F821E0D222EC0DFD1D8082918238C040
S1130FE0ED81FE8183A194A1A5A1B6A137E07695F8
S1130FF06795579547953A95D1F7480F591F6A1F3A
S11310007B1FCF010E94F802382E811128C0FFE017
S1131010BF228D819E81C396CC0CDD1CCC0CDD1CC3
S11310202CEFC22221E0D222C80ED91EC6010E9492
S1131030FC01DC01CB0188279927AA27B07F882AE5
S1131040992AAA2ABB2AF60180829182A282B382BB
S113105081E0ED81FE81838302C082E0382E832DFE
S11310602696CDBFDEBFDF91CF911F910F91FF90E8
S1131070EF90DF90CF90BF90AF909F908F907F9034
S11310806F905F904F903F9008954F925F926F9250
S11310907F928F929F92AF92BF92CF92DF92EF9204
S11310A0FF920F931F93CF93DF938C012A013B018F
S11310B0FC01C081D181411551056105710599F487
S11310C08B849C84AD84BE8481149104A104B104F6
S11310D059F18F89988DA98DBA8D88169906AA061B
S11310E0BB0630F121C0CE010E94FD0562307105BE
S11310F08105910508F40EC16F3FFFEF7F078F074D
S11311009F0729F44FEF3FEF2FEF9FEF0BC1CF88DD
S1131110D88CE98CFA8C6C157D058E059F0508F436
S1131120FEC05301420104C0812C912C54018394CC
S11311308F859889A989BA89892B8A2B8B2B11F4DD
S113114040E0E9C084149504A604B70409F047C03C
S1131150750164012FEFC21AD20AE20AF20A8F89DA
S1131160988DA98DBA8DC816D906EA06FB0628F013
S113117092E0C92ED12CE12CF12CB701A601F80183
S1131180808191810E94FD05613071058105910581
S113119009F4C0C06F3FFFEF7F078F079F0709F473
S11311A0B1CF672B682B692BA9F08B859C85AD8506
S11311B0BE8582309105A105B10588F04F89588D0F
S11311C0698D7A8D84179507A607B70740F44C01FB
S11311D05D0105C0C114D104E104F104D1F5750128
S11311E064012FEFC21AD20AE20AF20A8F89988D9B
S11311F0A98DBA8DC816D906EA06FB0660F082E00E
S113120088169104A104B10408F49ACF82E0C82E90
S1131210D12CE12CF12CB701A601F8018081918138
S11312200E94FD05611571058105910591F06130FC
S113123071058105910509F46DC06F3F7F4F8F4F94
S11312409F4F09F45FCFC814D904EA04FB0449F69C
S113125077CF22E0C216D104E104F10408F45AC0A5
S11312608F89988DA98DBA8DC816D906EA06FB0612
S113127008F050C00FEF1FEF9801B701A601CE018F
S11312800E943C07811143C041145104610471045C
S1131290E9F4CB86DC86ED86FE868F859889A9895C
S11312A0BA894F89588D698D7A8D425051096109E7
S11312B07109481759076A077B0708F10197A109C3
S11312C0B1098F87988BA98BBA8B19C082E0481615
S11312D0510461047104F0F08F89988DA98DBA8D41
S11312E0481659066A067B06A8F497018601B301DD
S11312F0A201CE010E943C07882359F208C08C81C8
S113130081608C834C2D3D2D2E2D9F2D0BC0813063
S113131009F4F8CE41E030E020E090E003C0462F2D
S1131320372F282F642F732F822FDF91CF911F9196
S11313300F91FF90EF90DF90CF90BF90AF909F9070
S11313408F907F906F905F904F9008952F923F926F
S11313504F925F926F927F928F929F92AF92BF92C1
S1131360CF92DF92EF92FF920F931F93CF93DF936D
S1131370CDB7DEB72697CDBFDEBF3B01FC01468962
S11313805789608D718D411551056105710509F409
S113139015C1C684D784E088F188F0E2CF0ED11C51
S11313A0E11CF11CC114D10420E2E206F10408F0AE
S11313B005C11C01FC010190F081E02DED83FE8349
S11313C0D701C6019170AA27BB27892B8A2B8B2BA7
S11313D009F0E4C04F5F5F4F6F4F7F4FF101468BC1
S11313E0578B608F718F4289538964897589ED8128
S11313F0FE814115510561057105C9F48781908508
S1131400A0E0B0E0B701A60135E076956795579561
S113141047953A95D1F7481759076A077B0708F4A7
S1131420BDC0F101168A178A108E118EC7C081853E
S113143092850197A0E0B0E04601570129E0B694F7
S1131440A794979487942A95D1F788219921AA2162
S1131450BB21892B8A2B8B2B09F0A0C0CF010E94C2
S1131460FD054B015C01623071058105910510F4A5
S113147082E0A7C06F3F7F4F8F4F9F4F11F481E0F1
S1131480A0C0ED81FE818789908DA18DB28D8816D3
S11314909906AA06BB0608F471C0672811F2F10187
S11314A04289538964897589C1010E9445084B01A9
S11314B05C01611571058105910509F481C06130F4
S11314C0710581059105A1F26F3F7F4F8F4F9F4FAB
S11314D0B1F2ED81FE818381811116C0B501A401B1
S11314E08D819E810E9420022B013C01ED81FE81B1
S11314F067A770AB81AB92ABF396EB83FC838D81D2
S11315009E818D5C9D4F07C08D819E810E94A702A4
S11315108111B5CFE3CF1192E817F907E1F71982EA
S11315201A82ED81FE818185928529813A8128176D
S1131530390750F0ED81FE818185928529813A81B8
S113154028173907D9F09BCF01E010E0A3019201DD
S113155089819A81280F391F411D511D6B817C811E
S1131560ED81FE8181810E9403188111E3CF2981DD
S11315703A812F5F3F4F29833A83D3CFF101828A87
S1131580938AA48AB58AB501A4018D819E810E94A3
S11315902002F101668B778B808F918FF101C686D3
S11315A0D786E08AF18A8D819E81C3969601317037
S11315B0280F391F228F338F80E003C084E001C0DD
S11315C087E02696CDBFDEBFDF91CF911F910F91AB
S11315D0FF90EF90DF90CF90BF90AF909F908F904F
S11315E07F906F905F904F903F902F9008953F921F
S11315F04F925F926F927F928F929F92AF92BF921F
S1131600CF92DF92EF92FF920F931F93CF93DF93CA
S1131610EC018B01C880D980DB018C918F3211F0F1
S11316208C3511F498010AC0F60183899489A5893F
S1131630B6898E839F83A887B9870DC08901D90194
S11316408C912F5F3F4F8F32C9F38C35B9F31E82D3
S11316501F8218861986F8018081803288F07E0105
S1131660FCE1EF0EF11C3E0187E2680E711C30E2D2
S1131670332E45E0542E460193E3890E911C50C04D
S113168080E88FA3CE01DF91CF911F910F91FF903E
S1131690EF90DF90CF90BF90AF909F908F907F900E
S11316A06F905F904F903F900C94BD06D80180E0FE
S11316B090E001962D912E3209F444C02F3209F0A6
S11316C047C0080F191F213208F049C084E28FA3D4
S11316D0A880B980CE010E94BD06482E81110BC09E
S11316E04E895F89688D798DC5010E94F802482E64
S11316F0882309F4ADC08FA14110C7C082FDE0C0AA
S11317008C8184FFD2C06E857F857170680D791DD0
S1131710F60180810E9492026E837F838887998775
S1131720F701D7013D92A615B705E1F7D8018C91D1
S11317308E3209F4BBCF80E090E060E070E048E0D6
S113174050E03DC08330910509F47FC02193B1CFAF
S11317502C3509F4B6CF213208F4B3CF76C080E239
S1131760B6CFBF32B1F1BC35A1F1BE3209F4A0C08D
S11317708417950708F069C0B13808F44FC0B03A2F
S1131780A8F56E5F7F4FF801E20FF31FA081A0342C
S113179008F45BC0AF37E8F59A012150310982178C
S11317A0930708F052C0F701E80FF91FB083FC015A
S11317B03196EE0DFF1D0296A0839B01B9019B019A
S11317C02F5F3F4FF801E60FF71FB081B13248F6A3
S11317D012C0F801E20FF31F02C04C3561F49F01FF
S11317E0201B310B41914F32C1F7F9CFE0E2EB0FEF
S11317F0ED3138F213C0892B41F18C8D853E09F40B
S11318005C8EB13210F484E001C080E0020F131F3B
S11318105ECFAF37D1F0AD3FC0F4BECFAB2EB12C0D
S1131820E9E8FCEE6191662329F070E0A616B7069C
S1131830C9F70BC06FE96B0F6A3108F4B052F701B6
S1131840E80FF91FB0830196B9CF86E0482E38C05F
S1131850EA8DFB8D80818823A9F083858F738C8327
S1131860838583FD09C04BE050E0B701CF010E949E
S11318701102892B09F43FCF60E070E0CE010E9491
S1131880A6092BCF24E0422E36CFB4E04B1218C069
S1131890982F947085FF07C0992309F441CF80E8FD
S11318A08FA3412C0DC091110BC095E0492E08C0A7
S11318B04B30510551F288E090E04BE050E07ECF90
S11318C0842DDF91CF911F910F91FF90EF90DF90C6
S11318D0CF90BF90AF909F908F907F906F905F90CC
S11318E04F903F9008951F93CF93DF93CDB7DEB70A
S11318F02697CDBFDEBF8B839C836D837E83142F9D
S113190069837A83CE0101960E94480297FD20C024
S1131910880F991FFC01EC5CFF480190F081E02DD9
S1131920309709F01082EB81FC81309709F0108226
S1131930DC01AC5CBF48ED93FC93112359F040E00B
S1131940BE016D5F7F4FCE0105960E94780303C0F0
S11319508BE001C080E02696CDBFDEBFDF91CF9142
S11319601F9108952F923F924F925F926F927F92B0
S11319708F929F92AF92BF92CF92DF92EF92FF929B
S11319800F931F93CF93DF93CDB7DEB7E497CDBF0B
S1131990DEBF6BA77CA7009709F4FEC1142F1C01BE
S11319A0242F2F732DA7422FBE01675D7F4FCE01D9
S11319B08B960E9478038EA7811114C289A59AA5DB
S11319C089839A836BA57CA5CE0101960E94F70AB0
S11319D0811103C098A597FD86E0912F9C7109F4AD
S11319E00AC1882309F44AC0843009F041C0E9805F
S11319F0FA80CE0101960E94BD068111FAC14F8979
S1131A00588D698D7A8DC7010E94F8028111F1C148
S1131A10EB8DFC8D8081853E79F44F89588D698DDD
S1131A207A8DC7010E94F802811122C0EB8DFC8DD2
S1131A309F01205E3F4F09C0882379F361E070E085
S1131A40CE0101960E94A609D8CF1192E217F3079E
S1131A50E1F7DE015D96EB8DFC8D9F01255F3F4F25
S1131A609D9191932E173F07D9F791E0F701938346
S1131A70FDA5F860FDA7882339F0B0C18D8181717F
S1131A8009F0ABC112FD8AC12DA523FFC3C06B8D24
S1131A907C8DE9A5FAA580810E9492026B017C01EC
S1131AA00E941118EB8DFC8D66877787808B918B54
S1131AB0EB8DFC8D80E28387EB8DFC8DA9A5BAA507
S1131AC0128E138E8C91833011F4148A158AEB8D47
S1131AD0FC8D148E158E168E178E81E013968C93C2
S1131AE01397C114D104E104F10409F490C032E065
S1131AF0C316D104E104F10408F469C149815A818F
S1131B004FA758ABFA014789508D618D728DC41669
S1131B10D506E606F70608F05AC19F962D913D9129
S1131B204D915C91D29729AB3AAB4BAB5CAB460180
S1131B305701B501A40189819A810E94FD052B01F9
S1131B403C01611571058105910509F429C16130D4
S1131B5071058105910509F43AC16F3F7F4F8F4F9D
S1131B609F4F09F436C152E085169104A104B104D3
S1131B7008F42DC1EFA5F8A98789908DA18DB28DA8
S1131B8088169906AA06BB0608F021C100E010E0F9
S1131B909801B501A401CF010E943C0781111EC127
S1131BA0EFA5F8A987859089A189B2894789508DC5
S1131BB0618D728D4A015B01F2E08F1A9108A108D0
S1131BC0B10888159905AA05BB0560F40196A11D05
S1131BD0B11DEFA5F8A98787908BA18BB28B848167
S1131BE081608483530142014416550666067706D4
S1131BF008F49FCFD5C08111F1C08D8184FDEBC065
S1131C0011FF02C080FDE9C0FDA5F3FF03C02DA5AF
S1131C1020642DA7E9A4FAA4F70187A590A9A1A996
S1131C20B2A9F101848F958FA68FB78FCB8CDC8CF2
S1131C30C0A2D1A2B601F70180810E949202F101F3
S1131C406683778380879187C6014C960E94FC0146
S1131C50F1016287738784879587E082F182F701B7
S1131C6085819681F101828393832DA5268717862A
S1131C70108E118E128E138E108A118A128A138A74
S1131C806101F2E2CF0ED11CF601C1018E5D9D4FC0
S1131C901192E817F907E1F72DA525FFA8C0F10176
S1131CA082849384A484B58481149104A104B1042E
S1131CB009F49DC0808A918AA28AB38AF70141847B
S1131CC05284612C712C59E0440C551C661C771C01
S1131CD05A95D1F7F1014681578160857185481481
S1131CE059046A047B04D8F4F101808191810E9433
S1131CF0FD05AB01BC0184189508A608B70842305D
S1131D0051056105710548F04F3FFFEF5F076F070D
S1131D107F0729F721E02EA702C0F2E0FEA7F10118
S1131D20448B558B668B778BFEA5F1115BC0D50177
S1131D30C4019170AA27BB27892B8A2B8B2B09F40A
S1131D4056C0E9A4FAA4C7010E94200261157105D6
S1131D508105910509F444C09501840149E0369553
S1131D602795179507954A95D1F7A9019801260F4C
S1131D70371F481F591FF101208F318F428F538F16
S1131D8001E010E0B601F70181810E94F917882370
S1131D9071F141E04EA726C089E030C088E01EC042
S1131DA049A95AA96BA97CA989A59AA50E94F802F8
S1131DB0E9A5FAA521E0C21AD108E108F108C38611
S1131DC0D486E586F686882309F41ECF07C082E010
S1131DD005C081E003C084E001C087E08EA702C093
S1131DE032E03EA7F101108211828EA507C080E087
S1131DF005C0843009F03CCE87E03ACEE496CDBFEE
S1131E00DEBFDF91CF911F910F91FF90EF90DF9094
S1131E10CF90BF90AF909F908F907F906F905F9086
S1131E204F903F902F9008952F923F924F925F9240
S1131E306F927F928F929F92AF92BF92CF92DF92D6
S1131E40EF92FF920F931F93CF93DF93CDB7DEB73B
S1131E502897CDBFDEBF7C013B015A012D833E8311
S1131E60D9011D921C92BE016F5F7F4F0E946802D0
S1131E70811167C1F7018785811163C1868581FF5F
S1131E805FC180899189A289B389AC01BD014A0DE2
S1131E905B1D611D711D481759076A077B0718F4FC
S1131EA05C01A094B094C70182968F839887A11493
S1131EB0B10409F446C0F70180899189A289B389E4
S1131EC0AC01BD01517066277727452B462B472B64
S1131ED009F0E7C0E981FA8181849284F1E08F1AE4
S1131EE09108AC01BD0129E0769567955795479512
S1131EF02A95D1F7842295228114910409F04FC0C8
S1131F00892B8A2B8B2B81F4D70116966D917D91A9
S1131F108D919C9119976115710581059105D1F4F5
S1131F2040E050E0BA0105C0F7014489558966894B
S1131F307789C7010E9445086115710581059105DE
S1131F4049F4D7011E968C911E9780641E968C933B
S1131F5080E0F7C0613071058105910521F482E0CC
S1131F60F7018787EEC06F3FFFEF7F078F079F075B
S1131F7029F481E0D7011F968C93E3C0F701648BA9
S1131F80758B868B978B0681178120853185012B74
S1131F90022B032B21F46683778380879187F701D3
S1131FA0868587FF16C0208D318D428D538DE98142
S1131FB0FA8101E010E06F81788581810E94031825
S1131FC08111D7CFD7011E968C911E978F771E96BD
S1131FD08C93E981FA81EB83FC83D70154964D916C
S1131FE05D916D917C915797CF010E9420026115FC
S1131FF071058105910509F4B2CF1B012C01280C50
S1132000391C411C511C6501CD2CDD24C694C1141E
S1132010D104E9F0EB81FC818185928594012C0D3A
S11320203D1D8217930718F46C01C818D90886015E
S1132030A2019101B301AB81BC8111968C910E94E4
S11320400318811196CFDC2CCC24DD0C4DC0F70194
S1132050808D918DA28DB38D281639064A065B06B4
S1132060D9F0408951896289738982859385A485D1
S1132070B585481759076A077B0770F401E010E03B
S1132080A20191016F817885AB81BC8111968C91FD
S11320900E94F91781116DCFF701208E318E428E87
S11320A0538ED7015096ED91FC915197F17080E0D9
S11320B092E08E1B9F0B65018A159B0508F46C0149
S11320C0D3018F819885E80FF91FCF018C0D9D1DD9
S11320D02D9121938E179F07D9F7D7011E968C91C6
S11320E01E9780681E968C93AC18BD08ED81FE8106
S11320F0808191818C0D9D1D808391836C0C7D1C4E
S1132100F70180899189A289B3898C0D9D1DA11D38
S1132110B11D808B918BA28BB38B428553856485D3
S11321207585481759076A077B0710F4AC01BD0190
S1132130D7011A964D935D936D937C931D97B7CEFB
S113214087E02896CDBFDEBFDF91CF911F910F911D
S1132150FF90EF90DF90CF90BF90AF909F908F90C3
S11321607F906F905F904F903F902F900895EF92E3
S1132170FF920F931F93CF93DF9300D0CDB7DEB7B9
S1132180FC012281338137FD2EC08C017901FFEFE0
S1132190EF1AFF0AFC01E20FF31F66838DE3E816D2
S11321A0F104CCF09E012F5F3F4FA701B8016A5F95
S11321B07F4FF801808191810E94140F81E090E0AB
S11321C029813A812E153F0511F480E090E0EE2438
S11321D0FF24E81AF90AF801E282F38284819581E6
S11321E00196848395830F900F90DF91CF911F9177
S11321F00F91FF90EF9008950F931F93CF93DF9368
S113220000D0CDB7DEB7FC014281538157FF03C034
S11322108FEF9FEF18C08C01BC016A5F7F4F9E0156
S11322202F5F3F4FFC01808191810E94140F811127
S1132230EFCFF8012281338189819A8128173907E8
S113224039F7848195810F900F90DF91CF911F9181
S11322500F910895CF92DF92EF92FF920F931F9305
S1132260CF93DF9300D0CDB7DEB76C01BE016F5FB3
S11322707F4F0E9468028111E7C0D6011E968C919F
S11322801E9786FFDEC087FF16C058962D913D919C
S11322904D915C915B97E981FA8101E010E0B60110
S11322A06E5D7F4F81810E9403188111CCC0F601BD
S11322B086858F7786870E9411188B017C01D60151
S11322C05C964D915D916D917C915F9789819A8126
S11322D00E94F8028111B8C0D6019096ED91FC914C
S11322E0919783858062838716964D915D916D9158
S11322F07C9119972D913C91428F538FD9012C9148
S1132300233029F4CB01AA27BB27848B958BD601D4
S11323101A963C911A971B962C911B971C969C918C
S11323201C971D968C91348F258F968F878F068BE3
S1132330178BE08EF18E128A138AE980FA8081E08D
S1132340F7018383C7010E94A702982F811173C0EC
S1132350D7018C91833009F062C014968C9181303E
S113236009F05DC0B7016D5C7F4FFB01C7018D5C57
S11323709D4F11928E179F07E1F785E5F701EF5CFA
S1132380FD4F80838AEA3196808382E5F70183AB2F
S113239084AB81E685AB91E496AB22E7E95EFD4F21
S11323A02083319620833196908331968083D701A0
S11323B01F963C911F9750962C91509751969C9143
S11323C0519752968C913196308331962083319671
S11323D0908331968083F70133852485958586859E
S11323E0E15EFD4F308331962083319690833196A0
S11323F08083F701878D90A1A1A1B2A19C01AD01B9
S11324002F5F3F4F4F4F5F4F27A730AB41AB52ABCE
S113241001E010E081810E940318F701148240E07A
S113242050E060E0D70111968C910E940D1891E064
S1132430811101C090E0F60186858F7B8687892F04
S113244003C080E001C081E00F900F90DF91CF9135
S11324501F910F91FF90EF90DF90CF9008950F930D
S11324601F93CF93DF9300D0CDB7DEB78C010E94CA
S11324702A1181110BC0BE016F5F7F4FC8010E94FA
S11324806802811103C0F801108211820F900F902D
S1132490DF91CF911F910F9108950F931F93CF93C5
S11324A0DF93CDB7DEB7C654D109CDBFDEBF698394
S11324B07A831B821C821D821E828C01F801619129
S11324C08F01CE010196662319F00E94B710F6CF52
S11324D00E94FC10CA5BDF4FCDBFDEBFDF91CF91FE
S11324E01F910F910895E0E4F9E080818E7F80834D
S11324F080910670816080930670089580934409EA
S11325008091430987FFFCCF8091440908956AE0D4
S113251070E00E94662E609337708FEF0E947E12E7
S1132520282F8F3F21F0809137708111F6CF81E001
S113253090E02F3F11F080E090E0089588E08093D0
S113254045048FEF0C947E12CF93DF9388E0809341
S113255046048FEF0E947E1284EF91E00E9487125E
S1132560EC01892B19F40E949E1202C0C1E0D0E054
S1132570CE01DF91CF910895FF920F931F93CF93D4
S1132580DF93C82FD42F152F062FF72E87FF09C0EE
S113259040E050E0BA0187E30E94BC128230A8F503
S11325A0CF77CC3099F48C2F80640E947E128F2DCB
S11325B00E947E12802F0E947E12812F0E947E1222
S11325C08D2F0E947E12CC23F1F008C00E949E122F
S11325D00E94A412892B39F78FEF17C0C83011F469
S11325E087E801C081E00E947E12CC3019F48FEF9D
S11325F00E947E12CAE08FEF0E947E1287FF05C000
S1132600C150C9F702C085E9F3CFDF91CF911F9183
S11326100F91FF9008950F931F93CF93DF938C0135
S1132620EB0184E1809338708FEF0E947E128F3F1C
S113263029F4809138708111F7CF23C08E3F09F5BA
S1132640F8018FEF809344099091430997FFFCCFE1
S1132650909144099083809344099091430997FF92
S1132660FCCF90914409918322973296209751F799
S11326708FEF0E947E128FEF0E947E1281E090E025
S113268002C080E090E0DF91CF911F910F910895F7
S11326909C013E5FFC014081409344094091430901
S11326A047FFFCCFFC014181409344094091430919
S11326B047FFFCCF02968217930761F78FEF0E94C2
S11326C07E128FEF0E947E128FEF0E947E12282FBF
S11326D02F7181E090E0253011F080E090E00895C2
S11326E0CF92DF92EF92FF920F931F93CF93DF93DA
S11326F000D000D0CDB7DEB70E9473128AE0809379
S11327003870809138708111FCCF8091067081FD02
S1132710C7C082E080933870809138708111FCCFFB
S113272080914004816080934004809140048460DF
S1132730809340048091400488608093400482E048
S11327408093450484E0809345048091400981602E
S113275080934009809140098F7E80934009809145
S113276040098460809340091AE08FEF0E947E1232
S11327701150D9F740E050E0BA0180E00E94BC1249
S1132780813009F078C084E6809338704AEA51E0D9
S113279060E070E088E00E94BC12813009F043C020
S11327A08E010F5F1F4F6E0185E0C80ED11C7801AA
S11327B08FEF0E947E12F70181937F01CE16DF0610
S11327C0B9F78B81813009F056C08C818A3A09F0BF
S11327D052C080913870811106C08091387088236E
S11327E009F449C00AC040E050E060E070E489EABE
S11327F00E94BC128111EDCFF0CF40E050E0BA014D
S11328008AE30E94BC12811136C08FEF0E947E12AF
S1132810F80181938F01CE16DF06B9F7898186FD11
S11328202CC014E02BC040E050E0BA0189EA0E94B9
S1132830BC12823018F011E001E002C012E009EA93
S113284080913870811105C080913870882399F087
S113285009C040E050E0BA01802F0E94BC128111EF
S1132860EFCFF2CF40E052E060E070E080E10E9400
S1132870BC12882319F010E001C01CE010933670DC
S11328800E949E12112351F0809106708E7F8093D6
S11328900670809140098093400902C00E9473121F
S11328A0809106702496CDBFDEBFDF91CF911F913A
S11328B00F91FF90EF90DF90CF900895EF92FF92E9
S11328C01F93CF93DF937C01E9012097A1F18091BD
S11328D0067080FD32C08091367083FD07C089E0A8
S11328E0440F551F661F771F8A95D1F7C230D10553
S11328F010F411E101C012E1812F0E94BC12811178
S113290013C060E072E0C7010E940B13892B21F011
S11329108EEFF81A2197A9F7123131F440E050E014
S1132920BA018CE00E94BC120E949E1281E0CD2B61
S113293029F480E003C084E001C083E0DF91CF91FB
S11329401F91FF90EF900895CF92DF92EF92FF9244
S11329500F931F93CF93DF938C016A017B01E901ED
S1132960209709F464C08091067080FD62C0809154
S1132970067082FD60C08091367083FD07C099E0C7
S1132980CC0CDD1CEE1CFF1C9A95D1F7C130D1058F
S1132990F1F4B701A60188E10E94BC12882319F062
S11329A0C1E0D0E03DC084EF91E00E948712892B02
S11329B0B9F38EEF0E947E12C8010E94481331E0E1
S11329C020E0892B09F030E0C32FD22F29C0867074
S11329D031F0AE0160E070E087E90E94BC12B701FB
S11329E0A60189E10E94BC1281111AC084EF91E012
S11329F00E948712892B59F08CEF0E947E12C80125
S1132A000E944813892B19F01E5F219779F784EFF0
S1132A1091E00E948712892B19F28DEF0E947E1299
S1132A200E949E1281E0CD2B39F480E005C084E041
S1132A3003C083E001C082E0DF91CF911F910F9129
S1132A40FF90EF90DF90CF900895BF92CF92DF92E6
S1132A50EF92FF920F931F93CF93DF93CDB7DEB71F
S1132A606097CDBFDEBF9091067090FD9AC28B0136
S1132A70833309F45AC198F4833009F48DC028F4DF
S1132A80882309F1813011F18AC2873009F488C1A1
S1132A90823309F445C1843009F081C2F3C086331E
S1132AA009F469C138F4843309F444C1853309F461
S1132AB04CC175C2883309F4D9C108F47AC1893389
S1132AC009F426C26CC20E94A41265C140E050E021
S1132AD0BA0189E00E94BC1281115DC260E170E01C
S1132AE0CE0101960E940B13892B09F454C29981DB
S1132AF0929596959695937029854A858885913007
S1132B00D9F430E0322F2227240F311D8F7390E047
S1132B10A0E0B0E0DC01992788270196A11DB11D32
S1132B20820F931FA11DB11D5AE0880F991FAA1F80
S1132B30BB1F5A95D1F729C0229526952695237057
S1132B40F4E08F9FC0011124820F911D01962F8103
S1132B50237030E0322F2227330F330F820F931F5D
S1132B60A0E0B0E02E81322F3F702B85221F222758
S1132B70221F230F4370440F420F475004C0880F95
S1132B80991FAA1FBB1F4A95D2F7F801808391832E
S1132B90A283B38310E000C2F090367040E050E0AE
S1132BA0BA01F2FE28C08DE80E94BC128111F3C163
S1132BB08FEF0E947E1260E170E0CE0101960E94C8
S1132BC00B13892B09F4E7C1A0E3FA2E8FEF0E94BF
S1132BD07E12FA94F110FACF2B8522952F7080E1A2
S1132BE090E0A0E0B0E004C0880F991FAA1FBB1FAB
S1132BF02A95D2F7CACF89E00E94BC128111CBC1B9
S1132C0060E170E0CE0101960E940B13892B09F458
S1132C10C2C12B858C85F1FE16C02F73881F8827AF
S1132C20881F90E00196820F911D820F911D2E85C1
S1132C302295269526952370215002C0880F991F4E
S1132C402A95E2F71CC0382F3370829586958770D9
S1132C5090E0F8E03F9F800D911D112401962C77A0
S1132C6030E035952795359527952F5F3F4F829F07
S1132C70A001839F500D929F500D1124CA01A0E022
S1132C80B0E083CFB09036708B2D867011F411E0D4
S1132C9089C1BE016F5F7F4F83E30E9425158111B7
S1132CA0F6CF8981829586958695837019F48B85F4
S1132CB086FFEDCFF8014081518162817381C48028
S1132CC0D580E680F780B3FC0EC039E0440F551F71
S1132CD0661F771F3A95D1F7E9E0CC0CDD1CEE1C9A
S1132CE0FF1CEA95D1F780E20E94BC128111CFCF7C
S1132CF0B701A60181E20E94BC128111C8CF40E055
S1132D0050E0BA0186E20E94BC128111C0CF80E378
S1132D1095E70E94871211E0892B09F443C147C04B
S1132D2080913670FB01808342C040E050E0BA01DC
S1132D3089E004C040E050E0BA018AE00E94BC127D
S1132D40811129C160E170E023C040E050E0BA0184
S1132D508AE30E94BC1281111EC17801F4E0EF0ED7
S1132D60F11C8FEF0E947E12F80181938F01EE1502
S1132D70FF05B9F70FCF40E050E0BA018DE80E949B
S1132D80BC12811108C18FEF0E947E1260E470E0D2
S1132D90C8010E940B1311E0892B09F4FDC0FACE7F
S1132DA00E9473128091067081608093067010E017
S1132DB0F9C0FB01438154816581768139E0440F78
S1132DC0551F661F771F3A95D1F77068808190E090
S1132DD0A0E0B0E02CE1880F991FAA1FBB1F2A9521
S1132DE0D1F7482B592B6A2B7B2B81819281019738
S1132DF09170A0E0B0E0482B592B6A2B7B2B80E329
S1132E000E94BC128111C7C084E6809338708FEF92
S1132E100E947E128F3F29F4809138708111F7CF80
S1132E20BAC08E3F09F0B7C0F801E780F084C180D2
S1132E30D280CE0CDF1CCE14DF0439F08FEF0E9459
S1132E407E12F70181937F01F6CFF801818192818F
S1132E5002E012E0081B190B0115110509F49ACEC2
S1132E608FEF0E947E1201501109F6CFFB014381BE
S1132E7054816581768139E0440F551F661F771FA1
S1132E803A95D1F77068808190E0A0E0B0E02CE141
S1132E90880F991FAA1FBB1F2A95D1F7482B592BBE
S1132EA06A2B7B2B8181928101979170A0E0B0E025
S1132EB0482B592B6A2B7B2B81E30E94BC12811176
S1132EC06AC08FEF0E947E128EEF0E947E12F8017C
S1132ED0E780F084C180D280CE0CDF1CEC14FD04AA
S1132EE031F0F70181917F010E947E12F7CFF80142
S1132EF08181928102E012E0081B190B8FEF01150A
S1132F00110509F441C00E947E1201501109F6CF47
S1132F10FB01438154816581768189E0440F551F0B
S1132F20661F771F8A95D1F77468808190E0A0E0CE
S1132F30B0E02CE1880F991FAA1FBB1F2A95D1F777
S1132F40482B592B6A2B7B2B828190E0A0E0B0E0C8
S1132F50482B592B6A2B7B2B81E30E94BC128111D5
S1132F601AC08FEF0E947E128EEF0E947E12F8012B
S1132F7081810E947E1201E012E08FEF0E947E1296
S1132F8001501109D1F78FEF0E947E128F7111E069
S1132F90853011F4FFCD11E00E949E1203C014E0AD
S1132FA001C013E0812F6096CDBFDEBFDF91CF91CA
S1132FB01F910F91FF90EF90DF90CF90BF900895F5
S1132FC080913870882319F08150809338708091F3
S1132FD03770882319F08150809337708091067080
S1132FE0897F8093067008950C9470138091067005
S1132FF008950F931F93CB01BA01A90198011F9162
S11330000F910C945E140F931F93CB01BA01A90185
S113301098011F910F910C94A414862FBA010C945B
S113302025150F931F93EBE7F1E7428150E060E031
S113303070E085E1440F551F661F771F8A95D1F70D
S11330408381682B858190E0A0E0B0E02BE0880FBD
S1133050991FAA1FBB1F2A95D1F7482B592B6A2BFE
S11330607B2B868190E0A0E0B0E035E0880F991FCB
S1133070AA1FBB1F3A95D1F7842B952BA62BB72BF0
S113308027812695AC01BD01422B808191818C5B07
S11330909740A0E0B0E0E9E1880F991FAA1FBB1F89
S11330A0EA95D1F78A019B01082B192B2A2B3B2B7C
S11330B0C901B8011F910F910895AC0190E4909358
S11330C06504EFE4F3EC3197F1F700C0000090934E
S11330D0660421E030E024173507B4F4FFEF60E71D
S11330E072E0F15060407040E1F700C0000090933E
S11330F06504EFE4F3EC3197F1F700C0000090931E
S113310066042F5F3F4FE7CF08950E9411210E946C
S113311088268091E40582608093E40580914004D0
S113312088608093400480914004846080934004CC
S113313080914004816080934004809140048D7F9D
S11331408093400482E08093450484E080934504A6
S11331509091600490649093600490910004916055
S113316090930004909100049860909300049091CF
S113317000049061909300049091000490689093EF
S1133180000490E19093060490E8909306049091D3
S113319060049F7E90936004909160049B7F909361
S11331A06004909100049D7F90930004909100042A
S11331B09B7F9093000480930504F89490910006FB
S11331C0916090930006909100069460909300069D
S11331D0909102069C609093020680930106809170
S11331E012048360809312040E94372888E80E94A6
S11331F040280E940F2A81E080930A0A1092010A53
S11332008091090A8E7F8093090A8FE39CE9809359
S1133210260A9093270A83E08093000A60917C0039
S11332206E7F8CE790E00E94D0358091650083FD2D
S1133230FCCF60917C006B7F8CE790E00E94D035DE
S113324060917C0061608CE790E00E94D0358091B1
S113325041018111FCCF8FEF93E080934A01909359
S11332604B0182E080934701809145018160809306
S1133270450189EA809340018091420181608093F5
S1133280420180E28093A60483E392E00E94D62E5A
S113329080939D7090939E702FEF84E39CE0215067
S11332A080409040E1F700C00000789480918371E1
S11332B08823C9F081E0809376718093077010921F
S11332C0A9701092AA708091777190917871A091F1
S11332D07971B0917A718093097090930A70A09378
S11332E00B70B0930C7080917671811112C0809133
S11332F09F7081110EC041E066EA7CEE80919D7062
S113330090919E700E94730C811103C081E08093A0
S11333109F7080917671882349F08091AA70811101
S113332005C080915000897F846003C08091500063
S1133330897F809350008091500081608093500079
S11333408895809150008E7F80935000CCCF1F923F
S11333500F920FB60F9211248F929F92AF92BF9249
S1133360CF92DF92EF92FF920F931F932F933F938D
S11333704F935F936F937F938F939F93AF93BF9379
S1133380EF93FF93CF93DF93CDB7DEB76197CDBFB4
S1133390DEBF209100082E3731F481E080937471F0
S11333A08093757122C280917571882309F41DC2BE
S11333B030917471313091F1323021F42D5F2093CA
S11333C073712CC0333041F4203931F02D3A31F58A
S11333D084E08093087022C0409108704317F0F491
S11333E060917371832F90E050E0841B950BFC0176
S11333F0E25FFE48361788F01082109275711092C1
S113340073711092747180E090E0FC01E555FF48FF
S11334102081222349F00196F8CF20838091747192
S11334208F5F80937471E1C18336910589F000E068
S113343010E029EDE22E2CEEF22E34EBC32E3CEEFE
S1133440D32EF801E15FFE482081211104C0E6CFAC
S113345080E090E0ECCF0336110501F32081FC01FC
S1133460E555FF48208301960F5F1F4F2D3049F724
S1133470FC01E555FF48108243E050E068E97CEE2A
S11334808BEA90E70E943C30892B19F48CE99CEE7E
S1133490A5C143E050E067EA7CEE8BEA90E70E9426
S11334A03C30892B09F060C01B864AE050E06EEA8C
S11334B070E7CE0101960E944A30CE0101960E9427
S11334C015306093777170937871809379719093CC
S11334D07A7181E09091B870943709F080E080931C
S11334E0077081E09091B970943709F080E080937F
S11334F0AA7081E09091BA70943709F080E08093CB
S1133500A97080911370909114708093A770909318
S1133510A87080911170909112708093A57090930F
S1133520A67080910F70909110708093A370909307
S1133530A47080910D7090910E708093A1709093FF
S1133540A2700E94FF268BEA9CEE0E94CF2A2FEFE6
S113355080E792E0215080409040E1F700C00000F5
S113356081E0809376713CC143E050E060EB7CEEF7
S11335708BEA90E70E943C30892B09F0AFC010928F
S1133580767181E09091AE70943709F080E0809379
S1133590187081E09091B470943709F080E08093C2
S11335A0177081E09091BA70943709F080E08093AD
S11335B0167081E09091C070943709F080E0809398
S11335C01570198A45E050E06FEA70E7CE010C9659
S11335D00E944A30CE010C960E94F72F80931370FC
S11335E09093147045E050E065EB70E7CE010C96C3
S11335F00E944A30CE010C960E94F72F80931170DE
S11336009093127045E050E06BEB70E7CE010C969E
S11336100E944A30CE010C960E94F72F80930F70BF
S11336209093107045E050E061EC70E7CE010C9689
S11336300E944A30CE010C960E94F72F80930D70A1
S113364090930E701B864AE050E066EC70E7CE0162
S113365001960E944A30CE0101960E941530609373
S1133660097070930A7080930B7090930C70809122
S1133670097090910A70A0910B70B0910C70E09158
S11336800D70F0910E708090157060910F707091B4
S11336901070909016704091117050911270A0901B
S11336A017702091137030911470B0901870BF93FC
S11336B0AF939F938F93FF93EF931F928F927F9378
S11336C06F931F929F925F934F931F92AF923F937A
S11336D02F931F92BF92DF92CF9241C043E050E0FC
S11336E065ED7CEE8BEA90E70E943C30892B09F073
S11336F043C08091097090910A70A0910B70B091B1
S11337000C70E0910D70F0910E70809015706091C6
S11337100F707091107090901670409111705091CC
S11337201270A09017702091137030911470B090A3
S11337301870BF93AF939F938F93FF93EF931F9250
S11337408F927F936F931F929F925F934F931F92D9
S1133750AF923F932F931F92BF92FF92EF9289E310
S113376090E79F938F930E94A63089E390E70E948D
S1133770CF2ACDBFDEBF34C043E050E06AEF7CEE19
S11337808BEA90E70E943C30892B29F410927671E1
S11337908EEF9CEE23C043E050E063E07DEE8BEAC5
S11337A090E70E943C30892B39F48BEA90E70E9421
S11337B0AA2263E07DEE0CC043E050E067E07DEEBA
S11337C08BEA90E70E943C30892B51F467E07DEE50
S11337D089E390E70E94482589E390E70E94CF2A75
S11337E01092AB7080E090E02CCE6196CDBFDEBF2E
S11337F0DF91CF91FF91EF91BF91AF919F918F9105
S11338007F916F915F914F913F912F911F910F91F4
S1133810FF90EF90DF90CF90BF90AF909F908F90EC
S11338200F900FBE0F901F9018951F920F920FB616
S11338300F9211242F933F934F935F936F937F9332
S11338408F939F93AF93BF93EF93FF930E94E017DF
S1133850FF91EF91BF91AF919F918F917F916F9164
S11338605F914F913F912F910F900FBE0F901F903A
S113387018951F920F920FB60F9211244F925F92D8
S11338806F927F928F929F92AF92BF92CF92DF926C
S1133890EF92FF920F931F932F933F934F935F9356
S11338A06F937F938F939F93AF93BF93EF93FF9304
S11338B0CF93DF93CDB7DEB7C455D109CDBFDEBFFB
S11338C08091777190917871A0917971B0917A71AA
S11338D00196A11DB11D8093777190937871A09387
S11338E07971B0937A7180917671882309F499C3C0
S11338F040917771509178716091797170917A717A
S11339008091097090910A70A0910B70B0910C7025
S1133910481759076A077B0708F42EC4809116706C
S1133920882369F080910F70909110702091A3709A
S11339303091A470821B930B449708F497C37E01C3
S113394026E4E20EF11C84E0E8E7FCEED7010190E6
S11339500D928A95E1F783E0F7013496DF01282F71
S11339601D922A95E9F794E0E8E7FCEEDE01DF9684
S113397001900D929A95E1F7FE01ED5BFF4FDF0197
S1133980282F1D922A95E9F794E0E8E7FCEEDE0182
S1133990D89601900D929A95E1F7FE01FC96DF010D
S11339A0282F1D922A95E9F794E0E8E7FCEEDE0162
S11339B0D19601900D929A95E1F7FE01F596DF01FB
S11339C0282F1D922A95E9F794E0E8E7FCEEDE0142
S11339D09A9601900D929A95E1F7FE01BE96DF0149
S11339E0282F1D922A95E9F794E0E8E7FCEEDE0122
S11339F0939601900D929A95E1F7FE01B796DF0137
S1133A001D928A95E9F784E0E8E7FCEEDE015A9618
S1133A1001900D928A95E1F7FE017E9685E0DF0123
S1133A201D928A95E9F78091A3709091A4700196F4
S1133A308093A3709093A47080911670882359F09A
S1133A4020910F70309110708091A3709091A470A8
S1133A508217930710F480E080C086E08093B00062
S1133A6082E080930806EFE0F7E23197F1F700C0B7
S1133A70000081E080930A0680910D0680FFFCCF50
S1133A8081E080930D06609110067091110680E02C
S1133A9090E00E94BF2B23E333E343E550E40E940C
S1133AA0742C4B015C018E010D5D1F4F24E046E038
S1133AB00E94B62E2091197030911A7040911B709B
S1133AC050911C70C501B4010E944B2B20E030E0E2
S1133AD040E85FE30E94D92A6B018C0120E030E0CA
S1133AE0A9010E94462B87FF04C0C12CD12C00E001
S1133AF010E02EEE3CE74FE952E4B601C8010E9403
S1133B00742C29EC36E740E451E40E94D92A96014A
S1133B10A8010E94742C2CE032E047E150E40E949A
S1133B20DA2A9601A8010E94742C8E01065D1F4FAB
S1133B3024E046E00E94B62E1092A3701092A47066
S1133B4080910F7090911070449730F080E18093D1
S1133B50060480E88093060481E02091A7703091E8
S1133B60A8702F5F3F4F2093A7703093A870909157
S1133B701870992309F493C04091137050911470F4
S1133B802091A7703091A8702417350708F487C0D6
S1133B901E861F86188A198A19821A821B821C8221
S1133BA0BE016F5F7F4FCE010E960E946A28882364
S1133BB009F470C060912D7070912E7080912F70F7
S1133BC0909130708090947190909571A0909671BE
S1133BD0B09097712E853F85488959890E94742C2D
S1133BE0A50194010E94DA2A4B015C0120E030E037
S1133BF048E452E40E946F2C18160CF03EC2812C4B
S1133C00912C58E4A52E52E4B52E8E869F86A88A60
S1133C10B98A6091297070912A7080912B7090916B
S1133C202C7040909071509091716090927170904E
S1133C30937129813A814B815C810E94742CA30188
S1133C4092010E94DA2A2B013C0120E030E048EC8A
S1133C5052E40E946F2C18160CF020C2412C512CF7
S1133C6038EC632E32E4732E49825A826B827C8252
S1133C70870122E046E0C501B4010E94B62E6981A5
S1133C807A818B819C818E01015C1F4F22E046E08A
S1133C900E94B62E1092A7701092A87081E0209115
S1133CA0A5703091A6702F5F3F4F2093A57030937D
S1133CB0A67090911770992309F487C040911170F0
S1133CC0509112702091A5703091A6702417350779
S1133CD008F47BC01092B00084E0809308068FE063
S1133CE097E20197F1F700C0000081E080930A0693
S1133CF080910D0680FFFCCF81E080930D066091DA
S1133D0010067091110680E090E00E94BF2B2FE610
S1133D1032E143E85FE30E94742C4B015C018E01A5
S1133D200F5C1F4F24E046E00E94B62E8091257060
S1133D3090912670A0912770B091287065968CAFF1
S1133D409DAFAEAFBFAF659740908C7150908D71B1
S1133D5060908E7170908F7120E030E040E05FE3FE
S1133D60C501B4010E94D92A2AE037ED43E25CE39D
S1133D700E944B2B65962CAD3DAD4EAD5FAD659766
S1133D800E94742CA30192010E94DA2A4B015C0167
S1133D9020E030E048E452E40E946F2C18160CF046
S1133DA08AC1812C912C28E4A22E22E4B22E8E0109
S1133DB0085C1F4F22E046E0C501B4010E94B62E04
S1133DC01092A5701092A67081E02091A17030919C
S1133DD0A2702F5F3F4F2093A1703093A2709091F7
S1133DE01570992361F040910D7050910E702091DF
S1133DF0A1703091A2702417350708F06DC1882393
S1133E0009F4FCC0809107708111ACC18091AA7043
S1133E108111A8C18091777190917871A091797185
S1133E20B0917A7180589344AD46B84361968CAF93
S1133E309DAFAEAFBFAF6197BE01625F7F4FCE0152
S1133E40835B9F4F0E943501BE84CB2C0B2C000C4E
S1133E50DD087F85072F072E000C110B7888A72D0E
S1133E60072C000CBB0BA988EA2D0A2C000CFF0BB5
S1133E708B89082E000C990B01962C893D892459B5
S1133E80384F4091A970411103C04BE05DEE02C070
S1133E9046EA5CEE4E0163E2860E911C9F928F927D
S1133EA04E0161E3860E911C9F928F924E016AE14E
S1133EB0860E911C9F928F924E016AE2860E911C8F
S1133EC09F928F924E0168E3860E911C9F928F926F
S1133ED04E016FE3860E911C9F928F92FF92EF9298
S1133EE0DF92BF921F937F93BF937F92FF93AF9212
S1133EF09F938F933F932F935F934F9380E19DEE16
S1133F009F938F931F9284E68F9389E390E79F9307
S1133F108F930E9476308DE080939B7010929C70FA
S1133F2080910770CDBFDEBF882321F089E390E73D
S1133F300E94332A8091AA70882321F089E390E7B4
S1133F400E94892A8091A970882309F457C080911E
S1133F509F70882309F452C0BE84AF849888E9888E
S1133F60FB880C891D892DE0FE0131966F01DF016C
S1133F70E22F1D92EA95E9F70459184F8E2D0E2C65
S1133F80000C990B9F93EF928F2D0F2C000C990B23
S1133F9001969F938F931F930F9386E49DEE9F93B7
S1133FA08F931F922F93DF92CF920E9476300093CB
S1133FB07B7110937C71F394F0927D71E0927E7129
S1133FC090928071A0928171B092827182E292E0AB
S1133FD00E94D62E8C0142E3B6010E94B20CCDBFE2
S1133FE0DEBF811108C0B80189E390E70E944D1239
S1133FF0C8010E942F12C8010E946E2F8FE19EE417
S11340000197F1F700C000008091AA70811103C0EC
S113401080E28093A5048091A970882309F4ACC040
S11340201DC080E28093A604AFECB7E01197F1F7CE
S113403000C000008091A070811107C087E59DEE4B
S11340400E94CF2A86E08093A0708091A070815056
S11340508093A07080919F70811103C081E090E0F3
S113406002C082E090E00E945D1886C080E18093E7
S1134070050480E88093050462CC20E030E040E24F
S113408051ECC501B4010E94462B87FFBECD812CA3
S1134090912C40E2A42E41ECB42EB7CD20E030E0C8
S11340A0A901C301B2010E94462B87FFDDCD412C3B
S11340B0512C3201D9CD20E030E040E251ECC50171
S11340C0B4010E94462B87FF72CE812C912C90E282
S11340D0A92E91ECB92E6BCE88E80E94A4292091D8
S11340E021703091227040912370509124708090FF
S11340F0887190908971A0908A71B0908B710E94A0
S1134100742CA50194010E94DA2A4B015C012FEF63
S11341103FE443EC57E40E946F2C18166CF020E047
S113412030E0A901C501B4010E94462B87FF0CC0F1
S1134130812C912C540108C088248A948FE4982EF1
S113414083ECA82E87E4B82E8E01065E1F4F22E072
S113415048E0C501B4010E94B62E1092A1701092DD
S1134160A27050CE80E28093A604AFECB7E0119722
S1134170F1F700C000004ECECC5ADF4FCDBFDEBFFA
S1134180DF91CF91FF91EF91BF91AF919F918F916B
S11341907F916F915F914F913F912F911F910F915B
S11341A0FF90EF90DF90CF90BF90AF909F908F9053
S11341B07F906F905F904F900F900FBE0F901F9065
S11341C018951F920F920FB60F9211242F933F93BD
S11341D04F935F936F937F938F939F93AF93BF930B
S11341E0EF93FF931092767110929F70E0E0F4E0E9
S11341F080E1868380E8868383E090E00E945D18F6
S1134200FF91EF91BF91AF919F918F917F916F91AA
S11342105F914F913F912F910F900FBE0F901F9080
S113422018958091021081FDFCCF89E390E00E94F3
S11342308B35843509F4DDC08091021081FDFCCFFB
S113424040E050E060E87FE385E390E00E94AA3517
S11342508091021081FDFCCF40E050E0BA0181E37F
S113426090E00E94AA358091021081FDFCCF40E0CD
S113427050E060E87FE38DE290E00E94AA358091EF
S1134280021081FDFCCF40E050E0BA0189E290E0E9
S11342900E94AA358091021081FDFCCF40E050E0DD
S11342A060E87FE385E290E00E94AA3580910210E5
S11342B081FDFCCF40E050E0BA0181E290E00E9431
S11342C0AA358091021081FDFCCF40E050E060E807
S11342D07FE38DE190E00E94AA358091021081FD78
S11342E0FCCF40E050E0BA0189E190E00E94AA3599
S11342F08091021081FDFCCF40E050E060E87FE354
S113430085E190E00E94AA358091021081FDFCCFE6
S113431040E050E0BA0181E190E00E94AA3580912A
S1134320021081FDFCCF4AE959E969EB7FE38DE096
S113433090E00E94AA358091021081FDFCCF64E5D3
S11343408CE090E00E949F358091021081FDFCCFAB
S113435064E58BE090E00E949F358091021081FD1E
S1134360FCCF64E58AE090E00E949F3580910210C2
S113437081FDFCCF64E589E090E00E949F35809147
S1134380021081FDFCCF6CE370E087E090E00E94B6
S1134390B6358091021081FDFCCF6CE370E085E0BE
S11343A090E00E94B6358091021081FDFCCF6CE351
S11343B070E083E090E00E94B6358091021081FDA8
S11343C0FCCF6CE370E081E090E00E94B635809110
S11343D0021081FDFCCF66E480E090E00E94BC35D1
S11343E08091021081FDFCCF64E589E390E00E9496
S11343F0BC358091021081FDFCCF85E390E00E94E2
S1134400933560932D7070932E7080932F709093DA
S113441030708091021081FDFCCF81E390E00E9416
S11344209335609394717093957180939671909382
S113443097718091021081FDFCCF8DE290E00E9483
S113444093356093297070932A7080932B709093A6
S11344502C708091021081FDFCCF89E290E00E94D3
S1134460933560939071709391718093927190934E
S113447093718091021081FDFCCF85E290E00E944F
S11344809335609325707093267080932770909372
S113449028708091021081FDFCCF81E290E00E949F
S11344A0933560938C7170938D7180938E7190931A
S11344B08F718091021081FDFCCF8DE190E00E940C
S11344C0933560932170709322708093237090933E
S11344D024708091021081FDFCCF89E190E00E945C
S11344E09335609388717093897180938A719093E6
S11344F08B718091021081FDFCCF85E190E00E94D8
S1134500933560931D7070931E7080931F70909309
S113451020708091021081FDFCCF81E190E00E9427
S113452093356093847170938571809386719093B1
S113453087718091021081FDFCCF8DE090E00E9494
S113454093356093197070931A7080931B709093D5
S11345501C700895CF92DF92EF92FF920F931F93F6
S1134560CF93DF93CDB7DEB72597CDBFDEBF8C01E8
S11345701D82BC016D5F7F4F44E050E0CE01019687
S11345800E944A30CE0101960E9415300E94BF2B32
S11345902FE632E143E85AE30E94742C6B017C015C
S11345A02DEC3CEC4CE45FE30E946F2C87FD1CC0B7
S11345B02AE939E949E95FE3C701B6010E94462BBC
S11345C0181694F0C0922D70D0922E70E0922F7035
S11345D0F09230708091021081FDFCCFB701A601EA
S11345E085E390E00E94AA3544E050E0B801695F99
S11345F07F4FCE0101960E944A30CE0101960E945F
S113460015300E94BF2B2AE037ED43E25CE30E94A1
S1134610742C6B017C0120E030E040E450EC0E94FB
S11346206F2C87FD1CC020E030E040E450E4C7015B
S1134630B6010E94462B181694F0C0929471D09241
S11346409571E0929671F09297718091021081FDBC
S1134650FCCFB701A60181E390E00E94AA3544E0B3
S113466050E0B801655F7F4FCE0101960E944A3049
S1134670CE0101960E9415300E94BF2B2FE632E135
S113468043E85AE30E94742C6B017C012DEC3CEC52
S11346904CE45FE30E946F2C87FD1CC02AE939E9D2
S11346A049E95FE3C701B6010E94462B181694F04E
S11346B0C0922970D0922A70E0922B70F0922C70E4
S11346C08091021081FDFCCFB701A6018DE290E03C
S11346D00E94AA3544E050E0B801615F7F4FCE01EB
S11346E001960E944A30CE0101960E9415300E9424
S11346F0BF2B2AE037ED43E25CE30E94742C6B018C
S11347007C012AE037ED4FE151EC0E946F2C87FDCC
S11347101CC02AE037ED4FE151E4C701B6010E9405
S1134720462B181694F0C0929071D0929171E09239
S11347309271F09293718091021081FDFCCFB701C8
S1134740A60189E290E00E94AA3544E050E0B80155
S11347506D5E7F4FCE0101960E944A30CE010196D4
S11347600E9415300E94BF2B2FE632E143E85AE342
S11347700E94742C6B017C012DEC3CEC4CE45FE357
S11347800E946F2C87FD1CC02AE939E949E95FE3DF
S1134790C701B6010E94462B181694F0C0922570EA
S11347A0D0922670E0922770F092287080910210C7
S11347B081FDFCCFB701A60185E290E00E94AA35F5
S11347C044E050E0B801695E7F4FCE0101960E943B
S11347D04A30CE0101960E9415300E94BF2B2AE078
S11347E037ED43E25CE30E94742C6B017C0120E012
S11347F030E040E450EC0E946F2C87FD1CC020E0A8
S113480030E040E450E4C701B6010E94462B18167C
S113481094F0C0928C71D0928D71E0928E71F0926E
S11348208F718091021081FDFCCFB701A60181E256
S113483090E00E94AA3544E050E0B801655E7F4FE5
S1134840CE0101960E944A30CE0101960E94153095
S11348500E94BF2B2FE632E143E85AE30E94742CF6
S11348606B017C012DEC3CEC4CE45FE30E946F2C6B
S113487087FD1CC02AE939E949E95FE3C701B601AC
S11348800E94462B181694F0C0922170D092227088
S1134890E0922370F09224708091021081FDFCCF8D
S11348A0B701A6018DE190E00E94AA3544E050E0F2
S11348B0B801615E7F4FCE0101960E944A30CE015D
S11348C001960E9415300E94BF2B6B017C0120E0F1
S11348D030EC49E754EC0E946F2C87FD1CC020E0AB
S11348E030EC49E754E4C701B6010E94462B181680
S11348F094F0C0928871D0928971E0928A71F0929A
S11349008B718091021081FDFCCFB701A60189E172
S113491090E00E94AA3544E050E0B8016D5D7F4FFD
S1134920CE0101960E944A30CE0101960E941530B4
S11349300E94BF2B2FE632E143E85AE30E94742C15
S11349406B017C012DEC3CEC4CE45FE30E946F2C8A
S113495087FD1CC02AE939E949E95FE3C701B601CB
S11349600E94462B181694F0C0921D70D0921E70AF
S1134970E0921F70F09220708091021081FDFCCFB4
S1134980B701A60185E190E00E94AA3544E050E019
S1134990B801695D7F4FCE0101960E944A30CE0175
S11349A001960E9415300E94BF2B2FE632E143E8A6
S11349B05AE30E94742C6B017C0120E030E040E05B
S11349C05FEB0E946F2C87FD1CC020E030E040E0CC
S11349D05FE3C701B6010E94462B181694F0C092FB
S11349E08471D0928571E0928671F0928771809182
S11349F0021081FDFCCFB701A60181E190E00E9485
S1134A00AA35B801655D7F4F44E050E0CE010196C0
S1134A100E944A30CE0101960E9415300E94BF2B9D
S1134A202FE632E143E85AE30E94742C6B017C01C7
S1134A3023E333E343EB5FE30E946F2C87FD1CC049
S1134A4020E030E040EC5FE3C701B6010E94462B52
S1134A50181694F0C0921970D0921A70E0921B70DC
S1134A60F0921C708091021081FDFCCFB701A60169
S1134A708DE090E00E94AA352596CDBFDEBFDF9180
S1134A80CF911F910F91FF90EF90DF90CF900895F9
S1134A902F923F924F925F926F927F928F929F924A
S1134AA0AF92BF92CF92DF92EF92FF920F931F9338
S1134AB0CF93DF93CDB7DEB7CC54D109CDBFDEBFE2
S1134AC02A968FAF2A972B969FAF2B972C966FAF72
S1134AD02C972D967FAF2D9760912D7070912E702D
S1134AE080912F70909130702E0128E3420E511C5A
S1134AF0820123E045E00E94B62E6091947170918A
S1134B00957180919671909197711E0132E3230EF5
S1134B10311C810122E045E00E94B62E609129708B
S1134B2070912A7080912B7090912C709E01245D5D
S1134B303F4F25962EAF3FAF2597890123E045E0EF
S1134B400E94B62E609190717091917180919271D2
S1134B50909193719E012A5D3F4F27962EAF3FAFF0
S1134B602797890122E045E00E94B62E60912570C6
S1134B707091267080912770909128709E01205E1C
S1134B803F4F29962EAF3FAF2997890123E045E097
S1134B900E94B62E60918C7170918D7180918E718E
S1134BA090918F717E013AE1E30EF11C870122E0BE
S1134BB045E00E94B62E6091217070912270809120
S1134BC02370909124706E0124E1C20ED11C8601E1
S1134BD023E045E00E94B62E60918871709189713E
S1134BE080918A7190918B715E013EE3A30EB11C9A
S1134BF0850120E044E00E94B62E60911D70709102
S1134C001E7080911F70909120704E012EE0820ED4
S1134C10911C840123E045E00E94B62E60918471CA
S1134C207091857180918671909187710D501109F1
S1134C3023E046E00E94B62E6091197070911A70BC
S1134C4080911B7090911C703E0138E0630E711CC2
S1134C50830123E045E00E94B62E7F926F9281E0AB
S1134C6090E08C0F9D1F9F938F939F928F92BF9282
S1134C70AF92DF92CF92FF92EF9229969FAD299740
S1134C809F9328962FAD28972F9327963FAD27976C
S1134C903F9326968FAD26978F9325969FAD2597A4
S1134CA09F9324962FAD24972F933F922F925F9238
S1134CB04F922D963FAD2D973F932C968FAD2C9709
S1134CC08F938CE59DEE9F938F932B969FAD2B979F
S1134CD09F932A962FAD2A972F930E94A630CDBF7B
S1134CE0DEBFC45BDF4FCDBFDEBFDF91CF911F912D
S1134CF00F91FF90EF90DF90CF90BF90AF909F9077
S1134D008F907F906F905F904F903F902F90089579
S1134D108091021081FDFCCF80E090E00E948B35F1
S1134D2091E0843509F090E09093837180910210B2
S1134D3081FDFCCF8CE090E00E948B3591E08435BE
S1134D4009F090E0909318708091021081FDFCCFDF
S1134D5087E090E00E949A358093137090931470CA
S1134D608091021081FDFCCF8BE090E00E948B3596
S1134D7091E0843509F090E09093177080910210CF
S1134D8081FDFCCF85E090E00E949A3580931170FC
S1134D90909312708091021081FDFCCF8AE090E024
S1134DA00E948B3591E0843509F090E09093167061
S1134DB08091021081FDFCCF83E090E00E949A353F
S1134DC080930F70909310708091021081FDFCCF3E
S1134DD089E090E00E948B3591E0843509F090E001
S1134DE0909315708091021081FDFCCF81E090E0DA
S1134DF00E949A3580930D7090930E70089580915F
S1134E00021081FDFCCF80918371811102C066E4A0
S1134E1001C064E580E090E00E949F35809102101B
S1134E2081FDFCCF80911870811102C066E401C03D
S1134E3064E58CE090E00E949F358091021081FD32
S1134E40FCCF609113707091147087E090E00E9421
S1134E50B6358091021081FDFCCF809117708111CD
S1134E6002C066E401C064E58BE090E00E949F35D7
S1134E708091021081FDFCCF6091117070911270CD
S1134E8085E090E00E94B6358091021081FDFCCF50
S1134E9080911670811102C066E401C064E58AE065
S1134EA090E00E949F358091021081FDFCCF6091BB
S1134EB00F707091107083E090E00E94B63580917D
S1134EC0021081FDFCCF80911570811102C066E44F
S1134ED001C064E589E090E00E949F358091021052
S1134EE081FDFCCF60910D7070910E7081E090E0B7
S1134EF00C94B63584E08093A60485E88A95F1F78E
S1134F0000000895E0EAF4E084E0858388E0868385
S1134F1085E88A95F1F700000C947A27E0EAF4E03A
S1134F2088E0868395E89A95F1F7000094E09583EC
S1134F3090E59A95F1F7858385E88A95F1F7000065
S1134F400895CF92DF92FF920F931F93CF93DF9335
S1134F50082FC0E0D0E010E084E0F82E90E8C92EDD
S1134F60D12C0E947A27F092A50425E82A95F1F71E
S1134F7000008091A80482FFFCCF8091A80483FFE5
S1134F8008C0C6010C2E02C0959587950A94E2F7D5
S1134F90182B2196C830D10521F70E947A2788E082
S1134FA0002319F08093A60402C08093A50485E829
S1134FB08A95F1F7000084E08093A50425E82A95FA
S1134FC0F1F700000E947A2788E08093A50480E529
S1134FD08A95F1F7812FDF91CF911F910F91FF9067
S1134FE0DF90CF9008950F931F93CF93DF93D82F23
S1134FF0C8E018E004E00E947A27D7FF03C01093AA
S1135000A50402C01093A60485E88A95F1F7000070
S11350100093A50485E88A95F1F700008091A8041F
S113502082FFFCCFDD0FC15031F70E947A2788E060
S11350308093A50485E88A95F1F7000084E08093C5
S1135040A5048091A80482FFFCCF85E88A95F1F736
S11350500000C091A8040E947A27C3FBCC27C0F9A2
S113506081E08C27DF91CF911F910F910895E0EAA1
S1135070F4E08081837F808384818C7084830895AD
S1135080CF93C82F0E9482278C2F0E94F32781E0A0
S11350900E94F3278EEC0E94F32780E00E94F327FE
S11350A00E948E278FEC97E00197F1F700C0000073
S11350B00E9482278C2F0E94F32780E00E94F3270E
S11350C00E948E278FEC97E00197F1F700C0000053
S11350D0CF9108958F929F92AF92BF92CF92DF9219
S11350E0EF92FF920F931F93CF93DF938C016B0189
S11350F00E94822780E70E94F3278EEB0E94F32709
S113510088E00E94F32780E00E94F3270E948E2704
S11351108FE19EE40197F1F700C000000E9482270E
S113512080E70E94F32785EF0E94F327EFE3FCE971
S11351303197F1F700C000000E948E270E94822759
S113514080E70E94F32783EF0E94F3278FE39CE913
S11351500197F1F700C000000E948E270E94822769
S113516080E70E94F3278CEA0E94F32783E30E94DE
S1135170F32780E00E94F3270E948E279FEFE0E749
S1135180F2E09150E040F040E1F700C000000E94DE
S1135190822781E70E94F32781E00E94A12787FFED
S11351A012C080E090E0A6ECB2ECF601808391831B
S11351B0A283B383F80180839183A283B3830E9483
S11351C08E2780E0B4C081E00E94A127B82E81E040
S11351D00E94A127E82E81E00E94A127C82F81E028
S11351E00E94A127F82E81E00E94A127D82F80E0F9
S11351F00E94A1270E948E276B2D70E080E090E032
S11352000E94BF2B20E030E0A9010E94DA2A20E0AE
S113521030E040E853E40E94742C4B015C016E2D95
S113522070E080E090E00E94BF2BA50194010E94F1
S1135230DA2A20E030E040E851E40E94742C4B016B
S11352405C016C2F70E084E0759567958A95E1F7B1
S1135250072E000C880B990B0E94BF2BA50194010B
S11352600E94DA2A20E030E048EC52E40E94742CD8
S113527020E030E040E85AE30E94742C20E030E063
S113528040E85AE30E94742CF601608371838283A0
S113529093836C2F6F7070E080E090E00E94BF2BCE
S11352A020E030E0A9010E94DA2A20E030E040E862
S11352B053E40E94742C4B015C016F2D70E080E07C
S11352C090E00E94BF2BA50194010E94DA2A20E0FD
S11352D030E040E853E40E94742C6B017C016D2F94
S11352E070E080E090E00E94BF2BA70196010E942D
S11352F0DA2A20E030E048E453E40E94742C20E0F1
S113530030E040E85AE30E94742C20E030E040E8AA
S11353105AE30E94742C20E030E048E452E40E94F6
S1135320D92AF801608371838283938381E0DF91BA
S1135330CF911F910F91FF90EF90DF90CF90BF908E
S1135340AF909F908F9008958F929F92AF92BF924B
S1135350CF92DF92EF92FF92CF93C82F0E948227C1
S113536081E08C0F0E94F32785E88A95F1F700000D
S113537081E00E94A127C82F80E00E94A127B82EB7
S11353800E948E276C2F62956F7070E080E090E031
S11353900E94BF2B9B01AC0160E070E080E090E4D0
S11353A00E94E12C6B017C01CF706C2F70E0762F92
S11353B066276B0D711D072E000C880B990B0E943C
S11353C0BF2B4B015C012AE037ED43E25CE3C701EC
S11353D0B6010E94742C9B01AC01C501B4010E946A
S11353E0742CD62EE72EF82EC92F2DEC3CEC43EA74
S11353F057E40E946F2C181624F4D12CE12CF12CC4
S1135400C0E06D2D7E2D8F2D9C2FCF91FF90EF90BE
S1135410DF90CF90BF90AF909F908F900895E0E081
S1135420F8E0118683E3808783E087838681806C3C
S1135430868308958091040885FB882780F9089560
S1135440CF93C82F0E941A2A8823E1F3C09302083D
S1135450CF910895FC019F01281B390B4191411103
S1135460FACFC9010895AF92BF92CF92DF92EF9223
S1135470FF920F931F93CF93DF937C010E942A2AFC
S11354808C018EE70E94202AC8010E96892F0E9463
S1135490202A8EE0800F0E94202A80E10E94202A88
S11354A080E00E94202AC8E0D0E080E00E94202A08
S11354B02197D9F78FEF0E94202A8EEF0E94202A8D
S11354C080E00E94202A80E00E94202A6701CDE02B
S11354D0D0E0C6018E199F098017910764F4560124
S11354E0F60181916F010E94202AF5018081C80F85
S11354F0D11DDD27EECF8C2F8095DF91CF911F91A9
S11355000F91FF90EF90DF90CF90BF90AF900C94ED
S1135510202AAF92BF92CF92DF92EF92FF920F9325
S11355201F93CF93DF936C010E942A2A7C018EE79C
S11355300E94202AC7010396892F0E94202A83E013
S11355408E0D0E94202A8DE20E94202A80E00E9473
S1135550202A81E00E94202A8601CEE2D0E0C80100
S11355608C199D098E159F0564F45801F8018191E9
S11355708F010E94202AF5018081C80FD11DDD27EB
S1135580EECF8C2F8095DF91CF911F910F91FF90DB
S1135590EF90DF90CF90BF90AF900C94202ACF93E0
S11355A0DF93EC010E94332ACE01DF91CF910C945A
S11355B0892A5058BB27AA270E94F12A0C94352C1B
S11355C00E94272C38F00E942E2C20F039F49F3FA3
S11355D019F426F40C94242C0EF4E095E7FB0C94B7
S11355E01E2CE92F0E94462C58F3BA176207730742
S11355F08407950720F079F4A6F50C94682C0EF432
S1135600E0950B2EBA2FA02D0B01B90190010C01CE
S1135610CA01A0011124FF27591B99F0593F50F4E6
S1135620503E68F11A16F040A22F232F342F44273E
S1135630585FF3CF469537952795A795F040539536
S1135640C9F77EF41F16BA0B620B730B840BBAF006
S11356509150A1F0FF0FBB1F661F771F881FC2F771
S11356600EC0BA0F621F731F841F48F48795779585
S11356706795B795F7959E3F08F0B0CF9395880F3F
S113568008F09927EE0F9795879508950E94FA2BB5
S113569008F481E008950E945F2B0C94352C0E943D
S11356A02E2C58F00E94272C40F029F45F3F29F05B
S11356B00C941E2C51110C94692C0C94242C0E94D3
S11356C0462C68F39923B1F3552391F3951B550B9D
S11356D0BB27AA2762177307840738F09F5F5F4FC1
S11356E0220F331F441FAA1FA9F335D00E2E3AF000
S11356F0E0E832D091505040E695001CCAF72BD018
S1135700FE2F29D0660F771F881FBB1F2617370768
S11357104807AB07B0E809F0BB0B802DBF01FF279A
S113572093585F4F3AF09E3F510578F00C941E2C2D
S11357300C94692C5F3FE4F3983ED4F386957795F7
S11357406795B795F7959F5FC9F7880F911D969553
S1135750879597F90895E1E0660F771F881FBB1FAF
S1135760621773078407BA0720F0621B730B840B5C
S1135770BA0BEE1F88F7E0950895E89409C097FBEB
S11357803EF490958095709561957F4F8F4F9F4F14
S11357909923A9F0F92F96E9BB279395F695879558
S11357A077956795B795F111F8CFFAF4BB0F11F41B
S11357B060FF1BC06F5F7F4F8F4F9F4F16C08823C2
S11357C011F096E911C0772321F09EE8872F762FF8
S11357D005C0662371F096E8862F70E060E02AF039
S11357E09A95660F771F881FDAF7880F9695879525
S11357F097F90895990F0008550FAA0BE0E8FEEFFA
S113580016161706E807F907C0F012161306E40780
S1135810F50798F0621B730B840B950B39F40A2679
S113582061F0232B242B252B21F408950A2609F457
S1135830A140A6958FEF811D811D089597F99F675B
S113584080E870E060E008959FEF80EC0895002404
S11358500A941616170618060906089500240A94D1
S113586012161306140605060895092E0394000C57
S113587011F4882352F0BB0F40F4BF2B11F460FFE6
S113588004C06F5F7F4F8F4F9F4F089557FD90580F
S1135890440F551F59F05F3F71F04795880F97FBF0
S11358A0991F61F09F3F79F08795089512161306AA
S11358B01406551FF2CF4695F1DF08C016161706D9
S11358C01806991FF1CF869571056105089408950E
S11358D0E894BB2766277727CB0197F908950E94A0
S11358E0FA2B08F48FEF08950E94872C0C94352C22
S11358F00E94272C38F00E942E2C20F0952311F0C2
S11359000C941E2C0C94242C11240C94692C0E94AD
S1135910462C70F3959FC1F3950F50E0551F629F7D
S1135920F001729FBB27F00DB11D639FAA27F00DF4
S1135930B11DAA1F649F6627B00DA11D661F829F1B
S11359402227B00DA11D621F739FB00DA11D621F00
S1135950839FA00D611D221F749F3327A00D611D1D
S1135960231F849F600D211D822F762F6A2F1124FF
S11359709F5750409AF0F1F088234AF0EE0FFF1F32
S1135980BB1F661F771F881F91505040A9F79E3F89
S1135990510580F00C941E2C0C94692C5F3FE4F3A9
S11359A0983ED4F3869577956795B795F795E795DF
S11359B09F5FC1F7FE2B880F911D9695879597F9E8
S11359C00895FA01EE0FFF1F309621053105A1F16C
S11359D06115710561F48038BFE39B0749F1689450
S11359E09038810561F08038BFEF9B0741F099231F
S11359F04AF5FF3FE1053105210519F1E8940894C2
S1135A00E795D901AA2329F4AB2FBE2FF85FD0F371
S1135A1010C0FF5F70F4A695E0F7F73950F019F065
S1135A20FF3A38F49F779F930DD00F9007FC90585E
S1135A30089546F00C94242C60E070E080E89FE325
S1135A4008954FE79F775F934F933F932F930E945F
S1135A50DC2D2F913F914F915F910E94742C0C94F7
S1135A60392D29F416F00C941E2C0C94682C0C94EB
S1135A70242C0E944E2CA8F39638A0F707F80F9216
S1135A80E8942BE33AEA48EB5FE70E948A2C0F92F2
S1135A900F920F924DB75EB70F920E94242EE0EB47
S1135AA0F0E00E946B2D4F915F91EF91FF91E5958E
S1135AB0EE1FFF1F49F0FE57E0684427EE0F441F16
S1135AC0FA95E1F74195550B0E949E2D0F9007FE24
S1135AD00C94922D0895DF93CF931F930F93FF920D
S1135AE0EF92DF927B018C01689406C0DA2EEF01FD
S1135AF00E94872CFE01E894A5912591359145914A
S1135B005591A6F3EF010E94F12AFE019701A80125
S1135B10DA9469F7DF90EF90FF900F911F91CF9186
S1135B20DF9108959B01AC0160E070E080E89FE3A1
S1135B300C944B2B0C941E2C0C94582E0E944E2C1F
S1135B40D8F39923C9F3940F511DA3F391505040F6
S1135B5094F059F0882332F0660F771F881F915014
S1135B605040C1F79E3F51052CF7880F911D969523
S1135B70879597F908955F3FACF0983E9CF0BB275A
S1135B80869577956795B79508F4B1609395C1F7B5
S1135B90BB0F58F711F460FFE8CF6F5F7F4F8F4F53
S1135BA09F4FE3CF0C94692C16F00C94582E0C9450
S1135BB0242C68940C941E2C0E944E2CA8F3992338
S1135BC0C1F3AEF3DF93CF931F930F93FF92C92FCB
S1135BD0DD2788232AF02197660F771F881FDAF7BD
S1135BE020E030E040E85FEB9FE3883920F0803E1E
S1135BF038F021968F770E94DA2AE8EDF0E004C0AD
S1135C000E94DA2AE5E0F1E00E946B2D8B01BE01CF
S1135C10EC01FB2E6F5771097595771F880B990B53
S1135C200E94BF2B28E132E741E35FE30E94872C07
S1135C30AF2D9801AE01FF900F911F91CF91DF918D
S1135C400E94F12A0C94352CFA01DC01AA0FBB1F27
S1135C509B01AC01BF5728F42227332744275078EF
S1135C6020C0B75190F4AB2F002446953795279563
S1135C70011CA395D2F3002071F0220F331F441F9F
S1135C80B395DAF30ED00C94D92A61307105A0E8EB
S1135C908A07B94630F49B01AC0166277727882729
S1135CA09078309621F02083318342835383089582
S1135CB09F3F31F0915020F4879577956795B7957C
S1135CC0880F911D9695879597F90895AA1BBB1B7C
S1135CD051E107C0AA1FBB1FA617B70710F0A61BE8
S1135CE0B70B881F991F5A95A9F780959095BC0109
