S00F00006D6C6F676765722E7372656328
S11300000C942C010C945F250C9449010C94490127
S11300100C9449010C9449010C9449010C94490134
S11300200C9449010C9420210C9449010C94FC205B
S11300300C9449010C9449010C9449010C94490114
S11300400C9449010C9449010C9487200C944901A7
S11300500C9449010C9449010C9449010C944901F4
S11300600C9449010C94490131183C18611BB918CE
S11300705919611B611B211A611B611B611B611BE7
S1130080611B611B611B611B611B611B611B611B8C
S1130090611B611B611B611B611B611B611B611B7C
S11300A0611B611B611B611B611B611B611B611B6C
S11300B0611B611B611B611B611B611B611B611B5C
S11300C0611B611B611B611B611B611BB019B619AC
S11300D0CE19E619061A2A1A9C1A0A1B0763423615
S11300E0B79BD8A71A39685618AEBAAB558C1D3CC5
S11300F0B7CC5763BD6DEDFD753EF6177231BF0089
S11301000000803F08000000BE922449123EABAAC2
S1130110AA2ABECDCCCC4C3E00000080BEABAAAA1D
S1130120AA3E00000000BF000000803F0000000065
S113013000084178D3BB4387D1133D190E3CC3BD9E
S11301404282AD2B3E68EC8276BED98FE1A93E4C4B
S113015080EFFFBE01C4FF7F3F00000000000040AD
S11301607A10F35A00A0724E18090010A5D4E800C2
S113017000E87648170000E40B54020000CA9A3BDA
S1130180000000E1F5050000809698000000404260
S11301900F000000A08601000000102700000000EE
S11301A0E803000000006400000000000A000000F2
S11301B000000100000000002C76D888DC674F089E
S11301C023DFC1DFAE59E1B1B796E5E3E453C63AA4
S11301D0E651997696E8E6C28426EB898C9B62ED1B
S11301E0407C6FFCEFBC9C9F40F2BAA56FA5F490D5
S11301F0055A2AF75C936B6CF9676DC11BFCE0E44C
S11302000D47FEF520E6B500D0ED902E03009435A1
S113021077050080841E080000204E0A000000C8F4
S11302200C333333330F986E12831141EF8D211445
S1130230893BE65516CFFEE6DB18D1844B381BF715
S11302407C1D901DA4BBE424203284725E228100B4
S1130250C9F124ECA1E53D2711241FBECFEFD8E05E
S1130260DEBFCDBF12E0A0E0B1E0ECEEF4E702C0E7
S113027005900D92A433B107D9F723E0A4E3B2E0CB
S113028001C01D92A03AB207E1F70E94FA1F0C9434
S1130290743A0C940000A8E0B0E0E1E5F1E00C94BD
S11302A0473A8B01FC01608171818281938120E84E
S11302B031E541E050E00E94893269017A012CE382
S11302C030E040E050E00E941E3A29833A834B8399
S11302D05C8389819A81AB81BC81F80160836CE382
S11302E070E00E940A3ADC01CB01F801A183828309
S11302F0C601069667E070E00E94F63984832DEA11
S11303003EE840E050E0C701B6010E941E3A29834E
S11303103A836D837E838F83988789819A8124E6CB
S1130320289F6001299FD00C11246D817E818F81CB
S1130330988525EB35E040E050E00E941E3A298381
S11303403A836D837E83E980FA80EE0CFF1CEE0C09
S1130350FF1CEC0CFD1C8D819E81F5E6EF16F1046B
S113036010F0019604C024E6E216F10419F021E02D
S113037030E002C020E030E0A90144595E4F481744
S1130380590768F46DE671E0821B930B0E940A3AE8
S1130390DC01CB01E80EF91ECD0120E030E044E69B
S11303A0E40EF11CF801F782E68291878087255CD0
S11303B03F4F8217930748F46FE170E00E940A3AB6
S11303C0DC01CB01F801858322C069E970E0821B5E
S11303D0930B0E940A3ADC01CB01F82EFF0CFF0CB0
S11303E0F80E6DE370E0CD010E940A3ADC01CB0106
S11303F0E82EEE0C6FE170E0CD010E940A3ADC01B8
S1130400CB0122E0280FF20EFE0CF801F582A38343
S1130410F8011386128683818F5F83832896E8E030
S11304200C94633AFC01218130E0322F2227808131
S1130430A901482BCA010895FC016381862F90E02D
S1130440A0E0B0E0BA2FA92F982F88272281822B11
S1130450BA2FA92F982F88272181822BBA2FA92F51
S1130460982F88272081BC01CD01622B0895FC01BF
S1130470608371830895FC01408351836283738395
S11304800895DC01FB014115510549F080818C93ED
S1130490415051091196319641155105B9F7089506
S11304A0FC01608341505109319641155105C9F74A
S11304B00895CF93DF93DC01FB01ED0121968C912C
S11304C090E0BF016F5F7F4F2081821B91094150F3
S11304D0510921F0DE01FB01009779F3DF91CF91FF
S11304E00895FC0101C031968081882329F0282FCA
S11304F030E026173707B9F790E00895813848F0BF
S1130500803A50F0803E58F08D3F60F080E090E0FB
S1130510089580E090E0089581E090E0089580E0FF
S113052090E0089581E090E00895803458F08F378A
S113053060F0803810F08D3F58F0882361F080E03F
S113054090E0089580E090E0089581E090E00895BF
S113055081E090E0089581E090E00895CF92DF92E9
S1130560EF92FF92FC019A01AB012250310941093B
S11305705109C788D08CE18CF28C82E0C81AD1086A
S1130580E108F1082C153D054E055F0568F4C3A488
S1130590D4A4E5A4F6A4A185B2850E94C0326C0D52
S11305A07D1D8E1D9F1D03C060E070E0CB01FF9098
S11305B0EF90DF90CF900895CF92DF92EF92FF9269
S11305C00F931F93CF93DF938C01EB01CB014A96DA
S11305D00E9412026C01E12CF12CF801808183301D
S11305E069F4CE0144960E941202A0E0B0E0DC015E
S11305F099278827C82AD92AEA2AFB2AC701B601DB
S1130600DF91CF911F910F91FF90EF90DF90CF90EA
S11306100895CF92DF92EF92FF920F931F93CF939F
S1130620DF938C01EB0169017A01B901CE014A968D
S11306300E943702F8018081833039F4B70188279A
S11306409927CE0144960E943702DF91CF911F91E2
S11306500F91FF90EF90DF90CF9008953F924F92CB
S11306605F926F927F928F929F92AF92BF92CF923E
S1130670DF92EF92FF920F931F93CF93DF933C018E
S11306802B01FB01C081D1815C01FCE1AF0EB11CE7
S11306904BE050E060E270E0C5010E9450028881A6
S11306A08E3269F540E050E080E090E09C012F5FDD
S11306B03F4FFE01E80FF91F80818E3259F4233039
S11306C0310540F4F501E40FF51F8083C9014F5F44
S11306D05F4FECCF8F3229F08C3519F0813208F05E
S11306E09FC0C20FD31FF201D183C083813210F4A3
S11306F084E201C080E2F30187A380E09EC0C12CA4
S1130700D12CE12CF12C6894882483F8912C870156
S11307100F5F1F4FFE01EE0DFF1D3080F0E2F31559
S113072008F067C08FE2381631F09CE539120CC02E
S113073002C00F5F1F4FFE01E00FF11F80818F3257
S1130740C1F38C35B1F355C0EEE23E1619F0C8146E
S1130750D90498F0FBE08F16910409F463C08EE28B
S1130760381262C078016894CC24C3F8D12C0F2EBF
S1130770FBE08F2E912CF02DCACF832D0E947E0298
S1130780892B01F192E0E90EF11CFE01E00FF11F4B
S11307901081812F0E949502892B09F447C0C4015E
S11307A00197C816D90608F043C0F501EC0DFD1DEC
S11307B03082F6013196EA0DFB1D82E0C80ED11C91
S11307C01083A5CF632D70E081E391E00E94710254
S11307D0892B81F58FE9830D8A3110F490EE390E5F
S11307E0F501EC0DFD1D3082F60131966F017801A3
S11307F08ECFC00FD11FF201D183C083CD28E1F089
S1130800F301848D853E11F485E0848FF0E2F315C5
S113081010F084E001C080E0F30187A380E00DC004
S113082086E00BC086E009C086E007C086E005C00C
S113083086E003C086E001C086E0DF91CF911F917E
S11308400F91FF90EF90DF90CF90BF90AF909F906B
S11308508F907F906F905F904F903F900895CF93CB
S1130860DF93EC01A881B981109729F48FEF9FEFF2
S11308702AC0319601C0FD019081913210F09A3363
S1130880C1F79A33A9F4CD0101962C9130E020539D
S113089031092A30310578F4E817F90779F421157C
S11308A0310579F4822F932F3196F983E8830BC0B5
S11308B080E090E008C08FEF9FEF05C08FEF9FEFBF
S11308C002C08FEF9FEFDF91CF910895FC017183F8
S11308D06083138212821582148208950F931F93EA
S11308E0CF93DF93EC018B01892BA9F0E881F98187
S11308F0309799F08081882391F02A813B8185810A
S113090096812817390769F481810E94A11B80FF11
S11309100AC089E009C089E007C089E005C089E010
S113092003C089E001C080E0811103C028813981BE
S113093002C020E030E0F80131832083DF91CF91C1
S11309401F910F9108958F929F92AF92BF92EF9251
S1130950FF920F931F93CF93DF93FC0123812223F4
S1130960D1F1EC017C01F3E3EF0EF11C2FA538A9C2
S113097049A95AA901E010E0B70189810E94AF1B7F
S113098081112BC01B820FA518A929A93AA98BA1F3
S11309909CA1ADA1BEA148015901881A990AAA0ACD
S11309A0BB0A8B8D9C8DAD8DBE8D88169906AA06CB
S11309B0BB06A8F46A816230A1F4A9019801280F4A
S11309C0391F4A1F5B1F01E010E0B70189810E94B3
S11309D0AF1B80E007C080E005C081E003C080E079
S11309E001C080E0DF91CF911F910F91FF90EF90B4
S11309F0BF90AF909F908F9008958F929F92AF92E7
S1130A00BF92FF920F931F93CF93DF93EC014A01A0
S1130A105B018FA598A9A9A9BAA984179507A60768
S1130A20B707E9F0CE010E94A304F82E811118C083
S1130A3001E010E0A5019401BE016D5C7F4F898146
S1130A400E94A41B882331F0FF24F39488248A9401
S1130A50982C54018FA698AAA9AABAAA01C0F12C6D
S1130A608F2DDF91CF911F910F91FF90BF90AF9089
S1130A709F908F900895CF93DF93EC011B828FEFAB
S1130A809FEFDC018FA798ABA9ABBAABCE010E9454
S1130A90FD04811128C0CE018F5C9D4F0E9412027B
S1130AA085359A4A11F58BA9893E29F08B3EF9F4D4
S1130AB08DA98039F1F443E050E060E471E0CE01A7
S1130AC087599F4F0E945902892BA9F045E050E0B5
S1130AD064E471E0CE018B579F4F0E945902892B29
S1130AE061F480E00BC084E009C083E007C082E0C9
S1130AF005C082E003C080E001C082E0DF91CF91B5
S1130B0008954F925F926F927F928F929F92AF92CD
S1130B10BF92CF92DF92EF92FF920F931F93CF93E6
S1130B20DF93CDB7DEB7A0970FB6F894DEBF0FBE44
S1130B30CDBF6B01B42EDB011D921C920E942F04C9
S1130B407C0199230CF474C2FC01EE0FFF1FEA5CD4
S1130B50FD4F008111810115110509F46BC2F601E5
S1130B6011830083FB2DFE7FBF2ED8018C91882337
S1130B7069F011968C910E94A11B80FD07C0BB20D7
S1130B8009F45AC282FD5AC280E07BC2F801108285
S1130B90E1828E2D0E949E1B80FD52C2BB2011F06B
S1130BA082FD50C240E050E0BA01C8010E943B05FA
S1130BB0823079F1C12CD12C760157C0F701E2952E
S1130BC0F295F07FFE27E07FFE27E254FE4FC80136
S1130BD0C396E80FF91F8481882329F0CF01089672
S1130BE00E941C0203C060E070E0CB01F701EE0F2D
S1130BF0FF1FEE0FFF1F21E030E02C0F3D1FE20F1F
S1130C00F31F60837183828393833FEFE31AF30AB4
S1130C1002C0E12CF12C44E0E416F10478F2A12C9A
S1130C20B12CF501EE0FFF1FEE0FFF1F61E070E026
S1130C306C0F7D1FE60FF71FC080D180E280F38028
S1130C40C114D104E104F10431F0B701A601C801D3
S1130C500E943B0501C083E0823038F07FEFA71A81
S1130C60B70A94E0A916B104E0F2843009F4ECC1A7
S1130C70823008F0EBC1C801CE960E9412028115A1
S1130C80924009F0E5C1C801875B9F4F0E941202A0
S1130C909C0140E050E0298B3A8B4B8B5C8B232BDF
S1130CA0242B252B49F4C801895A9F4F0E941C020A
S1130CB0698B7A8B8B8B9C8B49895A896B897C894C
S1130CC0D8015B964D935D936D937C935E97F80189
S1130CD0ED5BFF4FA081F801A2838FEF8A0F823072
S1130CE008F0B8C1B0E09A01AB010E94C032698F2C
S1130CF07A8F8B8F9C8FE05CFF4FA080B12CD80142
S1130D001A96BC92AE921997A114B10409F4A4C125
S1130D10C50101978A219B21892B09F09FC1C80134
S1130D208C5B9F4F0E9412024C01F80190878783CD
S1130D308F709927892B09F093C1C8018A5B9F4F53
S1130D400E9412022C01612C712C41145104610483
S1130D50710439F4C8018D5A9F4F0E941C022B0163
S1130D603C01C8018F5B9F4F0E941202009709F457
S1130D7079C19C0140E050E02D8F3E8F4F8F58A3E6
S1130D80898D9A8DAB8DBC8D820F931FA41FB51FC7
S1130D909401329522952F7023273F702327AC01AD
S1130DA0BD01420F531F611D711D4D8B5E8B6F8BF7
S1130DB0788F441655066606770608F455C1C301B4
S1130DC0B2012D893E894F89588D621B730B840BA8
S1130DD0950B950140E050E00E948932DA01C90187
S1130DE0211531054105510509F440C1263F6FEF36
S1130DF0360746076FE0560710F0B12C04C00F2EDB
S1130E00F3E0BF2EF02D863F7FEF9707A105B105D4
S1130E1018F46894BB24B1F8863F9F40A105B1053E
S1130E2010F4BB24B394BB2009F422C129013A0174
S1130E30F2E04F0E511C611C711CD80157964D9263
S1130E405D926D927C925A97F801C78ED0A2E1A26E
S1130E50F2A28D8D9E8DAF8DB8A18C0D9D1DAE1D02
S1130E60BF1D83A394A3A5A3B6A34D895E896F89EF
S1130E70788D4C0D5D1D6E1D7F1D43A754A765A77E
S1130E8076A7F3E0BF1220C0C801835A9F4F0E9487
S1130E901202892B09F0EEC0892809F0EDC0C801BF
S1130EA0815A9F4F0E941C02D80197966D937D939F
S1130EB08D939C939A97440C551C661C771C440C88
S1130EC0551C661C771C2DC0892809F4D7C0298DB0
S1130ED03A8D4B8D5C8D820F931FA41FB51FF801B3
S1130EE087A390A7A1A7B2A7F2E0BF1205C0440C44
S1130EF0551C661C771C15C0A3E0B0E0A301920149
S1130F000E94C032DC01CB01B695A79597958795D1
S1130F1021E04222552466247724480E591E6A1E75
S1130F207B1E3FEF430E31E0531E611C711C032EE8
S1130F3039E076946794579447943A95D1F7302DD5
S1130F4049895A896B897C89441555056605770555
S1130F5008F496C08FEF9FEFDC01F8018787908B30
S1130F60A18BB28B83879487A587B68780E8848317
S1130F70F3E0BF1247C0C8018D599F4F0E9412026F
S1130F80019709F03FC0B701A6014F5F5F4F6F4F54
S1130F907F4FC8010E94FD04811134C0D80114960A
S1130FA01C92C8018F5C9D4F0E94120285359A4A9B
S1130FB049F5C801C3960E941C02623572458146F8
S1130FC0914401F5C801895E9D4F0E941C0262375D
S1130FD0724781449146B1F4C801855E9D4F0E94D9
S1130FE01C02D8011F966D937D938D939C93529709
S1130FF0C801815E9D4F0E941C02F80163877487BB
S113100085879687D801BC928091340290913502ED
S11310100196909335028093340216969C938E9396
S11310201597F801138A148A158A168A80E029C054
S11310308BE027C08CE025C080E023C08AE021C07B
S113104083E01FC08AE01DC081E01BC08DE019C091
S11310508DE017C08DE015C08DE013C08DE011C088
S11310608DE00FC08DE00DC08DE00BC08DE009C098
S11310708DE007C08DE005C08DE003C08DE001C0A8
S11310808DE0A0960FB6F894DEBF0FBECDBFDF9102
S1131090CF911F910F91FF90EF90DF90CF90BF9071
S11310A0AF909F908F907F906F905F904F90089536
S11310B02F923F924F925F926F927F928F929F9264
S11310C0AF92BF92CF92DF92EF92FF920F931F9352
S11310D0CF93DF9300D000D0CDB7DEB742305105B7
S11310E06105710508F4F1C0FC01C788D08CE18C5E
S11310F0F28C4C155D056E057F0508F0E8C02801EB
S113110039016A017B019C838B838081823009F4DD
S113111075C0833009F499C0813009F0DAC05A01EE
S1131120B694A794A40EB51E43A154A165A176A1BB
S1131130C501892F99278695480F591F611D711D77
S1131140CF010E94FD04182F8111C4C02B813C8162
S11311502D5C3F4F3A83298315013FEF231A330A4D
S113116081E0B822E981FA81EA0DFB1D46015701AD
S113117091E089229924AA24BB24C0FE08C02081BE
S113118030E1439EC00111242F70822B01C0842DB5
S1131190808381E0EB81FC81838343A154A165A119
S11311A076A1C101892F99278695480F591F611D82
S11311B0711DCF010E94FD04182F81118BC0F1E035
S11311C03F22E981FA81E20DF31D89288A288B28C0
S11311D049F0689413F87694679457944794169456
S11311E0D1F706C09081907F852D8F70492E482AB3
S11311F0408281E0EB81FC8183836CC0EB81FC81C4
S113120043A154A165A176A1BB27AF2D9E2D8D2DA1
S1131210480F591F6A1F7B1FCF010E94FD04182F1E
S1131220811158C02B813C812D5C3F4FCC0CDD1CBF
S1131230C6018E7F9170B201820F931F0E94370204
S113124081E0EB81FC81838345C0EB81FC8143A178
S113125054A165A176A1D701C601689416F8B69584
S1131260A795979587951694D1F7480F591F6A1F2C
S11312707B1FCF010E94FD04182F81112BC0FFE0BA
S11312807F228B819C81C396CC0CDD1CCC0CDD1C95
S11312902CEFC22221E0D222C80ED91EC6010E9420
S11312A01C02DC01CB0188279927AA27B07FB30150
S11312B0A201482B592B6A2B7B2BC6010E943B02AF
S11312C081E0EB81FC81838305C012E003C012E05E
S11312D001C012E0812F0F900F900F900F90DF91BB
S11312E0CF911F910F91FF90EF90DF90CF90BF901F
S11312F0AF909F908F907F906F905F904F903F90B2
S11313002F900895AF92BF92CF92DF92EF92FF9207
S11313100F931F93CF93DF93FC01C081D18142309F
S113132051056105710508F4A6C08F89988DA98DB2
S1131330BA8D481759076A077B0708F0A1C06A01EC
S11313407B018881823009F450C0833009F46DC078
S1131350813009F09AC08A0116950795040F151F6C
S11313604BA15CA16DA17EA1C801892F9927869507
S1131370480F591F611D711DCE010E94FD0481118A
S113138089C05801FFEFAF1ABF0A1170FE01E00FC8
S1131390F11F03A910E04BA15CA16DA17EA1C501C1
S11313A0892F99278695480F591F611D711DCE01FC
S11313B00E94FD04811172C081E0B822CA0DDB1DB8
S11313C06BA970E0762F6627602B712BC0FE09C0D5
S11313D0729562956F7067277F70672780E090E051
S11313E068C07F7080E090E064C04BA15CA16DA1F7
S11313F07EA1BB27AF2D9E2D8D2D480F591F6A1F2F
S11314007B1FCE010E94FD0481114CC0CE01C39606
S1131410A601440F551F4E7F5170840F951F0E94E3
S11314201202BC0180E090E044C04BA15CA16DA11C
S11314307EA1D701C601689416F8B695A79597952D
S113144087951694D1F7480F591F6A1F7B1FCE0149
S11314500E94FD0481112AC0E396A601440F551F82
S1131460440F551FCA018C7F91708C0F9D1F0E94E1
S11314701C029F701EC061E070E080E090E019C023
S113148061E070E080E090E014C061E070E080E032
S113149090E00FC06FEF7FEFCB010BC06FEF7FEFDA
S11314A0CB0107C06FEF7FEFCB0103C06FEF7FEF7E
S11314B0CB01DF91CF911F910F91FF90EF90DF90BF
S11314C0CF90BF90AF9008954F925F926F927F92AA
S11314D08F929F92AF92BF92CF92DF92EF92FF9240
S11314E00F931F93CF93DF93EC016A017B01088173
S11314F019814115510580E26807710508F0ACC0F7
S1131500DB01CA018F719927AA27BB27892B8A2B54
S11315108B2B09F0A3C04E875F87688B798B8E80F5
S11315209F80A884B98481149104A104B10441F476
S1131530F8018081833020F087A090A4A1A4B2A4F4
S113154081149104A104B104F1F4F8018781908518
S1131550A0E0B0E0B701A601689414F87695679509
S1131560579547951694D1F7481759076A077B078B
S113157008F076C087A190A5A1A5B2A58E8B9F8BFC
S1131580A88FB98F40C0F80141845284612C712C1A
S1131590032E39E0440C551C661C771C3A95D1F790
S11315A0302D23C0B501A401CE010E9482094B0154
S11315B05C016F3F7F4F8F4F9F4F09F453C082E010
S11315C088169104A104B10408F44EC0F801878977
S11315D0908DA18DB28D88169906AA06BB0608F0D7
S11315E045C0C418D508E608F708C414D504E604B1
S11315F0F704C0F6B501A401C8010E94AE026E8BC7
S11316007F8B888F998F8A8A9B8AAC8ABD8A8E89C0
S11316109F89A88DB98D0097A105B10549F1B7013E
S1131620A601032E39E076956795579547953A9527
S1131630D1F7302D840F951FA61FB71F8E8B9F8B5C
S1131640A88FB98F0D5C1F4FF1E0DF22C00ED11EB1
S1131650DB8ECA8E80E00DC082E00BC082E009C040
S113166082E007C081E005C082E003C082E001C0DF
S113167082E0DF91CF911F910F91FF90EF90DF9067
S1131680CF90BF90AF909F908F907F906F905F901E
S11316904F9008954F925F926F927F928F929F9294
S11316A0AF92BF92CF92DF92EF92FF920F931F936C
S11316B0CF93DF938C012A013B01FC01C081D181CE
S11316C0411551056105710599F48B849C84AD84A1
S11316D0BE8481149104A104B10431F18F89988DE1
S11316E0A98DBA8D88169906AA06BB0610F525C0E1
S11316F00E948209623071058105910508F4F9C0E0
S11317006F3FFFEF7F078F079F0709F403C1CF885F
S1131710D88CE98CFA8C6C157D058E059F0508F430
S1131720F9C05301420109C0812C912C54018394C6
S113173004C0812C912C540183946F857889898904
S11317409A89611571058105910509F4E3C0841432
S11317509504A604B70409F041C0750164012FEF94
S1131760C21AD20AE20AF20A8F89988DA98DBA8D1B
S1131770C816D906EA06FB0628F0C12CD12C76013E
S11317806894C1F8B701A601C8010E9482096130BA
S113179071058105910509F4BDC06F3FEFEF7E0728
S11317A08E079E0709F4B6C0672B682B692B19F1C5
S11317B08B859C85AD85BE8582309105A105B105DB
S11317C088F04F89588D698D7A8D84179507A607FF
S11317D0B70760F0C12CD12C76010DC0C12CD12CDF
S11317E0760109C0C12CD12C760105C04C015D01E4
S11317F0C12CD12C7601C114D104E104F104C9F542
S113180075016401FFEFCF1ADF0AEF0AFF0A8F891F
S1131810988DA98DBA8DC816D906EA06FB0660F024
S113182022E082169104A104B10408F467C0C12C1B
S1131830D12C76016894C1F8B701A601C8010E94B1
S11318408209611571058105910599F06130710571
S11318508105910509F45EC06F3FEFEF7E078E07A7
S11318609E0709F457C0C814D904EA04FB0451F6CE
S113187049C00FEF1FEF9801B701A601CE010E94E6
S1131880580881110CC0411451046104710439F0E9
S113189097018601B301A201CE010E94580881116B
S11318A022C0CB86DC86ED86FE864F855889698901
S11318B07A898F89988DA98DBA8D0297A109B1096A
S11318C084179507A607B70740F0415051096109ED
S11318D071094F87588B698B7A8B8C8181608C83DB
S11318E0C701B60117C0813089F46FEF7FEFCB01D8
S11318F011C061E070E080E090E00CC060E070E056
S1131900CB0108C060E070E0CB0104C061E070E08E
S113191080E090E0DF91CF911F910F91FF90EF90C5
S1131920DF90CF90BF90AF909F908F907F906F90FB
S11319305F904F9008954F925F926F927F92AF9213
S1131940BF92CF92DF92EF92FF920F931F93CF93A8
S1131950DF935C016A017B01B901A801FC01C0812C
S1131960D181F2E0CF16D104E104F10408F460C09F
S11319708F89988DA98DBA8DC816D906EA06FB06FB
S113198008F058C0012B022B032B41F00FEF1FEF7F
S11319909801CE010E945808811153C0B701A601D5
S11319A0C5010E9482092B013C0161157105810565
S11319B0910509F441C06130710581059105F1F18A
S11319C08FEF4816580668067806D1F100E010E05B
S11319D09801B701A601CE010E945808811131C0B7
S11319E08F859889A989BA894F89588D698D7A8D8F
S11319F06A017B01E2E0CE1AD108E108F1088C15F6
S1131A009D05AE05BF0550F40196A11DB11D8F873C
S1131A10988BA98BBA8B8C8181608C837301620152
S1131A20441655066606770608F4B8CF80E009C068
S1131A3082E007C082E005C080E003C082E001C00C
S1131A4081E0DF91CF911F910F91FF90EF90DF9094
S1131A50CF90BF90AF907F906F905F904F9008951C
S1131A608F929F92AF92BF92CF92DF92EF92FF92AA
S1131A700F931F93CF93DF93EC016A017B010E94C4
S1131A80A304811137C0B701A601CE010E94AE02A2
S1131A904B015C016FA778AB89AB9AAB6E0183E312
S1131AA0C80ED11C40E052E060E070E0C6010E9424
S1131AB05002E12CF12C03C08FEFE81AF80A898553
S1131AC09A85E816F90670F401E010E0A501940186
S1131AD02E0D3F1D411D511DB60189810E94AF1B72
S1131AE0882351F329853A8581E0E216F30619F437
S1131AF080E001C081E0DF91CF911F910F91FF90B1
S1131B00EF90DF90CF90BF90AF909F908F9008950B
S1131B104F925F926F927F928F929F92AF92BF92F9
S1131B20EF92FF920F931F93CF93DF93FC010081F9
S1131B30118186849784A088B18820E2820E911C4A
S1131B40A11CB11C86899789A08DB18D0097A10530
S1131B50B10509F4B7C08114910420E2A206B104CE
S1131B6008F0B2C07B01EF01B501A40151706627F2
S1131B707727452B462B472B09F096C00196A11DCC
S1131B80B11D868B978BA08FB18F4289538964894D
S1131B9075894115510561057105D9F4F8018781ED
S1131BA09085A0E0B0E0B501A401689414F876959E
S1131BB06795579547951694D1F7481759076A07BB
S1131BC07B0708F471C01E8A1F8A188E198E84E060
S1131BD088C0F8018185928501972C01612C712CB4
S1131BE0D501C401072E79E0B695A79597958795F9
S1131BF07A95D1F7702D84219521A621B721892BBF
S1131C008A2B8B2B09F050C0CE010E9482092B0134
S1131C103C01623071058105910508F457C06F3F9E
S1131C207F4F8F4F9F4F09F453C0F8018789908DE0
S1131C30A18DB28D481659066A067B0640F1EF283D
S1131C4031F41E8A1F8A188E198E84E04AC04A898C
S1131C505B896C897D89CE010E944A0B2B013C0172
S1131C606115710581059105A9F161307105810541
S1131C70910591F16F3F2FEF72078207920771F17F
S1131C80AB01BC01C8010E94300D811129C04A8AF0
S1131C905B8A6C8A7D8AB301A201C8010E94AE02EC
S1131CA06E8B7F8B888F998F8E869F86A88AB98A40
S1131CB00D5C1F4F81E09822800E911E9B8E8A8EB0
S1131CC080E00FC084E00DC084E00BC082E009C056
S1131CD081E007C087E005C082E003C081E001C065
S1131CE081E0DF91CF911F910F91FF90EF90BF9012
S1131CF0AF909F908F907F906F905F904F900895DA
S1131D00EF92FF921F93CF93DF93EC01E880F98069
S1131D1040E050E0BA010E94640A81112BC04E8950
S1131D205F89688D798DC7010E94FD04182F811188
S1131D301DC0EA8DFB8D80818823C9F083858F7354
S1131D408C83838583FD0AC04BE050E0BE01645E52
S1131D507F4FCF010E945902892B59F060E070E057
S1131D60CE010E94880D8823D1F204C003C084E010
S1131D7001C0812FDF91CF911F91FF90EF900895C3
S1131D80DF92EF92FF920F931F93CF93DF9300D0D4
S1131D90CDB7DEB78C01FB017A836983DC01ED905A
S1131DA0FC9080818F3281F08C3571F0F70183894A
S1131DB09489A589B689F80186839783A087B1871A
S1131DC011C03196FA83E983E981FA8180818F32E7
S1131DD0C1F38C35B1F3D80116961D921D921D9254
S1131DE01C921997E981FA818081803258F480E845
S1131DF0F80187A340E050E0BA01C8010E94640AD8
S1131E00D82E48C0BE016F5F7F4FC8010E942E03C9
S1131E10D82E81113FC0C8010E94800ED801979628
S1131E209C919797882371F0843039F595FF06C00B
S1131E3092FFE8CF80E897968C932CC092FF1FC046
S1131E40D82E28C092FD20C0F801848184FF1EC0D2
S1131E5086859785A089B1899170B7016D5C7F4FA4
S1131E60680F791FC7010E94DC02D80116966D9392
S1131E707D938D939C931997C5CFD82E0BC00F2EAD
S1131E80F5E0DF2EF02D06C0D82E04C00F2EF5E0AD
S1131E90DF2EF02D8D2D0F900F90DF91CF911F919C
S1131EA00F91FF90EF90DF900895CF92DF92EF9221
S1131EB0FF920F931F93CF93DF93EC016B01E880A4
S1131EC0F98040E050E0BA010E94640A811121C007
S1131ED000E010E04E895F89688D798DC7010E940A
S1131EE0FD04811116C0EA8DFB8D9081953E11F0A1
S1131EF0911106C00F5F1F4F0C151D0519F409C081
S1131F0000E010E061E070E0CE010E94880D8823BB
S1131F1009F3843009F487E0DF91CF911F910F9189
S1131F20FF90EF90DF90CF900895EF92FF921F9370
S1131F30CF93DF93EC01E880F98061E070E00E94C8
S1131F40550F182F81111EC04E895F89688D798DB8
S1131F50C7010E94FD04182F811114C040E250E013
S1131F6060E070E08A8D9B8D0E945002BE01645E29
S1131F707F4F4BE050E08A8D9B8D0E94410281E0AF
S1131F80F7018383812FDF91CF911F91FF90EF9011
S1131F900895CF92DF92FF920F931F93CF93DF9315
S1131FA0EC010E94A304F82E81115BC08881833068
S1131FB009F04DC08C81813009F049C040E052E005
S1131FC060E070E06E0183E3C80ED11CC6010E947C
S1131FD0500265E57AEACE018F5C9D4F0E9437027C
S1131FE042E552E561E671E4C6010E943B0242E724
S1131FF052E761E471E6CE01895E9D4F0E943B0287
S11320004F85588969897A89CE01855E9D4F0E94E2
S11320103B024B855C856D857E85CE01815E9D4F3F
S11320200E943B028F8D98A1A9A1BAA19C01AD0188
S11320302F5F3F4F4F4F5F4F2FA738AB49AB5AAB82
S113204001E010E0B60189810E94AF1B1C8240E0D0
S113205050E060E089810E94BA1B882311F0FF24BC
S1132060F3948F2DDF91CF911F910F91FF90DF900B
S1132070CF9008951F93CF93DF9300D000D000D06A
S1132080CDB7DEB79C838B837E836D83142F7A83D5
S11320906983CE0101960E942F04992324F1FC0147
S11320A0EE0FFF1FEA5CFD4F0190F081E02D3097A9
S11320B009F01082EB81FC81309709F01082880FBF
S11320C0991FFC01EA5CFD4F8B819C819183808385
S11320D0112359F040E0BE016D5F7F4FCE0105969C
S11320E00E94810503C08BE001C080E026960FB6F4
S11320F0F894DEBF0FBECDBFDF91CF911F9108953D
S11321002F923F924F925F926F927F928F929F9203
S1132110AF92BF92CF92DF92EF92FF920F931F93F1
S1132120CF93DF93CDB7DEB7AC970FB6F894DEBF8D
S11321300FBECDBF7CA76BA7009709F484C1142FF1
S11321406C01842F8F73E82E482FBE01675D7F4F8B
S1132150CE018B960E948105F82E81116DC189A54F
S11321609AA59A8389836BA57CA5CE0101960E94CA
S1132170C00EF82E811107C088A5882324F40F2EE1
S1132180F6E0FF2EF02D812F8C7109F472C0FF2030
S113219061F0E4E0FE1205C0CE0101960E94950FA5
S11321A0F82EFE2DF860EF2E0EC08D81817119F48A
S11321B012FD06C008C00F2EF7E0FF2EF02D03C05D
S11321C06894FF24F3F8F11066C0E3FE64C06B8DDD
S11321D07C8D89A59AA50E94DC024B015C010E94BA
S11321E0BF1BAB01BC018B8D9C8D0E960E943B02E4
S11321F0EB8DFC8D80E283876B8D7C8D20E030E05D
S1132200A90189A59AA50E9409038B8D9C8D40E0A4
S113221050E0BA014C960E943B02E9A5FAA581E080
S1132220838381149104A104B104A9F147A450A8A3
S113223061A872A800E010E09801B501A401CE01E4
S113224001960E949B0CF82E811125C0B301A201B6
S113225089A59AA50E94FD04F82EE9A5FAA581E0B6
S1132260881A9108A108B10883869486A586B68643
S113227012C0F11010C08D8184FD05C011FF0BC088
S113228080FD05C008C06894FF24F2F804C00F2E36
S1132290F7E0FF2EF02DF11014C0E3FE03C0EE2D85
S11322A0E064EE2EE9A5FAA587A590A9A1A9B2A993
S11322B0F601848F958FA68FB78F8B8D9C8D91A3FC
S11322C080A3F110B9C08B8C9C8CA9A4BAA4B401CE
S11322D0C5010E94DC02F6016683778380879187BB
S11322E0C4014C960E941C02F6016287738784879E
S11322F09587B182A082F50185819681F601938349
S11323008283E6861786108E118E128E138E108AA3
S1132310118A128A138A1601F2E22F0E311C40E050
S113232052E060E070E0C1010E945002E5FE84C00A
S1132330F601428453846484758441145104610415
S1132340710409F479C0408A518A628A738AE9A5C2
S1132350FAA581859285A0E0B0E04C015D01072ECD
S113236079E0880C991CAA1CBB1C7A95D1F7702DB6
S1132370F601468157816085718519C0C6010E94A6
S11323808209AB01BC01423051056105710518F4A5
S11323906894FF24F1F84F3FFFEF5F076F077F0753
S11323A011F4FF24F394481859086A087B08F110C3
S11323B005C084149504A604B70400F3F601448B05
S11323C0558B668B778BF11037C0D301C2019170A6
S11323D0AA27BB27892B8A2B8B2B71F189A49AA45A
S11323E0C4010E94AE026115710581059105F1F0E9
S11323F0032E39E076946794579447943A95D1F72D
S1132400302D9B01AC01240D351D461D571DF601D1
S1132410208F318F428F538F01E010E0B101F4011E
S113242081810E94A41B811105C006C06894FF2409
S1132430F1F802C0FF24F394FF2039F0F601118271
S113244010828F2D03C089E001C08F2DAC960FB68A
S1132450F894DEBF0FBECDBFDF91CF911F910F91D6
S1132460FF90EF90DF90CF90BF90AF909F908F90B0
S11324707F906F905F904F903F902F9008952F9290
S11324803F924F925F926F927F928F929F92AF9200
S1132490BF92CF92DF92EF92FF920F931F93CF934D
S11324A0DF93CDB7DEB728970FB6F894DEBF0FBE23
S11324B0CDBF7C014B016A015901D9011D921C92C7
S11324C08F83F886BE016F5F7F4F0E946E04811177
S11324D087C1F7018785811183C1868581FF7FC10B
S11324E080899189A289B389AC01BD014C0D5D1D20
S11324F0611D711D481759076A077B0708F062C1FF
S11325006C01C094D0945EC1F70180899189A2893D
S1132510B389AC01BD01517066277727452B462B43
S1132520472B09F008C1E981FA8161847284F1E0E2
S11325306F1A7108AC01BD01032E39E076956795D9
S1132540579547953A95D1F7302D64227522611439
S1132550710409F051C0892B8A2B8B2BA1F4D7016C
S113256016966D917D918D919C91199761157105C8
S11325708105910589F440E050E0BA018F81988586
S11325800E944A0B09C0F7014489558966897789F5
S11325908F8198850E944A0B61157105810591050B
S11325A009F414C1613071058105910529F482E0B3
S11325B0D7011F968C9314C16F3FBFEF7B078B0726
S11325C09B0721F481E0F70187870AC1D70154965C
S11325D06D937D938D939C93579716960D911D91B2
S11325E02D913C911997012B022B032B29F4F70110
S11325F06683778380879187D7011E968C911E9777
S11326008823ECF4E981FA8158962D913D914D91FE
S11326105C915B9701E010E0B7016E5D7F4F8181B3
S11326200E94AF1B882321F081E0F7018787D8C07F
S1132630D7011E968C911E978F771E968C93F70167
S1132640448955896689778989819A819E838D8396
S11326500E94AE02611571058105910529F482E09D
S1132660D7011F968C93BCC01B012C01260C371C70
S1132670411C511CF601EF2FFF27E695FC83EB83E9
S1132680309741F1AD81BE8119962D913C911A97F5
S1132690CF01860D971D2817390728F4F901E6198B
S11326A0F709FC83EB830B811C81A2019101B40126
S11326B0AD81BE8111968C910E94AF1B882321F0BD
S11326C081E0F70187878CC06B807C80762C662440
S11326D0770C50C0F701808D918DA28DB38D281693
S11326E039064A065B0601F140895189628973897A
S11326F082859385A485B585481759076A077B07A2
S113270098F401E010E0A2019101B7016E5D7F4FE2
S1132710AD81BE8111968C910E94A41B882321F067
S113272081E0F70187875CC0D70158962D923D92CE
S11327304D925C925B97F70180899189A289B38954
S1132740917020E032E03901681A790AC614D7047E
S113275008F43601A301B40197012E5D3F4F820FA7
S1132760931F0E944102D7011E968C911E97806888
S11327701E968C93C618D708F50180819181860D29
S1132780971D91838083860C971CF701808991891A
S1132790A289B389860D971DA11DB11D808B918BD4
S11327A0A28BB38B42855385648575858417950701
S11327B0A607B70710F4DB01CA01F70182879387E4
S11327C0A487B587C114D10409F09ECED7011E9603
S11327D08C911E9780641E968C9380E001C087E0E4
S11327E028960FB6F894DEBF0FBECDBFDF91CF9110
S11327F01F910F91FF90EF90DF90CF90BF90AF901B
S11328009F908F907F906F905F904F903F902F900C
S11328100895EF92FF920F931F93CF93DF9300D00D
S1132820CDB7DEB7FC0122813381332364F18C01FF
S11328307901FFEFEF1AFF0AFC01E20FF31F668331
S11328408DE3E816F104BCF09E012F5F3F4FA70112
S1132850B8016A5F7F4FF801808191810E943F1225
S113286089819A81E816F90619F4E12CF12C03C048
S1132870EE24EA94FE2CF801F382E28284819581AD
S11328800196958384830F900F90DF91CF911F91D0
S11328900F91FF90EF9008950F931F93CF93DF93C1
S11328A000D0CDB7DEB7FC01428153815523C4F07B
S11328B08C01BC016A5F7F4F9E012F5F3F4F808177
S11328C091810E943F1281110EC0F801228133814F
S11328D089819A812817390749F48481958108C030
S11328E08FEF9FEF05C08FEF9FEF02C08FEF9FEF39
S11328F00F900F90DF91CF911F910F9108958F92B8
S11329009F92AF92BF92EF92FF920F931F93CF9338
S1132910DF9300D0CDB7DEB77C01BE016F5F7F4F80
S11329200E946E04811165C0D7011E969C911E976A
S113293096FF5FC09923B4F4E981FA8158962D91EA
S11329403D914D915C915B9701E010E0B7016E5DA4
S11329507F4F81810E94AF1B81114AC0F701868598
S11329608F7786870E94BF1B4B015C01D7015C9661
S11329704D915D916D917C915F9789819A810E94BF
S1132980FD04811136C0F70100A111A1D8011B96E5
S11329908C911B9780621B968C932681378140858E
S11329A05185B801808191810E940903F701428514
S11329B0538564857585C8014C960E943B02B50118
S11329C0A401C80146960E943B0260E070E0C80181
S11329D042960E94370289819A8121E0DC01139694
S11329E02C930E94C90FF70196859F7B968701C09F
S11329F081E00F900F90DF91CF911F910F91FF9085
S1132A00EF90BF90AF909F908F9008950F931F9376
S1132A10CF93DF9300D0CDB7DEB78C010E947F1433
S1132A2081110BC0BE016F5F7F4FC8010E946E040D
S1132A30811103C0F801118210820F900F90DF9171
S1132A40CF911F910F9108950F931F93CF93DF930D
S1132A50CDB7DEB7C654D1090FB6F894DEBF0FBEAA
S1132A60CDBF8C01CE0101960E94660406C00F5FA3
S1132A701F4FCE0101960E940914F8016081611173
S1132A80F6CFCE0101960E944C14CA5BDF4F0FB6FD
S1132A90F894DEBF0FBECDBFDF91CF911F910F9190
S1132AA0089582E080933A0280913A028111FCCF2A
S1132AB084B18C6284B985B1806385B91DBC0895E5
S1132AC01CBC8091060181608093060108958EBD2F
S1132AD00DB407FEFDCF8EB50895FC0101C0F901C8
S1132AE08FEF8EBD0DB407FEFDCF8EB580838FEFC3
S1132AF08EBD0DB407FEFDCF9F012E5F3F4F8EB5F7
S1132B0081836250710959F70895FC0101C0F901EC
S1132B1080818EBD0DB407FEFDCF9F012E5F3F4F18
S1132B2081818EBD0DB407FEFDCF6250710979F726
S1132B3008959C01ADECBCEC0E94B132969587954A
S1132B409695879596958795809339028FEF0E9485
S1132B5067158F3F21F0909139029111F7CF91E0E1
S1132B608F3F09F090E0892F90E008958BB1886041
S1132B708BB98FEF0E9467150895CF93DF938BB1C4
S1132B80877F8BB98FEF0E94671584EF91E00E94D5
S1132B909915EC01892B19F40E94B61502C0C1E005
S1132BA0D0E0CE01DF91CF9108950F931F93CF937F
S1132BB0DF93EC018B0184E180933A028FEF0E9452
S1132BC067158F3F21F490913A029111F7CF8E3F10
S1132BD069F4B801CE010E946D158FEF0E9467154C
S1132BE08FEF0E94671581E090E002C080E090E0E2
S1132BF0DF91CF911F910F9108950F931F93CF935E
S1132C008C01C62F84EF91E00E9499150097E9F09A
S1132C108C2F0E946715CD3FB1F060E072E0C801CF
S1132C200E9485158FEF0E9467158FEF0E9467152C
S1132C308FEF0E9467158F7191E0853009F090E065
S1132C40892F90E002C081E090E0CF911F910F9115
S1132C500895FF920F931F93CF93DF93C82FD42F20
S1132C60152F062FF72E88234CF4CF7740E050E041
S1132C70BA0187E30E942916823088F5CC3031F0FE
S1132C800E94B6150E94BD15892B41F18C2F8064DA
S1132C900E9467158F2D0E946715802F0E9467156B
S1132CA0812F0E9467158D2F0E946715CC2311F088
S1132CB081E001C085E9C83009F487E80E946715FE
S1132CC0CC3019F48FEF0E946715CAE08FEF0E9491
S1132CD06715882324F4C150C9F701C08FEFDF9131
S1132CE0CF911F910F91FF900895EF92FF920F9350
S1132CF01F93CF93DF9300D000D0CDB7DEB70E94EF
S1132D0060158AE080933A0280913A028111FCCFE7
S1132D108091060181FF03C080910601B2C00E9428
S1132D20511582E58CBD1AE004C08FEF0E9467152F
S1132D3011501111FACF40E050E0BA0180E00E9436
S1132D402916813009F07EC084E680933A024AEA6B
S1132D5051E060E070E088E00E942916813009F0BB
S1132D604AC00EC0E02EF12C8FEF0E946715E1E0FF
S1132D70F0E0EC0FFD1FEE0DFF1D80830F5F01C01F
S1132D80012F043078F38B81813009F05DC08C8190
S1132D908A3A09F05BC080913A02882349F040E006
S1132DA050E060E070E489EA0E9429168111F3CFB3
S1132DB080913A02882309F44BC040E050E0BA0104
S1132DC08AE30E942916882379F010E048C0E12E96
S1132DD0F12C8FEF0E946715E1E0F0E0EC0FFD1F8E
S1132DE0EE0DFF1D80831F5F143088F3898186FFF9
S1132DF031C01CE034C040E050E0BA0189EA0E94CE
S1132E002916823018F412E009EA02C011E001E048
S1132E1080913A02882341F040E050E0BA01802FCB
S1132E200E9429168111F4CF80913A028823A1F0DF
S1132E3040E052E060E070E080E10E9429168111D8
S1132E400DC00DC010E00BC010E009C010E007C0B9
S1132E5010E005C014E003C010E001C010E01093BE
S1132E6038020E94B615112341F0809106018E7F2D
S1132E708093060180E58CBD02C00E94601580919C
S1132E8006010F900F900F900F90DF91CF911F913B
S1132E900F91FF90EF900895809106010895FF929D
S1132EA00F931F93CF93DF938C01E9012097E1F1F6
S1132EB08091060180FD3AC08091380283FD09C0EB
S1132EC0032E39E0440F551F661F771F3A95D1F73B
S1132ED0302DC230D10528F00F2EF2E1FF2EF02D57
S1132EE004C00F2EF1E1FF2EF02D8F2D0E94291624
S1132EF0811113C060E072E0C8010E94D515892BCE
S1132F0019F01E5F2197B1F782E1F81206C040E084
S1132F1050E0BA018CE00E9429160E94B61581E0A7
S1132F20CD2B29F480E003C084E001C083E0DF916D
S1132F30CF911F910F91FF900895CF92DF92EF925E
S1132F40FF920F931F93CF93DF938C016A017B0150
S1132F50E901209709F452C08091060180FD50C018
S1132F608091060182FD4EC08091380283FD09C024
S1132F700B2EB9E0CC0CDD1CEE1CFF1CBA95D1F76E
S1132F80B02DC130D10571F4B701A60188E10E94CA
S1132F90291681112CC06EEFC8010E94FD15892BE2
S1132FA009F525C0867031F0AE0160E070E087E974
S1132FB00E942916B701A60189E10E9429168111F0
S1132FC016C06CEFC8010E94FD15892B19F01E5F15
S1132FD02197B9F76DEF80E090E00E94FD15892BF1
S1132FE021F005C0C0E0D0E002C0C1E0D0E00E9402
S1132FF0B61581E0CD2B39F480E005C084E003C030
S113300083E001C082E0DF91CF911F910F91FF9087
S1133010EF90DF90CF9008958F929F92AF92BF92DE
S1133020CF92DF92EF92FF920F931F93CF93DF9390
S1133030CDB7DEB760970FB6F894DEBF0FBECDBF35
S1133040E82F8B018091060180FD36C38E2F90E01E
S11330508A33910508F035C3FC01EC5CFF4F0C94F6
S1133060AB320E94BD15892B11F411E001C010E0B0
S11330700E94B615F12E3AC340E050E0BA0189E04F
S11330800E94291681116EC060E170E0CE010196A4
S11330900E94D515892B09F467C08981829586958C
S11330A086958370813031F58A85298530E0322F09
S11330B02227280F311D88858F7390E0A0E0B0E0AF
S11330C0DC0199278827820F931FA11DB11D01964A
S11330D0A11DB11D072E7AE0880F991FAA1FBB1FDF
S11330E07A95D1F7702DF80180839183A283B383FD
S11330F010E03BC02E819B85991F9927991F8A85D3
S11331002F70290F8370880F280F2E5F39858885CB
S113311090E0880F991F880F991F32953695369540
S11331203370AC01430F511D9F819370892F90E040
S1133130982F8827990F990F840F951F0196A0E067
S1133140B0E030E02950310904C0880F991FAA1F4C
S1133150BB1F2A95D2F7F80180839183A283B3839E
S113316010E003C011E001C011E00E94B615F12E79
S1133170BDC28091380282FF35C040E050E0BA0100
S11331808DE80E94291681118BC08FEF0E9467156C
S113319060E170E0CE0101960E94D515892B39F4C7
S11331A011E083C08FEF0E946715FA9404C00F2EBC
S11331B0F0E3FF2EF02DF110F5CF2B8522952F7023
S11331C080E190E0A0E0B0E004C0880F991FAA1F3E
S11331D0BB1F2A95D2F7F80180839183A283B3831E
S11331E010E063C040E050E0BA0189E00E94291673
S11331F0811158C060E170E0CE0101960E94D5159E
S1133200892B09F451C08091380281FF1FC08B853E
S11332108F7390E0880F991F2C8527FD01960196E6
S11332202E85229526952695237030E0215031096C
S113323002C0880F991F2A95E2F7A0E0B0E0F801D8
S113324080839183A283B38310E02FC08B858C7716
S113325090E0959587959595879501964C85242FB3
S1133260237030E0220F331F220F331F220F331F2E
S1133270429546954770240F311D2F5F3F4F289F7D
S1133280A001299F500D389F500D1124CA01A0E0C0
S1133290B0E0F80180839183A283B38310E005C07A
S11332A011E003C011E001C011E00E94B615F12E37
S11332B01DC280913802867009F407C2BE016F5F97
S11332C07F4F83E30E940C18F82E811101C289817B
S11332D0829586958695837019F48B8586FFFBC14C
S11332E0D8014D915D916D917C91139714968D90B9
S11332F09D90AD90BC9017978091380283FD12C0C9
S1133300032E39E0440F551F661F771F3A95D1F7F6
S1133310302D072E79E0880C991CAA1CBB1C7A95C9
S1133320D1F7702D80E20E9429168111D7C1B50111
S1133330A40181E20E9429168111D3C140E050E02A
S1133340BA0186E20E9429168111CEC180E395E775
S11333500E949915892B09F0C9C1FF24F394C6C1B1
S113336080913802FB018083F12CC0C140E050E021
S1133370BA0189E00E942916811109C060E170E058
S1133380C8010E94D515892B21F411E003C011E076
S113339001C010E00E94B615F12EA8C140E050E033
S11333A0BA018AE00E942916811109C060E170E027
S11333B0C8010E94D515892B21F411E003C011E046
S11333C001C010E00E94B615F12E90C140E050E01B
S11333D0BA018AE30E942916882371F011E012C011
S11333E06801FFEFCF1ADF0A8FEF0E946715D8013B
S11333F08C93FA94860103C06894FF24F2F8F110C8
S1133400EFCF10E00E94B615F12E70C140E050E0FD
S1133410BA018DE80E94291681110CC08FEF0E9419
S1133420671560E470E0C8010E94D515892B21F46A
S113343011E003C011E001C010E00E94B615F12EA6
S113344055C10E9460158091060181608093060138
S1133450F12C4CC1FB01408150E060E070E0032E90
S11334603CE1440F551F661F771F3A95D1F7302D65
S113347083819481A581B681072E79E0880F991FF5
S1133480AA1FBB1F7A95D1F7702D482B592B6A2B95
S11334907B2B8181928101979170A0E0B0E0482B51
S11334A0592B6A2B7B2B706880E30E9429168111AB
S11334B03CC084E680933A028FEF0E9467158F3FE9
S11334C021F490913A029111F7CF8E3F81F5D80102
S11334D01796CD90DC9018971196ED90FC9012976A
S11334E00DC05601BFEFAB1ABB0A8FEF0E946715E0
S11334F0F6018083F1E0EF1AF1086501E114F104AB
S113350081F7D80111968D919C91129702E012E0F7
S1133510081B190B05C08FEF0E9467150150110994
S113352001151105C1F710E003C011E001C011E05D
S11335300E94B615F12EDAC0FB01408150E060E034
S113354070E0032E3CE1440F551F661F771F3A9528
S1133550D1F7302D83819481A581B681072E79E03E
S1133560880F991FAA1FBB1F7A95D1F7702D482B7E
S1133570592B6A2B7B2B8181928101979170A0E05A
S1133580B0E0482B592B6A2B7B2B706881E30E9497
S11335902916811138C08FEF0E9467158EEF0E94A3
S11335A06715D8011796ED91FC9118971196ED9037
S11335B0FC9012970BC06F01BFEFCB1ADB0A80811E
S11335C00E946715E1E0EE1AF108F601E114F10436
S11335D091F7D80111968D919C91129702E012E017
S11335E0081B190B05C08FEF0E94671501501109C4
S11335F001151105C1F78FEF0E9467158F71853092
S113360021F011E003C011E001C010E00E94B615E2
S1133610F12E6CC0FB01408150E060E070E0032EAD
S11336203CE1440F551F661F771F3A95D1F7302DA3
S113363083819481A581B681072E79E0880F991F33
S1133640AA1FBB1F7A95D1F7702D482B592B6A2BD3
S11336507B2B828190E0A0E0B0E0482B592B6A2BB1
S11336607B2B746881E30E94291681111EC08FEFA1
S11336700E9467158EEF0E946715D80111968C91F0
S11336800E94671501E012E005C08FEF0E946715E4
S11336900150110901151105C1F78FEF0E9467153B
S11336A08F71853021F011E003C011E001C010E0FA
S11336B00E94B615F12E1AC00F2EF3E0FF2EF02D46
S11336C015C06894FF24F2F811C0FF24F3940EC0CF
S11336D0FF24F3940BC0FF24F39408C0FF24F39455
S11336E005C0FF24F39402C0FF24F3948F2D609649
S11336F00FB6F894DEBF0FBECDBFDF91CF911F91FF
S11337000F91FF90EF90DF90CF90BF90AF909F907C
S11337108F90089580913A02882319F08150809304
S11337203A0280913902882319F08150809339023A
S113373080910601897F8093060108950E94751681
S113374008950E944C1708950F931F93CB01BA015B
S1133750A90198010E944F171F910F9108950F938B
S11337601F93CB01BA01A90198010E949D171F91D3
S11337700F910895862FBA010E940C180895EFE75F
S1133780F3E0408151814C5B574060E070E0032ED0
S113379039E1440F551F661F771F3A95D1F7302D35
S11337A0828190E0A0E0B0E0072E75E1880F991FB8
S11337B0AA1FBB1F7A95D1F7702D482B592B6A2B62
S11337C07B2B838190E0A0E0B0E0DC01992788277F
S11337D0482B592B6A2B7B2B858190E0A0E0B0E02D
S11337E0072E7BE0880F991FAA1FBB1F7A95D1F77C
S11337F0702D482B592B6A2B7B2B868190E0A0E0FF
S1133800B0E0880F991FAA1FBB1F880F991FAA1F1A
S1133810BB1F880F991FAA1FBB1F880F991FAA1FC0
S1133820BB1F880F991FAA1FBB1F842B952BA62B88
S1133830B72B27812695BC01CD01622B08958AB14F
S113384088608AB98AB180628AB98AB182608AB989
S11338508AB180688AB987B1826087B98AB1816088
S11338608AB988B18D7F88B985B18E7F85B987B1D2
S11338708E7F87B987B18B7F87B98AB18E7F8AB9EA
S11338808AB18B7F8AB98BB184608BB9089580E14A
S113389097E290938900809388001092850010929B
S11338A08400109280008AE080938100EFE6F0E0CB
S11338B0808182608083E6EBF0E080818062808397
S11338C01092B2001092B00085E88093B100E0E756
S11338D0F0E080818160808308958F929F92AF92FF
S11338E0BF92CF92DF92EF92FF9220E030E040E06F
S11338F050E0BA01C12CD12C7601233231059CF55C
S11339008EEE80937C008FE097E20197F1F700C080
S1133910000087EC80937A0080917A0086FDFCCFCA
S11339208091780090917900C80ED91EE11CF11C99
S113393080EE80937C008FE097E20197F1F700C05E
S1133940000087EC80937A0080917A0086FDFCCF9A
S11339508091780090917900480F591F611D711D65
S11339602F5F3F4FCACFCB01BA010E94E22F4B0118
S11339705C01C701B6010E94E22F9B01AC01C501A5
S1133980B4010E946E2F2DEC3CEC4CE85FE30E94E6
S11339909730FF90EF90DF90CF90BF90AF909F90C3
S11339A08F9008958F929F92AF92BF92CF92DF92A1
S11339B0EF92FF9220E030E040E050E0BA01C12CE9
S11339C0D12C7601233231059CF58EE480937C0062
S11339D08FE097E20197F1F700C0000087EC809335
S11339E07A0080917A0086FDFCCF809178009091D6
S11339F07900C80ED91EE11CF11C82E480937C007E
S1133A008FE097E20197F1F700C0000087EC809304
S1133A107A0080917A0086FDFCCF809178009091A5
S1133A207900480F591F611D711D2F5F3F4FCACF89
S1133A30CB01BA010E94E22F4B015C01C701B60120
S1133A400E94E22F9B01AC01C501B4010E946E2FBC
S1133A502DEC3CEC4CE85FE30E949730FF90EF9034
S1133A60DF90CF90BF90AF909F908F900895EF928A
S1133A70FF920F931F93CF93DF93CDB7DEB7619778
S1133A800FB6F894DEBF0FBECDBF43E050E06AE44A
S1133A9071E08FEA92E00E945134892B29F48EE47C
S1133AA091E00E94F12EC7C143E050E069E571E066
S1133AB08FEA92E00E945134892B09F060C01B8682
S1133AC04AE050E062EB72E0CE0101960E945F345E
S1133AD0CE0101960E942A3460937B0370937C0389
S1133AE080937D0390937E0381E09091BC02943790
S1133AF009F080E08093070181E09091BD02943742
S1133B0009F080E08093AE0281E09091BE02943788
S1133B1009F080E08093AD0280911301909114012B
S1133B209093AC028093AB028091110190911201A9
S1133B309093AA028093A90280910F0190911001A1
S1133B409093A8028093A70280910D0190910E0199
S1133B509093A6028093A5020E94362B8DE591E0F6
S1133B600E94F12E2FEF80E792E021508040904098
S1133B70E1F700C0000081E080937A035CC143E078
S1133B8050E062E671E08FEA92E00E945134892BA2
S1133B9009F0C0C010927A0381E09091B202943788
S1133BA009F080E08093180181E09091B802943785
S1133BB009F080E08093170181E09091BE02943770
S1133BC009F080E08093160181E09091C40294375B
S1133BD009F080E080931501198A45E050E063EB19
S1133BE072E0CE010C960E945F34CE010C960E94C6
S1133BF00C34909314018093130145E050E069EB79
S1133C0072E0CE010C960E945F34CE010C960E94A5
S1133C100C34909312018093110145E050E06FEB56
S1133C2072E0CE010C960E945F34CE010C960E9485
S1133C300C349093100180930F0145E050E065EC43
S1133C4072E0CE010C960E945F34CE010C960E9465
S1133C500C3490930E0180930D011B864AE050E0D2
S1133C606AEC72E0CE0101960E945F34CE010196A7
S1133C700E942A346093090170930A0180930B0116
S1133C8090930C018091090190910A01A0910B017C
S1133C90B0910C01E0910D01F0910E01E09015013D
S1133CA060910F0170911001F09016014091110183
S1133CB050911201009117012091130130911401C8
S1133CC010911801BF93AF939F938F93FF93EF933A
S1133CD01F92EF927F936F931F92FF925F934F9384
S1133CE01F920F933F932F931F921F9386E691E0A9
S1133CF09F938F938BE392E09F938F930E94BB34A7
S1133D008BE392E00E94F12E0FB6F894DEBF0FBE53
S1133D10CDBF91C043E050E067E871E08FEA92E0E4
S1133D200E945134892B09F048C080910901909177
S1133D300A01A0910B01B0910C01E0910D01F091E9
S1133D400E01E090150160910F0170911001F09047
S1133D501601409111015091120100911701209117
S1133D6013013091140110911801BF93AF939F93E5
S1133D708F93FF93EF931F92EF927F936F931F9212
S1133D80FF925F934F931F920F933F932F931F9232
S1133D901F938BE891E09F938F938BE392E09F9323
S1133DA08F930E94BB348BE392E00E94F12E0FB6F6
S1133DB0F894DEBF0FBECDBF3EC043E050E06CEAD6
S1133DC071E08FEA92E00E945134892B39F4109209
S1133DD07A0380EB91E00E94F12E2DC043E050E085
S1133DE065EB71E08FEA92E00E945134892B79F4FB
S1133DF08FEA92E00E94FD2665EB71E08BE392E08E
S1133E000E9487298BE392E00E94F12E14C043E0C4
S1133E1050E069EB71E08FEA92E00E945134892B03
S1133E2051F469EB71E08BE392E00E9487298BE304
S1133E3092E00E94F12E1092AF0261960FB6F894B0
S1133E40DEBF0FBECDBFDF91CF911F910F91FF90C9
S1133E50EF9008950F931F93CF9380E090E0FC01BF
S1133E60E155FD4F2081222329F08436910520F06D
S1133E70C0E003C0C0E001C0C1E0CC2311F0019652
S1133E80EECF8336910511F480E090E000E010E07D
S1133E90F801ED5EFC4F2081222329F00436110540
S1133EA020F02C2F03C02C2F01C021E02223C9F0C5
S1133EB003361105B1F0F801ED5EFC4F2081FC01E1
S1133EC0E155FD4F208301960F5F1F4F2D3001F701
S1133ED0FC01E155FD4F10820E94371D80E090E007
S1133EE0D7CFCF911F910F910895AF92BF92CF92E8
S1133EF0DF92EF92FF920F931F93CF93DF93CDB78F
S1133F00DEB769970FB6F894DEBF0FBECDBFEE865D
S1133F10FF86088B198B2A8B3B8B4C8B5D8B6E8BAE
S1133F207F8B888F998F9091A302992309F451C0B4
S1133F302DE0CE0101965C01FC01322F11923A95DD
S1133F40E9F7E9884E2D0E2C000C550BFB888F2DBC
S1133F500F2C000C990B01960C891D890459184FDC
S1133F605F93EF929F938F931F930F938DEB91E049
S1133F709F938F931F922F93BF92AF920E948B3483
S1133F80EFE7F3E011830083F394F282E3828889FC
S1133F9085838F8586838E85878342E3B5018091EF
S1133FA09F029091A0020E9480100FB6F894DEBF89
S1133FB00FBECDBF81110DC060919F027091A00210
S1133FC0C6010E94241580919F029091A0020E9434
S1133FD0061569960FB6F894DEBF0FBECDBFDF910C
S1133FE0CF911F910F91FF90EF90DF90CF90BF90F2
S1133FF0AF9008950E94A6250E94D12A0E941F1CFA
S1134000F89487E880937A0084B7826084BF8DB384
S113401081608DBB0E943A2C88E80E94412C0E944A
S11340200E2E0E94471C8BB18F778BB983E392E0ED
S11340300E94EB329093A2028093A10282E292E06A
S11340400E94EB329093A00280939F022FEF84E3AF
S11340509CE0215080409040E1F700C0000078943B
S1134060809187038823C9F081E080937A03809349
S113407007011092AD021092AE0280917B039091E1
S11340807C03A0917D03B0917E03809309019093FA
S11340900A01A0930B01B0930C0180917A03811162
S11340A006C08091A302882321F080E003C080E051
S11340B001C081E0882371F041E068E571E08091FE
S11340C0A1029091A2020E943A10811103C081E0E2
S11340D08093A30280917A03882331F09091AE02F9
S11340E0992319F080E001C080E0882329F083B788
S11340F0817F866083BF03C083B7817F83BF83B71B
S1134100816083BF889583B78E7F83BFC6CF1F929C
S11341100F920FB60F9211242F933F934F935F93F7
S11341206F937F938F939F93AF93BF93EF93FF937B
S11341308091C6008E3731F481E0809378038093B8
S1134140790349C090917903992309F444C0E0911B
S11341507803E130D9F1E23021F48D5F8093770365
S113416035C0E33071F4803961F0803921F48EE098
S1134170809308012BC08D3A49F584E080930801AF
S113418025C0209108012E1708F590917703E917AF
S113419090F030E02F5F3F4FF0E0E21BF30BED5E59
S11341A0FC4F1082109279031092770310927803D7
S11341B00E942A1F0BC0E91748F430E02F5F3F4FDD
S11341C0F0E0E21BF30BED5EFC4F808380917803FB
S11341D08F5F80937803FF91EF91BF91AF919F918F
S11341E08F917F916F915F914F913F912F910F909C
S11341F00FBE0F901F9018951F920F920FB60F923B
S113420011242F933F934F935F936F937F938F93D7
S11342109F93AF93BF93EF93FF930E948A1BFF91E9
S1134220EF91BF91AF919F918F917F916F915F912A
S11342304F913F912F910F900FBE0F901F901895A3
S11342401F920F920FB60F9211248F929F92AF92EA
S1134250BF92CF92DF92EF92FF920F931F932F930F
S11342603F934F935F936F937F938F939F93AF93FA
S1134270BF93EF93FF93CF93DF93CDB7DEB7C354D0
S1134280D109DEBFCDBF80917B0390917C03A091C7
S11342907D03B0917E030196A11DB11D80937B0324
S11342A090937C03A0937D03B0937E0380917A0363
S11342B0882309F492C340917B0350917C0360915D
S11342C07D0370917E038091090190910A01A09170
S11342D00B01B0910C01481759076A077B0708F4D2
S11342E0CAC380910F01909110012091A7023091CF
S11342F0A802821B930B449730F488B1826088B97A
S113430085B1816085B92EE63FE23AAF29AF81E6F7
S113431090E09CAF8BAF43E0FE01FD96DF01542F8C
S11343201D925A95E9F73BAB2AAB9DAB8CAB379703
S1134330DF01542F1D925A95E9F73CA72BA79EA79E
S11343408DA73797DF01542F1D925A95E9F73DA3A6
S11343502CA39FA38EA33797DF01542F1D925A9548
S1134360E9F73E8F2D8F98A38F8F3797DF01542F56
S11343701D925A95E9F73F8B2E8B998F888F37972B
S1134380DF011D924A95E9F73E872D87988B8F8729
S1134390399785E0DF011D928A95E9F78091A7029C
S11343A09091A80201969093A8028093A70280910D
S11343B01601882369F040910F015091100120915A
S11343C0A7023091A8022417350718F480E001C031
S11343D080E0882309F46BC00E94D21C6B017C012D
S11343E08E010A5E1F4F24E046E00E94CB322091EA
S11343F0190130911A0140911B0150911C01C70110
S1134400B6010E946E2F20E030E040E85FE30E9496
S1134410FC2EE62EF72E082F192F20E030E0A901FC
S11344200E94692F882324F4E12CF12C00E010E091
S11344302EEE3CE74FE952E46E2D7F2D802F912F15
S11344400E94973029EC36E740E451E40E94FC2EA8
S11344509B01AC016E2D7F2D802F912F0E949730F0
S11344602CE032E047E150E40E94FD2E9B01AC01B8
S11344706E2D7F2D802F912F0E9497308E01035E29
S11344801F4F24E046E00E94CB321092A802109203
S1134490A70280910F0190911001449750F088B1C8
S11344A08D7F88B985B18E7F85B921E003C020E076
S11344B001C021E08091AB029091AC0201969093EF
S11344C0AC028093AB0280911801882369F060915B
S11344D01301709114014091AB025091AC02461744
S11344E0570718F480E001C080E0882309F4ABC0CA
S11344F024961CAE1DAE1EAE1FAE249719821A82DE
S11345001B821C82BE016F5F7F4FCE01805C9F4F78
S11345100E946B2C882309F491C060912D01709145
S11345202E0180912F019091300124962CAD3DAD48
S11345304EAD5FAD24970E9497302091980330913F
S1134540990340919A0350919B030E94FD2E6B01A5
S11345507C0120E030E048E452E40E9492301816D6
S113456044F40F2EC12CD12CF8E4EF2EF2E4FF2EEC
S1134570F02D20E030E040E251ECC701B6010E948A
S1134580692F882344F40F2EC12CD12CF0E2EF2E96
S1134590F1ECFF2EF02D2496CCAEDDAEEEAEFFAEE8
S11345A024976091290170912A0180912B019091A7
S11345B02C0129813A814B815C810E9497302091A2
S11345C094033091950340919603509197030E9470
S11345D0FD2E4B015C0120E030E048EC52E40E94E7
S11345E09230181644F40F2E812C912CF8ECAF2E37
S11345F0F2E4BF2EF02D20E030E0A901C501B401A2
S11346000E94692F88231CF4812C912C54018982E7
S11346109A82AB82BC828E01075C1F4F22E046E087
S1134620C701B6010E94CB3269817A818B819C815A
S11346300750110922E046E00E94CB321092AC02EE
S11346401092AB0221E08091A9029091AA020196F6
S11346509093AA028093A90280911701882369F09C
S113466060911101709112014091A9025091AA0226
S11346704617570718F480E001C080E0882309F446
S11346805FC00E946D1C6B017C018E010C5D1F4F8D
S113469024E046E00E94CB3220E030E040E05FE3DB
S11346A0C701B6010E94FC2E2AE037ED43E25CE329
S11346B00E946E2F209125013091260140912701FF
S11346C0509128010E9497302091900330919103DA
S11346D040919203509193030E94FD2E6B017C0143
S11346E020E030E048E452E40E949230181644F48A
S11346F00F2EC12CD12CF8E4EF2EF2E4FF2EF02D76
S113470020E030E040E251ECC701B6010E94692F7D
S1134710882344F40F2EC12CD12CF0E2EF2EF1ECBF
S1134720FF2EF02D8E01055D1F4F22E046E0C701EC
S1134730B6010E94CB321092AA021092A90221E083
S11347408091A5029091A60201969093A60280936F
S1134750A50280911501882369F060910D01709183
S11347600E014091A5025091A6024617570718F46E
S113477080E001C080E0882309F445C088E80E94F5
S1134780A82D2091210130912201409123015091C3
S113479024010E94973020918C0330918D03409125
S11347A08E0350918F030E94FD2E6B017C012FEF2D
S11347B03FE443EC57E40E949230181654F40F2E51
S11347C0CC24CA94FFE4DF2EF3ECEF2EF7E4FF2EA3
S11347D0F02D20E030E0A901C701B6010E94692F45
S11347E088231CF4C12CD12C76018E01035F1F4F4A
S11347F022E048E0C701B6010E94CB321092A60223
S11348001092A50221E0222309F4C8C08091070177
S1134810811102C08091AE02882349F08BB18F7759
S11348208BB98FEC97E00197F1F700C000008091FD
S11348307B0390917C03A0917D03B0917E0380580B
S11348409344AD46B84324968CAF9DAFAEAFBFAF93
S11348502497BE016F5F7F4FCE01805C9F4F0E9403
S11348604B01C980EC2C0C2C000CFF08DA800D2DB8
S11348700D2C000C110B7B81A72F072E000CBB0BFA
S11348809C80E92D092C000CFF0B8E81082E000C56
S1134890990B01962F8138852459384F4091AD02E8
S11348A0442319F048E551E002C04EEC51E05E01AA
S11348B066E1A60EB11CBF92AF925E0164E2A60E41
S11348C0B11CBF92AF925E016DE0A60EB11CBF9207
S11348D0AF925E016DE1A60EB11CBF92AF925E0174
S11348E06BE2A60EB11CBF92AF925E0162E3A60E0C
S11348F0B11CBF92AF925E0169E3A60EB11CBF92D8
S1134900AF92FF92CF921F93DF92BF937F93FF9357
S11349109F929F938F933F932F935F934F9383ED36
S113492091E09F938F931F9284E68F938BE392E0A1
S11349309F938F930E948B348DE080939D021092FD
S11349409E02809107010FB6F894DEBF0FBECDBF63
S1134950882321F08BE392E00E94312E8091AE02F5
S1134960882321F08BE392E00E949D2E8091AD027A
S11349708823A1F00F2EFBE3CF2EF2E0DF2EF02DE3
S1134980E980FA800B811C812D813E814F815885FD
S113499069857A858B859C850E94751F8FE19EE4CD
S11349A00197F1F700C000008091AE02811103C0AD
S11349B08BB180688BB98091AD02882309F45BC008
S11349C08BB180628BB9AFE4B3EC1197F1F700C0FF
S11349D000008BB18F7D8BB94EC08BB18F778BB9B3
S11349E08FEC97E00197F1F700C000008091A402DA
S11349F0811107C089E092E00E94F12E86E0809345
S1134A00A4028091A40281508093A4028091A30205
S1134A10882319F042E050E002C041E050E014164F
S1134A2015064CF58BB180628BB9AFE4B3EC1197EA
S1134A30F1F700C000008BB18F7D8BB921E030E02D
S1134A4024173507C4F4BFEF60E782E0B15060403B
S1134A508040E1F700C000008BB180628BB9AFE405
S1134A60B3EC1197F1F700C000008BB18F7D8BB9C7
S1134A702F5F3F4FE5CFCD5BDF4F0FB6F894DEBF1E
S1134A800FBECDBFDF91CF91FF91EF91BF91AF9159
S1134A909F918F917F916F915F914F913F912F9152
S1134AA01F910F91FF90EF90DF90CF90BF90AF9048
S1134AB09F908F900F900FBE0F901F9018951F928C
S1134AC00F920FB60F9211242F933F934F938F930E
S1134AD09F9310927A031092A30288B18D7F88B9B4
S1134AE085B18E7F85B98BB180628BB98FE493ECED
S1134AF00197F1F700C000008BB18F7D8BB921E0E5
S1134B0030E023303105C4F49FEF40E782E0915058
S1134B1040408040E1F700C000008BB180628BB957
S1134B208FE493EC0197F1F700C000008BB18F7D07
S1134B308BB92F5F3F4FE5CF9F918F914F913F915D
S1134B402F910F900FBE0F901F901895F999FECFDB
S1134B5089E390E00E94A039843509F4B3C0F9993F
S1134B60FECF40E050E060E87FE385E390E00E9400
S1134B70C639F999FECF40E050E0BA0181E390E0F4
S1134B800E94C639F999FECF40E050E060E87FE327
S1134B908DE290E00E94C639F999FECF40E050E0E2
S1134BA0BA0189E290E00E94C639F999FECF40E04B
S1134BB050E060E87FE385E290E00E94C639F9990D
S1134BC0FECF40E050E0BA0181E290E00E94C63995
S1134BD0F999FECF40E050E060E87FE38DE190E09A
S1134BE00E94C639F999FECF40E050E0BA0189E14C
S1134BF090E00E94C639F999FECF40E050E060E8A9
S1134C007FE385E190E00E94C639F999FECF40E048
S1134C1050E0BA0181E190E00E94C639F999FECFD3
S1134C204AE959E969EB7FE38DE090E00E94C639D7
S1134C30F999FECF64E58CE090E00E94B439F999CB
S1134C40FECF64E58BE090E00E94B439F999FECF81
S1134C5064E58AE090E00E94B439F999FECF64E5F6
S1134C6089E090E00E94B439F999FECF6CE370E0DA
S1134C7087E090E00E94D239F999FECF6CE370E0AE
S1134C8085E090E00E94D239F999FECF6CE370E0A0
S1134C9083E090E00E94D239F999FECF6CE370E092
S1134CA081E090E00E94D239F999FECF66E480E079
S1134CB090E00E94D839F999FECF64E589E390E049
S1134CC00E94D839F999FECF85E390E00E94A83973
S1134CD060932D0170932E0180932F0190933001E6
S1134CE0F999FECF81E390E00E94A839609398037C
S1134CF07093990380939A0390939B03F999FECF41
S1134D008DE290E00E94A8396093290170932A01F2
S1134D1080932B0190932C01F999FECF89E290E0C6
S1134D200E94A8396093940370939503809396032B
S1134D3090939703F999FECF85E290E00E94A839F9
S1134D406093250170932601809327019093280195
S1134D50F999FECF81E290E00E94A8396093900314
S1134D60709391038093920390939303F999FECFE8
S1134D708DE190E00E94A839609321017093220193
S1134D808093230190932401F999FECF89E190E067
S1134D900E94A83960938C0370938D0380938E03D3
S1134DA090938F03F999FECF85E190E00E94A83992
S1134DB060931D0170931E0180931F019093200145
S1134DC0F999FECF81E190E00E94A83960938803AD
S1134DD07093890380938A0390938B03F999FECF90
S1134DE08DE090E00E94A8396093190170931A0134
S1134DF080931B0190931C010895CF92DF92EF9250
S1134E00FF920F931F93CF93DF9300D000D01F9294
S1134E10CDB7DEB78C011D82BC016D5F7F4F44E0CE
S1134E2050E0CE0101960E945F34CE0101960E94AB
S1134E302A340E94E22F2FE632E143E85AE30E942B
S1134E4097306B017C012DEC3CEC4CE45FE30E9459
S1134E5092308823D4F02AE939E949E95FE3C701AC
S1134E60B6010E94692F181684F0C0922D01D092C9
S1134E702E01E0922F01F0923001F999FECFB70193
S1134E80A60185E390E00E94C63944E050E0B801F1
S1134E90695F7F4FCE0101960E945F34CE01019677
S1134EA00E942A340E94E22F2AE037ED43E25CE3B9
S1134EB00E9497306B017C0120E030E040E450EC2C
S1134EC00E9492308823D4F020E030E040E450E4A3
S1134ED0C701B6010E94692F181684F0C092980386
S1134EE0D0929903E0929A03F0929B03F999FECF32
S1134EF0B701A60181E390E00E94C63944E050E086
S1134F00B801655F7F4FCE0101960E945F34CE01E8
S1134F1001960E942A340E94E22F2FE632E143E8F0
S1134F205AE30E9497306B017C012DEC3CEC4CE47D
S1134F305FE30E9492308823D4F02AE939E949E9F1
S1134F405FE3C701B6010E94692F181684F0C0926E
S1134F502901D0922A01E0922B01F0922C01F999B7
S1134F60FECFB701A6018DE290E00E94C63944E06D
S1134F7050E0B801615F7F4FCE0101960E945F341B
S1134F80CE0101960E942A340E94E22F2AE037EDD6
S1134F9043E25CE30E9497306B017C012AE037ED29
S1134FA04FE151EC0E9492308823D4F02AE037ED8F
S1134FB04FE151E4C701B6010E94692F181684F02D
S1134FC0C0929403D0929503E0929603F0929703D3
S1134FD0F999FECFB701A60189E290E00E94C63993
S1134FE044E050E0B8016D5E7F4FCE0101960E940F
S1134FF05F34CE0101960E942A340E94E22F2FE6EC
S113500032E143E85AE30E9497306B017C012DECB6
S11350103CEC4CE45FE30E9492308823D4F02AE90C
S113502039E949E95FE3C701B6010E94692F1816FF
S113503084F0C0922501D0922601E0922701F092DB
S11350402801F999FECFB701A60185E290E00E94FC
S1135050C63944E050E0B801695E7F4FCE01019645
S11350600E945F34CE0101960E942A340E94E22FEE
S11350702AE037ED43E25CE30E9497306B017C0148
S113508020E030E040E450EC0E9492308823D4F0D9
S113509020E030E040E450E4C701B6010E94692FEB
S11350A0181684F0C0929003D0929103E092920378
S11350B0F0929303F999FECFB701A60181E290E043
S11350C00E94C63944E050E0B801655E7F4FCE01CE
S11350D001960E945F34CE0101960E942A340E94F8
S11350E0E22F2FE632E143E85AE30E9497306B0146
S11350F07C012DEC3CEC4CE45FE30E94923088236D
S1135100D4F02AE939E949E95FE3C701B6010E940D
S1135110692F181684F0C0922101D0922201E092E6
S11351202301F0922401F999FECFB701A6018DE184
S113513090E00E94C63944E050E0B801615E7F4FC0
S1135140CE0101960E945F34CE0101960E942A345A
S11351500E94E22F6B017C0120E030EC49E754EC23
S11351600E9492308823D4F020E030EC49E754E4E4
S1135170C701B6010E94692F181684F0C0928C03EF
S1135180D0928D03E0928E03F0928F03F999FECFB3
S1135190B701A60189E190E00E94C63944E050E0DD
S11351A0B8016D5D7F4FCE0101960E945F34CE0140
S11351B001960E942A340E94E22F2FE632E143E84E
S11351C05AE30E9497306B017C012DEC3CEC4CE4DB
S11351D05FE30E9492308823D4F02AE939E949E94F
S11351E05FE3C701B6010E94692F181684F0C092CC
S11351F01D01D0921E01E0921F01F0922001F99945
S1135200FECFB701A60185E190E00E94C63944E0D3
S113521050E0B801695D7F4FCE0101960E945F3472
S1135220CE0101960E942A340E94E22F2FE632E139
S113523043E85AE30E9497306B017C0120E030E0A0
S113524040E05FEB0E9492308823D4F020E030E00D
S113525040E05FE3C701B6010E94692F181684F08D
S1135260C0928803D0928903E0928A03F0928B0360
S1135270F999FECFB701A60181E190E00E94C639F9
S1135280B801655D7F4F44E050E0CE0101960E9475
S11352905F34CE0101960E942A340E94E22F2FE649
S11352A032E143E85AE30E9497306B017C0123E327
S11352B033E343EB5FE30E9492308823D4F020E091
S11352C030E040EC5FE3C701B6010E94692F181675
S11352D084F0C0921901D0921A01E0921B01F0925D
S11352E01C01F999FECFB701A6018DE090E00E9460
S11352F0C6390F900F900F900F900F90DF91CF91C0
S11353001F910F91FF90EF90DF90CF9008952F920F
S11353103F924F925F926F927F928F929F92AF9241
S1135320BF92CF92DF92EF92FF920F931F93CF938E
S1135330DF93CDB7DEB7CC54D1090FB6F894DEBFF6
S11353400FBECDBF2A968FAF2A972B969FAF2B9770
S11353502C966FAF2C972D967FAF2D9760912D01D2
S113536070912E0180912F01909130018E010F5F79
S11353701F4F23E045E00E94CB3260919803709167
S1135380990380919A0390919B031E0127E0220EBA
S1135390311C810122E045E00E94CB326091290159
S11353A070912A0180912B0190912C012E013DE0F6
S11353B0430E511C820123E045E00E94CB326091F0
S11353C094037091950380919603909197039E01A5
S11353D02D5E3F4F25963FAF2EAF2597890122E0E2
S11353E045E00E94CB3260912501709126018091A5
S11353F02701909128019E01275E3F4F27963FAFDA
S11354002EAF2797890123E045E00E94CB326091BB
S113541090037091910380919203909193039E0164
S1135420215E3F4F29963FAF2EAF2997890122E095
S113543045E00E94CB32609121017091220180915C
S11354402301909124017E0135E2E30EF11C8701D2
S113545023E045E00E94CB3260918C0370918D0370
S113546080918E0390918F036E012BE2C20ED11CAA
S1135470860120E044E00E94CB3260911D017091CE
S11354801E0180911F01909120015E0130E3A30E63
S1135490B11C850123E045E00E94CB326091880372
S11354A07091890380918A0390918B034E0126E3C6
S11354B0820E911C840123E046E00E94CB3260916D
S11354C0190170911A0180911B0190911C013E01F8
S11354D03DE3630E711C830123E045E00E94CB325F
S11354E07F926F929F928F92BF92AF92DF92CF92F0
S11354F0FF92EF9229968FAD29978F9328969FADAF
S113550028979F9327962FAD27972F9326963FADE5
S113551026973F9325968FAD25978F9324969FAD1D
S113552024979F935F924F923F922F9221E030E015
S11355302C0F3D1F3F932F932D963FAD2D973F93F7
S11355402C968FAD2C978F938EE092E09F938F9340
S11355502B969FAD2B979F932A962FAD2A972F9327
S11355600E94BB340FB6F894DEBF0FBECDBFC45B40
S1135570DF4F0FB6F894DEBF0FBECDBFDF91CF91E2
S11355801F910F91FF90EF90DF90CF90BF90AF905D
S11355909F908F907F906F905F904F903F902F904F
S11355A00895F999FECF80E090E00E94A03991E03F
S11355B0843509F090E090938703F999FECF8CE04D
S11355C090E00E94A03991E0843509F090E0909336
S11355D01801F999FECF87E090E00E94AE399093CC
S11355E0140180931301F999FECF8BE090E00E949F
S11355F0A03991E0843509F090E090931701F9996E
S1135600FECF85E090E00E94AE3990931201809322
S11356101101F999FECF8AE090E00E94A03991E04F
S1135620843509F090E090931601F999FECF83E058
S113563090E00E94AE399093100180930F01F99984
S1135640FECF89E090E00E94A03991E0843509F012
S113565090E090931501F999FECF81E090E00E94CB
S1135660AE3990930E0180930D010895F999FECF00
S113567080918703882311F064E501C066E480E02B
S113568090E00E94B439F999FECF809118018823E3
S113569011F064E501C066E48CE090E00E94B43946
S11356A0F999FECF609113017091140187E090E0A5
S11356B00E94D239F999FECF80911701882311F005
S11356C064E501C066E48BE090E00E94B439F99986
S11356D0FECF609111017091120185E090E00E946B
S11356E0D239F999FECF80911601882311F064E52F
S11356F001C066E48AE090E00E94B439F999FECFD3
S113570060910F017091100183E090E00E94D23902
S1135710F999FECF80911501882311F064E501C049
S113572066E489E090E00E94B439F999FECF609173
S11357300D0170910E0181E090E00E94D23908952C
S113574085E88A95F1F70000089587B18F7D87B9C0
S11357500E94A02B089587B1806287B90E94A02B74
S1135760089587B18F7D87B987B1806187B90E9419
S1135770A02B0E94AB2B0895CF93DF93D82FC0E0CA
S1135780C830A0F40E94AB2BDD2324F487B18F7EB4
S113579087B903C087B1806187B90E94A02B0E949A
S11357A0A52B359BFECFDD0FCF5FEACF0E94AB2B3D
S11357B087B18F7E87B90E94A02B87B18F7D87B96F
S11357C0359BFECF0E94A02BC6B1C295CF7081E05D
S11357D0C827C1700E94AB2B8C2FDF91CF91089505
S11357E080E58A95F1F7089587B1806187B90E94B1
S11357F0A02B87B18F7D87B90E94F02B87B18F7E54
S113580087B90E94A02B08951F93CF93DF93182F7D
S1135810C0E0D0E0C83098F40E94AB2B0E94A52BC6
S1135820359BFECF349B09C080E890E00C2E02C06B
S1135830959587950A94E2F7D82BCF5FEBCF0E941A
S1135840AB2B112321F087B1806187B903C087B1E5
S11358508F7E87B90E94A02B0E94A52B0E94AB2BA0
S113586087B18F7E87B90E94F02B8D2FDF91CF9166
S11358701F91089587B18F7C87B988B1807388B9E7
S11358800895CF93C82F0E94B12B8C2F0E94BC2B5C
S113589081E00E94BC2B8EEC0E94BC2B80E00E9415
S11358A0BC2B0E94F42B8FEC97E00197F1F700C01A
S11358B000000E94B12B8C2F0E94BC2B80E00E9420
S11358C0BC2B0E94F42B8FEC97E00197F1F700C0FA
S11358D00000CF9108958F929F92AF92BF92CF9282
S11358E0DF92EF92FF920F931F93CF93DF938C017C
S11358F06B010E94B12B80E70E94BC2B8EEB0E94AF
S1135900BC2B88E00E94BC2B80E00E94BC2B0E9430
S1135910F42B8FE19EE40197F1F700C000000E9490
S1135920B12B80E70E94BC2B85EF0E94BC2BEFE3D8
S1135930FCE93197F1F700C000000E94F42B0E94AB
S1135940B12B80E70E94BC2B83EF0E94BC2B8FE31A
S11359509CE90197F1F700C000000E94F42B0E941B
S1135960B12B80E70E94BC2B8CEA0E94BC2B83E302
S11359700E94BC2B80E00E94BC2B0E94F42B9FEF62
S1135980E0E7F2E09150E040F040E1F700C00000B1
S11359900E94B12B81E70E94BC2B81E00E94042C61
S11359A0882394F480E090E0A6ECB2ECF6018083C6
S11359B09183A283B383F80180839183A283B38309
S11359C00E94F42B80E0B7C081E00E94042CB82E22
S11359D081E00E94042CE82E81E00E94042CC82F50
S11359E081E00E94042CF82E81E00E94042CD82F20
S11359F080E00E94042C0E94F42B6B2D70E080E068
S1135A0090E00E94E22F20E030E0A9010E94FD2EE8
S1135A1020E030E040E853E40E9497304B015C0101
S1135A206E2D70E080E090E00E94E22FA5019401C9
S1135A300E94FD2E20E030E040E851E40E949730BF
S1135A404B015C016C2F70E07595679575956795B2
S1135A507595679575956795072E000C880B990BBE
S1135A600E94E22FA50194010E94FD2E20E030E067
S1135A7048EC52E40E94973020E030E040E85AE3DA
S1135A800E94973020E030E040E85AE30E949730CB
S1135A90F60160837183828393836C2F6F7070E04F
S1135AA080E090E00E94E22F20E030E0A9010E9413
S1135AB0FD2E20E030E040E853E40E9497304B0193
S1135AC05C016F2D70E080E090E00E94E22FA50160
S1135AD094010E94FD2E20E030E040E853E40E944F
S1135AE097306B017C016D2F70E080E090E00E94A4
S1135AF0E22FA70196010E94FD2E20E030E048E449
S1135B0053E40E94973020E030E040E85AE30E94DA
S1135B10973020E030E040E85AE30E94973020E0DC
S1135B2030E048E452E40E94FC2EF8016083718363
S1135B308283938381E0DF91CF911F910F91FF9036
S1135B40EF90DF90CF90BF90AF909F908F9008958B
S1135B50CF92DF92EF92FF920F931F93CF93DF9335
S1135B60C82F0E94B12B81E08C0F0E94BC2B25E82A
S1135B702A95F1F7000081E00E94042CC82F80E0F0
S1135B800E94042CD82F0E94F42B8C2F82958F70A6
S1135B90CF706C2F70E0762F66279B012D0F311D7F
S1135BA0E901682F70E080E090E00E94E22F9B0101
S1135BB0AC0160E070E080E090E40E9404312AE0EF
S1135BC037ED43E25CE30E9497306B017C01BE0138
S1135BD0DD0F880B990B0E94E22FA70196010E940A
S1135BE09730062F172FD82FC92F2DEC3CEC43EA02
S1135BF057E40E949230181624F400E010E0D0E03C
S1135C00C0E0602F712F8D2F9C2FDF91CF911F91BA
S1135C100F91FF90EF90DF90CF9008951092C50000
S1135C2083E38093C40088E98093C10086E0809375
S1135C30C20008959091C00095FFFCCF8093C600E8
S1135C400895AC0180E090E0FA01E80FF91F20818B
S1135C50222311F00196F8CF0895860F911D9927FC
S1135C600895AF92BF92CF92DF92EF92FF920F937B
S1135C701F93CF93DF935C010E94212E6C018EE76A
S1135C800E941A2EC6010E96892F0E941A2E8EE0AB
S1135C908C0D0E941A2E80E10E941A2E60E180E091
S1135CA090E00E942D2E8C0180E00E941A2EC0E00C
S1135CB0D0E0C830D1052CF480E00E941A2E219641
S1135CC0F8CF8FEF0E941A2E6FEFC8010E942D2E7D
S1135CD0EC018EEF0E941A2E6EEFCE010E942D2E43
S1135CE0F82EE92E80E00E941A2E80E00E941A2EDF
