S00F00006D6C6F676765722E7372656328
S11300000C942C010C94AF250C9449010C944901D7
S11300100C9449010C9449010C9449010C94490134
S11300200C9449010C945F210C9449010C943B21DC
S11300300C9449010C9449010C9449010C94490114
S11300400C9449010C9449010C94C6200C94490168
S11300500C9449010C9449010C9449010C944901F4
S11300600C9449010C94490129183418591BB118EE
S11300705119591B591B191A591B591B591B591B27
S1130080591B591B591B591B591B591B591B591BCC
S1130090591B591B591B591B591B591B591B591BBC
S11300A0591B591B591B591B591B591B591B591BAC
S11300B0591B591B591B591B591B591B591B591B9C
S11300C0591B591B591B591B591B591BA819AE19EC
S11300D0C619DE19FE19221A941A021B0763423646
S11300E0B79BD8A71A39685618AEBAAB558C1D3CC5
S11300F0B7CC5763BD6DEDFD753EF6177231BF0089
S11301000000803F08000000BE922449123EABAAC2
S1130110AA2ABECDCCCC4C3E00000080BEABAAAA1D
S1130120AA3E00000000BF000000803F0000000065
S113013000084178D3BB4387D1133D190E3CC3BD9E
S11301404282AD2B3E68EC8276BED98FE1A93E4C4B
S113015080EFFFBE01C4FF7F3F00000000000040AD
S11301607A10F35A00A0724E18090010A5D4E800C2
S113017000E87648170000E40B54020000CA9A3BDA
S1130180000000E1F5050000809698000000404260
S11301900F000000A08601000000102700000000EE
S11301A0E803000000006400000000000A000000F2
S11301B000000100000000002C76D888DC674F089E
S11301C023DFC1DFAE59E1B1B796E5E3E453C63AA4
S11301D0E651997696E8E6C28426EB898C9B62ED1B
S11301E0407C6FFCEFBC9C9F40F2BAA56FA5F490D5
S11301F0055A2AF75C936B6CF9676DC11BFCE0E44C
S11302000D47FEF520E6B500D0ED902E03009435A1
S113021077050080841E080000204E0A000000C8F4
S11302200C333333330F986E12831141EF8D211445
S1130230893BE65516CFFEE6DB18D1844B381BF715
S11302407C1D901DA4BBE424203284725E228100B4
S1130250C9F124ECA1E53D2711241FBECFEFD8E05E
S1130260DEBFCDBF12E0A0E0B1E0E8E9F5E702C0EF
S113027005900D92A433B107D9F723E0A4E3B2E0CB
S113028001C01D92AE39B207E1F70E9441200C94DF
S1130290CA3A0C940000A8E0B0E0E1E5F1E00C9467
S11302A09D3A8B01FC01608171818281938120E8F8
S11302B031E541E050E00E94DF3269017A012CE32C
S11302C030E040E050E00E94743A29833A834B8343
S11302D05C8389819A81AB81BC81F80160836CE382
S11302E070E00E94603ADC01CB01F801A1838283B3
S11302F0C601069667E070E00E944C3A84832DEABA
S11303003EE840E050E0C701B6010E94743A2983F8
S11303103A836D837E838F83988789819A8124E6CB
S1130320289F6001299FD00C11246D817E818F81CB
S1130330988525EB35E040E050E00E94743A29832B
S11303403A836D837E83E980FA80EE0CFF1CEE0C09
S1130350FF1CEC0CFD1C8D819E81F5E6EF16F1046B
S113036010F0019604C024E6E216F10419F021E02D
S113037030E002C020E030E0A90144595E4F481744
S1130380590768F46DE671E0821B930B0E94603A92
S1130390DC01CB01E80EF91ECD0120E030E044E69B
S11303A0E40EF11CF801F782E68291878087255CD0
S11303B03F4F8217930748F46FE170E00E94603A60
S11303C0DC01CB01F801858322C069E970E0821B5E
S11303D0930B0E94603ADC01CB01F82EFF0CFF0C5A
S11303E0F80E6DE370E0CD010E94603ADC01CB01B0
S11303F0E82EEE0C6FE170E0CD010E94603ADC0162
S1130400CB0122E0280FF20EFE0CF801F582A38343
S1130410F8011386128683818F5F83832896E8E030
S11304200C94B93AFC01218130E0322F22278081DB
S1130430A901482BCA010895FC016381862F90E02D
S1130440A0E0B0E0BA2FA92F982F88272281822B11
S1130450BA2FA92F982F88272181822BBA2FA92F51
S1130460982F88272081BC01CD01622B0895FC01BF
S1130470608371830895FC01408351836283738395
S11304800895DC01FB014115510549F080818C93ED
S1130490415051091196319641155105B9F7089506
S11304A0FC01608341505109319641155105C9F74A
S11304B00895CF93DF93DC01FB01ED0121968C912C
S11304C090E0BF016F5F7F4F2081821B91094150F3
S11304D0510921F0DE01FB01009779F3DF91CF91FF
S11304E00895FC0101C031968081882329F0282FCA
S11304F030E026173707B9F790E00895813848F0BF
S1130500803A50F0803E58F08D3F60F080E090E0FB
S1130510089580E090E0089581E090E0089580E0FF
S113052090E0089581E090E00895803458F08F378A
S113053060F0803810F08D3F58F0882361F080E03F
S113054090E0089580E090E0089581E090E00895BF
S113055081E090E0089581E090E00895CF92DF92E9
S1130560EF92FF92FC019A01AB012250310941093B
S11305705109C788D08CE18CF28C82E0C81AD1086A
S1130580E108F1082C153D054E055F0568F4C3A488
S1130590D4A4E5A4F6A4A185B2850E9416336C0DFB
S11305A07D1D8E1D9F1D03C060E070E0CB01FF9098
S11305B0EF90DF90CF900895CF92DF92EF92FF9269
S11305C00F931F93CF93DF938C01EB01CB014A96DA
S11305D00E9412026C01E12CF12CF801808183301D
S11305E069F4CE0144960E941202A0E0B0E0DC015E
S11305F099278827C82AD92AEA2AFB2AC701B601DB
S1130600DF91CF911F910F91FF90EF90DF90CF90EA
S11306100895CF92DF92EF92FF920F931F93CF939F
S1130620DF938C01EB0169017A01B901CE014A968D
S11306300E943702F8018081833039F4B70188279A
S11306409927CE0144960E943702DF91CF911F91E2
S11306500F91FF90EF90DF90CF9008953F924F92CB
S11306605F926F927F928F929F92AF92BF92CF923E
S1130670DF92EF92FF920F931F93CF93DF933C018E
S11306802B01FB01C081D1815C01FCE1AF0EB11CE7
S11306904BE050E060E270E0C5010E9450028881A6
S11306A08E3269F540E050E080E090E09C012F5FDD
S11306B03F4FFE01E80FF91F80818E3259F4233039
S11306C0310540F4F501E40FF51F8083C9014F5F44
S11306D05F4FECCF8F3229F08C3519F0813208F05E
S11306E09FC0C20FD31FF201D183C083813210F4A3
S11306F084E201C080E2F30187A380E09EC0C12CA4
S1130700D12CE12CF12C6894882483F8912C870156
S11307100F5F1F4FFE01EE0DFF1D3080F0E2F31559
S113072008F067C08FE2381631F09CE539120CC02E
S113073002C00F5F1F4FFE01E00FF11F80818F3257
S1130740C1F38C35B1F355C0EEE23E1619F0C8146E
S1130750D90498F0FBE08F16910409F463C08EE28B
S1130760381262C078016894CC24C3F8D12C0F2EBF
S1130770FBE08F2E912CF02DCACF832D0E947E0298
S1130780892B01F192E0E90EF11CFE01E00FF11F4B
S11307901081812F0E949502892B09F447C0C4015E
S11307A00197C816D90608F043C0F501EC0DFD1DEC
S11307B03082F6013196EA0DFB1D82E0C80ED11C91
S11307C01083A5CF632D70E081E391E00E94710254
S11307D0892B81F58FE9830D8A3110F490EE390E5F
S11307E0F501EC0DFD1D3082F60131966F017801A3
S11307F08ECFC00FD11FF201D183C083CD28E1F089
S1130800F301848D853E11F485E0848FF0E2F315C5
S113081010F084E001C080E0F30187A380E00DC004
S113082086E00BC086E009C086E007C086E005C00C
S113083086E003C086E001C086E0DF91CF911F917E
S11308400F91FF90EF90DF90CF90BF90AF909F906B
S11308508F907F906F905F904F903F900895CF93CB
S1130860DF93EC01A881B981109729F48FEF9FEFF2
S11308702AC0319601C0FD019081913210F09A3363
S1130880C1F79A33A9F4CD0101962C9130E020539D
S113089031092A30310578F4E817F90779F421157C
S11308A0310579F4822F932F3196F983E8830BC0B5
S11308B080E090E008C08FEF9FEF05C08FEF9FEFBF
S11308C002C08FEF9FEFDF91CF910895FC017183F8
S11308D06083138212821582148208950F931F93EA
S11308E0CF93DF93EC018B01892BA9F0E881F98187
S11308F0309799F08081882391F02A813B8185810A
S113090096812817390769F481810E94991B80FF19
S11309100AC089E009C089E007C089E005C089E010
S113092003C089E001C080E0811103C028813981BE
S113093002C020E030E0F80131832083DF91CF91C1
S11309401F910F9108958F929F92AF92BF92EF9251
S1130950FF920F931F93CF93DF93FC0123812223F4
S1130960D1F1EC017C01F3E3EF0EF11C2FA538A9C2
S113097049A95AA901E010E0B70189810E94A71B87
S113098081112BC01B820FA518A929A93AA98BA1F3
S11309909CA1ADA1BEA148015901881A990AAA0ACD
S11309A0BB0A8B8D9C8DAD8DBE8D88169906AA06CB
S11309B0BB06A8F46A816230A1F4A9019801280F4A
S11309C0391F4A1F5B1F01E010E0B70189810E94B3
S11309D0A71B80E007C080E005C081E003C080E081
S11309E001C080E0DF91CF911F910F91FF90EF90B4
S11309F0BF90AF909F908F9008958F929F92AF92E7
S1130A00BF92FF920F931F93CF93DF93EC014A01A0
S1130A105B018FA598A9A9A9BAA984179507A60768
S1130A20B707E9F0CE010E94A304F82E811118C083
S1130A3001E010E0A5019401BE016D5C7F4F898146
S1130A400E949C1B882331F0FF24F39488248A9409
S1130A50982C54018FA698AAA9AABAAA01C0F12C6D
S1130A608F2DDF91CF911F910F91FF90BF90AF9089
S1130A709F908F900895CF93DF93EC011B828FEFAB
S1130A809FEFDC018FA798ABA9ABBAABCE010E9454
S1130A90FD04811128C0CE018F5C9D4F0E9412027B
S1130AA085359A4A11F58BA9893E29F08B3EF9F4D4
S1130AB08DA98039F1F443E050E060E471E0CE01A7
S1130AC087599F4F0E945902892BA9F045E050E0B5
S1130AD064E471E0CE018B579F4F0E945902892B29
S1130AE061F480E00BC084E009C083E007C082E0C9
S1130AF005C082E003C080E001C082E0DF91CF91B5
S1130B0008954F925F926F927F928F929F92AF92CD
S1130B10BF92CF92DF92EF92FF920F931F93CF93E6
S1130B20DF93CDB7DEB7A0970FB6F894DEBF0FBE44
S1130B30CDBF6B01B42EDB011D921C920E942F04C9
S1130B407C0199230CF474C2FC01EE0FFF1FEA5CD4
S1130B50FD4F008111810115110509F46BC2F601E5
S1130B6011830083FB2DFE7FBF2ED8018C91882337
S1130B7069F011968C910E94991B80FD07C0BB20DF
S1130B8009F45AC282FD5AC280E07BC2F801108285
S1130B90E1828E2D0E94961B80FD52C2BB2011F073
S1130BA082FD50C240E050E0BA01C8010E943B05FA
S1130BB0823079F1C12CD12C760157C0F701E2952E
S1130BC0F295F07FFE27E07FFE27E254FE4FC80136
S1130BD0C396E80FF91F8481882329F0CF01089672
S1130BE00E941C0203C060E070E0CB01F701EE0F2D
S1130BF0FF1FEE0FFF1F21E030E02C0F3D1FE20F1F
S1130C00F31F60837183828393833FEFE31AF30AB4
S1130C1002C0E12CF12C44E0E416F10478F2A12C9A
S1130C20B12CF501EE0FFF1FEE0FFF1F61E070E026
S1130C306C0F7D1FE60FF71FC080D180E280F38028
S1130C40C114D104E104F10431F0B701A601C801D3
S1130C500E943B0501C083E0823038F07FEFA71A81
S1130C60B70A94E0A916B104E0F2843009F4ECC1A7
S1130C70823008F0EBC1C801CE960E9412028115A1
S1130C80924009F0E5C1C801875B9F4F0E941202A0
S1130C909C0140E050E0298B3A8B4B8B5C8B232BDF
S1130CA0242B252B49F4C801895A9F4F0E941C020A
S1130CB0698B7A8B8B8B9C8B49895A896B897C894C
S1130CC0D8015B964D935D936D937C935E97F80189
S1130CD0ED5BFF4FA081F801A2838FEF8A0F823072
S1130CE008F0B8C1B0E09A01AB010E941633698FD5
S1130CF07A8F8B8F9C8FE05CFF4FA080B12CD80142
S1130D001A96BC92AE921997A114B10409F4A4C125
S1130D10C50101978A219B21892B09F09FC1C80134
S1130D208C5B9F4F0E9412024C01F80190878783CD
S1130D308F709927892B09F093C1C8018A5B9F4F53
S1130D400E9412022C01612C712C41145104610483
S1130D50710439F4C8018D5A9F4F0E941C022B0163
S1130D603C01C8018F5B9F4F0E941202009709F457
S1130D7079C19C0140E050E02D8F3E8F4F8F58A3E6
S1130D80898D9A8DAB8DBC8D820F931FA41FB51FC7
S1130D909401329522952F7023273F702327AC01AD
S1130DA0BD01420F531F611D711D4D8B5E8B6F8BF7
S1130DB0788F441655066606770608F455C1C301B4
S1130DC0B2012D893E894F89588D621B730B840BA8
S1130DD0950B950140E050E00E94DF32DA01C90131
S1130DE0211531054105510509F440C1263F6FEF36
S1130DF0360746076FE0560710F0B12C04C00F2EDB
S1130E00F3E0BF2EF02D863F7FEF9707A105B105D4
S1130E1018F46894BB24B1F8863F9F40A105B1053E
S1130E2010F4BB24B394BB2009F422C129013A0174
S1130E30F2E04F0E511C611C711CD80157964D9263
S1130E405D926D927C925A97F801C78ED0A2E1A26E
S1130E50F2A28D8D9E8DAF8DB8A18C0D9D1DAE1D02
S1130E60BF1D83A394A3A5A3B6A34D895E896F89EF
S1130E70788D4C0D5D1D6E1D7F1D43A754A765A77E
S1130E8076A7F3E0BF1220C0C801835A9F4F0E9487
S1130E901202892B09F0EEC0892809F0EDC0C801BF
S1130EA0815A9F4F0E941C02D80197966D937D939F
S1130EB08D939C939A97440C551C661C771C440C88
S1130EC0551C661C771C2DC0892809F4D7C0298DB0
S1130ED03A8D4B8D5C8D820F931FA41FB51FF801B3
S1130EE087A390A7A1A7B2A7F2E0BF1205C0440C44
S1130EF0551C661C771C15C0A3E0B0E0A301920149
S1130F000E941633DC01CB01B695A795979587957A
S1130F1021E04222552466247724480E591E6A1E75
S1130F207B1E3FEF430E31E0531E611C711C032EE8
S1130F3039E076946794579447943A95D1F7302DD5
S1130F4049895A896B897C89441555056605770555
S1130F5008F496C08FEF9FEFDC01F8018787908B30
S1130F60A18BB28B83879487A587B68780E8848317
S1130F70F3E0BF1247C0C8018D599F4F0E9412026F
S1130F80019709F03FC0B701A6014F5F5F4F6F4F54
S1130F907F4FC8010E94FD04811134C0D80114960A
S1130FA01C92C8018F5C9D4F0E94120285359A4A9B
S1130FB049F5C801C3960E941C02623572458146F8
S1130FC0914401F5C801895E9D4F0E941C0262375D
S1130FD0724781449146B1F4C801855E9D4F0E94D9
S1130FE01C02D8011F966D937D938D939C93529709
S1130FF0C801815E9D4F0E941C02F80163877487BB
S113100085879687D801BC928091340290913502ED
S11310100196909335028093340216969C938E9396
S11310201597F801138A148A158A168A80E029C054
S11310308BE027C08CE025C080E023C08AE021C07B
S113104083E01FC08AE01DC081E01BC08DE019C091
S11310508DE017C08DE015C08DE013C08DE011C088
S11310608DE00FC08DE00DC08DE00BC08DE009C098
S11310708DE007C08DE005C08DE003C08DE001C0A8
S11310808DE0A0960FB6F894DEBF0FBECDBFDF9102
S1131090CF911F910F91FF90EF90DF90CF90BF9071
S11310A0AF909F908F907F906F905F904F90089536
S11310B02F923F924F925F926F927F928F929F9264
S11310C0AF92BF92CF92DF92EF92FF920F931F9352
S11310D0CF93DF9300D000D0CDB7DEB742305105B7
S11310E06105710508F4F1C0FC01C788D08CE18C5E
S11310F0F28C4C155D056E057F0508F0E8C02801EB
S113110039016A017B019C838B838081823009F4DD
S113111075C0833009F499C0813009F0DAC05A01EE
S1131120B694A794A40EB51E43A154A165A176A1BB
S1131130C501892F99278695480F591F611D711D77
S1131140CF010E94FD04182F8111C4C02B813C8162
S11311502D5C3F4F3A83298315013FEF231A330A4D
S113116081E0B822E981FA81EA0DFB1D46015701AD
S113117091E089229924AA24BB24C0FE08C02081BE
S113118030E1439EC00111242F70822B01C0842DB5
S1131190808381E0EB81FC81838343A154A165A119
S11311A076A1C101892F99278695480F591F611D82
S11311B0711DCF010E94FD04182F81118BC0F1E035
S11311C03F22E981FA81E20DF31D89288A288B28C0
S11311D049F0689413F87694679457944794169456
S11311E0D1F706C09081907F852D8F70492E482AB3
S11311F0408281E0EB81FC8183836CC0EB81FC81C4
S113120043A154A165A176A1BB27AF2D9E2D8D2DA1
S1131210480F591F6A1F7B1FCF010E94FD04182F1E
S1131220811158C02B813C812D5C3F4FCC0CDD1CBF
S1131230C6018E7F9170B201820F931F0E94370204
S113124081E0EB81FC81838345C0EB81FC8143A178
S113125054A165A176A1D701C601689416F8B69584
S1131260A795979587951694D1F7480F591F6A1F2C
S11312707B1FCF010E94FD04182F81112BC0FFE0BA
S11312807F228B819C81C396CC0CDD1CCC0CDD1C95
S11312902CEFC22221E0D222C80ED91EC6010E9420
S11312A01C02DC01CB0188279927AA27B07FB30150
S11312B0A201482B592B6A2B7B2BC6010E943B02AF
S11312C081E0EB81FC81838305C012E003C012E05E
S11312D001C012E0812F0F900F900F900F90DF91BB
S11312E0CF911F910F91FF90EF90DF90CF90BF901F
S11312F0AF909F908F907F906F905F904F903F90B2
S11313002F900895AF92BF92CF92DF92EF92FF9207
S11313100F931F93CF93DF93FC01C081D18142309F
S113132051056105710508F4A6C08F89988DA98DB2
S1131330BA8D481759076A077B0708F0A1C06A01EC
S11313407B018881823009F450C0833009F46DC078
S1131350813009F09AC08A0116950795040F151F6C
S11313604BA15CA16DA17EA1C801892F9927869507
S1131370480F591F611D711DCE010E94FD0481118A
S113138089C05801FFEFAF1ABF0A1170FE01E00FC8
S1131390F11F03A910E04BA15CA16DA17EA1C501C1
S11313A0892F99278695480F591F611D711DCE01FC
S11313B00E94FD04811172C081E0B822CA0DDB1DB8
S11313C06BA970E0762F6627602B712BC0FE09C0D5
S11313D0729562956F7067277F70672780E090E051
S11313E068C07F7080E090E064C04BA15CA16DA1F7
S11313F07EA1BB27AF2D9E2D8D2D480F591F6A1F2F
S11314007B1FCE010E94FD0481114CC0CE01C39606
S1131410A601440F551F4E7F5170840F951F0E94E3
S11314201202BC0180E090E044C04BA15CA16DA11C
S11314307EA1D701C601689416F8B695A79597952D
S113144087951694D1F7480F591F6A1F7B1FCE0149
S11314500E94FD0481112AC0E396A601440F551F82
S1131460440F551FCA018C7F91708C0F9D1F0E94E1
S11314701C029F701EC061E070E080E090E019C023
S113148061E070E080E090E014C061E070E080E032
S113149090E00FC06FEF7FEFCB010BC06FEF7FEFDA
S11314A0CB0107C06FEF7FEFCB0103C06FEF7FEF7E
S11314B0CB01DF91CF911F910F91FF90EF90DF90BF
S11314C0CF90BF90AF9008954F925F926F927F92AA
S11314D08F929F92AF92BF92CF92DF92EF92FF9240
S11314E00F931F93CF93DF93EC016A017B01088173
S11314F019814115510580E26807710508F0ACC0F7
S1131500DB01CA018F719927AA27BB27892B8A2B54
S11315108B2B09F0A3C04E875F87688B798B8E80F5
S11315209F80A884B98481149104A104B10441F476
S1131530F8018081833020F087A090A4A1A4B2A4F4
S113154081149104A104B104F1F4F8018781908518
S1131550A0E0B0E0B701A601689414F87695679509
S1131560579547951694D1F7481759076A077B078B
S113157008F076C087A190A5A1A5B2A58E8B9F8BFC
S1131580A88FB98F40C0F80141845284612C712C1A
S1131590032E39E0440C551C661C771C3A95D1F790
S11315A0302D23C0B501A401CE010E9482094B0154
S11315B05C016F3F7F4F8F4F9F4F09F453C082E010
S11315C088169104A104B10408F44EC0F801878977
S11315D0908DA18DB28D88169906AA06BB0608F0D7
S11315E045C0C418D508E608F708C414D504E604B1
S11315F0F704C0F6B501A401C8010E94AE026E8BC7
S11316007F8B888F998F8A8A9B8AAC8ABD8A8E89C0
S11316109F89A88DB98D0097A105B10549F1B7013E
S1131620A601032E39E076956795579547953A9527
S1131630D1F7302D840F951FA61FB71F8E8B9F8B5C
S1131640A88FB98F0D5C1F4FF1E0DF22C00ED11EB1
S1131650DB8ECA8E80E00DC082E00BC082E009C040
S113166082E007C081E005C082E003C082E001C0DF
S113167082E0DF91CF911F910F91FF90EF90DF9067
S1131680CF90BF90AF909F908F907F906F905F901E
S11316904F9008954F925F926F927F928F929F9294
S11316A0AF92BF92CF92DF92EF92FF920F931F936C
S11316B0CF93DF938C012A013B01FC01C081D181CE
S11316C0411551056105710599F48B849C84AD84A1
S11316D0BE8481149104A104B10431F18F89988DE1
S11316E0A98DBA8D88169906AA06BB0610F525C0E1
S11316F00E948209623071058105910508F4F9C0E0
S11317006F3FFFEF7F078F079F0709F403C1CF885F
S1131710D88CE98CFA8C6C157D058E059F0508F430
S1131720F9C05301420109C0812C912C54018394C6
S113173004C0812C912C540183946F857889898904
S11317409A89611571058105910509F4E3C0841432
S11317509504A604B70409F041C0750164012FEF94
S1131760C21AD20AE20AF20A8F89988DA98DBA8D1B
S1131770C816D906EA06FB0628F0C12CD12C76013E
S11317806894C1F8B701A601C8010E9482096130BA
S113179071058105910509F4BDC06F3FEFEF7E0728
S11317A08E079E0709F4B6C0672B682B692B19F1C5
S11317B08B859C85AD85BE8582309105A105B105DB
S11317C088F04F89588D698D7A8D84179507A607FF
S11317D0B70760F0C12CD12C76010DC0C12CD12CDF
S11317E0760109C0C12CD12C760105C04C015D01E4
S11317F0C12CD12C7601C114D104E104F104C9F542
S113180075016401FFEFCF1ADF0AEF0AFF0A8F891F
S1131810988DA98DBA8DC816D906EA06FB0660F024
S113182022E082169104A104B10408F467C0C12C1B
S1131830D12C76016894C1F8B701A601C8010E94B1
S11318408209611571058105910599F06130710571
S11318508105910509F45EC06F3FEFEF7E078E07A7
S11318609E0709F457C0C814D904EA04FB0451F6CE
S113187049C00FEF1FEF9801B701A601CE010E94E6
S1131880580881110CC0411451046104710439F0E9
S113189097018601B301A201CE010E94580881116B
S11318A022C0CB86DC86ED86FE864F855889698901
S11318B07A898F89988DA98DBA8D0297A109B1096A
S11318C084179507A607B70740F0415051096109ED
S11318D071094F87588B698B7A8B8C8181608C83DB
S11318E0C701B60117C0813089F46FEF7FEFCB01D8
S11318F011C061E070E080E090E00CC060E070E056
S1131900CB0108C060E070E0CB0104C061E070E08E
S113191080E090E0DF91CF911F910F91FF90EF90C5
S1131920DF90CF90BF90AF909F908F907F906F90FB
S11319305F904F9008954F925F926F927F92AF9213
S1131940BF92CF92DF92EF92FF920F931F93CF93A8
S1131950DF935C016A017B01B901A801FC01C0812C
S1131960D181F2E0CF16D104E104F10408F460C09F
S11319708F89988DA98DBA8DC816D906EA06FB06FB
S113198008F058C0012B022B032B41F00FEF1FEF7F
S11319909801CE010E945808811153C0B701A601D5
S11319A0C5010E9482092B013C0161157105810565
S11319B0910509F441C06130710581059105F1F18A
S11319C08FEF4816580668067806D1F100E010E05B
S11319D09801B701A601CE010E945808811131C0B7
S11319E08F859889A989BA894F89588D698D7A8D8F
S11319F06A017B01E2E0CE1AD108E108F1088C15F6
S1131A009D05AE05BF0550F40196A11DB11D8F873C
S1131A10988BA98BBA8B8C8181608C837301620152
S1131A20441655066606770608F4B8CF80E009C068
S1131A3082E007C082E005C080E003C082E001C00C
S1131A4081E0DF91CF911F910F91FF90EF90DF9094
S1131A50CF90BF90AF907F906F905F904F9008951C
S1131A608F929F92AF92BF92CF92DF92EF92FF92AA
S1131A700F931F93CF93DF93EC016A017B010E94C4
S1131A80A304811137C0B701A601CE010E94AE02A2
S1131A904B015C016FA778AB89AB9AAB6E0183E312
S1131AA0C80ED11C40E052E060E070E0C6010E9424
S1131AB05002E12CF12C03C08FEFE81AF80A898553
S1131AC09A85E816F90670F401E010E0A501940186
S1131AD02E0D3F1D411D511DB60189810E94A71B7A
S1131AE0882351F329853A8581E0E216F30619F437
S1131AF080E001C081E0DF91CF911F910F91FF90B1
S1131B00EF90DF90CF90BF90AF909F908F9008950B
S1131B104F925F926F927F928F929F92AF92BF92F9
S1131B20EF92FF920F931F93CF93DF93FC010081F9
S1131B30118186849784A088B18820E2820E911C4A
S1131B40A11CB11C86899789A08DB18D0097A10530
S1131B50B10509F4B7C08114910420E2A206B104CE
S1131B6008F0B2C07B01EF01B501A40151706627F2
S1131B707727452B462B472B09F096C00196A11DCC
S1131B80B11D868B978BA08FB18F4289538964894D
S1131B9075894115510561057105D9F4F8018781ED
S1131BA09085A0E0B0E0B501A401689414F876959E
S1131BB06795579547951694D1F7481759076A07BB
S1131BC07B0708F471C01E8A1F8A188E198E84E060
S1131BD088C0F8018185928501972C01612C712CB4
S1131BE0D501C401072E79E0B695A79597958795F9
S1131BF07A95D1F7702D84219521A621B721892BBF
S1131C008A2B8B2B09F050C0CE010E9482092B0134
S1131C103C01623071058105910508F457C06F3F9E
S1131C207F4F8F4F9F4F09F453C0F8018789908DE0
S1131C30A18DB28D481659066A067B0640F1EF283D
S1131C4031F41E8A1F8A188E198E84E04AC04A898C
S1131C505B896C897D89CE010E944A0B2B013C0172
S1131C606115710581059105A9F161307105810541
S1131C70910591F16F3F2FEF72078207920771F17F
S1131C80AB01BC01C8010E94300D811129C04A8AF0
S1131C905B8A6C8A7D8AB301A201C8010E94AE02EC
S1131CA06E8B7F8B888F998F8E869F86A88AB98A40
S1131CB00D5C1F4F81E09822800E911E9B8E8A8EB0
S1131CC080E00FC084E00DC084E00BC082E009C056
S1131CD081E007C087E005C082E003C081E001C065
S1131CE081E0DF91CF911F910F91FF90EF90BF9012
S1131CF0AF909F908F907F906F905F904F900895DA
S1131D00EF92FF921F93CF93DF93EC01E880F98069
S1131D1040E050E0BA010E94640A81112BC04E8950
S1131D205F89688D798DC7010E94FD04182F811188
S1131D301DC0EA8DFB8D80818823C9F083858F7354
S1131D408C83838583FD0AC04BE050E0BE01645E52
S1131D507F4FCF010E945902892B59F060E070E057
S1131D60CE010E94880D8823D1F204C003C084E010
S1131D7001C0812FDF91CF911F91FF90EF900895C3
S1131D80DF92EF92FF920F931F93CF93DF9300D0D4
S1131D90CDB7DEB78C01FB017A836983DC01ED905A
S1131DA0FC9080818F3281F08C3571F0F70183894A
S1131DB09489A589B689F80186839783A087B1871A
S1131DC011C03196FA83E983E981FA8180818F32E7
S1131DD0C1F38C35B1F3D80116961D921D921D9254
S1131DE01C921997E981FA818081803258F480E845
S1131DF0F80187A340E050E0BA01C8010E94640AD8
S1131E00D82E48C0BE016F5F7F4FC8010E942E03C9
S1131E10D82E81113FC0C8010E94800ED801979628
S1131E209C919797882371F0843039F595FF06C00B
S1131E3092FFE8CF80E897968C932CC092FF1FC046
S1131E40D82E28C092FD20C0F801848184FF1EC0D2
S1131E5086859785A089B1899170B7016D5C7F4FA4
S1131E60680F791FC7010E94DC02D80116966D9392
S1131E707D938D939C931997C5CFD82E0BC00F2EAD
S1131E80F5E0DF2EF02D06C0D82E04C00F2EF5E0AD
S1131E90DF2EF02D8D2D0F900F90DF91CF911F919C
S1131EA00F91FF90EF90DF900895CF92DF92EF9221
S1131EB0FF920F931F93CF93DF93EC016B01E880A4
S1131EC0F98040E050E0BA010E94640A811121C007
S1131ED000E010E04E895F89688D798DC7010E940A
S1131EE0FD04811116C0EA8DFB8D9081953E11F0A1
S1131EF0911106C00F5F1F4F0C151D0519F409C081
S1131F0000E010E061E070E0CE010E94880D8823BB
S1131F1009F3843009F487E0DF91CF911F910F9189
S1131F20FF90EF90DF90CF900895EF92FF921F9370
S1131F30CF93DF93EC01E880F98061E070E00E94C8
S1131F40550F182F81111EC04E895F89688D798DB8
S1131F50C7010E94FD04182F811114C040E250E013
S1131F6060E070E08A8D9B8D0E945002BE01645E29
S1131F707F4F4BE050E08A8D9B8D0E94410281E0AF
S1131F80F7018383812FDF91CF911F91FF90EF9011
S1131F900895CF92DF92FF920F931F93CF93DF9315
S1131FA0EC010E94A304F82E81115BC08881833068
S1131FB009F04DC08C81813009F049C040E052E005
S1131FC060E070E06E0183E3C80ED11CC6010E947C
S1131FD0500265E57AEACE018F5C9D4F0E9437027C
S1131FE042E552E561E671E4C6010E943B0242E724
S1131FF052E761E471E6CE01895E9D4F0E943B0287
S11320004F85588969897A89CE01855E9D4F0E94E2
S11320103B024B855C856D857E85CE01815E9D4F3F
S11320200E943B028F8D98A1A9A1BAA19C01AD0188
S11320302F5F3F4F4F4F5F4F2FA738AB49AB5AAB82
S113204001E010E0B60189810E94A71B1C8240E0D8
S113205050E060E089810E94B21B882311F0FF24C4
S1132060F3948F2DDF91CF911F910F91FF90DF900B
S1132070CF9008951F93CF93DF9300D000D000D06A
S1132080CDB7DEB79C838B837E836D83142F7A83D5
S11320906983CE0101960E942F04992324F1FC0147
S11320A0EE0FFF1FEA5CFD4F0190F081E02D3097A9
S11320B009F01082EB81FC81309709F01082880FBF
S11320C0991FFC01EA5CFD4F8B819C819183808385
S11320D0112359F040E0BE016D5F7F4FCE0105969C
S11320E00E94810503C08BE001C080E026960FB6F4
S11320F0F894DEBF0FBECDBFDF91CF911F9108953D
S11321002F923F924F925F926F927F928F929F9203
S1132110AF92BF92CF92DF92EF92FF920F931F93F1
S1132120CF93DF93CDB7DEB7AC970FB6F894DEBF8D
S11321300FBECDBF7CA76BA7009709F484C1142FF1
S11321406C01842F8F73E82E482FBE01675D7F4F8B
S1132150CE018B960E948105F82E81116DC189A54F
S11321609AA59A8389836BA57CA5CE0101960E94CA
S1132170C00EF82E811107C088A5882324F40F2EE1
S1132180F6E0FF2EF02D812F8C7109F472C0FF2030
S113219061F0E4E0FE1205C0CE0101960E94950FA5
S11321A0F82EFE2DF860EF2E0EC08D81817119F48A
S11321B012FD06C008C00F2EF7E0FF2EF02D03C05D
S11321C06894FF24F3F8F11066C0E3FE64C06B8DDD
S11321D07C8D89A59AA50E94DC024B015C010E94BA
S11321E0B71BAB01BC018B8D9C8D0E960E943B02EC
S11321F0EB8DFC8D80E283876B8D7C8D20E030E05D
S1132200A90189A59AA50E9409038B8D9C8D40E0A4
S113221050E0BA014C960E943B02E9A5FAA581E080
S1132220838381149104A104B104A9F147A450A8A3
S113223061A872A800E010E09801B501A401CE01E4
S113224001960E949B0CF82E811125C0B301A201B6
S113225089A59AA50E94FD04F82EE9A5FAA581E0B6
S1132260881A9108A108B10883869486A586B68643
S113227012C0F11010C08D8184FD05C011FF0BC088
S113228080FD05C008C06894FF24F2F804C00F2E36
S1132290F7E0FF2EF02DF11014C0E3FE03C0EE2D85
S11322A0E064EE2EE9A5FAA587A590A9A1A9B2A993
S11322B0F601848F958FA68FB78F8B8D9C8D91A3FC
S11322C080A3F110B9C08B8C9C8CA9A4BAA4B401CE
S11322D0C5010E94DC02F6016683778380879187BB
S11322E0C4014C960E941C02F6016287738784879E
S11322F09587B182A082F50185819681F601938349
S11323008283E6861786108E118E128E138E108AA3
S1132310118A128A138A1601F2E22F0E311C40E050
S113232052E060E070E0C1010E945002E5FE84C00A
S1132330F601428453846484758441145104610415
S1132340710409F479C0408A518A628A738AE9A5C2
S1132350FAA581859285A0E0B0E04C015D01072ECD
S113236079E0880C991CAA1CBB1C7A95D1F7702DB6
S1132370F601468157816085718519C0C6010E94A6
S11323808209AB01BC01423051056105710518F4A5
S11323906894FF24F1F84F3FFFEF5F076F077F0753
S11323A011F4FF24F394481859086A087B08F110C3
S11323B005C084149504A604B70400F3F601448B05
S11323C0558B668B778BF11037C0D301C2019170A6
S11323D0AA27BB27892B8A2B8B2B71F189A49AA45A
S11323E0C4010E94AE026115710581059105F1F0E9
S11323F0032E39E076946794579447943A95D1F72D
S1132400302D9B01AC01240D351D461D571DF601D1
S1132410208F318F428F538F01E010E0B101F4011E
S113242081810E949C1B811105C006C06894FF2411
S1132430F1F802C0FF24F394FF2039F0F601118271
S113244010828F2D03C089E001C08F2DAC960FB68A
S1132450F894DEBF0FBECDBFDF91CF911F910F91D6
S1132460FF90EF90DF90CF90BF90AF909F908F90B0
S11324707F906F905F904F903F902F9008952F9290
S11324803F924F925F926F927F928F929F92AF9200
S1132490BF92CF92DF92EF92FF920F931F93CF934D
S11324A0DF93CDB7DEB728970FB6F894DEBF0FBE23
S11324B0CDBF7C014B016A015901D9011D921C92C7
S11324C08F83F886BE016F5F7F4F0E946E04811177
S11324D087C1F7018785811183C1868581FF7FC10B
S11324E080899189A289B389AC01BD014C0D5D1D20
S11324F0611D711D481759076A077B0708F062C1FF
S11325006C01C094D0945EC1F70180899189A2893D
S1132510B389AC01BD01517066277727452B462B43
S1132520472B09F008C1E981FA8161847284F1E0E2
S11325306F1A7108AC01BD01032E39E076956795D9
S1132540579547953A95D1F7302D64227522611439
S1132550710409F051C0892B8A2B8B2BA1F4D7016C
S113256016966D917D918D919C91199761157105C8
S11325708105910589F440E050E0BA018F81988586
S11325800E944A0B09C0F7014489558966897789F5
S11325908F8198850E944A0B61157105810591050B
S11325A009F414C1613071058105910529F482E0B3
S11325B0D7011F968C9314C16F3FBFEF7B078B0726
S11325C09B0721F481E0F70187870AC1D70154965C
S11325D06D937D938D939C93579716960D911D91B2
S11325E02D913C911997012B022B032B29F4F70110
S11325F06683778380879187D7011E968C911E9777
S11326008823ECF4E981FA8158962D913D914D91FE
S11326105C915B9701E010E0B7016E5D7F4F8181B3
S11326200E94A71B882321F081E0F7018787D8C087
S1132630D7011E968C911E978F771E968C93F70167
S1132640448955896689778989819A819E838D8396
S11326500E94AE02611571058105910529F482E09D
S1132660D7011F968C93BCC01B012C01260C371C70
S1132670411C511CF601EF2FFF27E695FC83EB83E9
S1132680309741F1AD81BE8119962D913C911A97F5
S1132690CF01860D971D2817390728F4F901E6198B
S11326A0F709FC83EB830B811C81A2019101B40126
S11326B0AD81BE8111968C910E94A71B882321F0C5
S11326C081E0F70187878CC06B807C80762C662440
S11326D0770C50C0F701808D918DA28DB38D281693
S11326E039064A065B0601F140895189628973897A
S11326F082859385A485B585481759076A077B07A2
S113270098F401E010E0A2019101B7016E5D7F4FE2
S1132710AD81BE8111968C910E949C1B882321F06F
S113272081E0F70187875CC0D70158962D923D92CE
S11327304D925C925B97F70180899189A289B38954
S1132740917020E032E03901681A790AC614D7047E
S113275008F43601A301B40197012E5D3F4F820FA7
S1132760931F0E944102D7011E968C911E97806888
S11327701E968C93C618D708F50180819181860D29
S1132780971D91838083860C971CF701808991891A
S1132790A289B389860D971DA11DB11D808B918BD4
S11327A0A28BB38B42855385648575858417950701
S11327B0A607B70710F4DB01CA01F70182879387E4
S11327C0A487B587C114D10409F09ECED7011E9603
S11327D08C911E9780641E968C9380E001C087E0E4
S11327E028960FB6F894DEBF0FBECDBFDF91CF9110
S11327F01F910F91FF90EF90DF90CF90BF90AF901B
S11328009F908F907F906F905F904F903F902F900C
S11328100895EF92FF920F931F93CF93DF9300D00D
S1132820CDB7DEB7FC0122813381332364F18C01FF
S11328307901FFEFEF1AFF0AFC01E20FF31F668331
S11328408DE3E816F104BCF09E012F5F3F4FA70112
S1132850B8016A5F7F4FF801808191810E943F1225
S113286089819A81E816F90619F4E12CF12C03C048
S1132870EE24EA94FE2CF801F382E28284819581AD
S11328800196958384830F900F90DF91CF911F91D0
S11328900F91FF90EF9008950F931F93CF93DF93C1
S11328A000D0CDB7DEB7FC01428153815523C4F07B
S11328B08C01BC016A5F7F4F9E012F5F3F4F808177
S11328C091810E943F1281110EC0F801228133814F
S11328D089819A812817390749F48481958108C030
S11328E08FEF9FEF05C08FEF9FEF02C08FEF9FEF39
S11328F00F900F90DF91CF911F910F9108958F92B8
S11329009F92AF92BF92EF92FF920F931F93CF9338
S1132910DF9300D0CDB7DEB77C01BE016F5F7F4F80
S11329200E946E04811165C0D7011E969C911E976A
S113293096FF5FC09923B4F4E981FA8158962D91EA
S11329403D914D915C915B9701E010E0B7016E5DA4
S11329507F4F81810E94A71B81114AC0F7018685A0
S11329608F7786870E94B71B4B015C01D7015C9669
S11329704D915D916D917C915F9789819A810E94BF
S1132980FD04811136C0F70100A111A1D8011B96E5
S11329908C911B9780621B968C932681378140858E
S11329A05185B801808191810E940903F701428514
S11329B0538564857585C8014C960E943B02B50118
S11329C0A401C80146960E943B0260E070E0C80181
S11329D042960E94370289819A8121E0DC01139694
S11329E02C930E94C90FF70196859F7B968701C09F
S11329F081E00F900F90DF91CF911F910F91FF9085
S1132A00EF90BF90AF909F908F9008950F931F9376
S1132A10CF93DF9300D0CDB7DEB78C010E947F1433
S1132A2081110BC0BE016F5F7F4FC8010E946E040D
S1132A30811103C0F801118210820F900F90DF9171
S1132A40CF911F910F9108951F93CF93DF93CDB72B
S1132A50DEB7C654D1090FB6F894DEBF0FBECDBFA2
S1132A60182FCE0101960E946604612FCE010196B3
S1132A700E940914CE0101960E944C14CA5BDF4FD8
S1132A800FB6F894DEBF0FBECDBFDF91CF911F917B
S1132A90089582E080933A0280913A028111FCCF3A
S1132AA084B18C6284B985B1806385B91DBC0895F5
S1132AB01CBC8091060181608093060108958EBD3F
S1132AC00DB407FEFDCF8EB50895FC0101C0F901D8
S1132AD08FEF8EBD0DB407FEFDCF8EB580838FEFD3
S1132AE08EBD0DB407FEFDCF9F012E5F3F4F8EB507
S1132AF081836250710959F70895FC0101C0F901FD
S1132B0080818EBD0DB407FEFDCF9F012E5F3F4F28
S1132B1081818EBD0DB407FEFDCF6250710979F736
S1132B2008959C01ADECBCEC0E9407339695879503
S1132B309695879596958795809339028FEF0E9495
S1132B405F158F3F21F0909139029111F7CF91E0F9
S1132B508F3F09F090E0892F90E008958BB1886051
S1132B608BB98FEF0E945F150895CF93DF938BB1DC
S1132B70877F8BB98FEF0E945F1584EF91E00E94ED
S1132B809115EC01892B19F40E94AE1502C0C1E025
S1132B90D0E0CE01DF91CF9108950F931F93CF938F
S1132BA0DF93EC018B0184E180933A028FEF0E9462
S1132BB05F158F3F21F490913A029111F7CF8E3F28
S1132BC069F4B801CE010E9465158FEF0E945F156C
S1132BD08FEF0E945F1581E090E002C080E090E0FA
S1132BE0DF91CF911F910F9108950F931F93CF936E
S1132BF08C01C62F84EF91E00E9491150097E9F0B3
S1132C008C2F0E945F15CD3FB1F060E072E0C801E7
S1132C100E947D158FEF0E945F158FEF0E945F1554
S1132C208FEF0E945F158F7191E0853009F090E07D
S1132C30892F90E002C081E090E0CF911F910F9125
S1132C400895FF920F931F93CF93DF93C82FD42F30
S1132C50152F062FF72E88234CF4CF7740E050E051
S1132C60BA0187E30E942116823088F5CC3031F016
S1132C700E94AE150E94B515892B41F18C2F8064FA
S1132C800E945F158F2D0E945F15802F0E945F1593
S1132C90812F0E945F158D2F0E945F15CC2311F0A8
S1132CA081E001C085E9C83009F487E80E945F1516
S1132CB0CC3019F48FEF0E945F15CAE08FEF0E94A9
S1132CC05F15882324F4C150C9F701C08FEFDF9149
S1132CD0CF911F910F91FF900895EF92FF920F9360
S1132CE01F93CF93DF9300D000D0CDB7DEB70E94FF
S1132CF058158AE080933A0280913A028111FCCF00
S1132D008091060181FF03C080910601B2C00E9438
S1132D10491582E58CBD1AE004C08FEF0E945F154F
S1132D2011501111FACF40E050E0BA0180E00E9446
S1132D302116813009F07EC084E680933A024AEA83
S1132D4051E060E070E088E00E942116813009F0D3
S1132D504AC00EC0E02EF12C8FEF0E945F15E1E017
S1132D60F0E0EC0FFD1FEE0DFF1D80830F5F01C02F
S1132D70012F043078F38B81813009F05DC08C81A0
S1132D808A3A09F05BC080913A02882349F040E016
S1132D9050E060E070E489EA0E9421168111F3CFCB
S1132DA080913A02882309F44BC040E050E0BA0114
S1132DB08AE30E942116882379F010E048C0E12EAE
S1132DC0F12C8FEF0E945F15E1E0F0E0EC0FFD1FA6
S1132DD0EE0DFF1D80831F5F143088F3898186FF09
S1132DE031C01CE034C040E050E0BA0189EA0E94DE
S1132DF02116823018F412E009EA02C011E001E061
S1132E0080913A02882341F040E050E0BA01802FDB
S1132E100E9421168111F4CF80913A028823A1F0F7
S1132E2040E052E060E070E080E10E9421168111F0
S1132E300DC00DC010E00BC010E009C010E007C0C9
S1132E4010E005C014E003C010E001C010E01093CE
S1132E5038020E94AE15112341F0809106018E7F45
S1132E608093060180E58CBD02C00E9458158091B4
S1132E7006010F900F900F900F90DF91CF911F914B
S1132E800F91FF90EF900895809106010895FF92AD
S1132E900F931F93CF93DF938C01E9012097E1F106
S1132EA08091060180FD3AC08091380283FD09C0FB
S1132EB0032E39E0440F551F661F771F3A95D1F74B
S1132EC0302DC230D10528F00F2EF2E1FF2EF02D67
S1132ED004C00F2EF1E1FF2EF02D8F2D0E9421163C
S1132EE0811113C060E072E0C8010E94CD15892BE6
S1132EF019F01E5F2197B1F782E1F81206C040E095
S1132F0050E0BA018CE00E9421160E94AE1581E0C7
S1132F10CD2B29F480E003C084E001C083E0DF917D
S1132F20CF911F910F91FF900895CF92DF92EF926E
S1132F30FF920F931F93CF93DF938C016A017B0160
S1132F40E901209709F452C08091060180FD50C028
S1132F508091060182FD4EC08091380283FD09C034
S1132F600B2EB9E0CC0CDD1CEE1CFF1CBA95D1F77E
S1132F70B02DC130D10571F4B701A60188E10E94DA
S1132F80211681112CC06EEFC8010E94F515892B02
S1132F9009F525C0867031F0AE0160E070E087E984
S1132FA00E942116B701A60189E10E942116811110
S1132FB016C06CEFC8010E94F515892B19F01E5F2D
S1132FC02197B9F76DEF80E090E00E94F515892B09
S1132FD021F005C0C0E0D0E002C0C1E0D0E00E9412
S1132FE0AE1581E0CD2B39F480E005C084E003C048
S1132FF083E001C082E0DF91CF911F910F91FF9098
S1133000EF90DF90CF9008958F929F92AF92BF92EE
S1133010CF92DF92EF92FF920F931F93CF93DF93A0
S1133020CDB7DEB760970FB6F894DEBF0FBECDBF45
S1133030E82F8B018091060180FD36C38E2F90E02E
S11330408A33910508F035C3FC01EC5CFF4F0C9406
S113305001330E94B515892B11F411E001C010E071
S11330600E94AE15F12E3AC340E050E0BA0189E067
S11330700E94211681116EC060E170E0CE010196BC
S11330800E94CD15892B09F467C0898182958695A4
S113309086958370813031F58A85298530E0322F19
S11330A02227280F311D88858F7390E0A0E0B0E0BF
S11330B0DC0199278827820F931FA11DB11D01965A
S11330C0A11DB11D072E7AE0880F991FAA1FBB1FEF
S11330D07A95D1F7702DF80180839183A283B3830D
S11330E010E03BC02E819B85991F9927991F8A85E3
S11330F02F70290F8370880F280F2E5F39858885DC
S113310090E0880F991F880F991F32953695369550
S11331103370AC01430F511D9F819370892F90E050
S1133120982F8827990F990F840F951F0196A0E077
S1133130B0E030E02950310904C0880F991FAA1F5C
S1133140BB1F2A95D2F7F80180839183A283B383AE
S113315010E003C011E001C011E00E94AE15F12E91
S1133160BDC28091380282FF35C040E050E0BA0110
S11331708DE80E94211681118BC08FEF0E945F158C
S113318060E170E0CE0101960E94CD15892B39F4DF
S113319011E083C08FEF0E945F15FA9404C00F2ED4
S11331A0F0E3FF2EF02DF110F5CF2B8522952F7033
S11331B080E190E0A0E0B0E004C0880F991FAA1F4E
S11331C0BB1F2A95D2F7F80180839183A283B3832E
S11331D010E063C040E050E0BA0189E00E9421168B
S11331E0811158C060E170E0CE0101960E94CD15B6
S11331F0892B09F451C08091380281FF1FC08B854F
S11332008F7390E0880F991F2C8527FD01960196F6
S11332102E85229526952695237030E0215031097C
S113322002C0880F991F2A95E2F7A0E0B0E0F801E8
S113323080839183A283B38310E02FC08B858C7726
S113324090E0959587959595879501964C85242FC3
S1133250237030E0220F331F220F331F220F331F3E
S1133260429546954770240F311D2F5F3F4F289F8D
S1133270A001299F500D389F500D1124CA01A0E0D0
S1133280B0E0F80180839183A283B38310E005C08A
S113329011E003C011E001C011E00E94AE15F12E4F
S11332A01DC280913802867009F407C2BE016F5FA7
S11332B07F4F83E30E940418F82E811101C2898193
S11332C0829586958695837019F48B8586FFFBC15C
S11332D0D8014D915D916D917C91139714968D90C9
S11332E09D90AD90BC9017978091380283FD12C0D9
S11332F0032E39E0440F551F661F771F3A95D1F707
S1133300302D072E79E0880C991CAA1CBB1C7A95D9
S1133310D1F7702D80E20E9421168111D7C1B50129
S1133320A40181E20E9421168111D3C140E050E042
S1133330BA0186E20E9421168111CEC180E395E78D
S11333400E949115892B09F0C9C1FF24F394C6C1C9
S113335080913802FB018083F12CC0C140E050E031
S1133360BA0189E00E942116811109C060E170E070
S1133370C8010E94CD15892B21F411E003C011E08E
S113338001C010E00E94AE15F12EA8C140E050E04B
S1133390BA018AE00E942116811109C060E170E03F
S11333A0C8010E94CD15892B21F411E003C011E05E
S11333B001C010E00E94AE15F12E90C140E050E033
S11333C0BA018AE30E942116882371F011E012C029
S11333D06801FFEFCF1ADF0A8FEF0E945F15D80153
S11333E08C93FA94860103C06894FF24F2F8F110D8
S11333F0EFCF10E00E94AE15F12E70C140E050E016
S1133400BA018DE80E94211681110CC08FEF0E9431
S11334105F1560E470E0C8010E94CD15892B21F48A
S113342011E003C011E001C010E00E94AE15F12EBE
S113343055C10E9458158091060181608093060150
S1133440F12C4CC1FB01408150E060E070E0032EA0
S11334503CE1440F551F661F771F3A95D1F7302D75
S113346083819481A581B681072E79E0880F991F05
S1133470AA1FBB1F7A95D1F7702D482B592B6A2BA5
S11334807B2B8181928101979170A0E0B0E0482B61
S1133490592B6A2B7B2B706880E30E9421168111C3
S11334A03CC084E680933A028FEF0E945F158F3F01
S11334B021F490913A029111F7CF8E3F81F5D80112
S11334C01796CD90DC9018971196ED90FC9012977A
S11334D00DC05601BFEFAB1ABB0A8FEF0E945F15F8
S11334E0F6018083F1E0EF1AF1086501E114F104BB
S11334F081F7D80111968D919C91129702E012E008
S1133500081B190B05C08FEF0E945F1501501109AC
S113351001151105C1F710E003C011E001C011E06D
S11335200E94AE15F12EDAC0FB01408150E060E04C
S113353070E0032E3CE1440F551F661F771F3A9538
S1133540D1F7302D83819481A581B681072E79E04E
S1133550880F991FAA1FBB1F7A95D1F7702D482B8E
S1133560592B6A2B7B2B8181928101979170A0E06A
S1133570B0E0482B592B6A2B7B2B706881E30E94A7
S11335802116811138C08FEF0E945F158EEF0E94C3
S11335905F15D8011796ED91FC9118971196ED904F
S11335A0FC9012970BC06F01BFEFCB1ADB0A80812E
S11335B00E945F15E1E0EE1AF108F601E114F1044E
S11335C091F7D80111968D919C91129702E012E027
S11335D0081B190B05C08FEF0E945F1501501109DC
S11335E001151105C1F78FEF0E945F158F718530AA
S11335F021F011E003C011E001C010E00E94AE15FB
S1133600F12E6CC0FB01408150E060E070E0032EBD
S11336103CE1440F551F661F771F3A95D1F7302DB3
S113362083819481A581B681072E79E0880F991F43
S1133630AA1FBB1F7A95D1F7702D482B592B6A2BE3
S11336407B2B828190E0A0E0B0E0482B592B6A2BC1
S11336507B2B746881E30E94211681111EC08FEFB9
S11336600E945F158EEF0E945F15D80111968C9110
S11336700E945F1501E012E005C08FEF0E945F1504
S11336800150110901151105C1F78FEF0E945F1553
S11336908F71853021F011E003C011E001C010E00A
S11336A00E94AE15F12E1AC00F2EF3E0FF2EF02D5E
S11336B015C06894FF24F2F811C0FF24F3940EC0DF
S11336C0FF24F3940BC0FF24F39408C0FF24F39465
S11336D005C0FF24F39402C0FF24F3948F2D609659
S11336E00FB6F894DEBF0FBECDBFDF91CF911F910F
S11336F00F91FF90EF90DF90CF90BF90AF909F908D
S11337008F90089580913A02882319F08150809314
S11337103A0280913902882319F08150809339024A
S113372080910601897F8093060108950E946D1699
S113373008950E94441708950F931F93CB01BA0173
S1133740A90198010E9447171F910F9108950F93A3
S11337501F93CB01BA01A90198010E9495171F91EB
S11337600F910895862FBA010E9404180895EDE779
S1133770F3E0408151814C5B574060E070E0032EE0
S113378039E1440F551F661F771F3A95D1F7302D45
S1133790828190E0A0E0B0E0072E75E1880F991FC8
S11337A0AA1FBB1F7A95D1F7702D482B592B6A2B72
S11337B07B2B838190E0A0E0B0E0DC01992788278F
S11337C0482B592B6A2B7B2B858190E0A0E0B0E03D
S11337D0072E7BE0880F991FAA1FBB1F7A95D1F78C
S11337E0702D482B592B6A2B7B2B868190E0A0E00F
S11337F0B0E0880F991FAA1FBB1F880F991FAA1F2B
S1133800BB1F880F991FAA1FBB1F880F991FAA1FD0
S1133810BB1F880F991FAA1FBB1F842B952BA62B98
S1133820B72B27812695BC01CD01622B08958AB15F
S113383088608AB98AB180628AB98AB182608AB999
S11338408AB180688AB987B1826087B98AB1816098
S11338508AB988B18D7F88B985B18E7F85B987B1E2
S11338608E7F87B987B18B7F87B98AB18E7F8AB9FA
S11338708AB18B7F8AB98BB184608BB9089580E15A
S113388097E29093890080938800109285001092AB
S11338908400109280008AE080938100EFE6F0E0DB
S11338A0808182608083E6EBF0E0808180628083A7
S11338B01092B2001092B00085E88093B100E0E766
S11338C0F0E080818160808308958F929F92AF920F
S11338D0BF92CF92DF92EF92FF9220E030E040E07F
S11338E050E0BA01C12CD12C7601233231059CF56C
S11338F08EEE80937C008FE097E20197F1F700C091
S1133900000087EC80937A0080917A0086FDFCCFDA
S11339108091780090917900C80ED91EE11CF11CA9
S113392080EE80937C008FE097E20197F1F700C06E
S1133930000087EC80937A0080917A0086FDFCCFAA
S11339408091780090917900480F591F611D711D75
S11339502F5F3F4FCACFCB01BA010E9438304B01D1
S11339605C01C701B6010E9438309B01AC01C5015E
S1133970B4010E94C42F2DEC3CEC4CE85FE30E94A0
S1133980ED30FF90EF90DF90CF90BF90AF909F907D
S11339908F9008958F929F92AF92BF92CF92DF92B1
S11339A0EF92FF9220E030E040E050E0BA01C12CF9
S11339B0D12C7601233231059CF58EE480937C0072
S11339C08FE097E20197F1F700C0000087EC809345
S11339D07A0080917A0086FDFCCF809178009091E6
S11339E07900C80ED91EE11CF11C82E480937C008E
S11339F08FE097E20197F1F700C0000087EC809315
S1133A007A0080917A0086FDFCCF809178009091B5
S1133A107900480F591F611D711D2F5F3F4FCACF99
S1133A20CB01BA010E9438304B015C01C701B601D9
S1133A300E9438309B01AC01C501B4010E94C42F1F
S1133A402DEC3CEC4CE85FE30E94ED30FF90EF90EE
S1133A50DF90CF90BF90AF909F908F900895EF929A
S1133A60FF920F931F93CF93DF93CDB7DEB7619788
S1133A700FB6F894DEBF0FBECDBF43E050E06AE45A
S1133A8071E08DEA92E00E94A734892B29F48EE438
S1133A9091E00E94472FC7C143E050E069E571E01F
S1133AA08DEA92E00E94A734892B09F060C01B863E
S1133AB04AE050E060EB72E0CE0101960E94B5341A
S1133AC0CE0101960E9480346093790370937A0347
S1133AD080937B0390937C0381E09091BA029437A6
S1133AE009F080E08093070181E09091BB02943754
S1133AF009F080E08093AC0281E09091BC0294379D
S1133B0009F080E08093AB0280911301909114013D
S1133B109093AA028093A9028091110190911201BD
S1133B209093A8028093A70280910F0190911001B5
S1133B309093A6028093A50280910D0190910E01AD
S1133B409093A4028093A3020E94862B8DE591E0BA
S1133B500E94472F2FEF80E792E021508040904051
S1133B60E1F700C0000081E0809378035CC143E08A
S1133B7050E062E671E08DEA92E00E94A734892B5E
S1133B8009F0C0C01092780381E09091B00294379C
S1133B9009F080E08093180181E09091B602943797
S1133BA009F080E08093170181E09091BC02943782
S1133BB009F080E08093160181E09091C20294376D
S1133BC009F080E080931501198A45E050E061EB2B
S1133BD072E0CE010C960E94B534CE010C960E9480
S1133BE06234909314018093130145E050E067EB35
S1133BF072E0CE010C960E94B534CE010C960E9460
S1133C006234909312018093110145E050E06DEB12
S1133C1072E0CE010C960E94B534CE010C960E943F
S1133C2062349093100180930F0145E050E063ECFF
S1133C3072E0CE010C960E94B534CE010C960E941F
S1133C40623490930E0180930D011B864AE050E08C
S1133C5068EC72E0CE0101960E94B534CE01019663
S1133C600E9480346093090170930A0180930B01D0
S1133C7090930C018091090190910A01A0910B018C
S1133C80B0910C01E0910D01F0910E01E09015014D
S1133C9060910F0170911001F09016014091110193
S1133CA050911201009117012091130130911401D8
S1133CB010911801BF93AF939F938F93FF93EF934A
S1133CC01F92EF927F936F931F92FF925F934F9394
S1133CD01F920F933F932F931F921F9386E691E0B9
S1133CE09F938F938BE392E09F938F930E94113560
S1133CF08BE392E00E94472F0FB6F894DEBF0FBE0D
S1133D00CDBF91C043E050E067E871E08DEA92E0F6
S1133D100E94A734892B09F048C080910901909131
S1133D200A01A0910B01B0910C01E0910D01F091F9
S1133D300E01E090150160910F0170911001F09057
S1133D401601409111015091120100911701209127
S1133D5013013091140110911801BF93AF939F93F5
S1133D608F93FF93EF931F92EF927F936F931F9222
S1133D70FF925F934F931F920F933F932F931F9242
S1133D801F938BE891E09F938F938BE392E09F9333
S1133D908F930E9411358BE392E00E94472F0FB658
S1133DA0F894DEBF0FBECDBF3EC043E050E06CEAE6
S1133DB071E08DEA92E00E94A734892B39F41092C5
S1133DC0780380EB91E00E94472F2DC043E050E040
S1133DD065EB71E08DEA92E00E94A734892B79F4B7
S1133DE08DEA92E00E944D2765EB71E08BE392E04F
S1133DF00E94D7298BE392E00E94472F14C043E02E
S1133E0050E069EB71E08DEA92E00E94A734892BBF
S1133E1051F469EB71E08BE392E00E94D7298BE3C4
S1133E2092E00E94472F1092AD0261960FB6F8946B
S1133E30DEBF0FBECDBFDF91CF911F910F91FF90D9
S1133E40EF9008950F931F93CF9380E090E0FC01CF
S1133E50E355FD4F2081222329F08436910520F07B
S1133E60C0E003C0C0E001C0C1E0CC2311F0019662
S1133E70EECF8336910511F480E090E000E010E08D
S1133E80F801EF5EFC4F2081222329F0043611054E
S1133E9020F02C2F03C02C2F01C021E02223C9F0D5
S1133EA003361105B1F0F801EF5EFC4F2081FC01EF
S1133EB0E355FD4F208301960F5F1F4F2D3001F70F
S1133EC0FC01E355FD4F10820E942F1D80E090E01D
S1133ED0D7CFCF911F910F910895AF92BF92CF92F8
S1133EE0DF92EF92FF920F931F93CF93DF93CDB79F
S1133EF0DEB7CB53D2400FB6F894DEBF0FBECDBFB2
S1133F00C05DDD4FE882C053D240CF5CDD4FF88204
S1133F10C153D240CE5CDD4F0883C253D240CD5C46
S1133F20DD4F1883C353D240CC5CDD4F2883C45388
S1133F30D240CB5CDD4F3883C553D240CA5CDD4FE1
S1133F404883C653D240C95CDD4F5883C753D2401F
S1133F50C85CDD4F6883C853D240C75CDD4F7883AB
S1133F60C953D240C65CDD4F8883CA53D240C55C76
S1133F70DD4F9883CB53D2408091A102882309F46A
S1133F806EC02DE0CE0101965C01FC01322F11922E
S1133F903A95E9F7CD5CDD4FE880C353D2404E2D0E
S1133FA00E2C000C550BCB5CDD4FF880C553D24072
S1133FB08F2D0F2C000C990B0196CA5CDD4F0881E4
S1133FC01981C653D2400459184F5F93EF929F93BF
S1133FD08F931F930F938DEB91E09F938F931F9279
S1133FE02F93BF92AF920E94E134EDE7F3E0118387
S1133FF00083F394F282E382CE5CDD4F8881C25366
S1134000D2408583CF5CDD4F8881C153D240868303
S1134010C05DDD4F8881C053D240878342E3B50140
S1134020CE010E960E9480100FB6F894DEBF0FBE2C
S1134030CDBF811114C000E010E0F601E00FF11FC4
S11340408081882341F0BE01625F7F4F0E94241566
S11340500F5F1F4FF2CFCE010E960E940615C55C6E
S1134060DD4F0FB6F894DEBF0FBECDBFDF91CF9109
S11340701F910F91FF90EF90DF90CF90BF90AF9082
S113408008950E94F6250E94212B0E94171CF89483
S113409087E880937A0084B7826084BF8DB381609F
S11340A08DBB0E948A2C88E80E94912C0E945E2E6F
S11340B00E943F1C8BB18F778BB92FEF84E39CE078
S11340C0215080409040E1F700C000007894809136
S11340D085038823C9F081E08093780380930701E6
S11340E01092AB021092AC028091790390917A0302
S11340F0A0917B03B0917C038093090190930A0102
S1134100A0930B01B0930C0183E392E00E9441332E
S11341109093A00280939F0280917803811106C03E
S11341208091A102882321F080E003C080E001C0D7
S113413081E0882371F041E068E571E080919F029D
S11341409091A0020E943A10811103C081E08093F3
S1134150A10280917803882331F09091AC029923D5
S113416019F080E001C080E0882329F083B7817FC3
S1134170866083BF03C083B7817F83BF83B78160B9
S113418083BF889583B78E7F83BFC6CF1F920F925C
S11341900FB60F9211242F933F934F935F936F9316
S11341A07F938F939F93AF93BF93EF93FF938091EC
S11341B0C6008E3731F481E08093760380937703D1
S11341C049C090917703992309F444C0E0917603A0
S11341D0E130D9F1E23021F48D5F8093750335C06D
S11341E0E33071F4803961F0803921F48EE08093FA
S11341F008012BC08D3A49F584E08093080125C05D
S1134200209108012E1708F590917503E91790F095
S113421030E02F5F3F4FF0E0E21BF30BEF5EFC4F0B
S113422010821092770310927503109276030E9405
S1134230221F0BC0E91748F430E02F5F3F4FF0E036
S1134240E21BF30BEF5EFC4F8083809176038F5F5C
S113425080937603FF91EF91BF91AF919F918F91DE
S11342607F916F915F914F913F912F910F900FBE6E
S11342700F901F9018951F920F920FB60F92112452
S11342802F933F934F935F936F937F938F939F935A
S1134290AF93BF93EF93FF930E94821BFF91EF9123
S11342A0BF91AF919F918F917F916F915F914F914A
S11342B03F912F910F900FBE0F901F9018951F9252
S11342C00F920FB60F9211248F929F92AF92BF92CA
S11342D0CF92DF92EF92FF920F931F932F933F930E
S11342E04F935F936F937F938F939F93AF93BF93FA
S11342F0EF93FF93CF93DF93CDB7DEB7C354D109C8
S1134300DEBFCDBF8091790390917A03A0917B03A6
S1134310B0917C030196A11DB11D80937903909304
S11343207A03A0937B03B0937C0380917803882362
S113433009F4A3C34091790350917A0360917B03FC
S113434070917C038091090190910A01A0910B0165
S1134350B0910C01481759076A077B0708F4DBC3BF
S113436080910F01909110012091A5023091A60235
S1134370821B930B449730F488B1826088B985B16D
S1134380816085B92EE63FE23AAF29AF81E690E03D
S11343909CAF8BAF43E0FE01FD96DF01542F1D92CD
S11343A05A95E9F73BAB2AAB9DAB8CAB3797DF0152
S11343B0542F1D925A95E9F73CA72BA79EA78DA7CA
S11343C03797DF01542F1D925A95E9F73DA32CA38B
S11343D09FA38EA33797DF01542F1D925A95E9F7B7
S11343E03E8F2D8F98A38F8F3797DF01542F1D9207
S11343F05A95E9F73F8B2E8B998F888F3797DF017A
S11344001D924A95E9F73E872D87988B8F873997B8
S113441085E0DF011D928A95E9F78091A5029091CC
S1134420A60201969093A6028093A502809116019C
S1134430882369F040910F01509110012091A50249
S11344403091A6022417350718F480E001C080E0FB
S1134450882309F46BC00E94CA1C6B017C018E0185
S11344600A5E1F4F24E046E00E9421332091190187
S113447030911A0140911B0150911C01C701B601F2
S11344800E94C42F20E030E040E85FE30E94522FF6
S1134490E62EF72E082F192F20E030E0A9010E9404
S11344A0BF2F882324F4E12CF12C00E010E02EEE41
S11344B03CE74FE952E46E2D7F2D802F912F0E940F
S11344C0ED3029EC36E740E451E40E94522F9B0181
S11344D0AC016E2D7F2D802F912F0E94ED302CE0AA
S11344E032E047E150E40E94532F9B01AC016E2D52
S11344F07F2D802F912F0E94ED308E01035E1F4F80
S113450024E046E00E9421331092A6021092A502F4
S113451080910F0190911001449750F088B18D7FE4
S113452088B985B18E7F85B921E003C020E001C040
S113453021E08091A9029091AA0201969093AA0287
S11345408093A90280911801882369F06091130176
S1134550709114014091A9025091AA02461757077D
S113456018F480E001C080E0882309F4ABC02496ED
S11345701CAE1DAE1EAE1FAE249719821A821B827A
S11345801C82BE016F5F7F4FCE01805C9F4F0E94F3
S1134590BB2C882309F491C060912D0170912E01E8
S11345A080912F019091300124962CAD3DAD4EADFC
S11345B05FAD24970E94ED302091960330919703CC
S11345C040919803509199030E94532F6B017C01F1
S11345D020E030E048E452E40E94E830181644F445
S11345E00F2EC12CD12CF8E4EF2EF2E4FF2EF02D87
S11345F020E030E040E251ECC701B6010E94BF2F39
S1134600882344F40F2EC12CD12CF0E2EF2EF1ECD0
S1134610FF2EF02D2496CCAEDDAEEEAEFFAE249789
S11346206091290170912A0180912B0190912C01B4
S113463029813A814B815C810E94ED302091920363
S11346403091930340919403509195030E94532F0A
S11346504B015C0120E030E048EC52E40E94E83079
S1134660181644F40F2E812C912CF8ECAF2EF2E4A2
S1134670BF2EF02D20E030E0A901C501B4010E9455
S1134680BF2F88231CF4812C912C540189829A8297
S1134690AB82BC828E01075C1F4F22E046E0C7015B
S11346A0B6010E94213369817A818B819C810750F4
S11346B0110922E046E00E9421331092AA021092CE
S11346C0A90221E08091A7029091A80201969093FB
S11346D0A8028093A70280911701882369F0609152
S11346E01101709112014091A7025091A80246173E
S11346F0570718F480E001C080E0882309F45FC004
S11347000E94651C6B017C018E010C5D1F4F24E02F
S113471046E00E94213320E030E040E05FE3C7013F
S1134720B6010E94522F2AE037ED43E25CE30E9477
S1134730C42F2091250130912601409127015091E9
S113474028010E94ED3020918E0330918F03409117
S11347509003509191030E94532F6B017C0120E040
S113476030E048E452E40E94E830181644F40F2E76
S1134770C12CD12CF8E4EF2EF2E4FF2EF02D20E032
S113478030E040E251ECC701B6010E94BF2F8823FC
S113479044F40F2EC12CD12CF0E2EF2EF1ECFF2EBD
S11347A0F02D8E01055D1F4F22E046E0C701B601E2
S11347B00E9421331092A8021092A70221E0809156
S11347C0A3029091A40201969093A4028093A30261
S11347D080911501882369F060910D0170910E019B
S11347E04091A3025091A4024617570718F480E0A1
S11347F001C080E0882309F445C088E80E94F82DB0
S113480020912101309122014091230150912401F2
S11348100E94ED3020918A0330918B0340918C03E8
S113482050918D030E94532F6B017C012FEF3FE4C5
S113483043EC57E40E94E830181654F40F2ECC24AD
S1134840CA94FFE4DF2EF3ECEF2EF7E4FF2EF02DF5
S113485020E030E0A901C701B6010E94BF2F8823E0
S11348601CF4C12CD12C76018E01035F1F4F22E072
S113487048E0C701B6010E9421331092A4021092AD
S1134880A30221E0222309F4D5C0809107018111FC
S113489002C08091AC02882349F08BB18F778BB929
S11348A0EFECF7E03197F1F700C000008091790355
S11348B090917A03A0917B03B0917C038058934438
S11348C0AD46B84324968CAF9DAFAEAFBFAF24972F
S11348D0BE016F5F7F4F8CE0DB011D928A95E9F783
S11348E0CE01805C9F4F0E944B017981E72E072EF9
S11348F0000CFF086A81062F062E000C110B5B8149
S1134900A52F052E000CBB0B9C80E92D092C000C57
S1134910FF0B8E81082E000C990B01962F81388590
S11349202459384FD090AB02DD2039F00F2EF8E532
S1134930CF2EF1E0DF2EF02D06C00F2EFEECCF2E91
S1134940F1E0DF2EF02D5E0146E1A40EB11CBF9212
S1134950AF925E0144E2A40EB11CBF92AF925E011D
S11349604DE0A40EB11CBF92AF925E014DE1A40EC6
S1134970B11CBF92AF925E014BE2A40EB11CBF9278
S1134980AF925E0142E3A40EB11CBF92AF925E01EE
S113499049E3A40EB11CBF92AF92FF927F931F9381
S11349A06F93BF935F93FF939F929F938F933F93D4
S11349B02F93DF92CF9283ED91E09F938F931F9279
S11349C084E68F938BE392E09F938F930E94E1346C
S11349D08DE080939D0210929E02809107010FB694
S11349E0F894DEBF0FBECDBF882321F08BE392E0A5
S11349F00E94872E8091AC02882321F08BE392E001
S1134A000E94F32E8091AB028823A1F00F2EFBE3CA
S1134A10CF2EF2E0DF2EF02DE980FA800B811C818D
S1134A202D813E814F81588569857A858B859C854A
S1134A300E946D1F0E946A2E8823E1F3EFE1FEE4D9
S1134A403197F1F700C000008091AC02811103C0DE
S1134A508BB180688BB98091AB02882309F45BC069
S1134A608BB180628BB98FE493EC0197F1F700C0AE
S1134A7000008BB18F7D8BB94EC08BB18F778BB912
S1134A80AFECB7E01197F1F700C000008091A202EB
S1134A90811107C089E092E00E94472F86E080934D
S1134AA0A2028091A20281508093A2028091A1026D
S1134AB0882319F042E050E002C041E050E01416AF
S1134AC015064CF58BB180628BB9EFE4F3EC3197AA
S1134AD0F1F700C000008BB18F7D8BB921E030E08D
S1134AE024173507C4F4FFEF60E782E0F15060401B
S1134AF08040E1F700C000008BB180628BB9AFE465
S1134B00B3EC1197F1F700C000008BB18F7D8BB926
S1134B102F5F3F4FE5CFCD5BDF4F0FB6F894DEBF7D
S1134B200FBECDBFDF91CF91FF91EF91BF91AF91B8
S1134B309F918F917F916F915F914F913F912F91B1
S1134B401F910F91FF90EF90DF90CF90BF90AF90A7
S1134B509F908F900F900FBE0F901F9018951F92EB
S1134B600F920FB60F9211242F933F934F938F936D
S1134B709F93109278031092A10288B18D7F88B917
S1134B8085B18E7F85B98BB180628BB98FE493EC4C
S1134B900197F1F700C000008BB18F7D8BB921E044
S1134BA030E023303105C4F49FEF40E782E09150B8
S1134BB040408040E1F700C000008BB180628BB9B7
S1134BC08FE493EC0197F1F700C000008BB18F7D67
S1134BD08BB92F5F3F4FE5CF9F918F914F913F91BD
S1134BE02F910F900FBE0F901F901895F999FECF3B
S1134BF089E390E00E94F639843509F4B3C0F99949
S1134C00FECF40E050E060E87FE385E390E00E945F
S1134C101C3AF999FECF40E050E0BA0181E390E0FC
S1134C200E941C3AF999FECF40E050E060E87FE32F
S1134C308DE290E00E941C3AF999FECF40E050E0EA
S1134C40BA0189E290E00E941C3AF999FECF40E053
S1134C5050E060E87FE385E290E00E941C3AF99915
S1134C60FECF40E050E0BA0181E290E00E941C3A9D
S1134C70F999FECF40E050E060E87FE38DE190E0F9
S1134C800E941C3AF999FECF40E050E0BA0189E154
S1134C9090E00E941C3AF999FECF40E050E060E8B1
S1134CA07FE385E190E00E941C3AF999FECF40E051
S1134CB050E0BA0181E190E00E941C3AF999FECFDC
S1134CC04AE959E969EB7FE38DE090E00E941C3AE0
S1134CD0F999FECF64E58CE090E00E940A3AF999D4
S1134CE0FECF64E58BE090E00E940A3AF999FECF8A
S1134CF064E58AE090E00E940A3AF999FECF64E5FF
S1134D0089E090E00E940A3AF999FECF6CE370E0E2
S1134D1087E090E00E94283AF999FECF6CE370E0B6
S1134D2085E090E00E94283AF999FECF6CE370E0A8
S1134D3083E090E00E94283AF999FECF6CE370E09A
S1134D4081E090E00E94283AF999FECF66E480E081
S1134D5090E00E942E3AF999FECF64E589E390E051
S1134D600E942E3AF999FECF85E390E00E94FE3925
S1134D7060932D0170932E0180932F019093300145
S1134D80F999FECF81E390E00E94FE396093960387
S1134D90709397038093980390939903F999FECFA6
S1134DA08DE290E00E94FE396093290170932A01FC
S1134DB080932B0190932C01F999FECF89E290E026
S1134DC00E94FE396093920370939303809394033B
S1134DD090939503F999FECF85E290E00E94FE3905
S1134DE060932501709326018093270190932801F5
S1134DF0F999FECF81E290E00E94FE3960938E0320
S1134E0070938F038093900390939103F999FECF4D
S1134E108DE190E00E94FE3960932101709322019C
S1134E208093230190932401F999FECF89E190E0C6
S1134E300E94FE3960938A0370938B0380938C03E2
S1134E4090938D03F999FECF85E190E00E94FE399D
S1134E5060931D0170931E0180931F0190932001A4
S1134E60F999FECF81E190E00E94FE3960938603B8
S1134E70709387038093880390938903F999FECFF5
S1134E808DE090E00E94FE396093190170931A013D
S1134E9080931B0190931C010895CF92DF92EF92AF
S1134EA0FF920F931F93CF93DF9300D000D01F92F4
S1134EB0CDB7DEB78C011D82BC016D5F7F4F44E02E
S1134EC050E0CE0101960E94B534CE0101960E94B5
S1134ED080340E9438302FE632E143E85AE30E94DE
S1134EE0ED306B017C012DEC3CEC4CE45FE30E9463
S1134EF0E8308823D4F02AE939E949E95FE3C701B6
S1134F00B6010E94BF2F181684F0C0922D01D092D2
S1134F102E01E0922F01F0923001F999FECFB701F2
S1134F20A60185E390E00E941C3A44E050E0B801F9
S1134F30695F7F4FCE0101960E94B534CE01019680
S1134F400E9480340E9438302AE037ED43E25CE36B
S1134F500E94ED306B017C0120E030E040E450EC35
S1134F600E94E8308823D4F020E030E040E450E4AC
S1134F70C701B6010E94BF2F181684F0C092960391
S1134F80D0929703E0929803F0929903F999FECF97
S1134F90B701A60181E390E00E941C3A44E050E08E
S1134FA0B801655F7F4FCE0101960E94B534CE01F2
S1134FB001960E9480340E9438302FE632E143E8A3
S1134FC05AE30E94ED306B017C012DEC3CEC4CE487
S1134FD05FE30E94E8308823D4F02AE939E949E9FB
S1134FE05FE3C701B6010E94BF2F181684F0C09278
S1134FF02901D0922A01E0922B01F0922C01F99917
S1135000FECFB701A6018DE290E00E941C3A44E075
S113501050E0B801615F7F4FCE0101960E94B53424
S1135020CE0101960E9480340E9438302AE037ED88
S113503043E25CE30E94ED306B017C012AE037ED32
S11350404FE151EC0E94E8308823D4F02AE037ED98
S11350504FE151E4C701B6010E94BF2F181684F036
S1135060C0929203D0929303E0929403F09295033A
S1135070F999FECFB701A60189E290E00E941C3A9B
S113508044E050E0B8016D5E7F4FCE0101960E946E
S1135090B534CE0101960E9480340E9438302FE648
S11350A032E143E85AE30E94ED306B017C012DECC0
S11350B03CEC4CE45FE30E94E8308823D4F02AE916
S11350C039E949E95FE3C701B6010E94BF2F181609
S11350D084F0C0922501D0922601E0922701F0923B
S11350E02801F999FECFB701A60185E290E00E945C
S11350F01C3A44E050E0B801695E7F4FCE0101964E
S11351000E94B534CE0101960E9480340E9438304A
S11351102AE037ED43E25CE30E94ED306B017C0151
S113512020E030E040E450EC0E94E8308823D4F0E2
S113513020E030E040E450E4C701B6010E94BF2FF4
S1135140181684F0C0928E03D0928F03E0929003DD
S1135150F0929103F999FECFB701A60181E290E0A4
S11351600E941C3A44E050E0B801655E7F4FCE01D6
S113517001960E94B534CE0101960E9480340E94AB
S113518038302FE632E143E85AE30E94ED306B01F8
S11351907C012DEC3CEC4CE45FE30E94E830882376
S11351A0D4F02AE939E949E95FE3C701B6010E946D
S11351B0BF2F181684F0C0922101D0922201E092F0
S11351C02301F0922401F999FECFB701A6018DE1E4
S11351D090E00E941C3A44E050E0B801615E7F4FC9
S11351E0CE0101960E94B534CE0101960E9480340E
S11351F00E9438306B017C0120E030EC49E754EC2C
S11352000E94E8308823D4F020E030EC49E754E4ED
S1135210C701B6010E94BF2F181684F0C0928A03FA
S1135220D0928B03E0928C03F0928D03F999FECF18
S1135230B701A60189E190E00E941C3A44E050E0E5
S1135240B8016D5D7F4FCE0101960E94B534CE0149
S113525001960E9480340E9438302FE632E143E800
S11352605AE30E94ED306B017C012DEC3CEC4CE4E4
S11352705FE30E94E8308823D4F02AE939E949E958
S11352805FE3C701B6010E94BF2F181684F0C092D5
S11352901D01D0921E01E0921F01F0922001F999A4
S11352A0FECFB701A60185E190E00E941C3A44E0DC
S11352B050E0B801695D7F4FCE0101960E94B5347C
S11352C0CE0101960E9480340E9438302FE632E1EC
S11352D043E85AE30E94ED306B017C0120E030E0AA
S11352E040E05FEB0E94E8308823D4F020E030E017
S11352F040E05FE3C701B6010E94BF2F181684F097
S1135300C0928603D0928703E0928803F0928903C7
S1135310F999FECFB701A60181E190E00E941C3A01
S1135320B801655D7F4F44E050E0CE0101960E94D4
S1135330B534CE0101960E9480340E9438302FE6A5
S113534032E143E85AE30E94ED306B017C0123E330
S113535033E343EB5FE30E94E8308823D4F020E09A
S113536030E040EC5FE3C701B6010E94BF2F18167E
S113537084F0C0921901D0921A01E0921B01F092BC
S11353801C01F999FECFB701A6018DE090E00E94BF
S11353901C3A0F900F900F900F900F90DF91CF91C8
S11353A01F910F91FF90EF90DF90CF9008952F926F
S11353B03F924F925F926F927F928F929F92AF92A1
S11353C0BF92CF92DF92EF92FF920F931F93CF93EE
S11353D0DF93CDB7DEB7CC54D1090FB6F894DEBF56
S11353E00FBECDBF2A968FAF2A972B969FAF2B97D0
S11353F02C966FAF2C972D967FAF2D9760912D0132
S113540070912E0180912F01909130018E010F5FD8
S11354101F4F23E045E00E94213360919603709171
S1135420970380919803909199031E0127E0220E1F
S1135430311C810122E045E00E9421336091290161
S113544070912A0180912B0190912C012E013DE055
S1135450430E511C820123E045E00E9421336091F8
S113546092037091930380919403909195039E010C
S11354702D5E3F4F25963FAF2EAF2597890122E041
S113548045E00E94213360912501709126018091AD
S11354902701909128019E01275E3F4F27963FAF39
S11354A02EAF2797890123E045E00E9421336091C4
S11354B08E0370918F0380919003909191039E01CC
S11354C0215E3F4F29963FAF2EAF2997890122E0F5
S11354D045E00E9421336091210170912201809165
S11354E02301909124017E0135E2E30EF11C870132
S11354F023E045E00E94213360918A0370918B037D
S113550080918C0390918D036E012BE2C20ED11C0D
S1135510860120E044E00E94213360911D017091D6
S11355201E0180911F01909120015E0130E3A30EC2
S1135530B11C850123E045E00E942133609186037C
S11355407091870380918803909189034E0126E32B
S1135550820E911C840123E046E00E942133609175
S1135560190170911A0180911B0190911C013E0157
S11355703DE3630E711C830123E045E00E94213367
S11355807F926F929F928F92BF92AF92DF92CF924F
S1135590FF92EF9229968FAD29978F9328969FAD0E
S11355A028979F9327962FAD27972F9326963FAD45
S11355B026973F9325968FAD25978F9324969FAD7D
S11355C024979F935F924F923F922F9221E030E075
S11355D02C0F3D1F3F932F932D963FAD2D973F9357
S11355E02C968FAD2C978F938EE092E09F938F93A0
S11355F02B969FAD2B979F932A962FAD2A972F9387
S11356000E9411350FB6F894DEBF0FBECDBFC45B48
S1135610DF4F0FB6F894DEBF0FBECDBFDF91CF9141
S11356201F910F91FF90EF90DF90CF90BF90AF90BC
S11356309F908F907F906F905F904F903F902F90AE
S11356400895F999FECF80E090E00E94F63991E048
S1135650843509F090E090938503F999FECF8CE0AE
S113566090E00E94F63991E0843509F090E090933F
S11356701801F999FECF87E090E00E94043A9093D4
S1135680140180931301F999FECF8BE090E00E94FE
S1135690F63991E0843509F090E090931701F99977
S11356A0FECF85E090E00E94043A9093120180932B
S11356B01101F999FECF8AE090E00E94F63991E059
S11356C0843509F090E090931601F999FECF83E0B8
S11356D090E00E94043A9093100180930F01F9998D
S11356E0FECF89E090E00E94F63991E0843509F01C
S11356F090E090931501F999FECF81E090E00E942B
S1135700043A90930E0180930D010895F999FECF08
S113571080918503882311F064E501C066E480E08C
S113572090E00E940A3AF999FECF809118018823EB
S113573011F064E501C066E48CE090E00E940A3A4E
S1135740F999FECF609113017091140187E090E004
S11357500E94283AF999FECF80911701882311F00D
S113576064E501C066E48BE090E00E940A3AF9998E
S1135770FECF609111017091120185E090E00E94CA
S1135780283AF999FECF80911601882311F064E537
S113579001C066E48AE090E00E940A3AF999FECFDB
S11357A060910F017091100183E090E00E94283A0B
S11357B0F999FECF80911501882311F064E501C0A9
S11357C066E489E090E00E940A3AF999FECF60917C
S11357D00D0170910E0181E090E00E94283A089535
S11357E085E88A95F1F70000089587B18F7D87B920
S11357F00E94F02B089587B1806287B90E94F02B34
S1135800089587B18F7D87B987B1806187B90E9478
S1135810F02B0E94FB2B0895CF93DF93D82FC0E089
S1135820C830A0F40E94FB2BDD2324F487B18F7EC3
S113583087B903C087B1806187B90E94F02B0E94A9
S1135840F52B359BFECFDD0FCF5FEACF0E94FB2BFC
S113585087B18F7E87B90E94F02B87B18F7D87B97E
S1135860359BFECF0E94F02BC6B1C295CF7081E06C
S1135870C827C1700E94FB2B8C2FDF91CF91089514
S113588080E58A95F1F7089587B1806187B90E9410
S1135890F02B87B18F7D87B90E94402C87B18F7E12
S11358A087B90E94F02B08951F93CF93DF93182F8D
S11358B0C0E0D0E0C83098F40E94FB2B0E94F52B86
S11358C0359BFECF349B09C080E890E00C2E02C0CB
S11358D0959587950A94E2F7D82BCF5FEBCF0E947A
S11358E0FB2B112321F087B1806187B903C087B1F5
S11358F08F7E87B90E94F02B0E94F52B0E94FB2B10
S113590087B18F7E87B90E94402C8D2FDF91CF9174
S11359101F91089587B18F7C87B988B1807388B946
S11359200895CF93C82F0E94012C8C2F0E940C2C19
S113593081E00E940C2C8EEC0E940C2C80E00E94D2
S11359400C2C0E94442C8FEC97E00197F1F700C0D7
S113595000000E94012C8C2F0E940C2C80E00E94DD
S11359600C2C0E94442C8FEC97E00197F1F700C0B7
S11359700000CF9108958F929F92AF92BF92CF92E1
S1135980DF92EF92FF920F931F93CF93DF938C01DB
S11359906B010E94012C80E70E940C2C8EEB0E946C
S11359A00C2C88E00E940C2C80E00E940C2C0E949D
S11359B0442C8FE19EE40197F1F700C000000E949F
S11359C0012C80E70E940C2C85EF0E940C2CEFE345
S11359D0FCE93197F1F700C000000E94442C0E94BA
S11359E0012C80E70E940C2C83EF0E940C2C8FE387
S11359F09CE90197F1F700C000000E94442C0E942A
S1135A00012C80E70E940C2C8CEA0E940C2C83E36E
S1135A100E940C2C80E00E940C2C0E94442C9FEFCE
S1135A20E0E7F2E09150E040F040E1F700C0000010
S1135A300E94012C81E70E940C2C81E00E94542CCE
S1135A40882394F480E090E0A6ECB2ECF601808325
S1135A509183A283B383F80180839183A283B38368
S1135A600E94442C80E0B7C081E00E94542CB82EE0
S1135A7081E00E94542CE82E81E00E94542CC82F0F
S1135A8081E00E94542CF82E81E00E94542CD82FDF
S1135A9080E00E94542C0E94442C6B2D70E080E026
S1135AA090E00E94383020E030E0A9010E94532F9A
S1135AB020E030E040E853E40E94ED304B015C010B
S1135AC06E2D70E080E090E00E943830A5019401D2
S1135AD00E94532F20E030E040E851E40E94ED3072
S1135AE04B015C016C2F70E0759567957595679512
S1135AF07595679575956795072E000C880B990B1E
S1135B000E943830A50194010E94532F20E030E018
S1135B1048EC52E40E94ED3020E030E040E85AE3E3
S1135B200E94ED3020E030E040E85AE30E94ED307E
S1135B30F60160837183828393836C2F6F7070E0AE
S1135B4080E090E00E94383020E030E0A9010E941B
S1135B50532F20E030E040E853E40E94ED304B0145
S1135B605C016F2D70E080E090E00E943830A50168
S1135B7094010E94532F20E030E040E853E40E9457
S1135B80ED306B017C016D2F70E080E090E00E94AD
S1135B903830A70196010E94532F20E030E048E4FA
S1135BA053E40E94ED3020E030E040E85AE30E94E4
S1135BB0ED3020E030E040E85AE30E94ED3020E090
S1135BC030E048E452E40E94522FF801608371836C
S1135BD08283938381E0DF91CF911F910F91FF9096
S1135BE0EF90DF90CF90BF90AF909F908F900895EB
S1135BF0CF92DF92EF92FF920F931F93CF93DF9395
S1135C00C82F0E94012C81E08C0F0E940C2C25E8E7
S1135C102A95F1F7000081E00E94542CC82F80E0FF
S1135C200E94542CD82F0E94442C8C2F82958F7064
S1135C30CF706C2F70E0762F66279B012D0F311DDE
S1135C40E901682F70E080E090E00E9438309B0109
S1135C50AC0160E070E080E090E40E945A312AE0F8
S1135C6037ED43E25CE30E94ED306B017C01BE0141
S1135C70DD0F880B990B0E943830A70196010E9412
S1135C80ED30062F172FD82FC92F2DEC3CEC43EA0B
S1135C9057E40E94E830181624F400E010E0D0E045
S1135CA0C0E0602F712F8D2F9C2FDF91CF911F911A
S1135CB00F91FF90EF90DF90CF9008951092C50060
S1135CC083E38093C40088E98093C10086E08093D5
S1135CD0C20008958091C00085FB882780F908954B
S1135CE09091C00095FFFCCF8093C6000895AC014D
