:100000000C9450010C946D010C946D010C946D01D5
:100010000C945B220C946D010C94BE270C9434223A
:100020000C946D010C946D010C946D010C946D0198
:100030000C946D010C946D010C946D010C946D0188
:100040000C946D010C946D010C946D010C94BF2106
:100050000C946D010C946D010C946D010C946D0168
:100060000C946D010C946D010C946D010C946D0158
:100070000C946D010C946D010C946D010C946D0148
:100080000C946D010C946D010C946D010C946D0138
:100090000C946D010C946D010C946D010C946D0128
:1000A0000C946D010C946D010C946D010C946D0118
:1000B00064186F18941BEC188C19941B941B541A19
:1000C000941B941B941B941B941B941B941B941BB8
:1000D000941B941B941B941B941B941B941B941BA8
:1000E000941B941B941B941B941B941B941B941B98
:1000F000941B941B941B941B941B941B941B941B88
:10010000941B941B941B941B941B941B941B941B77
:10011000941B941BE319E919011A191A391A5D1A6B
:10012000CF1A3D1B07634236B79BD8A71A396856CA
:1001300018AEBAAB558C1D3CB7CC5763BD6DEDFD09
:10014000753EF6177231BF000000803F08000000C6
:10015000BE922449123EABAAAA2ABECDCCCC4C3EBC
:1001600000000080BEABAAAAAA3E00000000BF00AB
:100170000000803F0000000000084178D3BB4387A7
:10018000D1133D190E3CC3BD4282AD2B3E68EC82BB
:1001900076BED98FE1A93E4C80EFFFBE01C4FF7F40
:1001A0003F000000000000407A10F35A00A0724E99
:1001B00018090010A5D4E80000E87648170000E40C
:1001C0000B54020000CA9A3B000000E1F505000054
:1001D00080969800000040420F000000A0860100B9
:1001E0000000102700000000E80300000000640089
:1001F000000000000A0000000000010000000000F4
:100200002C76D888DC674F0823DFC1DFAE59E1B117
:10021000B796E5E3E453C63AE651997696E8E6C226
:100220008426EB898C9B62ED407C6FFCEFBC9C9F2D
:1002300040F2BAA56FA5F490055A2AF75C936B6C4F
:10024000F9676DC11BFCE0E40D47FEF520E6B50043
:10025000D0ED902E0300943577050080841E0800B1
:1002600000204E0A000000C80C333333330F986E61
:1002700012831141EF8D2114893BE65516CFFEE61E
:10028000DB18D1844B381BF77C1D901DA4BBE424E4
:10029000203284725E228100C9F124ECA1E53D2761
:1002A00011241FBECFEFCDBFDFE7DEBF11E6A0E018
:1002B000B0E6E6E7F0E802C005900D92AC38B10771
:1002C000D9F723E6ACE8B1E601C01D92AD3AB2071A
:1002D000E1F70E941D210C9439400C940000A8E025
:1002E000B0E0E5E7F1E00C9409408B01FC0160818E
:1002F00071818281938120E831E541E050E00E94E4
:10030000443869017A012CE330E040E050E00E947B
:10031000E03F29833A834B835C8389819A81AB8157
:10032000BC81F80160836CE370E00E94CC3FDC018B
:10033000CB01F801A1838283C601069667E070E0D5
:100340000E94B83F84832DEA3EE840E050E0C701B8
:10035000B6010E94E03F29833A836D837E838F83B9
:10036000988789819A8124E6289F6001299FD00C73
:1003700011246D817E818F81988525EB35E040E0E9
:1003800050E00E94E03F29833A836D837E83E980B9
:10039000FA80EE0CFF1CEE0CFF1CEC0CFD1C8D819A
:1003A0009E81F5E6EF16F10410F0019604C024E6F4
:1003B000E216F10419F021E030E002C020E030E064
:1003C000A90144595E4F4817590768F46DE671E07A
:1003D000821B930B0E94CC3FDC01CB01E80EF91E7F
:1003E000CD0120E030E044E6E40EF11CF801E682A5
:1003F000F78280879187255C3F4F8217930748F4E7
:100400006FE170E00E94CC3FDC01CB01F8018583F5
:1004100022C069E970E0821B930B0E94CC3FDC0193
:10042000CB01F82EFF0CFF0CF80E6DE370E0CD0150
:100430000E94CC3FDC01CB01E82EEE0C6FE170E0B6
:10044000CD010E94CC3FDC01CB0122E0280FF20E4F
:10045000FE0CF801F582A383F801128613868381CE
:100460008F5F83832896E8E00C942240FC01218171
:1004700030E0322F22278081A901482BCA0108953C
:10048000FC016381862F90E0A0E0B0E0BA2FA92F95
:10049000982F88272281822BBA2FA92F982F88275F
:1004A0002181822BBA2FA92F982F88272081BC0168
:1004B000CD01622B0895FC01608371830895FC01D6
:1004C00040835183628373830895DC01FB014115EE
:1004D000510549F080818C93415051091196319614
:1004E00041155105B9F70895FC0160834150510948
:1004F000319641155105C9F70895CF93DF93DC017B
:10050000FB01ED0121968C9190E0BF016F5F7F4F61
:100510002081821B91094150510921F0DE01FB012C
:10052000009779F3DF91CF910895FC0101C03196D6
:100530008081882329F0282F30E026173707B9F764
:1005400090E00895813848F0803A50F0803E58F0AD
:100550008D3F60F080E090E0089580E090E00895A5
:1005600081E090E0089580E090E0089581E090E0DF
:100570000895803458F08F3760F0803810F08D3F48
:1005800058F0882361F080E090E0089580E090E0EA
:10059000089581E090E0089581E090E0089581E081
:1005A00090E00895CF92DF92EF92FF92FC019A01C2
:1005B000AB012250310941095109C788D08CE18C27
:1005C000F28C82E0C81AD108E108F1082C153D052B
:1005D0004E055F0568F4C3A4D4A4E5A4F6A4A185E0
:1005E000B2850E947B386C0D7D1D8E1D9F1D03C042
:1005F00060E070E0CB01FF90EF90DF90CF90089526
:10060000CF92DF92EF92FF920F931F93CF93DF93DE
:100610008C01EB01CB014A960E9436026C01E12C61
:10062000F12CF8018081833069F4CE0144960E9458
:100630003602A0E0B0E0DC0199278827C82AD92A31
:10064000EA2AFB2AC701B601DF91CF911F910F91D2
:10065000FF90EF90DF90CF900895CF92DF92EF92CE
:10066000FF920F931F93CF93DF938C01EB016901EE
:100670007A01B901CE014A960E945B02F80180819D
:10068000833039F4B70188279927CE0144960E9418
:100690005B02DF91CF911F910F91FF90EF90DF9060
:1006A000CF9008953F924F925F926F927F928F9278
:1006B0009F92AF92BF92CF92DF92EF92FF920F93F1
:1006C0001F93CF93DF933C012B01FB01C081D181AC
:1006D0005C01FCE1AF0EB11C4BE050E060E270E069
:1006E000C5010E94740288818E3269F540E050E0B5
:1006F00080E090E09C012F5F3F4FFE01E80FF91F63
:1007000080818E3259F42330310540F4F501E40F35
:10071000F51F8083C9014F5F5F4FECCF8F3229F007
:100720008C3519F0813208F09FC0C20FD31FF2013F
:10073000C083D183813210F484E201C080E2F301EE
:1007400087A380E09EC0C12CD12CE12CF12C6894B1
:10075000882483F8912C87010F5F1F4FFE01EE0D57
:10076000FF1D3080F0E2F31508F067C08FE2381605
:1007700031F09CE539120CC002C00F5F1F4FFE0123
:10078000E00FF11F80818F32C1F38C35B1F355C07A
:10079000EEE23E1619F0C814D90498F0FBE08F166B
:1007A000910409F463C08EE2381262C07801689443
:1007B000CC24C3F8D12C0F2EFBE08F2E912CF02DE2
:1007C000CACF832D0E94A202892B01F192E0E90E8B
:1007D000F11CFE01E00FF11F1081812F0E94B90270
:1007E000892B09F447C0C4010197C816D90608F03F
:1007F00043C0F501EC0DFD1D3082F6013196EA0D86
:10080000FB1D82E0C80ED11C1083A5CF632D70E0C4
:1008100087E390E60E949502892B81F58FE9830D8D
:100820008A3110F490EE390EF501EC0DFD1D308289
:10083000F60131966F0178018ECFC00FD11FF20102
:10084000C083D183CD28E1F0F301848D853E11F47E
:1008500085E0848FF0E2F31510F084E001C080E0C1
:10086000F30187A380E00DC086E00BC086E009C0DD
:1008700086E007C086E005C086E003C086E001C0D0
:1008800086E0DF91CF911F910F91FF90EF90DF9065
:10089000CF90BF90AF909F908F907F906F905F9020
:1008A0004F903F900895CF93DF93EC01A881B981D9
:1008B000109729F48FEF9FEF2AC0319601C0FD01F8
:1008C0009081913210F09A33C1F79A33A9F4CD0197
:1008D00001962C9130E0205331092A30310578F40B
:1008E000E817F90779F42115310579F4822F932F50
:1008F0003196E883F9830BC080E090E008C08FEF69
:100900009FEF05C08FEF9FEF02C08FEF9FEFDF914A
:10091000CF910895FC016083718312821382148247
:10092000158208950F931F93CF93DF93EC018B01F2
:10093000892BA9F0E881F981309799F0808188238B
:1009400091F02A813B81858196812817390769F4C6
:1009500081810E94D11B80FF0AC089E009C089E023
:1009600007C089E005C089E003C089E001C080E0DC
:10097000811103C02881398102C020E030E0F801F4
:1009800020833183DF91CF911F910F9108958F9232
:100990009F92AF92BF92EF92FF920F931F93CF93CC
:1009A000DF93FC0123812223D1F1EC017C01F3E3ED
:1009B000EF0EF11C2FA538A949A95AA901E010E0B2
:1009C000B70189810E94DF1B81112BC01B820FA5FB
:1009D00018A929A93AA98BA19CA1ADA1BEA1480142
:1009E0005901881A990AAA0ABB0A8B8D9C8DAD8D74
:1009F000BE8D88169906AA06BB06A8F46A816230E5
:100A0000A1F4A9019801280F391F4A1F5B1F01E0BB
:100A100010E0B70189810E94DF1B80E007C080E001
:100A200005C081E003C080E001C080E0DF91CF918C
:100A30001F910F91FF90EF90BF90AF909F908F907C
:100A400008958F929F92AF92BF92FF920F931F9340
:100A5000CF93DF93EC014A015B018FA598A9A9A967
:100A6000BAA984179507A607B707E9F0CE010E9437
:100A7000C704F82E811118C001E010E0A50194010F
:100A8000BE016D5C7F4F89810E94D41B882331F0A9
:100A9000FF24F39488248A94982C54018FA698AA52
:100AA000A9AABAAA01C0F12C8F2DDF91CF911F9175
:100AB0000F91FF90BF90AF909F908F900895CF932C
:100AC000DF93EC011B828FEF9FEFDC018FA798ABC8
:100AD000A9ABBAABCE010E942105811128C0CE017D
:100AE0008F5C9D4F0E94360285359A4A11F58BA97D
:100AF000893E29F08B3EF9F48DA98039F1F443E069
:100B000050E066E470E6CE0187599F4F0E947D0257
:100B1000892BA9F045E050E06AE470E6CE018B57DE
:100B20009F4F0E947D02892B61F480E00BC084E01E
:100B300009C083E007C082E005C082E003C080E016
:100B400001C082E0DF91CF9108954F925F926F9242
:100B50007F928F929F92AF92BF92CF92DF92EF924D
:100B6000FF920F931F93CF93DF93CDB7DEB7A0977C
:100B7000CDBFDEBF6B01B42EDB011D921C920E9423
:100B800053047C0199230CF474C2FC01EE0FFF1F87
:100B9000E257FE49008111810115110509F46BC26C
:100BA000F60100831183FB2DFE7FBF2ED8018C91AF
:100BB000882369F011968C910E94D11B80FD07C09B
:100BC000BB2009F45AC282FD5AC280E07BC2F80100
:100BD0001082E1828E2D0E94CE1B80FD52C2BB206E
:100BE00011F082FD50C240E050E0BA01C8010E94FD
:100BF0005F05823079F1C12CD12C760157C0F70105
:100C0000E295F295F07FFE27E07FFE27E254FE4F4B
:100C1000C801C396E80FF91F8481882329F0CF010A
:100C200008960E94400203C060E070E0CB01F7012B
:100C3000EE0FFF1FEE0FFF1F21E030E02C0F3D1FD6
:100C4000E20FF31F60837183828393833FEFE31A84
:100C5000F30A02C0E12CF12C44E0E416F10478F22E
:100C6000A12CB12CF501EE0FFF1FEE0FFF1F61E06D
:100C700070E06C0F7D1FE60FF71FC080D180E2800F
:100C8000F380C114D104E104F10431F0B701A601ED
:100C9000C8010E945F0501C083E0823038F07FEF19
:100CA000A71AB70A94E0A916B104E0F2843009F457
:100CB000ECC1823008F0EBC1C801CE960E9436022A
:100CC0008115924009F0E5C1C801875B9F4F0E94E2
:100CD00036029C0140E050E0298B3A8B4B8B5C8BB9
:100CE000232B242B252B49F4C801895A9F4F0E949E
:100CF0004002698B7A8B8B8B9C8B49895A896B89D3
:100D00007C89D8015B964D935D936D937C935E9740
:100D1000F801ED5BFF4FA081F801A2838FEF8A0FEE
:100D2000823008F0B8C1B0E09A01AB010E947B3874
:100D3000698F7A8F8B8F9C8FE05CFF4FA080B12CE6
:100D4000D8011996AD92BC921A97A114B10409F476
:100D5000A4C1C50101978A219B21892B09F09FC15C
:100D6000C8018C5B9F4F0E9436024C01F8018783BB
:100D700090878F709927892B09F093C1C8018A5BEE
:100D80009F4F0E9436022C01612C712C411451049A
:100D90006104710439F4C8018D5A9F4F0E944002CA
:100DA0002B013C01C8018F5B9F4F0E9436020097C8
:100DB00009F479C19C0140E050E02D8F3E8F4F8FA8
:100DC00058A3898D9A8DAB8DBC8D820F931FA41F64
:100DD000B51F9401329522952F7023273F7023274A
:100DE000AC01BD01420F531F611D711D4D8B5E8B08
:100DF0006F8B788F441655066606770608F455C142
:100E0000C301B2012D893E894F89588D621B730B36
:100E1000840B950B950140E050E00E944438DA01C4
:100E2000C901211531054105510509F440C1263F8D
:100E30006FEF360746076FE0560710F0B12C04C07D
:100E40000F2EF3E0BF2EF02D863F7FEF9707A10511
:100E5000B10518F46894BB24B1F8863F9F40A10502
:100E6000B10510F4BB24B394BB2009F422C12901BD
:100E70003A01F2E04F0E511C611C711CD8015796CB
:100E80004D925D926D927C925A97F801C78ED0A2D6
:100E9000E1A2F2A28D8D9E8DAF8DB8A18C0D9D1D0E
:100EA000AE1DBF1D83A394A3A5A3B6A34D895E89E0
:100EB0006F89788D4C0D5D1D6E1D7F1D43A754A756
:100EC00065A776A7F3E0BF1220C0C801835A9F4FE1
:100ED0000E943602892B09F0EEC0892809F0EDC086
:100EE000C801815A9F4F0E944002D80197966D9386
:100EF0007D938D939C939A97440C551C661C771C8C
:100F0000440C551C661C771C2DC0892809F4D7C0D9
:100F1000298D3A8D4B8D5C8D820F931FA41FB51FB9
:100F2000F80187A390A7A1A7B2A7F2E0BF1205C05E
:100F3000440C551C661C771C15C0A3E0B0E0A3014F
:100F400092010E947B38DC01CB01B695A79597955D
:100F5000879521E04222552466247724480E591EA5
:100F60006A1E7B1E3FEF430E31E0531E611C711C55
:100F7000032E39E076946794579447943A95D1F7C5
:100F8000302D49895A896B897C8944155505660538
:100F9000770508F496C08FEF9FEFDC01F801878793
:100FA000908BA18BB28B83879487A587B68780E8C7
:100FB0008483F3E0BF1247C0C8018D599F4F0E9440
:100FC0003602019709F03FC0B701A6014F5F5F4F9E
:100FD0006F4F7F4FC8010E942105811134C0D80195
:100FE00014961C92C8018F5C9D4F0E943602853575
:100FF0009A4A49F5C801C3960E944002623572457B
:101000008146914401F5C801895E9D4F0E944002CE
:101010006237724781449146B1F4C801855E9D4FA5
:101020000E944002D8011F966D937D938D939C93EF
:101030005297C801815E9D4F0E944002F80163876C
:10104000748785879687D801BC9280918C61909136
:101050008D61019680938C6190938D6115968D932F
:101060009C931697F801138A148A158A168A80E0D1
:1010700029C08BE027C08CE025C080E023C08AE037
:1010800021C083E01FC08AE01DC081E01BC08DE04D
:1010900019C08DE017C08DE015C08DE013C08DE044
:1010A00011C08DE00FC08DE00DC08DE00BC08DE054
:1010B00009C08DE007C08DE005C08DE003C08DE064
:1010C00001C08DE0A096CDBFDEBFDF91CF911F9113
:1010D0000F91FF90EF90DF90CF90BF90AF909F90D7
:1010E0008F907F906F905F904F9008952F923F92D6
:1010F0004F925F926F927F928F929F92AF92BF9228
:10110000CF92DF92EF92FF920F931F93CF93DF93D3
:1011100000D000D0CDB7DEB7423051056105710572
:1011200008F4F1C0FC01C788D08CE18CF28C4C151E
:101130005D056E057F0508F0E8C0280139016A01E8
:101140007B018B839C838081823009F475C083305E
:1011500009F499C0813009F0DAC05A01B694A79415
:10116000A40EB51E43A154A165A176A1C501892F86
:1011700099278695480F591F611D711DCF010E9447
:101180002105182F8111C4C02B813C812D5C3F4F5C
:1011900029833A8315013FEF231A330A81E0B822ED
:1011A000E981FA81EA0DFB1D4601570191E0892290
:1011B0009924AA24BB24C0FE08C0208130E1439EAC
:1011C000C00111242F70822B01C0842D808381E007
:1011D000EB81FC81838343A154A165A176A1C10168
:1011E000892F99278695480F591F611D711DCF01C1
:1011F0000E942105182F81118BC0F1E03F22E98167
:10120000FA81E20DF31D89288A288B2849F0689419
:1012100013F876946794579447941694D1F706C0C0
:101220009081907F852D8F70492E482A408281E0E1
:10123000EB81FC8183836CC0EB81FC8143A154A1D1
:1012400065A176A1BB27AF2D9E2D8D2D480F591F6F
:101250006A1F7B1FCF010E942105182F811158C0E2
:101260002B813C812D5C3F4FCC0CDD1CC6018E7F59
:101270009170B201820F931F0E945B0281E0EB81AB
:10128000FC81838345C0EB81FC8143A154A165A10E
:1012900076A1D701C601689416F8B695A7959795DB
:1012A00087951694D1F7480F591F6A1F7B1FCF01EE
:1012B0000E942105182F81112BC0FFE07F228B8116
:1012C0009C81C396CC0CDD1CCC0CDD1C2CEFC22207
:1012D00021E0D222C80ED91EC6010E944002DC01C4
:1012E000CB0188279927AA27B07FB301A201482BF9
:1012F000592B6A2B7B2BC6010E945F0281E0EB8198
:10130000FC81838305C012E003C012E001C012E03B
:10131000812F2496CDBFDEBFDF91CF911F910F911A
:10132000FF90EF90DF90CF90BF90AF909F908F9005
:101330007F906F905F904F903F902F900895AF9265
:10134000BF92CF92DF92EF92FF920F931F93CF93B2
:10135000DF93FC01C081D1814230510561057105E7
:1013600008F4A6C08F89988DA98DBA8D48175907A2
:101370006A077B0708F0A1C06A017B01888182307F
:1013800009F450C0833009F46DC0813009F09AC06F
:101390008A0116950795040F151F4BA15CA16DA13D
:1013A0007EA1C801892F99278695480F591F611D75
:1013B000711DCE010E942105811189C05801FFEFE6
:1013C000AF1ABF0A1170FE01E00FF11F03A910E070
:1013D0004BA15CA16DA17EA1C501892F992786959E
:1013E000480F591F611D711DCE010E9421058111F9
:1013F00072C081E0B822CA0DDB1D6BA970E0762FA8
:101400006627602B712BC0FE09C0729562956F70C4
:1014100067277F70672780E090E068C07F7080E07A
:1014200090E064C04BA15CA16DA17EA1BB27AF2D54
:101430009E2D8D2D480F591F6A1F7B1FCE010E94C4
:10144000210581114CC0CE01C396A601440F551F42
:101450004E7F5170840F951F0E943602BC0180E0C0
:1014600090E044C04BA15CA16DA17EA1D701C60153
:10147000689416F8B695A795979587951694D1F721
:10148000480F591F6A1F7B1FCE010E942105811141
:101490002AC0E396A601440F551F440F551FCA01E9
:1014A0008C7F91708C0F9D1F0E9440029F701EC008
:1014B00061E070E080E090E019C061E070E080E001
:1014C00090E014C061E070E080E090E00FC06FEF4A
:1014D0007FEFCB010BC06FEF7FEFCB0107C06FEF4A
:1014E0007FEFCB0103C06FEF7FEFCB01DF91CF9197
:1014F0001F910F91FF90EF90DF90CF90BF90AF9032
:1015000008954F925F926F927F928F929F92AF92C7
:10151000BF92CF92DF92EF92FF920F931F93CF93E0
:10152000DF93EC016A017B010881198141155105A6
:1015300080E26807710508F0ACC0DB01CA018F7159
:101540009927AA27BB27892B8A2B8B2B09F0A3C0AD
:101550004E875F87688B798B8E809F80A884B98443
:1015600081149104A104B10441F4F8018081833015
:1015700020F087A090A4A1A4B2A481149104A10496
:10158000B104F1F4F80187819085A0E0B0E0B701E3
:10159000A601689414F87695679557954795169423
:1015A000D1F7481759076A077B0708F076C087A16B
:1015B00090A5A1A5B2A58E8B9F8BA88FB98F40C097
:1015C000F80141845284612C712C032E39E0440CC3
:1015D000551C661C771C3A95D1F7302D23C0B501F8
:1015E000A401CE010E949F094B015C016F3F7F4F18
:1015F0008F4F9F4F09F453C082E088169104A104D5
:10160000B10408F44EC0F8018789908DA18DB28D88
:1016100088169906AA06BB0608F045C0C418D50866
:10162000E608F708C414D504E604F704C0F6B501CB
:10163000A401C8010E94D2026E8B7F8B888F998F84
:101640008A8A9B8AAC8ABD8A8E899F89A88DB98D2A
:101650000097A105B10549F1B701A601032E39E0B4
:1016600076956795579547953A95D1F7302D840F24
:10167000951FA61FB71F8E8B9F8BA88FB98F0D5CF0
:101680001F4FF1E0DF22C00ED11ECA8EDB8E80E03C
:101690000DC082E00BC082E009C082E007C081E09B
:1016A00005C082E003C082E001C082E0DF91CF91FB
:1016B0001F910F91FF90EF90DF90CF90BF90AF9070
:1016C0009F908F907F906F905F904F9008954F9272
:1016D0005F926F927F928F929F92AF92BF92CF92C2
:1016E000DF92EF92FF920F931F93CF93DF938C01C2
:1016F0002A013B01FC01C081D181411551056105E1
:10170000710599F48B849C84AD84BE84811491040A
:10171000A104B10431F18F89988DA98DBA8D8816F5
:101720009906AA06BB0610F525C00E949F096230E3
:1017300071058105910508F4F9C06F3FFFEF7F0740
:101740008F079F0709F403C1CF88D88CE98CFA8CE6
:101750006C157D058E059F0508F4F9C05301420103
:1017600009C0812C912C5401839404C0812C912CAC
:10177000540183946F85788989899A8961157105E7
:101780008105910509F4E3C084149504A604B70407
:1017900009F041C0750164012FEFC21AD20AE20AB2
:1017A000F20A8F89988DA98DBA8DC816D906EA06D6
:1017B000FB0628F0C12CD12C76016894C1F8B70142
:1017C000A601C8010E949F0961307105810591053C
:1017D00009F4BDC06F3FEFEF7E078E079E0709F447
:1017E000B6C0672B682B692B19F18B859C85AD855D
:1017F000BE8582309105A105B10588F04F89588DCD
:10180000698D7A8D84179507A607B70760F0C12CFC
:10181000D12C76010DC0C12CD12C760109C0C12C70
:10182000D12C760105C04C015D01C12CD12C760173
:10183000C114D104E104F104C9F575016401FFEF9D
:10184000CF1ADF0AEF0AFF0A8F89988DA98DBA8D0A
:10185000C816D906EA06FB0660F022E0821691045B
:10186000A104B10408F467C0C12CD12C760168949E
:10187000C1F8B701A601C8010E949F096115710551
:101880008105910599F0613071058105910509F493
:101890005EC06F3FEFEF7E078E079E0709F457C0CB
:1018A000C814D904EA04FB0451F649C00FEF1FEF36
:1018B0009801B701A601CE010E94760881110CC0E3
:1018C000411451046104710439F097018601B30198
:1018D000A201CE010E947608811122C0CB86DC864F
:1018E000ED86FE864F85588969897A898F89988D1A
:1018F000A98DBA8D0297A109B10984179507A6078A
:10190000B70740F041505109610971094F87588B61
:10191000698B7A8B8C8181608C83C701B60117C07B
:10192000813089F46FEF7FEFCB0111C061E070E08F
:1019300080E090E00CC060E070E0CB0108C060E0A7
:1019400070E0CB0104C061E070E080E090E0DF91E6
:10195000CF911F910F91FF90EF90DF90CF90BF90AC
:10196000AF909F908F907F906F905F904F90089571
:101970004F925F926F927F92AF92BF92CF92DF921F
:10198000EF92FF920F931F93CF93DF935C016A0155
:101990007B01B901A801FC01C081D181F2E0CF1621
:1019A000D104E104F10408F460C08F89988DA98DF9
:1019B000BA8DC816D906EA06FB0608F058C0012BF6
:1019C000022B032B41F00FEF1FEF9801CE010E9475
:1019D0007608811153C0B701A601C5010E949F0975
:1019E0002B013C01611571058105910509F441C088
:1019F0006130710581059105F1F18FEF48165806A8
:101A000068067806D1F100E010E09801B701A60160
:101A1000CE010E947608811131C08F859889A989ED
:101A2000BA894F89588D698D7A8D6A017B01E2E010
:101A3000CE1AD108E108F1088C159D05AE05BF0549
:101A400050F40196A11DB11D8F87988BA98BBA8B7D
:101A50008C8181608C837301620144165506660691
:101A6000770608F4B8CF80E009C082E007C082E0C2
:101A700005C080E003C082E001C081E0DF91CF912A
:101A80001F910F91FF90EF90DF90CF90BF90AF909C
:101A90007F906F905F904F9008958F929F92AF923A
:101AA000BF92CF92DF92EF92FF920F931F93CF934B
:101AB000DF93EC016A017B010E94C704811137C0EA
:101AC000B701A601CE010E94D2024B015C016FA7B3
:101AD00078AB89AB9AAB6E0183E3C80ED11C40E0B2
:101AE00052E060E070E0C6010E947402E12CF12C2B
:101AF00003C08FEFE81AF80A89859A85E816F90677
:101B000070F401E010E0A50194012E0D3F1D411D70
:101B1000511DB60189810E94DF1B882351F329855D
:101B20003A8581E0E216F30619F480E001C081E015
:101B3000DF91CF911F910F91FF90EF90DF90CF90A9
:101B4000BF90AF909F908F9008954F925F926F9249
:101B50007F928F929F92AF92BF92EF92FF920F93DC
:101B60001F93CF93DF93FC010081118186849784BA
:101B7000A088B18820E2820E911CA11CB11C86892C
:101B80009789A08DB18D0097A105B10509F4B7C063
:101B90008114910420E2A206B10408F0B2C07B01D6
:101BA000EF01B501A401517066277727452B462B1D
:101BB000472B09F096C00196A11DB11D868B978B0E
:101BC000A08FB18F42895389648975894115510568
:101BD00061057105D9F4F80187819085A0E0B0E036
:101BE000B501A401689414F87695679557954795C3
:101BF0001694D1F7481759076A077B0708F471C094
:101C00001E8A1F8A188E198E84E088C0F80181858B
:101C1000928501972C01612C712CD501C401072EEE
:101C200079E0B695A795979587957A95D1F7702D18
:101C300084219521A621B721892B8A2B8B2B09F092
:101C400050C0CE010E949F092B013C0162307105FA
:101C50008105910508F457C06F3F7F4F8F4F9F4F0D
:101C600009F453C0F8018789908DA18DB28D481673
:101C700059066A067B0640F1EF2831F41E8A1F8A56
:101C8000188E198E84E04AC04A895B896C897D89E7
:101C9000CE010E94670B2B013C0161157105810586
:101CA0009105A9F1613071058105910591F16F3FB1
:101CB0002FEF72078207920771F1AB01BC01C801D7
:101CC0000E944D0D811129C04A8A5B8A6C8A7D8AE7
:101CD000B301A201C8010E94D2026E8B7F8B888F54
:101CE000998F8E869F86A88AB98A0D5C1F4F81E0E6
:101CF0009822800E911E8A8E9B8E80E00FC084E019
:101D00000DC084E00BC082E009C081E007C087E01D
:101D100005C082E003C081E001C081E0DF91CF9186
:101D20001F910F91FF90EF90BF90AF909F908F9079
:101D30007F906F905F904F900895EF92FF921F9366
:101D4000CF93DF93EC01E880F98040E050E0BA01E6
:101D50000E94810A81112BC04E895F89688D798D1F
:101D6000C7010E942105182F81111DC0EA8DFB8D2E
:101D700080818823C9F083858F738C83838583FD5D
:101D80000AC04BE050E0BE01645E7F4FCF010E946D
:101D90007D02892B59F060E070E0CE010E94A50D14
:101DA0008823D1F204C003C084E001C0812FDF91F9
:101DB000CF911F91FF90EF900895DF92EF92FF92E5
:101DC0000F931F93CF93DF9300D0CDB7DEB78C0175
:101DD000FB0169837A83DC01ED90FC9080818F3276
:101DE00081F08C3571F0F70183899489A589B689D2
:101DF000F80186839783A087B18711C03196E98364
:101E0000FA83E981FA8180818F32C1F38C35B1F395
:101E1000D80116961D921D921D921C921997E98168
:101E2000FA818081803258F480E8F80187A340E08D
:101E300050E0BA01C8010E94810AD82E48C0BE01F4
:101E40006F5F7F4FC8010E945203D82E81113FC09F
:101E5000C8010E949D0ED80197969C919797882360
:101E600071F0843039F595FF06C092FFE8CF80E825
:101E700097968C932CC092FF1FC0D82E28C092FD3D
:101E800020C0F801848184FF1EC086859785A089C3
:101E9000B1899170B7016D5C7F4F680F791FC701E1
:101EA0000E940003D80116966D937D938D939C93A9
:101EB0001997C5CFD82E0BC00F2EF5E0DF2EF02DD1
:101EC00006C0D82E04C00F2EF5E0DF2EF02D8D2D8C
:101ED0000F900F90DF91CF911F910F91FF90EF9096
:101EE000DF900895CF92DF92EF92FF920F931F93AE
:101EF000CF93DF93EC016B01E880F98040E050E084
:101F0000BA010E94810A811121C000E010E04E89CF
:101F10005F89688D798DC7010E942105811116C0E6
:101F2000EA8DFB8D9081953E11F0911106C00F5FF7
:101F30001F4F0C151D0519F409C000E010E061E009
:101F400070E0CE010E94A50D882309F3843009F4C6
:101F500087E0DF91CF911F910F91FF90EF90DF907D
:101F6000CF900895EF92FF921F93CF93DF93EC01F0
:101F7000E880F98061E070E00E94720F182F8111F3
:101F80001EC04E895F89688D798DC7010E94210529
:101F9000182F811114C040E250E060E070E08A8D9B
:101FA0009B8D0E947402BE01645E7F4F4BE050E047
:101FB0008A8D9B8D0E94650281E0F7018383812FCA
:101FC000DF91CF911F91FF90EF900895CF92DF9214
:101FD000FF920F931F93CF93DF93EC010E94C704EE
:101FE000F82E81115BC08881833009F04DC08C814F
:101FF000813009F049C040E052E060E070E06E01DD
:1020000083E3C80ED11CC6010E94740265E57AEA1A
:10201000CE018F5C9D4F0E945B0242E552E561E676
:1020200071E4C6010E945F0242E752E761E471E693
:10203000CE01895E9D4F0E945F024F855889698954
:102040007A89CE01855E9D4F0E945F024B855C853B
:102050006D857E85CE01815E9D4F0E945F028F8DD2
:1020600098A1A9A1BAA19C01AD012F5F3F4F4F4F8D
:102070005F4F2FA738AB49AB5AAB01E010E0B60178
:1020800089810E94DF1B1C8240E050E060E0898172
:102090000E94EA1B882311F0FF24F3948F2DDF9117
:1020A000CF911F910F91FF90DF90CF9008951F93D4
:1020B000CF93DF93CDB7DEB72697CDBFDEBF8B833F
:1020C0009C836D837E83142F69837A83CE0101966E
:1020D0000E945304992324F1FC01EE0FFF1FE257E5
:1020E000FE490190F081E02D309709F01082EB81DC
:1020F000FC81309709F01082880F991FFC01E2578C
:10210000FE498B819C8180839183112359F040E0AB
:10211000BE016D5F7F4FCE0105960E94A50503C0ED
:102120008BE001C080E02696CDBFDEBFDF91CF916E
:102130001F9108952F923F924F925F926F927F92DC
:102140008F929F92AF92BF92CF92DF92EF92FF92C7
:102150000F931F93CF93DF93CDB7DEB7AC97CDBF6F
:10216000DEBF6BA77CA7009709F484C1142F6C0114
:10217000842F8F73E82E482FBE01675D7F4FCE01FD
:102180008B960E94A505F82E81116DC189A59AA58F
:1021900089839A836BA57CA5CE0101960E94DD0EF2
:1021A000F82E811107C088A5882324F40F2EF6E0AD
:1021B000FF2EF02D812F8C7109F472C0FF2061F089
:1021C000E4E0FE1205C0CE0101960E94B20FF82E87
:1021D000FE2DF860EF2E0EC08D81817119F412FD75
:1021E00006C008C00F2EF7E0FF2EF02D03C0689444
:1021F000FF24F3F8F11066C0E3FE64C06B8D7C8DA4
:1022000089A59AA50E9400034B015C010E94EF1B67
:10221000AB01BC018B8D9C8D0E960E945F02EB8DF5
:10222000FC8D80E283876B8D7C8D20E030E0A901FE
:1022300089A59AA50E942D038B8D9C8D40E050E0CE
:10224000BA014C960E945F02E9A5FAA581E083835A
:1022500081149104A104B104A9F147A450A861A874
:1022600072A800E010E09801B501A401CE0101962A
:102270000E94B80CF82E811125C0B301A20189A5D6
:102280009AA50E942105F82EE9A5FAA581E0881AF1
:102290009108A108B10883869486A586B68612C0E7
:1022A000F11010C08D8184FD05C011FF0BC080FDB1
:1022B00005C008C06894FF24F2F804C00F2EF7E0B0
:1022C000FF2EF02DF11014C0E3FE03C0EE2DE064EC
:1022D000EE2EE9A5FAA587A590A9A1A9B2A9F601B4
:1022E000848F958FA68FB78F8B8D9C8D80A391A3A4
:1022F000F110B9C08B8C9C8CA9A4BAA4B401C501FF
:102300000E940003F6016683778380879187C4016A
:102310004C960E944002F6016287738784879587F6
:10232000A082B182F50185819681F6018283938333
:10233000E6861786108E118E128E138E108A118AE1
:10234000128A138A1601F2E22F0E311C40E052E08D
:1023500060E070E0C1010E947402E5FE84C0F601F5
:10236000428453846484758441145104610471046B
:1023700009F479C0408A518A628A738AE9A5FAA56C
:1023800081859285A0E0B0E04C015D01072E79E0E7
:10239000880C991CAA1CBB1C7A95D1F7702DF601EC
:1023A000468157816085718519C0C6010E949F09C9
:1023B000AB01BC01423051056105710518F4689408
:1023C000FF24F1F84F3FFFEF5F076F077F0711F41E
:1023D000FF24F394481859086A087B08F11005C0D7
:1023E00084149504A604B70400F3F601448B558BBE
:1023F000668B778BF11037C0D301C2019170AA2789
:10240000BB27892B8A2B8B2B71F189A49AA4C40139
:102410000E94D2026115710581059105F1F0032E2C
:1024200039E076946794579447943A95D1F7302DD4
:102430009B01AC01240D351D461D571DF601208F53
:10244000318F428F538F01E010E0B101F40181819F
:102450000E94D41B811105C006C06894FF24F1F8C6
:1024600002C0FF24F394FF2039F0F601108211829C
:102470008F2D03C089E001C08F2DAC96CDBFDEBF8C
:10248000DF91CF911F910F91FF90EF90DF90CF9050
:10249000BF90AF909F908F907F906F905F904F9084
:1024A0003F902F9008952F923F924F925F926F929C
:1024B0007F928F929F92AF92BF92CF92DF92EF92D4
:1024C000FF920F931F93CF93DF93CDB7DEB728977B
:1024D000CDBFDEBF7C014B016A015901D9011D92BC
:1024E0001C928F83F886BE016F5F7F4F0E9492041B
:1024F000811187C1F7018785811183C1868581FF9D
:102500007FC180899189A289B389AC01BD014C0D3D
:102510005D1D611D711D481759076A077B0708F08B
:1025200062C16C01C094D0945EC1F7018089918929
:10253000A289B389AC01BD01517066277727452B6D
:10254000462B472B09F008C1E981FA816184728426
:10255000F1E06F1A7108AC01BD01032E39E07695E8
:102560006795579547953A95D1F7302D6422752296
:102570006114710409F051C0892B8A2B8B2BA1F4B3
:10258000D70116966D917D918D919C91199761154A
:1025900071058105910589F440E050E0BA018F8111
:1025A00098850E94670B09C0F7014489558966899F
:1025B00077898F8198850E94670B61157105810568
:1025C000910509F414C1613071058105910529F463
:1025D00082E0D7011F968C9314C16F3FBFEF7B073A
:1025E0008B079B0721F481E0F70187870AC1D70198
:1025F00054966D937D938D939C93579716960D915A
:102600001D912D913C911997012B022B032B29F43D
:10261000F7016683778380879187D7011E968C9117
:102620001E978823ECF4E981FA8158962D913D910B
:102630004D915C915B9701E010E0B7016E5D7F4FBB
:1026400081810E94DF1B882321F081E0F7018787C9
:10265000D8C0D7011E968C911E978F771E968C93AB
:10266000F701448955896689778989819A818D83A3
:102670009E830E94D202611571058105910529F49E
:1026800082E0D7011F968C93BCC01B012C01260C45
:10269000371C411C511CF601EF2FFF27E695EB83F9
:1026A000FC83309741F1AD81BE8119962D913C910B
:1026B0001A97CF01860D971D2817390728F4F901BD
:1026C000E619F709EB83FC830B811C81A2019101C0
:1026D000B401AD81BE8111968C910E94DF1B8823CD
:1026E00021F081E0F70187878CC06B807C80762C9D
:1026F0006624770C50C0F701808D918DA28DB38D2B
:10270000281639064A065B0601F14089518962891B
:10271000738982859385A485B585481759076A070B
:102720007B0798F401E010E0A2019101B7016E5D12
:102730007F4FAD81BE8111968C910E94D41B88235E
:1027400021F081E0F70187875CC0D70158962D9270
:102750003D924D925C925B97F70180899189A289A5
:10276000B389917020E032E03901681A790AC61401
:10277000D70408F43601A301B40197012E5D3F4F41
:10278000820F931F0E946502D7011E968C911E979F
:1027900080681E968C93C618D708F50180819181B8
:1027A000860D971D80839183860C971CF701808985
:1027B0009189A289B389860D971DA11DB11D808BBA
:1027C000918BA28BB38B4285538564857585841765
:1027D0009507A607B70710F4DB01CA01F701828746
:1027E0009387A487B587C114D10409F09ECED70181
:1027F0001E968C911E9780641E968C9380E001C07B
:1028000087E02896CDBFDEBFDF91CF911F910F915A
:10281000FF90EF90DF90CF90BF90AF909F908F9000
:102820007F906F905F904F903F902F900895EF9220
:10283000FF920F931F93CF93DF9300D0CDB7DEB7F6
:10284000FC0122813381332364F18C017901FFEF94
:10285000EF1AFF0AFC01E20FF31F66838DE3E8160F
:10286000F104BCF09E012F5F3F4FA701B8016A5FE2
:102870007F4FF801808191810E94531289819A8152
:10288000E816F90619F4E12CF12C03C0EE24EA94C1
:10289000FE2CF801E282F382848195810196848383
:1028A00095830F900F90DF91CF911F910F91FF9023
:1028B000EF9008950F931F93CF93DF9300D0CDB780
:1028C000DEB7FC01428153815523C4F08C01BC0169
:1028D0006A5F7F4F9E012F5F3F4F808191810E94F1
:1028E000531281110EC0F8012281338189819A81AE
:1028F0002817390749F48481958108C08FEF9FEF2D
:1029000005C08FEF9FEF02C08FEF9FEF0F900F90EA
:10291000DF91CF911F910F9108958F929F92AF9267
:10292000BF92EF92FF920F931F93CF93DF9300D04C
:10293000CDB7DEB77C01BE016F5F7F4F0E9492046E
:10294000811165C0D7011E969C911E9796FF5FC0AE
:102950009923B4F4E981FA8158962D913D914D91D6
:102960005C915B9701E010E0B7016E5D7F4F818164
:102970000E94DF1B81114AC0F70186858F77868709
:102980000E94EF1B4B015C01D7015C964D915D915C
:102990006D917C915F9789819A810E9421058111B7
:1029A00036C0F70100A111A1D8011B968C911B978D
:1029B00080621B968C932681378140855185B801B2
:1029C000808191810E942D03F701428553856485A2
:1029D0007585C8014C960E945F02B501A401C8012B
:1029E00046960E945F0260E070E0C80142960E9435
:1029F0005B0289819A8121E0DC0113962C930E946D
:102A0000E60FF70196859F7B968701C081E00F90C6
:102A10000F90DF91CF911F910F91FF90EF90BF909A
:102A2000AF909F908F9008950F931F93CF93DF9354
:102A300000D0CDB7DEB78C010E948D1481110BC080
:102A4000BE016F5F7F4FC8010E949204811103C0D5
:102A5000F801108211820F900F90DF91CF911F919A
:102A60000F9108950F931F93CF93DF93CDB7DEB7E8
:102A7000C654D109CDBFDEBF8C01CE0101960E94A4
:102A80008A0406C00F5F1F4FCE0101960E941714E3
:102A9000F80160816111F6CFCE0101960E945A14AF
:102AA000CA5BDF4FCDBFDEBFDF91CF911F910F918A
:102AB000089582E080939261809192618111FCCFB0
:102AC000E0E4F4E080818160808380818D7F808379
:102AD00080818460808380818860808382E08583B8
:102AE00084E08583E0E6F9E083E2808380818F7E65
:102AF00080830895E0E6F9E080818E7F8083809175
:102B000006608160809306600895809364098091D7
:102B100063098823E4F7809164090895FC0101C0EA
:102B2000F9018FEF80936409909163099923E4F789
:102B3000A0E6B9E014968C91149780838FEF1496D9
:102B40008C93909163099923E4F79F012E5F3F4F87
:102B50008091640981836250710911F70895FC0125
:102B600001C0F901808180936409909163099923E0
:102B7000E4F79F012E5F3F4F81818093640980912C
:102B800063098823E4F76250710959F708959C019D
:102B9000ADECBCEC0E946C38969587959695879520
:102BA00096958795809391618FEF0E9485158F3F51
:102BB00021F0909191619111F7CF91E08F3F09F051
:102BC00090E0892F90E00895E0E4F4E0848188604B
:102BD00084838FEF0E9485150895CF93DF93E0E4FF
:102BE000F4E08481877F84838FEF0E94851584EFD2
:102BF00091E00E94C715EC01892B19F40E94E4159D
:102C000002C0C1E0D0E0CE01DF91CF9108950F93D3
:102C10001F93CF93DF93EC018B0184E1809392614A
:102C20008FEF0E9485158F3F21F490919261911151
:102C3000F7CF8E3F69F4B801CE010E948E158FEF59
:102C40000E9485158FEF0E94851581E090E002C0FB
:102C500080E090E0DF91CF911F910F9108950F9345
:102C60001F93CF938C01C62F84EF91E00E94C7156C
:102C70000097E9F08C2F0E948515CD3FB1F060E000
:102C800072E0C8010E94AF158FEF0E9485158FEF8B
:102C90000E9485158FEF0E9485158F7191E0853018
:102CA00009F090E0892F90E002C081E090E0CF91A0
:102CB0001F910F910895FF920F931F93CF93DF936E
:102CC000C82FD42F152F062FF72E88234CF4CF773B
:102CD00040E050E0BA0187E30E945B16823088F53D
:102CE000CC3031F00E94E4150E94ED15892B41F1A2
:102CF0008C2F80640E9485158F2D0E948515802F52
:102D00000E948515812F0E9485158D2F0E948515A3
:102D1000CC2311F081E001C085E9C83009F487E8CF
:102D20000E948515CC3019F48FEF0E948515CAE0FA
:102D30008FEF0E948515882324F4C150C9F701C084
:102D40008FEFDF91CF911F910F91FF900895EF9238
:102D5000FF920F931F93CF93DF9300D000D0CDB796
:102D6000DEB70E947A158AE0809392618091926129
:102D70008111FCCF8091066081FF03C080910660C5
:102D8000B7C00E945915E0E6F9E080818260808337
:102D90001AE004C08FEF0E94851511501111FACF6F
:102DA00040E050E0BA0180E00E945B16813009F0FB
:102DB0007EC084E6809392614AEA51E060E070E070
:102DC00088E00E945B16813009F04AC00EC0E02EF8
:102DD000F12C8FEF0E948515E1E0F0E0EC0FFD1F74
:102DE000EE0DFF1D80830F5F01C0012F043078F3CB
:102DF0008B81813009F05DC08C818A3A09F05BC01B
:102E000080919261882349F040E050E060E070E4F6
:102E100089EA0E945B168111F3CF80919261882329
:102E200009F44BC040E050E0BA018AE30E945B160F
:102E3000882379F010E048C0E12EF12C8FEF0E943A
:102E40008515E1E0F0E0EC0FFD1FEE0DFF1D808326
:102E50001F5F143088F3898186FF31C01CE034C0C5
:102E600040E050E0BA0189EA0E945B16823018F413
:102E700012E009EA02C011E001E08091926188232A
:102E800041F040E050E0BA01802F0E945B168111B2
:102E9000F4CF809192618823A1F040E052E060E09D
:102EA00070E080E10E945B1681110DC00DC010E042
:102EB0000BC010E009C010E007C010E005C014E02E
:102EC00003C010E001C010E0109390610E94E4156F
:102ED000112351F0809106608E7F80930660E0E6BA
:102EE000F9E08081808302C00E947A15809106609B
:102EF0002496CDBFDEBFDF91CF911F910F91FF9040
:102F0000EF900895809106600895FF920F931F93AC
:102F1000CF93DF938C01E9012097E1F18091066066
:102F200080FD3AC08091906183FD09C0032E39E095
:102F3000440F551F661F771F3A95D1F7302DC230C9
:102F4000D10528F00F2EF2E1FF2EF02D04C00F2E38
:102F5000F1E1FF2EF02D8F2D0E945B16811113C021
:102F600060E072E0C8010E940716892B19F01E5F0D
:102F70002197B1F782E1F81206C040E050E0BA01B3
:102F80008CE00E945B160E94E41581E0CD2B29F4B1
:102F900080E003C084E001C083E0DF91CF911F9106
:102FA0000F91FF900895CF92DF92EF92FF920F93CF
:102FB0001F93CF93DF938C016A017B01E901209776
:102FC00009F452C08091066080FD50C08091066077
:102FD00082FD4EC08091906183FD09C00B2EB9E047
:102FE000CC0CDD1CEE1CFF1CBA95D1F7B02DC13006
:102FF000D10571F4B701A60188E10E945B16811129
:103000002CC06EEFC8010E942F16892B09F525C030
:10301000867031F0AE0160E070E087E90E945B16D7
:10302000B701A60189E10E945B16811116C06CEF01
:10303000C8010E942F16892B19F01E5F2197B9F73E
:103040006DEF80E090E00E942F16892B21F005C0E3
:10305000C0E0D0E002C0C1E0D0E00E94E41581E011
:10306000CD2B39F480E005C084E003C083E001C0CB
:1030700082E0DF91CF911F910F91FF90EF90DF9051
:10308000CF9008958F929F92AF92BF92CF92DF928E
:10309000EF92FF920F931F93CF93DF93CDB7DEB7DD
:1030A0006097CDBFDEBFE82F8B018091066080FD69
:1030B00036C38E2F90E08A33910508F035C3FC01AA
:1030C000E85AFF4F0C9466380E94ED15892B11F4D5
:1030D00011E001C010E00E94E415F12E3AC340E077
:1030E00050E0BA0189E00E945B1681116EC060E178
:1030F00070E0CE0101960E940716892B09F467C083
:1031000089818295869586958370813031F58A858F
:10311000298530E0322F2227280F311D88858F73B3
:1031200090E0A0E0B0E0DC0199278827820F931F90
:10313000A11DB11D0196A11DB11D072E7AE0880FBA
:10314000991FAA1FBB1F7A95D1F7702DF8018083B4
:103150009183A283B38310E03BC02E819B85991F8E
:103160009927991F8A852F70290F8370880F280F40
:103170002E5F3985888590E0880F991F880F991FE9
:103180003295369536953370AC01430F511D9F81B2
:103190009370892F90E0982F8827990F990F840FAB
:1031A000951F0196A0E0B0E030E02950310904C03D
:1031B000880F991FAA1FBB1F2A95D2F7F801808399
:1031C0009183A283B38310E003C011E001C011E03A
:1031D0000E94E415F12EBDC28091906182FF35C03E
:1031E00040E050E0BA018DE80E945B1681118BC06F
:1031F0008FEF0E94851560E170E0CE0101960E947C
:103200000716892B39F411E083C08FEF0E948515D2
:10321000FA9404C00F2EF0E3FF2EF02DF110F5CF3D
:103220002B8522952F7080E190E0A0E0B0E004C0F3
:10323000880F991FAA1FBB1F2A95D2F7F801808318
:103240009183A283B38310E063C040E050E0BA01F1
:1032500089E00E945B16811158C060E170E0CE01E8
:1032600001960E940716892B09F451C08091906144
:1032700081FF1FC08B858F7390E0880F991F2C856D
:1032800027FD019601962E85229526952695237079
:1032900030E02150310902C0880F991F2A95E2F7CA
:1032A000A0E0B0E0F80180839183A283B38310E0B3
:1032B0002FC08B858C7790E0959587959595879510
:1032C00001964C85242F237030E0220F331F220FEC
:1032D000331F220F331F429546954770240F311D2F
:1032E0002F5F3F4F289FA001299F500D389F500D01
:1032F0001124CA01A0E0B0E0F80180839183A28389
:10330000B38310E005C011E003C011E001C011E07B
:103310000E94E415F12E1DC280919061867009F41F
:1033200007C2BE016F5F7F4F83E30E944218F82EF1
:10333000811101C28981829586958695837019F4E1
:103340008B8586FFFBC1D8014D915D916D917C917C
:10335000139714968D909D90AD90BC901797809187
:10336000906183FD12C0032E39E0440F551F661F84
:10337000771F3A95D1F7302D072E79E0880C991CEC
:10338000AA1CBB1C7A95D1F7702D80E20E945B16B7
:103390008111D7C1B501A40181E20E945B168111A0
:1033A000D3C140E050E0BA0186E20E945B16811171
:1033B000CEC180E395E70E94C715892B09F0C9C1EA
:1033C000FF24F394C6C180919061FB018083F12CAE
:1033D000C0C140E050E0BA0189E00E945B16811153
:1033E00009C060E170E0C8010E940716892B21F432
:1033F00011E003C011E001C010E00E94E415F12EBD
:10340000A8C140E050E0BA018AE00E945B16811139
:1034100009C060E170E0C8010E940716892B21F401
:1034200011E003C011E001C010E00E94E415F12E8C
:1034300090C140E050E0BA018AE30E945B16882305
:1034400071F011E012C06801FFEFCF1ADF0A8FEFB1
:103450000E948515D8018C93FA94860103C0689464
:10346000FF24F2F8F110EFCF10E00E94E415F12EE6
:1034700070C140E050E0BA018DE80E945B168111F6
:103480000CC08FEF0E94851560E470E0C8010E94B7
:103490000716892B21F411E003C011E001C010E0F0
:1034A0000E94E415F12E55C10E947A1580910660A4
:1034B000816080930660F12C4CC1FB01408150E09B
:1034C00060E070E0032E3CE1440F551F661F771F3C
:1034D0003A95D1F7302D83819481A581B681072E4D
:1034E00079E0880F991FAA1FBB1F7A95D1F7702D1D
:1034F000482B592B6A2B7B2B8181928101979170EC
:10350000A0E0B0E0482B592B6A2B7B2B706880E33E
:103510000E945B1681113CC084E6809392618FEF1C
:103520000E9485158F3F21F4909192619111F7CF00
:103530008E3F81F5D8011796CD90DC9018971196A3
:10354000ED90FC9012970DC05601BFEFAB1ABB0A6D
:103550008FEF0E948515F6018083F1E0EF1AF108E4
:103560006501E114F10481F7D80111968D919C91C8
:10357000129702E012E0081B190B05C08FEF0E94A2
:1035800085150150110901151105C1F710E003C09F
:1035900011E001C011E00E94E415F12EDAC0FB0138
:1035A000408150E060E070E0032E3CE1440F551F85
:1035B000661F771F3A95D1F7302D83819481A581BD
:1035C000B681072E79E0880F991FAA1FBB1F7A9535
:1035D000D1F7702D482B592B6A2B7B2B818192813F
:1035E00001979170A0E0B0E0482B592B6A2B7B2B00
:1035F000706881E30E945B16811138C08FEF0E94D2
:1036000085158EEF0E948515D8011796ED91FC91D6
:1036100018971196ED90FC9012970BC06F01BFEFB9
:10362000CB1ADB0A80810E948515E1E0EE1AF108D1
:10363000F601E114F10491F7D80111968D919C9156
:10364000129702E012E0081B190B05C08FEF0E94D1
:1036500085150150110901151105C1F78FEF0E9461
:1036600085158F71853021F011E003C011E001C094
:1036700010E00E94E415F12E6CC0FB01408150E087
:1036800060E070E0032E3CE1440F551F661F771F7A
:103690003A95D1F7302D83819481A581B681072E8B
:1036A00079E0880F991FAA1FBB1F7A95D1F7702D5B
:1036B000482B592B6A2B7B2B828190E0A0E0B0E055
:1036C000482B592B6A2B7B2B746881E30E945B1675
:1036D00081111EC08FEF0E9485158EEF0E94851507
:1036E000D80111968C910E94851501E012E005C069
:1036F0008FEF0E9485150150110901151105C1F7C1
:103700008FEF0E9485158F71853021F011E003C085
:1037100011E001C010E00E94E415F12E1AC00F2E36
:10372000F3E0FF2EF02D15C06894FF24F2F811C0CD
:10373000FF24F3940EC0FF24F3940BC0FF24F394F2
:1037400008C0FF24F39405C0FF24F39402C0FF24B3
:10375000F3948F2D6096CDBFDEBFDF91CF911F9187
:103760000F91FF90EF90DF90CF90BF90AF909F9020
:103770008F90089580919261882319F081508093F1
:10378000926180919161882319F0815080939161B9
:1037900080910660897F8093066008950E94A71635
:1037A00008950E94821708950F931F93CB01BA01C9
:1037B000A90198010E9485171F910F9108950F93F9
:1037C0001F93CB01BA01A90198010E94D3171F9141
:1037D0000F910895862FBA010E9442180895E3E7D9
:1037E000F3E6408151814C5B574060E070E0032E6E
:1037F00039E1440F551F661F771F3A95D1F7302DD9
:10380000828190E0A0E0B0E0072E75E1880F991F5B
:10381000AA1FBB1F7A95D1F7702D482B592B6A2B05
:103820007B2B838190E0A0E0B0E0DC019927882722
:10383000482B592B6A2B7B2B858190E0A0E0B0E0D0
:10384000072E7BE0880F991FAA1FBB1F7A95D1F71F
:10385000702D482B592B6A2B7B2B868190E0A0E0A2
:10386000B0E0880F991FAA1FBB1F880F991FAA1FBE
:10387000BB1F880F991FAA1FBB1F880F991FAA1F64
:10388000BB1F880F991FAA1FBB1F842B952BA62B2C
:10389000B72B27812695BC01CD01622B0895CF93CC
:1038A000DF93A0E6B4E020E411962C931197C0EAD0
:1038B000D4E080E28983E0E0F4E0818390E19183C9
:1038C00034E031838683968312969C9312971296E6
:1038D0003C9312979A8312968C93129788E01296D3
:1038E0008C93228380E88283358325838583DF91CF
:1038F000CF910895E0E0FAE081E08287118281852E
:103900008E7F81878FE19EE486A397A383E08083E7
:103910009EEF88ED84BF90937C008091630083FDCF
:10392000FCCF88ED9BEF84BF90937C0091E084BF37
:1039300090937C00809141018111FCCFE0E4F1E0A3
:1039400082E0878385818160858381E0828B81E746
:10395000808BE0E5F0E080818460808380818160FD
:1039600080830895E0E0F6E084E0808787E893E1D3
:103970000197F1F700C0000081E0828780910D0679
:1039800080FFFCCF609110067091110680E090E0FE
:103990000E9425369B01AC010E94083520E030E0F2
:1039A00040E857E30E94C9370895E0E0F6E082E07E
:1039B000808787E893E10197F1F700C0000081E07C
:1039C000828780910D0680FFFCCF60911006709178
:1039D000110680E090E00E9425369B01AC010E9418
:1039E000083520E030E040E857E30E94C9370895E9
:1039F0008130910521F484E18093080609C0029783
:103A000021F485E08093080603C083E080930806D4
:103A100087E893E10197F1F700C0000081E080930F
:103A20000A0680910D0680FFFCCF60911006709110
:103A3000110680E090E00E9425369B01AC010E94B7
:103A4000083520E030E040E857E30E94C937089588
:103A50004F925F926F927F928F929F92AF92BF929E
:103A6000CF92DF92EF92FF920F931F93CF93DF934A
:103A7000CDB7DEB76F97CDBFDEBF43E050E060E566
:103A800070E68FE392E60E940C3A892B29F484E5D4
:103A900090E60E94FC34F6C243E050E06FE570E629
:103AA0008FE392E60E940C3A892B09F078C01B86BE
:103AB0004AE050E062E472E6CE0101960E941A3AB2
:103AC000CE0101960E94E53960936F637093706335
:103AD000809371639093726381E090914C6294370C
:103AE00009F080E08093076081E090914D62943707
:103AF00009F080E080933E6281E090914E629437BD
:103B000009F080E080933D628091196090911A6085
:103B100080933B6290933C62809117609091186013
:103B20008093396290933A6280911560909116600B
:103B30008093376290933862809113609091146003
:103B400080933562909336628091116090911260FB
:103B5000809333629093346280910F6090911060F3
:103B6000809331629093326280910D6090910E60EB
:103B700080932F62909330620E94E72C83E690E658
:103B80000E94FC342FE788E391E021508040904070
:103B9000E1F700C0000081E080936E6373C243E0F0
:103BA00050E068E670E68FE392E60E940C3A892BBB
:103BB00009F068C110926E6381E09091426294377F
:103BC00009F080E080931E6081E090914862943714
:103BD00009F080E080931D6081E090914E629437FF
:103BE00009F080E080931C6081E0909154629437EA
:103BF00009F080E080931B60EFE3F2E60190002083
:103C0000E9F73197EF53F246B697C8F081E090910B
:103C10006462943709F080E08093946381E090912E
:103C20006A62943709F080E08093936381E0909119
:103C30007062943709F080E08093926306C010921E
:103C4000946310929363109292631F8E45E050E04C
:103C500063E472E6CE014A960E941A3ACE014A9671
:103C60000E94C7398093196090931A6045E050E034
:103C700069E472E6CE014A960E941A3ACE014A964B
:103C80000E94C739809317609093186045E050E018
:103C90006FE472E6CE014A960E941A3ACE014A9625
:103CA0000E94C739809315609093166045E050E0FC
:103CB00065E572E6CE014A960E941A3ACE014A960E
:103CC0000E94C7398093136090931460EFE3F2E68B
:103CD00001900020E9F73197EF53F246B69788F14B
:103CE00045E050E065E672E6CE014A960E941A3A37
:103CF000CE014A960E94C73980931160909312605A
:103D000045E050E06BE672E6CE014A960E941A3A10
:103D1000CE014A960E94C73980930F60909310603D
:103D200045E050E061E772E6CE014A960E941A3AF9
:103D3000CE014A960E94C73980930D6090930E6021
:103D40000EC08CE390E0809311609093126080939A
:103D50000F609093106080930D6090930E60EFE37E
:103D6000F2E601900020E9F73197EF53F246B6975B
:103D700048F081E090917662943709F080E080937A
:103D8000916302C0109291631B864AE050E06AE59D
:103D900072E6CE0101960E941A3ACE0101960E9467
:103DA000E5396093096070930A6080930B6090938B
:103DB0000C600E94E72C40909163C0900D60D09001
:103DC0000E6050909263E0900F60F09010606090F1
:103DD00093630091116010911260709094638091D0
:103DE000096090910A60A0910B60B0910C60E09125
:103DF0001360F091146080901B6060911560709169
:103E0000166090901C604091176050911860A090CF
:103E10001D602091196030911A60B0901E601F9251
:103E20004F92DF92CF921F925F92FF92EF921F927A
:103E30006F921F930F931F927F92BF93AF939F93A5
:103E40008F93FF93EF931F928F927F936F931F92A5
:103E50009F925F934F931F92AF923F932F931F9226
:103E6000BF928CE690E69F938F9383E991E69F93B0
:103E70008F930E94763ACDBFDEBF83E991E60E9420
:103E8000FC3400C143E050E062EA70E68FE392E662
:103E90000E940C3A892B09F067C040909163C09052
:103EA0000D60D0900E6050909263E0900F60F090A3
:103EB0001060609093630091116010911260709097
:103EC00094638091096090910A60A0910B60B09119
:103ED0000C60E0911360F091146080901B60609121
:103EE00015607091166090901C6040911760509121
:103EF0001860A0901D602091196030911A60B090F8
:103F00001E601F924F92DF92CF921F925F92FF929C
:103F1000EF921F926F921F930F931F927F92BF9306
:103F2000AF939F938F93FF93EF931F928F927F9303
:103F30006F931F929F925F934F931F92AF923F9305
:103F40002F931F92BF9286EA90E69F938F9383E907
:103F500091E69F938F930E94763ACDBFDEBF83E9AF
:103F600091E60E94FC348EC043E050E06CED70E6B8
:103F70008FE392E60E940C3A892B39F410926E631B
:103F800080EE90E60E94FC347DC043E050E065EE98
:103F900070E68FE392E60E940C3A892B79F48FE366
:103FA00092E60E94082965EE70E683E991E60E9498
:103FB000A62B83E991E60E94FC3464C043E050E004
:103FC00069EE70E68FE392E60E940C3A892B59F471
:103FD00069EE70E683E991E60E94A62B83E991E6FB
:103FE0000E94FC344FC043E050E06DEE70E68FE37A
:103FF00092E60E940C3A892B19F544E150E062E404
:1040000072E68BE793E60E941A3A0E94C32D8BE773
:1040100093E69F938F9381EF90E69F938F938E010A
:104020000F5F1F4F1F930F930E94763AC8010E94A3
:10403000FC340F900F900F900F900F900F9022C0B4
:1040400043E050E069EF70E68FE392E60E940C3A9D
:10405000892BC1F48BE793E69F938F938DEF90E6C6
:104060009F938F938E010F5F1F4F1F930F930E949B
:10407000763AC8010E94FC340F900F900F900F9079
:104080000F900F9010923F626F96CDBFDEBFDF9111
:10409000CF911F910F91FF90EF90DF90CF90BF9045
:1040A000AF909F908F907F906F905F904F9008950A
:1040B0000F931F93CF9380E090E0FC01E15CFD49FA
:1040C0002081222329F08639910520F0C0E003C029
:1040D000C0E001C0C1E0CC2311F00196EECF8539DC
:1040E000910511F480E090E000E010E0F801EB525F
:1040F000FD492081222329F00639110520F02C2FBB
:1041000003C02C2F01C021E02223C9F0053911057D
:10411000B1F0F801EB52FD492081FC01E15CFD4961
:10412000208301960F5F1F4F2D3001F7FC01E15CEA
:10413000FD4910820E94281D80E090E0D7CFCF91EA
:104140001F910F910895AF92BF92CF92DF92EF929D
:10415000FF920F931F93CF93DF93CDB7DEB769978D
:10416000CDBFDEBFEE86FF86088B198B2A8B3B8B7B
:104170004C8B5D8B6E8B7F8B888F998F90912D628E
:10418000992309F44CC02DE0CE0101965C01FC019D
:10419000322F11923A95E9F7E9884E2D0E2C000C3A
:1041A000550BFB888F2D0F2C000C990B01960C8959
:1041B0001D890459184F5F93EF929F938F931F931C
:1041C0000F9385E091E69F938F931F922F93BF9259
:1041D000AF920E94463AE3E7F3E600831183F3943B
:1041E000F282E382888985838F8586838E858783A3
:1041F00082E292E00E94A6388C0142E3B5010E945F
:104200009A10CDBFDEBF811107C0B801C6010E9460
:104210003215C8010E941415C8010E943E396996E2
:10422000CDBFDEBFDF91CF911F910F91FF90EF9037
:10423000DF90CF90BF90AF9008950E94612F0E94B1
:104240004F1CF894E0E0F6E08081856080838181F6
:104250008660818382818C60828386E08093A00067
:10426000E0E0F4E082898160828B0E94FE2F0E9450
:1042700029340E949C330E947A1C80E28093A60419
:1042800083E392E00E94A63880932B6290932C6285
:104290002FE78AE196E0215080409040E1F700C08E
:1042A00000007894809190638823C9F081E0809326
:1042B0006E638093076010923D6210923E6280911F
:1042C0006F6390917063A0917163B09172638093FA
:1042D000096090930A60A0930B60B0930C6080918A
:1042E0006E63811106C080912D62882321F080E0E9
:1042F00003C080E001C081E0882371F041E06EE5F9
:1043000070E680912B6290912C620E94571081116F
:1043100003C081E080932D6280916E63882331F029
:1043200090913E62992319F080E001C080E08823DB
:1043300039F0E0E5F0E08081897F8460808305C00A
:10434000E0E5F0E08081897F808380916E6388233F
:1043500031F090913E62992319F080E001C080E035
:10436000882319F080E28093A504E0E5F0E08081E5
:1043700081608083889580818E7F8083B0CF1F92FB
:104380000F920FB60F9211242F933F934F935F9389
:104390006F937F938F939F93AF93BF93EF93FF930D
:1043A000809100088E3731F481E080936C638093B4
:1043B0006D6349C090916D63992309F444C0E09105
:1043C0006C63E130D9F1E23021F48D5F80936B634F
:1043D00035C0E33071F4803961F0803921F48EE02A
:1043E000809308602BC08D3A49F584E08093086083
:1043F00025C0209108602E1708F590916B63E9178E
:1044000090F030E02F5F3F4FF0E0E21BF30BEB52F8
:10441000FD49108210926D6310926B6310926C6371
:104420000E9458200BC0E91748F430E02F5F3F4F3F
:10443000F0E0E21BF30BEB52FD49808380916C634B
:104440008F5F80936C63FF91EF91BF91AF919F91CC
:104450008F917F916F915F914F913F912F910F902D
:104460000FBE0F901F9018951F920F920FB60F92CC
:1044700011242F933F934F935F936F937F938F9369
:104480009F93AF93BF93EF93FF930E94BA1B81E07A
:1044900080930B0AFF91EF91BF91AF919F918F9104
:1044A0007F916F915F914F913F912F910F900FBE30
:1044B0000F901F9018951F920F920FB60F92112414
:1044C0008F929F92AF92BF92CF92DF92EF92FF9224
:1044D0000F931F932F933F934F935F936F937F930C
:1044E0008F939F93AF93BF93EF93FF93CF93DF93FC
:1044F000CDB7DEB7C855D109CDBFDEBF81E080930F
:10450000530180916F6390917063A0917163B0913A
:1045100072630196A11DB11D80936F6390937063C8
:10452000A0937163B09372638091080482FD38C0D8
:104530008091296290912A620196809329629093DA
:104540002A628091296290912A62049768F1109200
:104550006E6310922D62E0E0F4E080E2868380E1F9
:10456000868380E48093660480E090E08330910548
:104570000CF0E3C42FE738E341E0215030404040E5
:10458000E1F700C00000E0E6F4E020E42583A7EABC
:10459000B1E61197F1F700C0000026830196E6CF3F
:1045A0001092296210922A6280916E63882309F426
:1045B0007DC440916F63509170636091716370919D
:1045C00072638091096090910A60A0910B60B09134
:1045D0000C60481759076A077B0708F4AEC480913E
:1045E0001C60882379F0209115603091166040910D
:1045F000376250913862241B350B2431310518F095
:1046000080E001C080E0882331F0E0E0F4E080E267
:10461000858380E185832EE63FE260962EAF3FAF33
:10462000609781E690E062968EAF9FAF629743E01D
:10463000EEE4F0E0EC0FFD1F3496DF01542F1D92E5
:104640005A95E9F729962EAF3FAF29972B968EAF53
:104650009FAF2B97E7E4F0E0EC0FFD1F3496DF01EE
:10466000542F1D925A95E9F722962EAF3FAF22970D
:1046700024968EAF9FAF2497FE01EC5BFF4FDF01C6
:10468000542F1D925A95E9F729AF3AAF8BAF9CAFE3
:104690003797DF01542F1D925A95E9F72AAB3BABB0
:1046A0008CAB9DAB3797DF01542F1D925A95E9F7DC
:1046B0002BA73CA78DA79EA73797DF01542F1D92EC
:1046C0005A95E9F72D873E878F87988B7E9755E01F
:1046D000DF011D925A95E9F72CA33DA38EA39FA35A
:1046E0007796DF01542F1D925A95E9F72D8F3E8F53
:1046F0008F8F98A33797DF01542F1D925A95E9F7B2
:104700002E8B3F8B888F998F3797DF011D924A95AB
:10471000E9F7809137629091386201968093376211
:104720009093386280911C60882369F040911560F5
:104730005091166020913762309138622417350706
:1047400018F480E001C080E0882309F46BC00E9467
:10475000D51C6B017C018E01055D1F4F24E046E0F6
:104760000E94863820911F60309120604091216026
:1047700050912260C701B6010E94793520E030E0F7
:1047800040E85FE30E940735E62EF72E082F192F29
:1047900020E030E0A9010E947435882324F4E12C44
:1047A000F12C00E010E02EEE3CE74FE952E46E2DD4
:1047B0007F2D802F912F0E94C93729EC36E740E4E6
:1047C00051E40E9407359B01AC016E2D7F2D802F97
:1047D000912F0E94C9372CE032E047E150E40E945B
:1047E00008359B01AC016E2D7F2D802F912F0E94EB
:1047F000C9378E010E5C1F4F24E046E00E948638C8
:104800001092376210923862809115609091166014
:10481000449750F0E0E0F4E080E2868380E1868314
:1048200021E003C020E001C021E080913B62909133
:104830003C62019680933B6290933C6280911E6043
:10484000882369F06091196070911A6040913B6211
:1048500050913C624617570718F480E001C080E091
:10486000882309F4ABC069961CAE1DAE1EAE1FAE08
:10487000699719821A821B821C82BE016F5F7F4F6B
:10488000CE018B5A9F4F0E94FE31882309F491C0BC
:1048900060913360709134608091356090913660A2
:1048A00069962CAD3DAD4EAD5FAD69970E94C9379D
:1048B0002091A5633091A6634091A7635091A863AE
:1048C0000E9408356B017C0120E030E048E452E4AE
:1048D0000E94FE36181644F40F2EC12CD12CF8E499
:1048E000EF2EF2E4FF2EF02D20E030E040E251EC1C
:1048F000C701B6010E947435882344F40F2EC12CE1
:10490000D12CF0E2EF2EF1ECFF2EF02D6996CCAE1B
:10491000DDAEEEAEFFAE699760912F6070913060B2
:10492000809131609091326029813A814B815C8124
:104930000E94C9372091A1633091A2634091A36383
:104940005091A4630E9408354B015C0120E030E0E7
:1049500048EC52E40E94FE36181644F40F2E812CC7
:10496000912CF8ECAF2EF2E4BF2EF02D20E030E0D9
:10497000A901C501B4010E94743588231CF4812C5F
:10498000912C540189829A82AB82BC828E01025B97
:104990001F4F22E046E0C701B6010E9486386981B8
:1049A0007A818B819C810750110922E046E00E94A8
:1049B000863810923B6210923C6221E0809139620D
:1049C00090913A6201968093396290933A62809115
:1049D0001D60882369F060911760709118604091A4
:1049E000396250913A624617570718F480E001C0C7
:1049F00080E0882309F45FC00E94B21C6B017C0137
:104A00008E01075C1F4F24E046E00E9486382DECA3
:104A10003CEC4CEC5EE3C701B6010E94073527E78A
:104A20003EEB4FE95CE30E94793520912B60309199
:104A30002C6040912D6050912E600E94C9372091CA
:104A40009D6330919E6340919F635091A0630E944B
:104A500008356B017C0120E030E048E452E40E941C
:104A6000FE36181644F40F2EC12CD12CF8E4EF2E8C
:104A7000F2E4FF2EF02D20E030E040E251ECC701DF
:104A8000B6010E947435882344F40F2EC12CD12C1A
:104A9000F0E2EF2EF1ECFF2EF02D8E01005C1F4FA7
:104AA00022E046E0C701B6010E94863810923962C2
:104AB00010923A6221E080913562909136620196BF
:104AC000809335629093366280911B60882369F0F1
:104AD000609113607091146040913562509136621C
:104AE0004617570718F480E001C080E0882309F4D6
:104AF00052C080919163882351F00E94D8308E017A
:104B0000035F1F4F22E048E00E9486383FC00E94AA
:104B10007E3020912760309128604091296050912B
:104B20002A600E94C9372091996330919A6340911D
:104B30009B6350919C630E9408356B017C012FEFB1
:104B40003FE443EC57E40E94FE36181654F40F2E4F
:104B5000CC24CA94FFE4DF2EF3ECEF2EF7E4FF2E13
:104B6000F02D20E030E0A901C701B6010E947435A4
:104B700088231CF4C12CD12C76018E01035F1F4FBA
:104B800022E048E0C701B6010E94863810923562E3
:104B90001092366221E080913362909134620196E6
:104BA000809333629093346280919463882369F098
:104BB0006091116070911260409133625091346243
:104BC0004617570718F480E001C080E0882381F081
:104BD00081E090E00E94F81C8E010C5D1F4F24E0E4
:104BE00046E00E948638109233621092346221E0CF
:104BF00080913162909132620196809331629093FC
:104C0000326280919363882369F060910F607091A4
:104C1000106040913162509132624617570718F484
:104C200080E001C080E0882381F082E090E00E9473
:104C3000F81C8E01035E1F4F24E046E00E94863878
:104C4000109231621092326221E080912F62909135
:104C50003062019680932F629093306280919263CC
:104C6000882369F060910D6070910E6040912F6211
:104C7000509130624617570718F480E001C080E079
:104C8000882381F083E090E00E94F81C8E010A5E88
:104C90001F4F24E046E00E94863810922F62109247
:104CA000306221E0222309F4D7C08091076081118E
:104CB00002C080913E62882349F080E28093A6047E
:104CC00087EE93E00197F1F700C0000080916F63D9
:104CD00090917063A0917163B09172638058934416
:104CE000AD46B84369968CAF9DAFAEAFBFAF699785
:104CF000BE016F5F7F4FCE018B5A9F4F0E946F01A5
:104D0000C980EC2C0C2C000CFF08DA800D2D0D2C2A
:104D1000000C110B7B81A72F072E000CBB0B9C8076
:104D2000E92D092C000CFF0B8E81082E000C990B2D
:104D300001962F8138852459384F40913D62442394
:104D400019F04EE550E602C046E151E65E0166E12B
:104D5000A60EB11CBF92AF925E016DE1A60EB11C12
:104D6000BF92AF925E0164E2A60EB11CBF92AF92F9
:104D70005E016BE2A60EB11CBF92AF925E0169E3C9
:104D8000A60EB11CBF92AF925E016DE0A60EB11CE3
:104D9000BF92AF925E0162E3A60EB11CBF92AF92CA
:104DA0005E0160E4A60EB11CBF92AF925E0167E4A3
:104DB000A60EB11CBF92AF925E016EE4A60EB11CAE
:104DC000BF92AF92FF92CF921F93DF92BF937F93D8
:104DD000FF939F929F938F933F932F935F934F9354
:104DE0008BE191E69F938F931F9286E98F9383E9DE
:104DF00091E69F938F930E94463A8DE080932762BD
:104E00001092286280910760CDBFDEBF882321F019
:104E100083E991E60E943C3480913E62882321F030
:104E200083E991E60E94A83480913D628823A1F035
:104E30000F2EF3E9CF2EF1E6DF2EF02DE980FA8078
:104E40000B811C812D813E814F81588569857A8532
:104E50008B859C850E94A3208FE097E20197F1F754
:104E600000C0000080913D62882309F466C080E4A0
:104E70008093660480E090E0181619060CF45DC07B
:104E8000AFE7B8E321E0A150B0402040E1F700C017
:104E90000000E0E6F4E020E42583A7EAB1E61197FC
:104EA000F1F700C0000026830196E6CF80E28093F0
:104EB000A60487EE93E00197F1F700C0000080910F
:104EC0002E62811107C08AE591E60E94FC3486E0DB
:104ED00080932E6280912E62815080932E62809109
:104EE000080482FF2AC080912D62882319F042E0D5
:104EF00050E002C041E050E014161506F4F480E4DE
:104F00008093660480E090E084179507B4F4AFE7DF
:104F1000B8E321E0A150B0402040E1F700C000001C
:104F2000E0E6F4E020E42583A7EAB1E61197F1F783
:104F300000C0000026830196E7CFC85ADF4FCDBFDF
:104F4000DEBFDF91CF91FF91EF91BF91AF919F9124
:104F50008F917F916F915F914F913F912F911F9111
:104F60000F91FF90EF90DF90CF90BF90AF909F9008
:104F70008F900F900FBE0F901F9018951F920F9259
:104F80000FB60F9211248F93EF93FF93E0E0F4E0BC
:104F900084E08187808582FF04C080E4809366047A
:104FA00003C080E480936504FF91EF918F910F908F
:104FB0000FBE0F901F9018958091021081FDFCCFBD
:104FC00040E050E060E87FE384E590E00E948E3F9F
:104FD0008091021081FDFCCF40E050E0BA0180E5F5
:104FE00090E00E948E3F8091021081FDFCCF40E056
:104FF00050E060E87FE38CE490E00E948E3F809177
:10500000021081FDFCCF40E050E0BA0188E490E05E
:105010000E948E3F8091021081FDFCCF40E050E065
:1050200060E87FE384E490E00E948E3F809102106C
:1050300081FDFCCF40E050E0BA0180E490E00E94A6
:105040008E3F8091021081FDFCCF40E050E060E88F
:105050007FE38CE390E00E948E3F8091021081FDFF
:10506000FCCF40E050E0BA0188E390E00E948E3F20
:105070008091021081FDFCCF40E050E060E87FE3CA
:1050800084E390E00E948E3F8091021081FDFCCF6E
:1050900040E050E0BA0180E390E00E948E3F8091B2
:1050A000021081FDFCCF4AE959E969EB7FE38CE20C
:1050B00090E00E948E3F8091021081FDFCCF64E55C
:1050C0008BE290E00E94833F8091021081FDFCCF33
:1050D00064E58AE290E00E94833F8091021081FDA6
:1050E000FCCF64E589E290E00E94833F809102104A
:1050F00081FDFCCF64E588E290E00E94833F8091CF
:10510000021081FDFCCF66E487E290E00E94833FBD
:105110008091021081FDFCCF66E486E290E00E945F
:10512000833F8091021081FDFCCF66E485E290E030
:105130000E94833F8091021081FDFCCF66E484E2EF
:1051400090E00E94833F8091021081FDFCCF6CE3D0
:1051500070E082E290E00E949A3F8091021081FD0F
:10516000FCCF6CE370E080E290E00E949A3F809177
:10517000021081FDFCCF6CE370E08EE190E00E94B4
:105180009A3F8091021081FDFCCF6CE370E08CE1CE
:1051900090E00E949A3F8091021081FDFCCF6CE369
:1051A00070E08AE190E00E949A3F8091021081FDB8
:1051B000FCCF6CE370E088E190E00E949A3F809120
:1051C000021081FDFCCF6CE370E086E190E00E946C
:1051D0009A3F8091021081FDFCCF66E485E190E06A
:1051E0000E94A03F8091021081FDFCCF44E150E07D
:1051F00060E070E08FE591E60E94733F80910210BD
:1052000081FDFCCF64E588E590E00E94A03F089511
:10521000CF92DF92EF92FF920F931F93CF93DF9382
:10522000CDB7DEB72597CDBFDEBF8C011D82BC0197
:105230006D5F7F4F44E050E0CE0101960E941A3A24
:10524000CE0101960E94E5390E9427362FE632E111
:1052500043E85AE30E94C9376B017C012DEC3CEC1A
:105260004CE45FE30E94FE368823E4F02AE939E942
:1052700049E95FE3C701B6010E947435181694F03E
:10528000C0923360D0923460E0923560F092366024
:105290008091021081FDFCCFB701A60184E590E06A
:1052A0000E948E3F44E050E0B801695F7F4FCE011D
:1052B00001960E941A3ACE0101960E94E5390E9499
:1052C00027362AE037ED43E25CE30E94C9376B01E1
:1052D0007C0120E030E040E450EC0E94FE36882360
:1052E000E4F020E030E040E450E4C701B6010E9461
:1052F0007435181694F0C092A563D092A663E0921C
:10530000A763F092A8638091021081FDFCCFB701E2
:10531000A60180E590E00E948E3F44E050E0B80195
:10532000655F7F4FCE0101960E941A3ACE01019629
:105330000E94E5390E9427362FE632E143E85AE31E
:105340000E94C9376B017C012DEC3CEC4CE45FE31F
:105350000E94FE368823E4F02AE939E949E95FE34F
:10536000C701B6010E947435181694F0C0922F60E0
:10537000D0923060E0923160F09232608091021001
:1053800081FDFCCFB701A6018CE490E00E948E3F26
:1053900044E050E0B801615F7F4FCE0101960E946A
:1053A0001A3ACE0101960E94E5390E9427362AE07A
:1053B00037ED43E25CE30E94C9376B017C012AE0D0
:1053C00037ED4FE151EC0E94FE368823E4F02AE0ED
:1053D00037ED4FE151E4C701B6010E94743518164C
:1053E00094F0C092A163D092A263E092A363F09282
:1053F000A4638091021081FDFCCFB701A60188E46F
:1054000090E00E948E3F44E050E0B8016D5E7F4F17
:10541000CE0101960E941A3ACE0101960E94E5390A
:105420000E9427362FE632E143E85AE30E94C9374B
:105430006B017C012DEC3CEC4CE45FE30E94FE36FA
:105440008823E4F02AE939E949E95FE3C701B601B5
:105450000E947435181694F0C0922B60D0922C6084
:10546000E0922D60F0922E608091021081FDFCCFC1
:10547000B701A60184E490E00E948E3F44E050E032
:10548000B801695E7F4FCE0101960E941A3ACE01A3
:1054900001960E94E5390E9427362AE037ED43E263
:1054A0005CE30E94C9376B017C0120E030E040E4FE
:1054B00050EC0E94FE368823E4F020E030E040E427
:1054C00050E4C701B6010E947435181694F0C092DA
:1054D0009D63D0929E63E0929F63F092A06380915F
:1054E000021081FDFCCFB701A60180E490E00E948C
:1054F0008E3F44E050E0B801655E7F4FCE010196DB
:105500000E941A3ACE0101960E94E5390E94273680
:105510002FE632E143E85AE30E94C9376B017C0170
:105520002DEC3CEC4CE45FE30E94FE368823E4F073
:105530002AE939E949E95FE3C701B6010E947435F8
:10554000181694F0C0922760D0922860E0922960EB
:10555000F0922A608091021081FDFCCFB701A60174
:105560008CE390E00E948E3F44E050E0B801615E21
:105570007F4FCE0101960E941A3ACE0101960E94F9
:10558000E5390E9427366B017C0120E030EC49E7C9
:1055900054EC0E94FE368823E4F020E030EC49E72A
:1055A00054E4C701B6010E947435181694F0C092F5
:1055B0009963D0929A63E0929B63F0929C6380918E
:1055C000021081FDFCCFB701A60188E390E00E94A4
:1055D0008E3F44E050E0B8016D5D7F4FCE010196F3
:1055E0000E941A3ACE0101960E94E5390E942736A0
:1055F0002FE632E143E85AE30E94C9376B017C0190
:105600002DEC3CEC4CE45FE30E94FE368823E4F092
:105610002AE939E949E95FE3C701B6010E94743517
:10562000181694F0C0922360D0922460E092256016
:10563000F09226608091021081FDFCCFB701A60197
:1056400084E390E00E948E3F44E050E0B801695D41
:105650007F4FCE0101960E941A3ACE0101960E9418
:10566000E5390E9427362FE632E143E85AE30E94EB
:10567000C9376B017C0120E030E040E05FEB0E9425
:10568000FE368823E4F020E030E040E05FE3C7012D
:10569000B6010E947435181694F0C0929563D092AA
:1056A0009663E0929763F09298638091021081FD77
:1056B000FCCFB701A60180E390E00E948E3FB801C5
:1056C000655D7F4F44E050E0CE0101960E941A3A9A
:1056D000CE0101960E94E5390E9427362FE632E17D
:1056E00043E85AE30E94C9376B017C0123E333E3AB
:1056F00043EB5FE30E94FE368823E4F020E030E0D5
:1057000040EC5FE3C701B6010E947435181694F0AF
:10571000C0921F60D0922060E0922160F0922260DF
:105720008091021081FDFCCFB701A6018CE290E0D0
:105730000E948E3F2596CDBFDEBFDF91CF911F9196
:105740000F91FF90EF90DF90CF9008952F923F92AE
:105750004F925F926F927F928F929F92AF92BF9281
:10576000CF92DF92EF92FF920F931F93CF93DF932D
:10577000CDB7DEB7CC54D109CDBFDEBF2A968FAFEF
:105780002A972B969FAF2B972C966FAF2C972D9621
:105790007FAF2D9760913360709134608091356058
:1057A000909136608E010F5F1F4F23E045E00E940D
:1057B00086386091A5637091A6638091A7639091EC
:1057C000A8631E0127E0220E311C810122E045E082
:1057D0000E94863860912F607091306080913160B6
:1057E000909132602E013DE0430E511C820123E076
:1057F00045E00E9486386091A1637091A263809118
:10580000A3639091A4639E012D5E3F4F25962EAF1A
:105810003FAF2597890122E045E00E9486386091DC
:105820002B6070912C6080912D6090912E609E0174
:10583000275E3F4F27962EAF3FAF2797890123E082
:1058400045E00E94863860919D6370919E638091CF
:105850009F639091A0639E01215E3F4F29962EAFDA
:105860003FAF2997890122E045E00E948638609188
:105870002760709128608091296090912A607E0154
:1058800035E2E30EF11C870123E045E00E948638F3
:105890006091996370919A6380919B6390919C63EE
:1058A0006E012BE2C20ED11C860120E044E00E9472
:1058B000863860912360709124608091256090917A
:1058C00026605E0130E3A30EB11C850123E045E0B4
:1058D0000E9486386091956370919663809197637A
:1058E000909198634E0126E3820E911C840123E07F
:1058F00046E00E94863860911F6070912060809120
:105900002160909122603E013DE3630E711C830192
:1059100023E045E00E9486387F926F929F928F929B
:10592000BF92AF92DF92CF92FF92EF9229968FAD06
:1059300029978F9328969FAD28979F9327962FADF1
:1059400027972F9326963FAD26973F9325968FADA9
:1059500025978F9324969FAD24979F935F924F92A4
:105960003F922F9221E030E02C0F3D1F3F932F9369
:105970002D963FAD2D973F932C968FAD2C978F93FF
:1059800087E691E69F938F932B969FAD2B979F93DE
:105990002A962FAD2A972F930E94763ACDBFDEBF6D
:1059A000C45BDF4FCDBFDEBFDF91CF911F910F9161
:1059B000FF90EF90DF90CF90BF90AF909F908F902F
:1059C0007F906F905F904F903F902F9008958091BF
:1059D000021081FDFCCF80919063882311F064E573
:1059E00001C066E485E190E00E94833F809102104F
:1059F00081FDFCCF80911E60882311F064E501C019
:105A000066E48BE290E00E94833F8091021081FD6A
:105A1000FCCF6091196070911A6082E290E00E9460
:105A20009A3F8091021081FDFCCF80911D608823F8
:105A300011F064E501C066E48AE290E00E94833FD1
:105A40008091021081FDFCCF609117607091186009
:105A500080E290E00E949A3F8091021081FDFCCF8D
:105A600080911C60882311F064E501C066E489E23E
:105A700090E00E94833F8091021081FDFCCF6091F5
:105A80001560709116608EE190E00E949A3F8091BF
:105A9000021081FDFCCF80911B60882311F064E52A
:105AA00001C066E488E290E00E94833F809102108A
:105AB00081FDFCCF60911360709114608CE190E0E7
:105AC0000E949A3F8091021081FDFCCF80919463E7
:105AD000882311F064E501C066E487E290E00E944B
