S00F00006D6C6F676765722E7372656328
S11300000C940F010C942C010C942C010C949F2043
S11300100C942C010C942C010C94E0240C94782066
S11300200C942C010C942C010C942C010C942C0198
S11300300C942C010C942C010C942C010C942C0188
S11300400C942C010C942C010C942C010C94032082
S11300500C942C010C942C010C942C010C942C0168
S11300600C942C010C942C010C942C010C942C0158
S11300700C942C010C942C010C942C010C942C0148
S11300800C942C010C942C010C942C010C942C0138
S11300900C942C010C942C010C942C010C942C0128
S11300A00C942C010C942C010C942C010C942C0118
S11300B023182E18531BAB184B19531B531B131A1D
S11300C0531B531B531B531B531B531B531B531BBC
S11300D0531B531B531B531B531B531B531B531BAC
S11300E0531B531B531B531B531B531B531B531B9C
S11300F0531B531B531B531B531B531B531B531B8C
S1130100531B531B531B531B531B531B531B531B7B
S1130110531B531BA219A819C019D819F8191C1A72
S11301208E1AFC1A00407A10F35A00A0724E180975
S11301300010A5D4E80000E87648170000E40B544A
S1130140020000CA9A3B000000E1F5050000809619
S11301509800000040420F000000A086010000004B
S1130160102700000000E803000000006400000005
S113017000000A00000000000100000000002C76CE
S1130180D888DC674F0823DFC1DFAE59E1B1B796E9
S1130190E5E3E453C63AE651997696E8E6C2842646
S11301A0EB898C9B62ED407C6FFCEFBC9C9F40F222
S11301B0BAA56FA5F490055A2AF75C936B6CF9679E
S11301C06DC11BFCE0E40D47FEF520E6B500D0ED63
S11301D0902E0300943577050080841E08000020CB
S11301E04E0A000000C80C333333330F986E128369
S11301F01141EF8D2114893BE65516CFFEE6DB183D
S1130200D1844B381BF77C1D901DA4BBE424203201
S113021084725E228100C9F124ECA1E53D271124FA
S11302201FBECFEFCDBFDFE7DEBF11E6A0E0B0E633
S1130230E0E8F2E702C005900D92A433B107D9F7C4
S113024022E6A4E3B1E601C01D92AE39B207E1F79C
S11302500E94741F0C943E390C940000A8E0B0E096
S1130260E4E3F1E00C9417398B01FC0160817181A6
S11302708281938120E831E541E050E00E946631BB
S113028069017A012CE330E040E050E00E94EE384E
S113029029833A834B835C8389819A81AB81BC81B6
S11302A0F80160836CE370E00E94DA38DC01CB0172
S11302B0F801A1838283C601069667E070E00E947C
S11302C0C63884832DEA3EE840E050E0C701B60119
S11302D00E94EE3829833A836D837E838F839887C7
S11302E089819A8124E6289F6001299FD00C1124DA
S11302F06D817E818F81988525EB35E040E050E06B
S11303000E94EE3829833A836D837E83E980FA80E4
S1130310EE0CFF1CEE0CFF1CEC0CFD1C8D819E8171
S1130320F5E6EF16F10410F0019604C024E6E21697
S1130330F10419F021E030E002C020E030E0A9012E
S113034044595E4F4817590768F46DE671E0821B03
S1130350930B0E94DA38DC01CB01E80EF91ECD01C3
S113036020E030E044E6E40EF11CF801E682F78276
S113037080879187255C3F4F8217930748F46FE18C
S113038070E00E94DA38DC01CB01F801858322C0D9
S113039069E970E0821B930B0E94DA38DC01CB011F
S11303A0F82EFF0CFF0CF80E6DE370E0CD010E94F7
S11303B0DA38DC01CB01E82EEE0C6FE170E0CD0100
S11303C00E94DA38DC01CB0122E0280FF20EFE0C89
S11303D0F801F582A383F8011286138683818F5F67
S11303E083832896E8E00C943039FC01218130E0C5
S11303F0322F22278081A901482BCA010895FC01CC
S11304006381862F90E0A0E0B0E0BA2FA92F982F47
S113041088272281822BBA2FA92F982F8827218100
S1130420822BBA2FA92F982F88272081BC01CD01B8
S1130430622B0895FC01608371830895FC0140835D
S11304405183628373830895DC01FB0141155105D7
S113045049F080818C934150510911963196411590
S11304605105B9F70895FC01608341505109319653
S113047041155105C9F70895CF93DF93DC01FB01C2
S1130480ED0121968C9190E0BF016F5F7F4F208139
S1130490821B91094150510921F0DE01FB010097B3
S11304A079F3DF91CF910895FC0101C031968081E9
S11304B0882329F0282F30E026173707B9F790E072
S11304C00895813848F0803A50F0803E58F08D3FCE
S11304D060F080E090E0089580E090E0089581E08D
S11304E090E0089580E090E0089581E090E0089520
S11304F0803458F08F3760F0803810F08D3F58F01A
S1130500882361F080E090E0089580E090E0089511
S113051081E090E0089581E090E0089581E090E02A
S11305200895CF92DF92EF92FF92FC019A01AB0102
S11305302250310941095109C788D08CE18CF28CD1
S113054082E0C81AD108E108F1082C153D054E05D2
S11305505F0568F4C3A4D4A4E5A4F6A4A185B28578
S11305600E949D316C0D7D1D8E1D9F1D03C060E09A
S113057070E0CB01FF90EF90DF90CF900895CF9281
S1130580DF92EF92FF920F931F93CF93DF938C012F
S1130590EB01CB014A960E94F5016C01E12CF12C90
S11305A0F8018081833069F4CE0144960E94F501FC
S11305B0A0E0B0E0DC0199278827C82AD92AEA2AD2
S11305C0FB2AC701B601DF91CF911F910F91FF90D4
S11305D0EF90DF90CF900895CF92DF92EF92FF9249
S11305E00F931F93CF93DF938C01EB0169017A0181
S11305F0B901CE014A960E941A02F8018081833023
S113060039F4B70188279927CE0144960E941A022B
S1130610DF91CF911F910F91FF90EF90DF90CF90DA
S113062008953F924F925F926F927F928F929F9222
S1130630AF92BF92CF92DF92EF92FF920F931F93EC
S1130640CF93DF933C012B01FB01C081D1815C017D
S1130650FCE1AF0EB11C4BE050E060E270E0C5017C
S11306600E94330288818E3269F540E050E080E0D8
S113067090E09C012F5F3F4FFE01E80FF91F80813E
S11306808E3259F42330310540F4F501E40FF51F9F
S11306908083C9014F5F5F4FECCF8F3229F08C35D7
S11306A019F0813208F09FC0C20FD31FF201C0833A
S11306B0D183813210F484E201C080E2F30187A384
S11306C080E09EC0C12CD12CE12CF12C68948824AC
S11306D083F8912C87010F5F1F4FFE01EE0DFF1D64
S11306E03080F0E2F31508F067C08FE2381631F07D
S11306F09CE539120CC002C00F5F1F4FFE01E00FD2
S1130700F11F80818F32C1F38C35B1F355C0EEE215
S11307103E1619F0C814D90498F0FBE08F16910422
S113072009F463C08EE2381262C078016894CC2464
S1130730C3F8D12C0F2EFBE08F2E912CF02DCACFB5
S1130740832D0E946102892B01F192E0E90EF11CD4
S1130750FE01E00FF11F1081812F0E947802892B86
S113076009F447C0C4010197C816D90608F043C06C
S1130770F501EC0DFD1D3082F6013196EA0DFB1DED
S113078082E0C80ED11C1083A5CF632D70E081E3F5
S113079090E60E945402892B81F58FE9830D8A31FA
S11307A010F490EE390EF501EC0DFD1D3082F601CA
S11307B031966F0178018ECFC00FD11FF201C08333
S11307C0D183CD28E1F0F301848D853E11F485E0D9
S11307D0848FF0E2F31510F084E001C080E0F301AF
S11307E087A380E00DC086E00BC086E009C086E0E8
S11307F007C086E005C086E003C086E001C086E04D
S1130800DF91CF911F910F91FF90EF90DF90CF90E8
S1130810BF90AF909F908F907F906F905F904F901C
S11308203F900895CF93DF93EC01A881B98110978D
S113083029F48FEF9FEF2AC0319601C0FD0190810A
S1130840913210F09A33C1F79A33A9F4CD0101968D
S11308502C9130E0205331092A30310578F4E8171F
S1130860F90779F42115310579F4822F932F319604
S1130870E883F9830BC080E090E008C08FEF9FEF1E
S113088005C08FEF9FEF02C08FEF9FEFDF91CF91F5
S11308900895FC016083718312821382148215828D
S11308A008950F931F93CF93DF93EC018B01892B52
S11308B0A9F0E881F981309799F08081882391F03B
S11308C02A813B81858196812817390769F48181C2
S11308D00E94901B80FF0AC089E009C089E007C01C
S11308E089E005C089E003C089E001C080E081118E
S11308F003C02881398102C020E030E0F801208360
S11309003183DF91CF911F910F9108958F929F9220
S1130910AF92BF92EF92FF920F931F93CF93DF9307
S1130920FC0123812223D1F1EC017C01F3E3EF0EDE
S1130930F11C2FA538A949A95AA901E010E0B70173
S113094089810E949E1B81112BC01B820FA518A9AF
S113095029A93AA98BA19CA1ADA1BEA14801590125
S1130960881A990AAA0ABB0A8B8D9C8DAD8DBE8DFF
S113097088169906AA06BB06A8F46A816230A1F417
S1130980A9019801280F391F4A1F5B1F01E010E0DD
S1130990B70189810E949E1B80E007C080E005C0EA
S11309A081E003C080E001C080E0DF91CF911F911E
S11309B00F91FF90EF90BF90AF909F908F9008950C
S11309C08F929F92AF92BF92FF920F931F93CF93F8
S11309D0DF93EC014A015B018FA598A9A9A9BAA9E3
S11309E084179507A607B707E9F0CE010E9486048D
S11309F0F82E811118C001E010E0A5019401BE0198
S1130A006D5C7F4F89810E94931B882331F0FF2402
S1130A10F39488248A94982C54018FA698AAA9AA9E
S1130A20BAAA01C0F12C8F2DDF91CF911F910F91A4
S1130A30FF90BF90AF909F908F900895CF93DF93D6
S1130A40EC011B828FEF9FEFDC018FA798ABA9AB62
S1130A50BAABCE010E94E004811128C0CE018F5CA4
S1130A609D4F0E94F50185359A4A11F58BA9893E5F
S1130A7029F08B3EF9F48DA98039F1F443E050E07C
S1130A8060E470E6CE0187599F4F0E943C02892B97
S1130A90A9F045E050E064E470E6CE018B579F4F27
S1130AA00E943C02892B61F480E00BC084E009C001
S1130AB083E007C082E005C082E003C080E001C09B
S1130AC082E0DF91CF9108954F925F926F927F926F
S1130AD08F929F92AF92BF92CF92DF92EF92FF924A
S1130AE00F931F93CF93DF93CDB7DEB7A097CDBFFE
S1130AF0DEBF6B01B42EDB011D921C920E94120416
S1130B007C0199230CF474C2FC01EE0FFF1FEA5C14
S1130B10FE49008111810115110509F46BC2F6012A
S1130B2000831183FB2DFE7FBF2ED8018C91882377
S1130B3069F011968C910E94901B80FD07C0BB2028
S1130B4009F45AC282FD5AC280E07BC2F8011082C5
S1130B50E1828E2D0E948D1B80FD52C2BB2011F0BC
S1130B6082FD50C240E050E0BA01C8010E941E0557
S1130B70823079F1C12CD12C760157C0F701E2956E
S1130B80F295F07FFE27E07FFE27E254FE4FC80176
S1130B90C396E80FF91F8481882329F0CF010896B2
S1130BA00E94FF0103C060E070E0CB01F701EE0F8B
S1130BB0FF1FEE0FFF1F21E030E02C0F3D1FE20F5F
S1130BC0F31F60837183828393833FEFE31AF30AF5
S1130BD002C0E12CF12C44E0E416F10478F2A12CDB
S1130BE0B12CF501EE0FFF1FEE0FFF1F61E070E067
S1130BF06C0F7D1FE60FF71FC080D180E280F38069
S1130C00C114D104E104F10431F0B701A601C80113
S1130C100E941E0501C083E0823038F07FEFA71ADE
S1130C20B70A94E0A916B104E0F2843009F4ECC1E7
S1130C30823008F0EBC1C801CE960E94F5018115FF
S1130C40924009F0E5C1C801875B9F4F0E94F501FE
S1130C509C0140E050E0298B3A8B4B8B5C8B232B1F
S1130C60242B252B49F4C801895A9F4F0E94FF0168
S1130C70698B7A8B8B8B9C8B49895A896B897C898C
S1130C80D8015B964D935D936D937C935E97F801C9
S1130C90ED5BFF4FA081F801A2838FEF8A0F8230B2
S1130CA008F0B8C1B0E09A01AB010E949D31698F90
S1130CB07A8F8B8F9C8FE05CFF4FA080B12CD80182
S1130CC01996AD92BC921A97A114B10409F4A4C167
S1130CD0C50101978A219B21892B09F09FC1C80175
S1130CE08C5B9F4F0E94F5014C01F801878390872C
S1130CF08F709927892B09F093C1C8018A5B9F4F94
S1130D000E94F5012C01612C712C411451046104E1
S1130D10710439F4C8018D5A9F4F0E94FF012B01C1
S1130D203C01C8018F5B9F4F0E94F501009709F4B5
S1130D3079C19C0140E050E02D8F3E8F4F8F58A326
S1130D40898D9A8DAB8DBC8D820F931FA41FB51F07
S1130D509401329522952F7023273F702327AC01ED
S1130D60BD01420F531F611D711D4D8B5E8B6F8B37
S1130D70788F441655066606770608F455C1C301F4
S1130D80B2012D893E894F89588D621B730B840BE8
S1130D90950B950140E050E00E946631DA01C901EB
S1130DA0211531054105510509F440C1263F6FEF76
S1130DB0360746076FE0560710F0B12C04C00F2E1B
S1130DC0F3E0BF2EF02D863F7FEF9707A105B10515
S1130DD018F46894BB24B1F8863F9F40A105B1057F
S1130DE010F4BB24B394BB2009F422C129013A01B5
S1130DF0F2E04F0E511C611C711CD80157964D92A4
S1130E005D926D927C925A97F801C78ED0A2E1A2AE
S1130E10F2A28D8D9E8DAF8DB8A18C0D9D1DAE1D42
S1130E20BF1D83A394A3A5A3B6A34D895E896F892F
S1130E30788D4C0D5D1D6E1D7F1D43A754A765A7BE
S1130E4076A7F3E0BF1220C0C801835A9F4F0E94C7
S1130E50F501892B09F0EEC0892809F0EDC0C8011D
S1130E60815A9F4F0E94FF01D80197966D937D93FD
S1130E708D939C939A97440C551C661C771C440CC8
S1130E80551C661C771C2DC0892809F4D7C0298DF0
S1130E903A8D4B8D5C8D820F931FA41FB51FF801F3
S1130EA087A390A7A1A7B2A7F2E0BF1205C0440C84
S1130EB0551C661C771C15C0A3E0B0E0A301920189
S1130EC00E949D31DC01CB01B695A7959795879536
S1130ED021E04222552466247724480E591E6A1EB6
S1130EE07B1E3FEF430E31E0531E611C711C032E29
S1130EF039E076946794579447943A95D1F7302D16
S1130F0049895A896B897C89441555056605770595
S1130F1008F496C08FEF9FEFDC01F8018787908B70
S1130F20A18BB28B83879487A587B68780E8848357
S1130F30F3E0BF1247C0C8018D599F4F0E94F501CD
S1130F40019709F03FC0B701A6014F5F5F4F6F4F94
S1130F507F4FC8010E94E004811134C0D801149667
S1130F601C92C8018F5C9D4F0E94F50185359A4AF9
S1130F7049F5C801C3960E94FF0162357245814656
S1130F80914401F5C801895E9D4F0E94FF016237BB
S1130F90724781449146B1F4C801855E9D4F0E9419
S1130FA0FF01D8011F966D937D938D939C93529767
S1130FB0C801815E9D4F0E94FF01F8016387748719
S1130FC085879687D801BC92809134619091356170
S1130FD00196809334619093356115968D939C931B
S1130FE01697F801138A148A158A168A80E029C094
S1130FF08BE027C08CE025C080E023C08AE021C0BC
S113100083E01FC08AE01DC081E01BC08DE019C0D1
S11310108DE017C08DE015C08DE013C08DE011C0C8
S11310208DE00FC08DE00DC08DE00BC08DE009C0D8
S11310308DE007C08DE005C08DE003C08DE001C0E8
S11310408DE0A096CDBFDEBFDF91CF911F910F91B0
S1131050FF90EF90DF90CF90BF90AF909F908F90D4
S11310607F906F905F904F9008952F923F924F9290
S11310705F926F927F928F929F92AF92BF92CF9224
S1131080DF92EF92FF920F931F93CF93DF9300D0E1
S113109000D0CDB7DEB7423051056105710508F4C3
S11310A0F1C0FC01C788D08CE18CF28C4C155D0535
S11310B06E057F0508F0E8C0280139016A017B014B
S11310C08B839C838081823009F475C0833009F45A
S11310D099C0813009F0DAC05A01B694A794A40EDD
S11310E0B51E43A154A165A176A1C501892F9927F5
S11310F08695480F591F611D711DCF010E94E004A0
S1131100182F8111C4C02B813C812D5C3F4F298352
S11311103A8315013FEF231A330A81E0B822E981AB
S1131120FA81EA0DFB1D4601570191E089229924B9
S1131130AA24BB24C0FE08C0208130E1439EC00124
S113114011242F70822B01C0842D808381E0EB81D8
S1131150FC81838343A154A165A176A1C101892F98
S113116099278695480F591F611D711DCF010E9453
S1131170E004182F81118BC0F1E03F22E981FA814C
S1131180E20DF31D89288A288B2849F0689413F806
S113119076946794579447941694D1F706C0908137
S11311A0907F852D8F70492E482A408281E0EB8103
S11311B0FC8183836CC0EB81FC8143A154A165A1B4
S11311C076A1BB27AF2D9E2D8D2D480F591F6A1F69
S11311D07B1FCF010E94E004182F811158C02B817E
S11311E03C812D5C3F4FCC0CDD1CC6018E7F917081
S11311F0B201820F931F0E941A0281E0EB81FC81ED
S1131200838345C0EB81FC8143A154A165A176A1F0
S1131210D701C601689416F8B695A7959795879552
S11312201694D1F7480F591F6A1F7B1FCF010E94E4
S1131230E004182F81112BC0FFE07F228B819C8159
S1131240C396CC0CDD1CCC0CDD1C2CEFC22221E09F
S1131250D222C80ED91EC6010E94FF01DC01CB01B7
S113126088279927AA27B07FB301A201482B592BBD
S11312706A2B7B2BC6010E941E0281E0EB81FC815C
S1131280838305C012E003C012E001C012E0812F85
S11312902496CDBFDEBFDF91CF911F910F91FF90B8
S11312A0EF90DF90CF90BF90AF909F908F907F9002
S11312B06F905F904F903F902F900895AF92BF92A0
S11312C0CF92DF92EF92FF920F931F93CF93DF930E
S11312D0FC01C081D181423051056105710508F4DA
S11312E0A6C08F89988DA98DBA8D481759076A07AA
S11312F07B0708F0A1C06A017B018881823009F470
S113130050C0833009F46DC0813009F09AC08A015D
S113131016950795040F151F4BA15CA16DA17EA125
S1131320C801892F99278695480F591F611D711D82
S1131330CE010E94E004811189C05801FFEFAF1A69
S1131340BF0A1170FE01E00FF11F03A910E04BA1C9
S11313505CA16DA17EA1C501892F99278695480FAF
S1131360591F611D711DCE010E94E004811172C0DC
S113137081E0B822CA0DDB1D6BA970E0762F6627C9
S1131380602B712BC0FE09C0729562956F70672740
S11313907F70672780E090E068C07F7080E090E015
S11313A064C04BA15CA16DA17EA1BB27AF2D9E2D76
S11313B08D2D480F591F6A1F7B1FCE010E94E00428
S11313C081114CC0CE01C396A601440F551F4E7F18
S11313D05170840F951F0E94F501BC0180E090E0DC
S11313E044C04BA15CA16DA17EA1D701C601689444
S11313F016F8B695A795979587951694D1F7480F43
S1131400591F6A1F7B1FCE010E94E00481112AC06C
S1131410E396A601440F551F440F551FCA018C7F44
S113142091708C0F9D1F0E94FF019F701EC061E090
S113143070E080E090E019C061E070E080E090E04E
S113144014C061E070E080E090E00FC06FEF7FEFC8
S1131450CB010BC06FEF7FEFCB0107C06FEF7FEFC6
S1131460CB0103C06FEF7FEFCB01DF91CF911F91D1
S11314700F91FF90EF90DF90CF90BF90AF900895C1
S11314804F925F926F927F928F929F92AF92BF9290
S1131490CF92DF92EF92FF920F931F93CF93DF933C
S11314A0EC016A017B01088119814115510580E233
S11314B06807710508F0ACC0DB01CA018F71992778
S11314C0AA27BB27892B8A2B8B2B09F0A3C04E8715
S11314D05F87688B798B8E809F80A884B984811400
S11314E09104A104B10441F4F8018081833020F017
S11314F087A090A4A1A4B2A481149104A104B1046E
S1131500F1F4F80187819085A0E0B0E0B701A6016D
S1131510689414F876956795579547951694D1F77E
S1131520481759076A077B0708F076C087A190A57A
S1131530A1A5B2A58E8B9F8BA88FB98F40C0F8014F
S113154041845284612C712C032E39E0440C551CC7
S1131550661C771C3A95D1F7302D23C0B501A40140
S1131560CE010E945E094B015C016F3F7F4F8F4F9C
S11315709F4F09F453C082E088169104A104B1047A
S113158008F44EC0F8018789908DA18DB28D88161C
S11315909906AA06BB0608F045C0C418D508E60893
S11315A0F708C414D504E604F704C0F6B501A40191
S11315B0C8010E9491026E8B7F8B888F998F8A8AD3
S11315C09B8AAC8ABD8A8E899F89A88DB98D009724
S11315D0A105B10549F1B701A601032E39E07695BD
S11315E06795579547953A95D1F7302D840F951FF8
S11315F0A61FB71F8E8B9F8BA88FB98F0D5C1F4FB3
S1131600F1E0DF22C00ED11ECA8EDB8E80E00DC059
S113161082E00BC082E009C082E007C081E005C01F
S113162082E003C082E001C082E0DF91CF911F918C
S11316300F91FF90EF90DF90CF90BF90AF909F906D
S11316408F907F906F905F904F9008954F925F922C
S11316506F927F928F929F92AF92BF92CF92DF92BE
S1131660EF92FF920F931F93CF93DF938C012A0184
S11316703B01FC01C081D181411551056105710512
S113168099F48B849C84AD84BE8481149104A10458
S1131690B10431F18F89988DA98DBA8D8816990678
S11316A0AA06BB0610F525C00E945E0962307105CA
S11316B08105910508F4F9C06F3FFFEF7F078F079D
S11316C09F0709F403C1CF88D88CE98CFA8C6C1578
S11316D07D058E059F0508F4F9C05301420109C038
S11316E0812C912C5401839404C0812C912C54019D
S11316F083946F85788989899A8961157105810533
S1131700910509F4E3C084149504A604B70409F010
S113171041C0750164012FEFC21AD20AE20AF20A2B
S11317208F89988DA98DBA8DC816D906EA06FB064D
S113173028F0C12CD12C76016894C1F8B701A60118
S1131740C8010E945E09613071058105910509F4A3
S1131750BDC06F3FEFEF7E078E079E0709F4B6C04A
S1131760672B682B692B19F18B859C85AD85BE850C
S113177082309105A105B10588F04F89588D698D96
S11317807A8D84179507A607B70760F0C12CD12C72
S113179076010DC0C12CD12C760109C0C12CD12CED
S11317A0760105C04C015D01C12CD12C7601C11418
S11317B0D104E104F104C9F575016401FFEFCF1A06
S11317C0DF0AEF0AFF0A8F89988DA98DBA8DC81692
S11317D0D906EA06FB0660F022E082169104A10411
S11317E0B10408F467C0C12CD12C76016894C1F807
S11317F0B701A601C8010E945E0961157105810542
S1131800910599F0613071058105910509F45EC077
S11318106F3FEFEF7E078E079E0709F457C0C81489
S1131820D904EA04FB0451F649C00FEF1FEF9801F5
S1131830B701A601CE010E94350881110CC04114E4
S113184051046104710439F097018601B301A201C6
S1131850CE010E943508811122C0CB86DC86ED863C
S1131860FE864F85588969897A898F89988DA98DD3
S1131870BA8D0297A109B10984179507A607B7077E
S113188040F041505109610971094F87588B698BA8
S11318907A8B8C8181608C83C701B60117C081303B
S11318A089F46FEF7FEFCB0111C061E070E080E05D
S11318B090E00CC060E070E0CB0108C060E070E034
S11318C0CB0104C061E070E080E090E0DF91CF9153
S11318D01F910F91FF90EF90DF90CF90BF90AF904A
S11318E09F908F907F906F905F904F9008954F924C
S11318F05F926F927F92AF92BF92CF92DF92EF92FC
S1131900FF920F931F93CF93DF935C016A017B01D6
S1131910B901A801FC01C081D181F2E0CF16D10444
S1131920E104F10408F460C08F89988DA98DBA8D03
S1131930C816D906EA06FB0608F058C0012B022B8C
S1131940032B41F00FEF1FEF9801CE010E943508E1
S1131950811153C0B701A601C5010E945E092B0184
S11319603C01611571058105910509F441C061309F
S1131970710581059105F1F18FEF48165806680647
S11319807806D1F100E010E09801B701A601CE017C
S11319900E943508811131C08F859889A989BA8937
S11319A04F89588D698D7A8D6A017B01E2E0CE1AE8
S11319B0D108E108F1088C159D05AE05BF0550F46A
S11319C00196A11DB11D8F87988BA98BBA8B8C8131
S11319D081608C837301620144165506660677069E
S11319E008F4B8CF80E009C082E007C082E005C0F7
S11319F080E003C082E001C081E0DF91CF911F91BC
S1131A000F91FF90EF90DF90CF90BF90AF907F90B9
S1131A106F905F904F9008958F929F92AF92BF9274
S1131A20CF92DF92EF92FF920F931F93CF93DF93A6
S1131A30EC016A017B010E948604811137C0B70161
S1131A40A601CE010E9491024B015C016FA778AB05
S1131A5089AB9AAB6E0183E3C80ED11C40E052E01F
S1131A6060E070E0C6010E943302E12CF12C03C057
S1131A708FEFE81AF80A89859A85E816F90670F452
S1131A8001E010E0A50194012E0D3F1D411D511DE3
S1131A90B60189810E949E1B882351F329853A85CA
S1131AA081E0E216F30619F480E001C081E0DF91E1
S1131AB0CF911F910F91FF90EF90DF90CF90BF9047
S1131AC0AF909F908F9008954F925F926F927F9204
S1131AD08F929F92AF92BF92EF92FF920F931F93B8
S1131AE0CF93DF93FC010081118186849784A088C1
S1131AF0B18820E2820E911CA11CB11C86899789B1
S1131B00A08DB18D0097A105B10509F4B7C081146A
S1131B10910420E2A206B10408F0B2C07B01EF01F7
S1131B20B501A401517066277727452B462B472B17
S1131B3009F096C00196A11DB11D868B978BA08FCD
S1131B40B18F4289538964897589411551056105AD
S1131B507105D9F4F80187819085A0E0B0E0B50162
S1131B60A401689414F8769567955795479516944B
S1131B70D1F7481759076A077B0708F471C01E8A12
S1131B801F8A188E198E84E088C0F8018185928599
S1131B9001972C01612C712CD501C401072E79E029
S1131BA0B695A795979587957A95D1F7702D842149
S1131BB09521A621B721892B8A2B8B2B09F050C0A4
S1131BC0CE010E945E092B013C0162307105810542
S1131BD0910508F457C06F3F7F4F8F4F9F4F09F413
S1131BE053C0F8018789908DA18DB28D481659068E
S1131BF06A067B0640F1EF2831F41E8A1F8A188E8C
S1131C00198E84E04AC04A895B896C897D89CE013A
S1131C100E94260B2B013C0161157105810591057C
S1131C20A9F1613071058105910591F16F3F2FEFA5
S1131C3072078207920771F1AB01BC01C8010E94CF
S1131C400C0D811129C04A8A5B8A6C8A7D8AB30192
S1131C50A201C8010E9491026E8B7F8B888F998F9D
S1131C608E869F86A88AB98A0D5C1F4F81E09822D0
S1131C70800E911E8A8E9B8E80E00FC084E00DC082
S1131C8084E00BC082E009C081E007C087E005C0A2
S1131C9082E003C081E001C081E0DF91CF911F9118
S1131CA00F91FF90EF90BF90AF909F908F907F9097
S1131CB06F905F904F900895EF92FF921F93CF9390
S1131CC0DF93EC01E880F98040E050E0BA010E9423
S1131CD0400A81112BC04E895F89688D798DC701B7
S1131CE00E94E004182F81111DC0EA8DFB8D8081B4
S1131CF08823C9F083858F738C83838583FD0AC011
S1131D004BE050E0BE01645E7F4FCF010E943C0275
S1131D10892B59F060E070E0CE010E94640D8823A5
S1131D20D1F204C003C084E001C0812FDF91CF91C0
S1131D301F91FF90EF900895DF92EF92FF920F931F
S1131D401F93CF93DF9300D0CDB7DEB78C01FB0197
S1131D5069837A83DC01ED90FC9080818F3281F07D
S1131D608C3571F0F70183899489A589B689F801C6
S1131D7086839783A087B18711C03196E983FA835C
S1131D80E981FA8180818F32C1F38C35B1F3D801B6
S1131D9016961D921D921D921C921997E981FA8143
S1131DA08081803258F480E8F80187A340E050E055
S1131DB0BA01C8010E94400AD82E48C0BE016F5F14
S1131DC07F4FC8010E941103D82E81113FC0C80162
S1131DD00E945C0ED80197969C919797882371F086
S1131DE0843039F595FF06C092FFE8CF80E89796D6
S1131DF08C932CC092FF1FC0D82E28C092FD20C007
S1131E00F801848184FF1EC086859785A089B189E5
S1131E109170B7016D5C7F4F680F791FC7010E94F5
S1131E20BF02D80116966D937D938D939C93199759
S1131E30C5CFD82E0BC00F2EF5E0DF2EF02D06C037
S1131E40D82E04C00F2EF5E0DF2EF02D8D2D0F902F
S1131E500F90DF91CF911F910F91FF90EF90DF9042
S1131E600895CF92DF92EF92FF920F931F93CF9337
S1131E70DF93EC016B01E880F98040E050E0BA01A7
S1131E800E94400A811121C000E010E04E895F8960
S1131E90688D798DC7010E94E004811116C0EA8D16
S1131EA0FB8D9081953E11F0911106C00F5F1F4F7D
S1131EB00C151D0519F409C000E010E061E070E0A4
S1131EC0CE010E94640D882309F3843009F487E06D
S1131ED0DF91CF911F910F91FF90EF90DF90CF9002
S1131EE00895EF92FF921F93CF93DF93EC01E88064
S1131EF0F98061E070E00E94310F182F81111EC03B
S1131F004E895F89688D798DC7010E94E004182F7E
S1131F10811114C040E250E060E070E08A8D9B8D36
S1131F200E943302BE01645E7F4F4BE050E08A8D15
S1131F309B8D0E94240281E0F7018383812FDF912E
S1131F40CF911F91FF90EF900895CF92DF92FF926F
S1131F500F931F93CF93DF93EC010E948604F82E16
S1131F6081115BC08881833009F04DC08C81813040
S1131F7009F049C040E052E060E070E06E0183E3A4
S1131F80C80ED11CC6010E94330265E57AEACE016F
S1131F908F5C9D4F0E941A0242E552E561E671E4AE
S1131FA0C6010E941E0242E752E761E471E6CE01D7
S1131FB0895E9D4F0E941E024F85588969897A89DE
S1131FC0CE01855E9D4F0E941E024B855C856D850A
S1131FD07E85CE01815E9D4F0E941E028F8D98A149
S1131FE0A9A1BAA19C01AD012F5F3F4F4F4F5F4F95
S1131FF02FA738AB49AB5AAB01E010E0B601898199
S11320000E949E1B1C8240E050E060E089810E9497
S1132010A91B882311F0FF24F3948F2DDF91CF9116
S11320201F910F91FF90DF90CF9008951F93CF934E
S1132030DF93CDB7DEB72697CDBFDEBF8B839C83FE
S11320406D837E83142F69837A83CE0101960E9467
S11320501204992324F1FC01EE0FFF1FEA5CFE49F0
S11320600190F081E02D309709F01082EB81FC8122
S1132070309709F01082880F991FFC01EA5CFE4931
S11320808B819C8180839183112359F040E0BE01B0
S11320906D5F7F4FCE0105960E94640503C08BE0FF
S11320A001C080E02696CDBFDEBFDF91CF911F91A6
S11320B008952F923F924F925F926F927F928F92E8
S11320C09F92AF92BF92CF92DF92EF92FF920F93C3
S11320D01F93CF93DF93CDB7DEB7AC97CDBFDEBFF1
S11320E06BA77CA7009709F484C1142F6C01842F7B
S11320F08F73E82E482FBE01675D7F4FCE018B960C
S11321000E946405F82E81116DC189A59AA5898361
S11321109A836BA57CA5CE0101960E949C0EF82E95
S1132120811107C088A5882324F40F2EF6E0FF2E22
S1132130F02D812F8C7109F472C0FF2061F0E4E06E
S1132140FE1205C0CE0101960E94710FF82EFE2DDD
S1132150F860EF2E0EC08D81817119F412FD06C056
S113216008C00F2EF7E0FF2EF02D03C06894FF2463
S1132170F3F8F11066C0E3FE64C06B8D7C8D89A515
S11321809AA50E94BF024B015C010E94AE1BAB01E9
S1132190BC018B8D9C8D0E960E941E02EB8DFC8DD6
S11321A080E283876B8D7C8D20E030E0A90189A5D6
S11321B09AA50E94EC028B8D9C8D40E050E0BA0100
S11321C04C960E941E02E9A5FAA581E0838381143E
S11321D09104A104B104A9F147A450A861A872A86C
S11321E000E010E09801B501A401CE0101960E941F
S11321F0770CF82E811125C0B301A20189A59AA5F7
S11322000E94E004F82EE9A5FAA581E0881A910855
S1132210A108B10883869486A586B68612C0F110FB
S113222010C08D8184FD05C011FF0BC080FD05C069
S113223008C06894FF24F2F804C00F2EF7E0FF2EC4
S1132240F02DF11014C0E3FE03C0EE2DE064EE2E79
S1132250E9A5FAA587A590A9A1A9B2A9F601848F39
S1132260958FA68FB78F8B8D9C8D80A391A3F11032
S1132270B9C08B8C9C8CA9A4BAA4B401C5010E94DA
S1132280BF02F6016683778380879187C4014C96E9
S11322900E94FF01F6016287738784879587A08275
S11322A0B182F50185819681F60182839383E68666
S11322B01786108E118E128E138E108A118A128A2E
S11322C0138A1601F2E22F0E311C40E052E060E066
S11322D070E0C1010E943302E5FE84C0F60142842D
S11322E0538464847584411451046104710409F4B1
S11322F079C0408A518A628A738AE9A5FAA58185E0
S11323009285A0E0B0E04C015D01072E79E0880CD5
S1132310991CAA1CBB1C7A95D1F7702DF601468135
S113232057816085718519C0C6010E945E09AB01A1
S1132330BC01423051056105710518F46894FF240D
S1132340F1F84F3FFFEF5F076F077F0711F4FF249A
S1132350F394481859086A087B08F11005C08414DE
S11323609504A604B70400F3F601448B558B668BE1
S1132370778BF11037C0D301C2019170AA27BB2714
S1132380892B8A2B8B2B71F189A49AA4C4010E94F6
S113239091026115710581059105F1F0032E39E073
S11323A076946794579447943A95D1F7302D9B01CE
S11323B0AC01240D351D461D571DF601208F318FAC
S11323C0428F538F01E010E0B101F40181810E943A
S11323D0931B811105C006C06894FF24F1F802C064
S11323E0FF24F394FF2039F0F601108211828F2D1F
S11323F003C089E001C08F2DAC96CDBFDEBFDF9155
S1132400CF911F910F91FF90EF90DF90CF90BF90ED
S1132410AF909F908F907F906F905F904F903F9080
S11324202F9008952F923F924F925F926F927F92D6
S11324308F929F92AF92BF92CF92DF92EF92FF92D0
S11324400F931F93CF93DF93CDB7DEB72897CDBFFC
S1132450DEBF7C014B016A015901D9011D921C9216
S11324608F83F886BE016F5F7F4F0E9451048111F4
S113247087C1F7018785811183C1868581FF7FC16B
S113248080899189A289B389AC01BD014C0D5D1D80
S1132490611D711D481759076A077B0708F062C15F
S11324A06C01C094D0945EC1F70180899189A2899E
S11324B0B389AC01BD01517066277727452B462BA4
S11324C0472B09F008C1E981FA8161847284F1E043
S11324D06F1A7108AC01BD01032E39E0769567953A
S11324E0579547953A95D1F7302D6422752261149A
S11324F0710409F051C0892B8A2B8B2BA1F4D701CD
S113250016966D917D918D919C9119976115710528
S11325108105910589F440E050E0BA018F819885E6
S11325200E94260B09C0F701448955896689778979
S11325308F8198850E94260B61157105810591058F
S113254009F414C1613071058105910529F482E013
S1132550D7011F968C9314C16F3FBFEF7B078B0786
S11325609B0721F481E0F70187870AC1D7015496BC
S11325706D937D938D939C93579716960D911D9112
S11325802D913C911997012B022B032B29F4F70170
S11325906683778380879187D7011E968C911E97D7
S11325A08823ECF4E981FA8158962D913D914D915F
S11325B05C915B9701E010E0B7016E5D7F4F818114
S11325C00E949E1B882321F081E0F7018787D8C0F1
S11325D0D7011E968C911E978F771E968C93F701C8
S11325E0448955896689778989819A818D839E83F7
S11325F00E949102611571058105910529F482E01B
S1132600D7011F968C93BCC01B012C01260C371CD0
S1132610411C511CF601EF2FFF27E695EB83FC8349
S1132620309741F1AD81BE8119962D913C911A9755
S1132630CF01860D971D2817390728F4F901E619EB
S1132640F709EB83FC830B811C81A2019101B40186
S1132650AD81BE8111968C910E949E1B882321F02E
S113266081E0F70187878CC06B807C80762C6624A0
S1132670770C50C0F701808D918DA28DB38D2816F3
S113268039064A065B0601F14089518962897389DA
S113269082859385A485B585481759076A077B0702
S11326A098F401E010E0A2019101B7016E5D7F4F43
S11326B0AD81BE8111968C910E94931B882321F0D9
S11326C081E0F70187875CC0D70158962D923D922F
S11326D04D925C925B97F70180899189A289B389B5
S11326E0917020E032E03901681A790AC614D704DF
S11326F008F43601A301B40197012E5D3F4F820F08
S1132700931F0E942402D7011E968C911E97806805
S11327101E968C93C618D708F50180819181860D89
S1132720971D80839183860C971CF701808991897A
S1132730A289B389860D971DA11DB11D808B918B34
S1132740A28BB38B42855385648575858417950761
S1132750A607B70710F4DB01CA01F7018287938744
S1132760A487B587C114D10409F09ECED7011E9663
S11327708C911E9780641E968C9380E001C087E044
S11327802896CDBFDEBFDF91CF911F910F91FF90AF
S1132790EF90DF90CF90BF90AF909F908F907F90FD
S11327A06F905F904F903F902F900895EF92FF921B
S11327B00F931F93CF93DF9300D0CDB7DEB7FC0107
S11327C022813381332364F18C017901FFEFEF1A05
S11327D0FF0AFC01E20FF31F66838DE3E816F104A0
S11327E0BCF09E012F5F3F4FA701B8016A5F7F4F86
S11327F0F801808191810E94121289819A81E816E0
S1132800F90619F4E12CF12C03C0EE24EA94FE2C11
S1132810F801E282F3828481958101968483958311
S11328200F900F90DF91CF911F910F91FF90EF9038
S113283008950F931F93CF93DF9300D0CDB7DEB7E6
S1132840FC01428153815523C4F08C01BC016A5FB1
S11328507F4F9E012F5F3F4F808191810E94121212
S113286081110EC0F8012281338189819A81281750
S1132870390749F48481958108C08FEF9FEF05C023
S11328808FEF9FEF02C08FEF9FEF0F900F90DF91BC
S1132890CF911F910F9108958F929F92AF92BF9203
S11328A0EF92FF920F931F93CF93DF9300D0CDB796
S11328B0DEB77C01BE016F5F7F4F0E94510481111E
S11328C065C0D7011E969C911E9796FF5FC0992301
S11328D0B4F4E981FA8158962D913D914D915C9122
S11328E05B9701E010E0B7016E5D7F4F81810E942C
S11328F09E1B81114AC0F70186858F7786870E94C7
S1132900AE1B4B015C01D7015C964D915D916D91BD
S11329107C915F9789819A810E94E004811136C07D
S1132920F70100A111A1D8011B968C911B9780621D
S11329301B968C932681378140855185B80180810F
S113294091810E94EC02F701428553856485758567
S1132950C8014C960E941E02B501A401C801469606
S11329600E941E0260E070E0C80142960E941A02B2
S113297089819A8121E0DC0113962C930E94A50F92
S1132980F70196859F7B968701C081E00F900F9099
S1132990DF91CF911F910F91FF90EF90BF90AF9077
S11329A09F908F9008950F931F93CF93DF9300D040
S11329B0CDB7DEB78C010E944C1481110BC0BE014F
S11329C06F5F7F4FC8010E945104811103C0F80159
S11329D0108211820F900F90DF91CF911F910F9170
S11329E008950F931F93CF93DF93CDB7DEB7C654EB
S11329F0D109CDBFDEBF8C01CE0101960E944904EE
S1132A0006C00F5F1F4FCE0101960E94D613F80136
S1132A1060816111F6CFCE0101960E941914CA5B40
S1132A20DF4FCDBFDEBFDF91CF911F910F9108958E
S1132A3082E080933A6180913A618111FCCFE0E4B5
S1132A40F4E080818160808380818D7F80838081B8
S1132A508460808380818860808382E0858384E0D1
S1132A608583E0E6F9E083E2808380818F7E808342
S1132A700895E0E6F9E080818E7F8083809106608E
S1132A80816080930660089580936409809163094E
S1132A908823E4F7809164090895FC0101C0F901D9
S1132AA08FEF80936409909163099923E4F7A0E67A
S1132AB0B9E014968C91149780838FEF14968C93BD
S1132AC0909163099923E4F79F012E5F3F4F809112
S1132AD0640981836250710911F70895FC0101C0F2
S1132AE0F901808180936409909163099923E4F743
S1132AF09F012E5F3F4F8181809364098091630918
S1132B008823E4F76250710959F708959C01ADECEC
S1132B10BCEC0E948E3196958795969587959695EF
S1132B208795809339618FEF0E9444158F3F21F080
S1132B30909139619111F7CF91E08F3F09F090E0C6
S1132B40892F90E00895E0E4F4E084818860848330
S1132B508FEF0E9444150895CF93DF93E0E4F4E0EF
S1132B608481877F84838FEF0E94441584EF91E0F2
S1132B700E948615EC01892B19F40E94A31502C04A
S1132B80C1E0D0E0CE01DF91CF9108950F931F9360
S1132B90CF93DF93EC018B0184E180933A618FEF53
S1132BA00E9444158F3F21F490913A619111F7CF1F
S1132BB08E3F69F4B801CE010E944D158FEF0E943B
S1132BC044158FEF0E94441581E090E002C080E03C
S1132BD090E0DF91CF911F910F9108950F931F9370
S1132BE0CF938C01C62F84EF91E00E948615009745
S1132BF0E9F08C2F0E944415CD3FB1F060E072E003
S1132C00C8010E946E158FEF0E9444158FEF0E9439
S1132C1044158FEF0E9444158F7191E0853009F0BF
S1132C2090E0892F90E002C081E090E0CF911F9165
S1132C300F910895FF920F931F93CF93DF93C82FA3
S1132C40D42F152F062FF72E88234CF4CF7740E08E
S1132C5050E0BA0187E30E941A16823088F5CC301E
S1132C6031F00E94A3150E94AC15892B41F18C2FE1
S1132C7080640E9444158F2D0E944415802F0E9469
S1132C804415812F0E9444158D2F0E944415CC2396
S1132C9011F081E001C085E9C83009F487E80E9499
S1132CA04415CC3019F48FEF0E944415CAE08FEF1D
S1132CB00E944415882324F4C150C9F701C08FEF42
S1132CC0DF91CF911F910F91FF900895EF92FF92A2
S1132CD00F931F93CF93DF9300D000D0CDB7DEB70F
S1132CE00E9439158AE080933A6180913A6181119A
S1132CF0FCCF8091066081FF03C080910660B7C05D
S1132D000E941815E0E6F9E08081826080831AE071
S1132D1004C08FEF0E94441511501111FACF40E006
S1132D2050E0BA0180E00E941A16813009F07EC09A
S1132D3084E680933A614AEA51E060E070E088E01A
S1132D400E941A16813009F04AC00EC0E02EF12C00
S1132D508FEF0E944415E1E0F0E0EC0FFD1FEE0D53
S1132D60FF1D80830F5F01C0012F043078F38B8136
S1132D70813009F05DC08C818A3A09F05BC0809192
S1132D803A61882349F040E050E060E070E489EA69
S1132D900E941A168111F3CF80913A61882309F4B5
S1132DA04BC040E050E0BA018AE30E941A1688231F
S1132DB079F010E048C0E12EF12C8FEF0E94441509
S1132DC0E1E0F0E0EC0FFD1FEE0DFF1D80831F5FBF
S1132DD0143088F3898186FF31C01CE034C040E0A0
S1132DE050E0BA0189EA0E941A16823018F412E0FF
S1132DF009EA02C011E001E080913A61882341F0C0
S1132E0040E050E0BA01802F0E941A168111F4CFDD
S1132E1080913A618823A1F040E052E060E070E0E4
S1132E2080E10E941A1681110DC00DC010E00BC084
S1132E3010E009C010E007C010E005C014E003C0B2
S1132E4010E001C010E0109338610E94A315112313
S1132E5051F0809106608E7F80930660E0E6F9E091
S1132E608081808302C00E94391580910660249677
S1132E70CDBFDEBFDF91CF911F910F91FF90EF90F7
S1132E800895809106600895FF920F931F93CF9346
S1132E90DF938C01E9012097E1F18091066080FDC8
S1132EA03AC08091386183FD09C0032E39E0440F94
S1132EB0551F661F771F3A95D1F7302DC230D105C3
S1132EC028F00F2EF2E1FF2EF02D04C00F2EF1E1B9
S1132ED0FF2EF02D8F2D0E941A16811113C060E071
S1132EE072E0C8010E94C615892B19F01E5F219754
S1132EF0B1F782E1F81206C040E050E0BA018CE07C
S1132F000E941A160E94A31581E0CD2B29F480E0BB
S1132F1003C084E001C083E0DF91CF911F910F9142
S1132F20FF900895CF92DF92EF92FF920F931F9339
S1132F30CF93DF938C016A017B01E901209709F4A7
S1132F4052C08091066080FD50C08091066082FD71
S1132F504EC08091386183FD09C00B2EB9E0CC0CC2
S1132F60DD1CEE1CFF1CBA95D1F7B02DC130D10584
S1132F7071F4B701A60188E10E941A1681112CC0D0
S1132F806EEFC8010E94EE15892B09F525C08670E5
S1132F9031F0AE0160E070E087E90E941A16B701D3
S1132FA0A60189E10E941A16811116C06CEFC801AE
S1132FB00E94EE15892B19F01E5F2197B9F76DEF6A
S1132FC080E090E00E94EE15892B21F005C0C0E05E
S1132FD0D0E002C0C1E0D0E00E94A31581E0CD2B77
S1132FE039F480E005C084E003C083E001C082E0DE
S1132FF0DF91CF911F910F91FF90EF90DF90CF90D1
S113300008958F929F92AF92BF92CF92DF92EF92E8
S1133010FF920F931F93CF93DF93CDB7DEB76097E3
S1133020CDBFDEBFE82F8B018091066080FD36C3E3
S11330308E2F90E08A33910508F035C3FC01E85ADD
S1133040FF4F0C9488310E94AC15892B11F411E0C8
S113305001C010E00E94A315F12E3AC340E050E0F5
S1133060BA0189E00E941A1681116EC060E170E015
S1133070CE0101960E94C615892B09F467C0898187
S11330808295869586958370813031F58A85298568
S113309030E0322F2227280F311D88858F7390E06E
S11330A0A0E0B0E0DC0199278827820F931FA11DBF
S11330B0B11D0196A11DB11D072E7AE0880F991F3D
S11330C0AA1FBB1F7A95D1F7702DF80180839183D5
S11330D0A283B38310E03BC02E819B85991F99275F
S11330E0991F8A852F70290F8370880F280F2E5FF0
S11330F03985888590E0880F991F880F991F32952C
S1133100369536953370AC01430F511D9F819370F2
S1133110892F90E0982F8827990F990F840F951F76
S11331200196A0E0B0E030E02950310904C0880FD6
S1133130991FAA1FBB1F2A95D2F7F8018083918398
S1133140A283B38310E003C011E001C011E00E9428
S1133150A315F12EBDC28091386182FF35C040E0D5
S113316050E0BA018DE80E941A1681118BC08FEFCE
S11331700E94441560E170E0CE0101960E94C615DC
S1133180892B39F411E083C08FEF0E944415FA941F
S113319004C00F2EF0E3FF2EF02DF110F5CF2B8598
S11331A022952F7080E190E0A0E0B0E004C0880F89
S11331B0991FAA1FBB1F2A95D2F7F8018083918318
S11331C0A283B38310E063C040E050E0BA0189E019
S11331D00E941A16811158C060E170E0CE01019678
S11331E00E94C615892B09F451C08091386181FF72
S11331F01FC08B858F7390E0880F991F2C8527FD46
S1133200019601962E85229526952695237030E009
S11332102150310902C0880F991F2A95E2F7A0E0D6
S1133220B0E0F80180839183A283B38310E02FC0C0
S11332308B858C7790E095958795959587950196E4
S11332404C85242F237030E0220F331F220F331FAD
S1133250220F331F429546954770240F311D2F5F6F
S11332603F4F289FA001299F500D389F500D1124D6
S1133270CA01A0E0B0E0F80180839183A283B38304
S113328010E005C011E003C011E001C011E00E948C
S1133290A315F12E1DC280913861867009F407C20E
S11332A0BE016F5F7F4F83E30E940118F82E8111E6
S11332B001C28981829586958695837019F48B85E0
S11332C086FFFBC1D8014D915D916D917C9113975F
S11332D014968D909D90AD90BC9017978091386115
S11332E083FD12C0032E39E0440F551F661F771F5C
S11332F03A95D1F7302D072E79E0880C991CAA1C39
S1133300BB1C7A95D1F7702D80E20E941A168111A8
S1133310D7C1B501A40181E20E941A168111D3C15B
S113332040E050E0BA0186E20E941A168111CEC133
S113333080E395E70E948615892B09F0C9C1FF2413
S1133340F394C6C180913861FB018083F12CC0C124
S113335040E050E0BA0189E00E941A16811109C0C8
S113336060E170E0C8010E94C615892B21F411E0C8
S113337003C011E001C010E00E94A315F12EA8C102
S113338040E050E0BA018AE00E941A16811109C097
S113339060E170E0C8010E94C615892B21F411E098
S11333A003C011E001C010E00E94A315F12E90C1EA
S11333B040E050E0BA018AE30E941A16882371F0B3
S11333C011E012C06801FFEFCF1ADF0A8FEF0E94ED
S11333D04415D8018C93FA94860103C06894FF24A1
S11333E0F2F8F110EFCF10E00E94A315F12E70C196
S11333F040E050E0BA018DE80E941A1681110CC019
S11334008FEF0E94441560E470E0C8010E94C61565
S1133410892B21F411E003C011E001C010E00E94E7
S1133420A315F12E55C10E94391580910660816063
S113343080930660F12C4CC1FB01408150E060E0B8
S113344070E0032E3CE1440F551F661F771F3A9529
S1133450D1F7302D83819481A581B681072E79E03F
S1133460880F991FAA1FBB1F7A95D1F7702D482B7F
S1133470592B6A2B7B2B8181928101979170A0E05B
S1133480B0E0482B592B6A2B7B2B706880E30E9499
S11334901A1681113CC084E680933A618FEF0E9432
S11334A044158F3F21F490913A619111F7CF8E3FEB
S11334B081F5D8011796CD90DC9018971196ED9070
S11334C0FC9012970DC05601BFEFAB1ABB0A8FEFE9
S11334D00E944415F6018083F1E0EF1AF1086501BA
S11334E0E114F10481F7D80111968D919C91129702
S11334F002E012E0081B190B05C08FEF0E9444156F
S11335000150110901151105C1F710E003C011E0C4
S113351001C011E00E94A315F12EDAC0FB01408125
S113352050E060E070E0032E3CE1440F551F661F3D
S1133530771F3A95D1F7302D83819481A581B68187
S1133540072E79E0880F991FAA1FBB1F7A95D1F720
S1133550702D482B592B6A2B7B2B818192810197EB
S11335609170A0E0B0E0482B592B6A2B7B2B70683C
S113357081E30E941A16811138C08FEF0E9444150E
S11335808EEF0E944415D8011796ED91FC9118977F
S11335901196ED90FC9012970BC06F01BFEFCB1A00
S11335A0DB0A80810E944415E1E0EE1AF108F6017D
S11335B0E114F10491F7D80111968D919C91129721
S11335C002E012E0081B190B05C08FEF0E9444159E
S11335D00150110901151105C1F78FEF0E9444151F
S11335E08F71853021F011E003C011E001C010E0BB
S11335F00E94A315F12E6CC0FB01408150E060E0F5
S113360070E0032E3CE1440F551F661F771F3A9567
S1133610D1F7302D83819481A581B681072E79E07D
S1133620880F991FAA1FBB1F7A95D1F7702D482BBD
S1133630592B6A2B7B2B828190E0A0E0B0E0482BD1
S1133640592B6A2B7B2B746881E30E941A16811113
S11336501EC08FEF0E9444158EEF0E944415D801BE
S113366011968C910E94441501E012E005C08FEF81
S11336700E9444150150110901151105C1F78FEF7E
S11336800E9444158F71853021F011E003C011E0D0
S113369001C010E00E94A315F12E1AC00F2EF3E012
S11336A0FF2EF02D15C06894FF24F2F811C0FF24FA
S11336B0F3940EC0FF24F3940BC0FF24F39408C0CA
S11336C0FF24F39405C0FF24F39402C0FF24F39471
S11336D08F2D6096CDBFDEBFDF91CF911F910F91EB
S11336E0FF90EF90DF90CF90BF90AF909F908F901E
S11336F0089580913A61882319F0815080933A614A
S113370080913961882319F08150809339618091C7
S11337100660897F8093066008950E946616089566
S11337200E94411708950F931F93CB01BA01A90179
S113373098010E9444171F910F9108950F931F93AE
S1133740CB01BA01A90198010E9492171F910F9110
S11337500895862FBA010E9401180895EDE7F2E654
S1133760408151814C5B574060E070E0032E39E1A9
S1133770440F551F661F771F3A95D1F7302D82816C
S113378090E0A0E0B0E0072E75E1880F991FAA1F12
S1133790BB1F7A95D1F7702D482B592B6A2B7B2BA5
S11337A0838190E0A0E0B0E0DC0199278827482BD2
S11337B0592B6A2B7B2B858190E0A0E0B0E0072E8B
S11337C07BE0880F991FAA1FBB1F7A95D1F7702D34
S11337D0482B592B6A2B7B2B868190E0A0E0B0E02C
S11337E0880F991FAA1FBB1F880F991FAA1FBB1FF1
S11337F0880F991FAA1FBB1F880F991FAA1FBB1FE1
S1133800880F991FAA1FBB1F842B952BA62BB72BA0
S113381027812695BC01CD01622B0895A0E6B4E072
S113382080E411968C93119790E29093A104E0E0C8
S1133830F4E0918320E8218384E0818396832683C6
S113384090E112969C93129712968C93129785830B
S113385016969C93169716968C930895CF93DF93A0
S113386000D000D0CDB7DEB7E0E0FAE081E0828797
S1133870118281858E7F81878FE19EE486A397A341
S113388083E080839EEF88ED84BF90937C008091D9
S1133890630083FDFCCF88ED9BEF84BF90937C0095
S11338A091E084BF90937C00809141018111FCCF11
S11338B0E0E4F1E017828581816085838FEF93E0F6
S11338C08287938789EA8083828181608283809161
S11338D0630083FF08C08AE090E08B839C838B8124
S11338E09C8189839A832496CDBFDEBFDF91CF91DB
S11338F008951092A000E0E0F6E084E0808787E875
S113390093E10197F1F700C0000081E08287809184
S11339100D0680FFFCCF609110067091110680E0C7
S113392090E00E94423020E030E040E857E30E94FB
S1133930F9302FE632E143E85FE30E94F93008955D
S113394086E08093A000E0E0F6E082E0808787E8EC
S113395093E10197F1F700C0000081E08287809134
S11339600D0680FFFCCF609110067091110680E077
S113397090E00E94423020E030E040E857E30E94AB
S1133980F93023E333E343E550E40E94F93008952A
S1133990EF92FF920F931F93CF93DF93CDB7DEB7D0
S11339A06197CDBFDEBF43E050E06AE470E68DEA84
S11339B091E60E942E33892B29F48EE490E60E942E
S11339C0532FC1C143E050E069E570E68DEA91E60A
S11339D00E942E33892B09F060C01B864AE050E018
S11339E060EB71E6CE0101960E943C33CE01019654
S11339F00E9407336093796270937A6280937B624A
S1133A0090937C6281E09091BA61943709F080E0F0
S1133A108093076081E09091BB61943709F080E066
S1133A208093AC6181E09091BC61943709F080E0AF
S1133A308093AB6180911360909114608093A9612D
S1133A409093AA6180911160909112608093A76114
S1133A509093A86180910F60909110608093A5610C
S1133A609093A66180910D6090910E608093A36104
S1133A709093A4610E941D2B8DE590E60E94532F24
S1133A802FE788E391E0215080409040E1F700C0A7
S1133A90000081E08093786256C143E050E062E622
S1133AA070E68DEA91E60E942E33892B09F0BDC0A1
S1133AB01092786281E09091B061943709F080E0CF
S1133AC08093186081E09091B661943709F080E0AA
S1133AD08093176081E09091BC61943709F080E095
S1133AE08093166081E09091C261943709F080E080
S1133AF080931560198A45E050E061EB71E6CE01D0
S1133B000C960E943C33CE010C960E94E9328093BD
S1133B1013609093146045E050E067EB71E6CE01CA
S1133B200C960E943C33CE010C960E94E93280939D
S1133B3011609093126045E050E06DEB71E6CE01A8
S1133B400C960E943C33CE010C960E94E93280937D
S1133B500F609093106045E050E063EC71E6CE0195
S1133B600C960E943C33CE010C960E94E93280935D
S1133B700D6090930E601B864AE050E068EC71E69D
S1133B80CE0101960E943C33CE0101960E94073378
S1133B906093096070930A6080930B6090930C604B
S1133BA08091096090910A60A0910B60B0910C60C3
S1133BB0E0910D60F0910E60E090156060910F60EF
S1133BC070911060F09016604091116050911260F5
S1133BD00091176020911360309114601091186067
S1133BE0BF93AF939F938F93FF93EF931F92EF92A3
S1133BF07F936F931F92FF925F934F931F920F9344
S1133C003F932F931F921F9386E690E69F938F9383
S1133C108BE391E69F938F930E9498338BE391E615
S1133C200E94532FCDBFDEBF8EC043E050E067E853
S1133C3070E68DEA91E60E942E33892B09F045C087
S1133C408091096090910A60A0910B60B0910C6022
S1133C50E0910D60F0910E60E090156060910F604E
S1133C6070911060F0901660409111605091126054
S1133C7000911760209113603091146010911860C6
S1133C80BF93AF939F938F93FF93EF931F92EF9202
S1133C907F936F931F92FF925F934F931F920F93A3
S1133CA03F932F931F921F938BE890E69F938F93DC
S1133CB08BE391E69F938F930E9498338BE391E675
S1133CC00E94532FCDBFDEBF3EC043E050E06CEAFC
S1133CD070E68DEA91E60E942E33892B39F4109216
S1133CE0786280EB90E60E94532F2DC043E050E0B1
S1133CF065EB70E68DEA91E60E942E33892B79F408
S1133D008DEA91E60E94C72665EB70E68BE391E6A7
S1133D100E9465298BE391E60E94532F14C043E06F
S1133D2050E069EB70E68DEA91E60E942E33892B10
S1133D3051F469EB70E68BE391E60E9465298BE30D
S1133D4091E60E94532F1092AD616196CDBFDEBF04
S1133D50DF91CF911F910F91FF90EF9008950F93F2
S1133D601F93CF9380E090E0FC01E355FE4920814E
S1133D70222329F08436910520F0C0E003C0C0E07E
S1133D8001C0C1E0CC2311F00196EECF833691053A
S1133D9011F480E090E000E010E0F801EF5EFD49EE
S1133DA02081222329F00436110520F02C2F03C092
S1133DB02C2F01C021E02223C9F003361105B1F0F4
S1133DC0F801EF5EFD492081FC01E355FE492083A3
S1133DD001960F5F1F4F2D3001F7FC01E355FE499B
S1133DE010820E94C81C80E090E0D7CFCF911F9131
S1133DF00F910895AF92BF92CF92DF92EF92FF920C
S1133E000F931F93CF93DF93CDB7DEB76997CDBFE1
S1133E10DEBFEE86FF86088B198B2A8B3B8B4C8B7F
S1133E205D8B6E8B7F8B888F998F9091A161992385
S1133E3009F44CC02DE0CE0101965C01FC01322F47
S1133E4011923A95E9F7E9884E2D0E2C000C550B8A
S1133E50FB888F2D0F2C000C990B01960C891D8962
S1133E600459184F5F93EF929F938F931F930F936F
S1133E708DEB90E69F938F931F922F93BF92AF92F7
S1133E800E946833EDE7F2E600831183F394F28233
S1133E90E382888985838F8586838E85878382E202
S1133EA092E00E94C8318C0142E3B5010E9459108E
S1133EB0CDBFDEBF811107C0B801C6010E94F11455
S1133EC0C8010E94D314C8010E9460326996CDBF14
S1133ED0DEBFDF91CF911F910F91FF90EF90DF90A4
S1133EE0CF90BF90AF9008950E942E250E94A62ADD
S1133EF00E940E1CF894E0E0F6E0808185608083E7
S1133F0081818660818382818C608283E0E0F4E039
S1133F1082898360828B0E94232C0E945C2E0E94E3
S1133F202E1C80E28093A60483E392E00E94C831B1
S1133F3080939F619093A0612FE78AE196E02150DE
S1133F4080409040E1F700C0000078948091856241
S1133F508823C9F081E0809378628093076010928F
S1133F60AB611092AC618091796290917A62A09178
S1133F707B62B0917C628093096090930A60A09305
S1133F800B60B0930C6080917862811106C08091BF
S1133F90A161882321F080E003C080E001C081E0BA
S1133FA0882371F041E068E570E680919F6190910B
S1133FB0A0610E941610811103C081E08093A16169
S1133FC080917862882331F09091AC61992319F043
S1133FD080E001C080E0882339F0E0E5F0E08081F2
S1133FE0897F8460808305C0E0E5F0E08081897F7B
S1133FF08083E0E5F0E08081816080838895808122
S11340008E7F8083C0CF1F920F920FB60F92112420
S11340102F933F934F935F936F937F938F939F93CC
S1134020AF93BF93EF93FF93809100088E3731F4E1
S113403081E0809376628093776249C09091776241
S1134040992309F444C0E0917662E130D9F1E23079
S113405021F48D5F8093756235C0E33071F480394B
S113406061F0803921F48EE0809308602BC08D3A92
S113407049F584E08093086025C0209108602E17DC
S113408008F590917562E91790F030E02F5F3F4F8B
S1134090F0E0E21BF30BEF5EFD49108210927762B1
S11340A010927562109276620E94AF1E0BC0E917DF
S11340B048F430E02F5F3F4FF0E0E21BF30BEF5E7C
S11340C0FD498083809176628F5F80937662FF9151
S11340D0EF91BF91AF919F918F917F916F915F917C
S11340E04F913F912F910F900FBE0F901F901895F5
S11340F01F920F920FB60F9211242F933F934F9359
S11341005F936F937F938F939F93AF93BF93EF933B
S1134110FF930E94791B81E080930B0AFF91EF913A
S1134120BF91AF919F918F917F916F915F914F91CB
S11341303F912F910F900FBE0F901F9018951F92D3
S11341400F920FB60F9211248F929F92AF92BF924B
S1134150CF92DF92EF92FF920F931F932F933F938F
S11341604F935F936F937F938F939F93AF93BF937B
S1134170EF93FF93CF93DF93CDB7DEB7C354D10949
S1134180CDBFDEBF81E0809343018091796290913D
S11341907A62A0917B62B0917C620196A11DB11DEF
S11341A08093796290937A62A0937B62B0937C62ED
S11341B080917862882309F497C340917962509181
S11341C07A6260917B6270917C62809109609091C7
S11341D00A60A0910B60B0910C60481759076A07F8
S11341E07B0708F4CCC380911660882379F0209172
S11341F00F60309110604091A5615091A661241B1D
S1134200350B2431310518F080E001C080E08823AB
S113421031F0E0E0F4E080E2858380E885832EE6F7
S11342203FE229AF3AAF81E690E08BAF9CAF43E029
S1134230FE01FD96DF01542F1D925A95E9F72AAB32
S11342403BAB8CAB9DAB3797DF01542F1D925A9536
S1134250E9F72BA73CA78DA79EA73797DF01542F1B
S11342601D925A95E9F72CA33DA38EA39FA33797DC
S1134270DF01542F1D925A95E9F72D8F3E8F8F8FB2
S113428098A33797DF01542F1D925A95E9F72E8B87
S11342903F8B888F998F3797DF011D924A95E9F7F5
S11342A02D873E878F87988B399785E0DF011D9294
S11342B08A95E9F78091A5619091A6610196809312
S11342C0A5619093A66180911660882369F040915E
S11342D00F60509110602091A5613091A661241760
S11342E0350718F480E001C080E0882309F46BC02E
S11342F00E94A01C6B017C018E010A5E1F4F24E00A
S113430046E00E94A8312091196030911A604091D2
S11343101B6050911C60C701B6010E94D02F20E0A1
S113432030E040E85FE30E945E2FE62EF72E082F70
S1134330192F20E030E0A9010E94CB2F882324F418
S1134340E12CF12C00E010E02EEE3CE74FE952E4C2
S11343506E2D7F2D802F912F0E94F93029EC36E7A6
S113436040E451E40E945E2F9B01AC016E2D7F2D31
S1134370802F912F0E94F9302CE032E047E150E485
S11343800E945F2F9B01AC016E2D7F2D802F912FFA
S11343900E94F9308E01035E1F4F24E046E00E9424
S11343A0A8311092A5611092A66180910F6090913E
S11343B01060449750F0E0E0F4E080E2868380E807
S11343C0868321E003C020E001C021E08091A9613F
S11343D09091AA6101968093A9619093AA618091BA
S11343E01860882369F060911360709114604091A3
S11343F0A9615091AA614617570718F480E001C0DB
S113440080E0882309F4ABC024961CAE1DAE1EAE1A
S11344101FAE249719821A821B821C82BE016F5F11
S11344207F4FCE01805C9F4F0E945F2C882309F44C
S113443091C060912D6070912E6080912F60909159
S1134440306024962CAD3DAD4EAD5FAD24970E94F7
S1134450F930209196623091976240919862509120
S113446099620E945F2F6B017C0120E030E048E4F8
S113447052E40E94F430181644F40F2EC12CD12CAF
S1134480F8E4EF2EF2E4FF2EF02D20E030E040E2DD
S113449051ECC701B6010E94CB2F882344F40F2EA0
S11344A0C12CD12CF0E2EF2EF1ECFF2EF02D24964E
S11344B0CCAEDDAEEEAEFFAE249760912960709174
S11344C02A6080912B6090912C6029813A814B81E4
S11344D05C810E94F9302091926230919362409104
S11344E09462509195620E945F2F4B015C0120E021
S11344F030E048EC52E40E94F430181644F40F2ED5
S1134500812C912CF8ECAF2EF2E4BF2EF02D20E09C
S113451030E0A901C501B4010E94CB2F88231CF40B
S1134520812C912C540189829A82AB82BC828E01A7
S1134530075C1F4F22E046E0C701B6010E94A83184
S113454069817A818B819C810750110922E046E0C0
S11345500E94A8311092A9611092AA6121E0809171
S1134560A7619091A86101968093A7619093A86137
S113457080911760882369F06091116070911260D6
S11345804091A7615091A8614617570718F480E03D
S113459001C080E0882309F45FC00E94791C6B018C
S11345A07C018E010C5D1F4F24E046E00E94A8317F
S11345B020E030E040E05FE3C701B6010E945E2FD7
S11345C02AE037ED43E25CE30E94D02F209125607E
S11345D03091266040912760509128600E94F93004
S11345E020918E6230918F624091906250919162DD
S11345F00E945F2F6B017C0120E030E048E452E42C
S11346000E94F430181644F40F2EC12CD12CF8E477
S1134610EF2EF2E4FF2EF02D20E030E040E251ECEA
S1134620C701B6010E94CB2F882344F40F2EC12C5E
S1134630D12CF0E2EF2EF1ECFF2EF02D8E01055D72
S11346401F4F22E046E0C701B6010E94A831109234
S1134650A7611092A86121E08091A3619091A46167
S113466001968093A3619093A4618091156088233F
S113467069F060910D6070910E604091A36150915A
S1134680A4614617570718F480E001C080E088232E
S113469009F444C00E94022E2091216030912260CE
S11346A040912360509124600E94F93020918A62E5
S11346B030918B6240918C6250918D620E945F2F89
S11346C06B017C012FEF3FE443EC57E40E94F4308C
S11346D0181654F40F2ECC24CA94FFE4DF2EF3EC06
S11346E0EF2EF7E4FF2EF02D20E030E0A901C70102
S11346F0B6010E94CB2F88231CF4C12CD12C760147
S11347008E01035F1F4F22E048E0C701B6010E94FB
S1134710A8311092A3611092A46121E0222309F42C
S1134720C5C080910760811102C08091AC6188236B
S113473049F080E28093A60487EE93E00197F1F7B5
S113474000C000008091796290917A62A0917B62AE
S1134750B0917C6280589344AD46B84324968CAFA4
S11347609DAFAEAFBFAF2497BE016F5F7F4FCE0149
S1134770805C9F4F0E942E01C980EC2C0C2C000CF5
S1134780FF08DA800D2D0D2C000C110B7B81A72F57
S1134790072E000CBB0B9C80E92D092C000CFF0B91
S11347A08E81082E000C990B01962F81388524598F
S11347B0384F4091AB61442319F048E550E602C0FC
S11347C04EEC50E65E0166E1A60EB11CBF92AF92BC
S11347D05E0164E2A60EB11CBF92AF925E016DE071
S11347E0A60EB11CBF92AF925E016DE1A60EB11C84
S11347F0BF92AF925E016BE2A60EB11CBF92AF9264
S11348005E0162E3A60EB11CBF92AF925E0169E342
S1134810A60EB11CBF92AF92FF92CF921F93DF926C
S1134820BF937F93FF939F929F938F933F932F9375
S11348305F934F9383ED90E69F938F931F9284E64B
S11348408F938BE391E69F938F930E9468338DE05F
S113485080939D6110929E6180910760CDBFDEBF01
S1134860882321F08BE391E60E94932E8091AC6122
S1134870882321F08BE391E60E94FF2E8091AB61A7
S11348808823A1F00F2EFBE3CF2EF1E6DF2EF02DCF
S1134890E980FA800B811C812D813E814F815885EE
S11348A069857A858B859C850E94FA1E8FE097E244
S11348B00197F1F700C000008091AC61811103C041
S11348C080E28093A5048091AB61882309F457C0EA
S11348D0E0E6F4E080E48583A7EAB1E61197F1F716
S11348E000C0000086834BC080E28093A60487EE5C
S11348F093E00197F1F700C000008091A26181115B
S113490007C089E091E60E94532F86E08093A2615C
S11349108091A26181508093A2618091A1618823DA
S113492019F042E050E002C041E050E014161506D0
S113493034F5E0E6F4E080E48583A7EAB1E6119774
S1134940F1F700C00000868381E090E084179507AA
S1134950B4F4BFE728E331E0B15020403040E1F740
S113496000C00000E0E6F4E020E42583A7EAB1E615
S11349701197F1F700C0000026830196E7CFCD5BC5
S1134980DF4FCDBFDEBFDF91CF91FF91EF91BF919C
S1134990AF919F918F917F916F915F914F913F91D3
S11349A02F911F910F91FF90EF90DF90CF90BF90C8
S11349B0AF909F908F900F900FBE0F901F901895FF
S11349C01F920F920FB60F9211242F933F934F9380
S11349D08F939F93AF93BF93EF93FF93E0E0F4E043
S11349E084E08187109278621092A16180E28683CC
S11349F080E88683E0E6F4E080E48583A7EAB1E614
S1134A001197F1F700C00000868381E090E08330C5
S1134A109105B4F4BFE728E331E0B15020403040C1
S1134A20E1F700C00000E0E6F4E020E42583A7EA13
S1134A30B1E61197F1F700C0000026830196E7CF95
S1134A40FF91EF91BF91AF919F918F914F913F91C2
S1134A502F910F900FBE0F901F9018958091021008
S1134A6081FDFCCF89E390E00E947D38843509F410
S1134A70DDC08091021081FDFCCF40E050E060E891
S1134A807FE385E390E00E949C388091021081FDD1
S1134A90FCCF40E050E0BA0181E390E00E949C38F2
S1134AA08091021081FDFCCF40E050E060E87FE39C
S1134AB08DE290E00E949C388091021081FDFCCF31
S1134AC040E050E0BA0189E290E00E949C38809175
S1134AD0021081FDFCCF40E050E060E87FE385E216
S1134AE090E00E949C388091021081FDFCCF40E050
S1134AF050E0BA0181E290E00E949C38809102105B
S1134B0081FDFCCF40E050E060E87FE38DE190E080
S1134B100E949C388091021081FDFCCF40E050E05F
S1134B20BA0189E190E00E949C388091021081FDD5
S1134B30FCCF40E050E060E87FE385E190E00E9434
S1134B409C388091021081FDFCCF40E050E0BA0116
S1134B5081E190E00E949C388091021081FDFCCF9D
S1134B604AE959E969EB7FE38DE090E00E949C38C3
S1134B708091021081FDFCCF64E58CE090E00E94FE
S1134B8091388091021081FDFCCF64E58BE090E0C8
S1134B900E9491388091021081FDFCCF64E58AE087
S1134BA090E00E9491388091021081FDFCCF64E571
S1134BB089E090E00E9491388091021081FDFCCF41
S1134BC06CE370E087E090E00E94A83880910210C6
S1134BD081FDFCCF6CE370E085E090E00E94A83892
S1134BE08091021081FDFCCF6CE370E083E090E0E3
S1134BF00E94A8388091021081FDFCCF6CE370E024
S1134C0081E090E00E94A8388091021081FDFCCFE1
S1134C1066E480E090E00E94AE388091021081FD4D
S1134C20FCCF64E589E390E00E94AE3880910210E5
S1134C3081FDFCCF85E390E00E94853860932D6070
S1134C4070932E6080932F60909330608091021057
S1134C5081FDFCCF81E390E00E94853860939662E9
S1134C6070939762809398629093996280910210F6
S1134C7081FDFCCF8DE290E00E948538609329602D
S1134C8070932A6080932B6090932C608091021023
S1134C9081FDFCCF89E290E00E94853860939262A6
S1134CA070939362809394629093956280910210C2
S1134CB081FDFCCF85E290E00E94853860932560F9
S1134CC070932660809327609093286080910210EF
S1134CD081FDFCCF81E290E00E94853860938E6272
S1134CE070938F628093906290939162809102108E
S1134CF081FDFCCF8DE190E00E94853860932160B6
S1134D0070932260809323609093246080910210BA
S1134D1081FDFCCF89E190E00E94853860938A622E
S1134D2070938B6280938C6290938D628091021059
S1134D3081FDFCCF85E190E00E94853860931D6081
S1134D4070931E6080931F60909320608091021086
S1134D5081FDFCCF81E190E00E94853860938662FA
S1134D607093876280938862909389628091021025
S1134D7081FDFCCF8DE090E00E948538609319603E
S1134D8070931A6080931B6090931C600895CF9277
S1134D90DF92EF92FF920F931F93CF93DF93CDB7E0
S1134DA0DEB72597CDBFDEBF8C011D82BC016D5FD0
S1134DB07F4F44E050E0CE0101960E943C33CE0187
S1134DC001960E9407330E9444302FE632E143E803
S1134DD05AE30E94F9306B017C012DEC3CEC4CE46D
S1134DE05FE30E94F4308823E4F02AE939E949E9D1
S1134DF05FE3C701B6010E94CB2F181694F0C0924E
S1134E002D60D0922E60E0922F60F09230608091FD
S1134E10021081FDFCCFB701A60185E390E00E945A
S1134E209C3844E050E0B801695F7F4FCE010196A1
S1134E300E943C33CE0101960E9407330E94443005
S1134E402AE037ED43E25CE30E94F9306B017C0118
S1134E5020E030E040E450EC0E94F4308823E4F099
S1134E6020E030E040E450E4C701B6010E94CB2FBB
S1134E70181694F0C0929662D0929762E09298626B
S1134E80F09299628091021081FDFCCFB701A601D6
S1134E9081E390E00E949C3844E050E0B801655FF3
S1134EA07F4FCE0101960E943C33CE0101960E94B1
S1134EB007330E9444302FE632E143E85AE30E946C
S1134EC0F9306B017C012DEC3CEC4CE45FE30E9477
S1134ED0F4308823E4F02AE939E949E95FE3C701BA
S1134EE0B6010E94CB2F181694F0C0922960D0927C
S1134EF02A60E0922B60F0922C608091021081FD78
S1134F00FCCFB701A6018DE290E00E949C3844E0FA
S1134F1050E0B801615F7F4FCE0101960E943C339F
S1134F20CE0101960E9407330E9444302AE037EDF7
S1134F3043E25CE30E94F9306B017C012AE037ED27
S1134F404FE151EC0E94F4308823E4F02AE037ED7D
S1134F504FE151E4C701B6010E94CB2F181694F01B
S1134F60C0929262D0929362E0929462F0929562BF
S1134F708091021081FDFCCFB701A60189E290E087
S1134F800E949C3844E050E0B8016D5E7F4FCE0132
S1134F9001960E943C33CE0101960E9407330E9481
S1134FA044302FE632E143E85AE30E94F9306B01C2
S1134FB07C012DEC3CEC4CE45FE30E94F43088234C
S1134FC0E4F02AE939E949E95FE3C701B6010E943F
S1134FD0CB2F181694F0C0922560D0922660E092F0
S1134FE02760F09228608091021081FDFCCFB70108
S1134FF0A60185E290E00E949C3844E050E0B801AC
S1135000695E7F4FCE0101960E943C33CE0101962A
S11350100E9407330E9444302AE037ED43E25CE308
S11350200E94F9306B017C0120E030E040E450EC58
S11350300E94F4308823E4F020E030E040E450E4BF
S1135040C701B6010E94CB2F181694F0C0928E624D
S1135050D0928F62E0929062F092916280910210FD
S113506081FDFCCFB701A60181E290E00E949C384B
S113507044E050E0B801655E7F4FCE0101960E9486
S11350803C33CE0101960E9407330E9444302FE640
S113509032E143E85AE30E94F9306B017C012DECC4
S11350A03CEC4CE45FE30E94F4308823E4F02AE90A
S11350B039E949E95FE3C701B6010E94CB2F18160D
S11350C094F0C0922160D0922260E0922360F0922A
S11350D024608091021081FDFCCFB701A6018DE10F
S11350E090E00E949C3844E050E0B801615E7F4F3C
S11350F0CE0101960E943C33CE0101960E940733F3
S11351000E9444306B017C0120E030EC49E754EC10
S11351100E94F4308823E4F020E030EC49E754E4C2
S1135120C701B6010E94CB2F181694F0C0928A6270
S1135130D0928B62E0928C62F0928D628091021028
S113514081FDFCCFB701A60189E190E00E949C3863
S113515044E050E0B8016D5D7F4FCE0101960E949E
S11351603C33CE0101960E9407330E9444302FE65F
S113517032E143E85AE30E94F9306B017C012DECE3
S11351803CEC4CE45FE30E94F4308823E4F02AE929
S113519039E949E95FE3C701B6010E94CB2F18162C
S11351A094F0C0921D60D0921E60E0921F60F09255
S11351B020608091021081FDFCCFB701A60185E13A
S11351C090E00E949C3844E050E0B801695D7F4F54
S11351D0CE0101960E943C33CE0101960E94073312
S11351E00E9444302FE632E143E85AE30E94F9304A
S11351F06B017C0120E030E040E05FEB0E94F43082
S11352008823E4F020E030E040E05FE3C701B6012A
S11352100E94CB2F181694F0C0928662D0928762B7
S1135220E0928862F09289628091021081FDFCCF45
S1135230B701A60181E190E00E949C38B801655D48
S11352407F4F44E050E0CE0101960E943C33CE01F2
S113525001960E9407330E9444302FE632E143E86E
S11352605AE30E94F9306B017C0123E333E343EBFF
S11352705FE30E94F4308823E4F020E030E040EC67
S11352805FE3C701B6010E94CB2F181694F0C092B9
S11352901960D0921A60E0921B60F0921C608091B9
S11352A0021081FDFCCFB701A6018DE090E00E94C1
S11352B09C382596CDBFDEBFDF91CF911F910F9112
S11352C0FF90EF90DF90CF9008952F923F924F92EE
S11352D05F926F927F928F929F92AF92BF92CF9282
S11352E0DF92EF92FF920F931F93CF93DF93CDB78B
S11352F0DEB7CC54D109CDBFDEBF2A968FAF2A9733
S11353002B969FAF2B972C966FAF2C972D967FAF34
S11353102D9760912D6070912E6080912F609091F7
S113532030608E010F5F1F4F23E045E00E94A831DB
S1135330609196627091976280919862909199625F
S11353401E0127E0220E311C810122E045E00E946B
S1135350A8316091296070912A6080912B609091AE
S11353602C602E013DE0430E511C820123E045E0F8
S11353700E94A831609192627091936280919462CC
S1135380909195629E012D5E3F4F25962EAF3FAFC3
S11353902597890122E045E00E94A83160912560AB
S11353A07091266080912760909128609E01275E0D
S11353B03F4F27962EAF3FAF2797890123E045E063
S11353C00E94A83160918E6270918F628091906288
S11353D0909191629E01215E3F4F29962EAF3FAF7F
S11353E02997890122E045E00E94A831609121605B
S11353F07091226080912360909124607E0135E257
S1135400E30EF11C870123E045E00E94A83160917E
S11354108A6270918B6280918C6290918D626E0130
S11354202BE2C20ED11C860120E044E00E94A83188
S113543060911D6070911E6080911F60909120604A
S11354405E0130E3A30EB11C850123E045E00E9418
S1135450A831609186627091876280918862909190
S113546089624E0126E3820E911C840123E046E00A
S11354700E94A8316091196070911A6080911B603C
S113548090911C603E013DE3630E711C830123E097
S113549045E00E94A8317F926F929F928F92BF92B3
S11354A0AF92DF92CF92FF92EF9229968FAD299718
S11354B08F9328969FAD28979F9327962FAD279774
S11354C02F9326963FAD26973F9325968FAD25972C
S11354D08F9324969FAD24979F935F924F923F9210
S11354E02F9221E030E02C0F3D1F3F932F932D96F8
S11354F03FAD2D973F932C968FAD2C978F938EE0D5
S113550091E69F938F932B969FAD2B979F932A960B
S11355102FAD2A972F930E949833CDBFDEBFC45B73
S1135520DF4FCDBFDEBFDF91CF911F910F91FF9071
S1135530EF90DF90CF90BF90AF909F908F907F902F
S11355406F905F904F903F902F900895809102103C
S113555081FDFCCF80E090E00E947D3891E08435AD
S113556009F090E0909385628091021081FDFCCF58
S11355708CE090E00E947D3891E0843509F090E061
S1135580909318608091021081FDFCCF87E090E039
S11355900E948C3880931360909314608091021061
S11355A081FDFCCF8BE090E00E947D3891E0843552
S11355B009F090E0909317608091021081FDFCCF78
S11355C085E090E00E948C38809311609093126083
S11355D08091021081FDFCCF8AE090E00E947D382A
S11355E091E0843509F090E0909316608091021068
S11355F081FDFCCF83E090E00E948C3880930F60A3
S1135600909310608091021081FDFCCF89E090E0BE
S11356100E947D3891E0843509F090E09093156004
S11356208091021081FDFCCF81E090E00E948C38D3
S113563080930D6090930E6008958091021081FD17
S1135640FCCF80918562882311F064E501C066E493
S113565080E090E00E9491388091021081FDFCCF9F
S113566080911860882311F064E501C066E48CE041
S113567090E00E9491388091021081FDFCCF6091EE
S113568013607091146087E090E00E94A8388091C4
S1135690021081FDFCCF80911760882311F064E52E
S11356A001C066E48BE090E00E9491388091021082
S11356B081FDFCCF609111607091126085E090E0F3
S11356C00E94A8388091021081FDFCCF8091166061
S11356D0882311F064E501C066E48AE090E00E944A
S11356E091388091021081FDFCCF60910F60709120
S11356F0106083E090E00E94A8388091021081FD40
S1135700FCCF80911560882311F064E501C066E444
S113571089E090E00E9491388091021081FDFCCFD5
S113572060910D6070910E6081E090E00E94A83855
S1135730089580E090912509907C31F080912509AD
S113574084FD07C081E008C0909125099C7019F47C
S113575003C082E001C084E0882361F3089580E0FF
S113576090912509907C29F4909125099C7019F455
S113577003C083E001C084E0882391F308958E7F01
S1135780809327090E94992B0895816080932709AB
S11357900E94992B089587E08093240908958093AB
S11357A028090E94992B08950F931F93CF93DF9399
S11357B0D82FC62F8A010E94AF2B833001F5809128
S11357C02809F8018083DD2331F0E0E2F9E08481E7
S11357D08B7F848305C0E0E2F9E084818460848364
S11357E0CC2339F0E0E2F9E084818360848385E0AE
S11357F006C0E0E2F9E084818260848385E0DF9181
S1135800CF911F910F910895FC0120E030E08FEFBC
S1135810462F50E024173507ACF4AF014F5F5F4FBC
S11358209081892798E0992349F0882324F4880FEC
S113583071E3872701C0880F9150F5CF2F5F3F4F49
S1135840FA01E6CF08951092E505E0E2F9E08081DF
S11358508D7F80838081846080838EE0868317823D
S1135860108683818D60838381E085838581806652
S1135870858384818860848380EC0E94BF2B81307F
S113588019F00E94CB2B089580E00E94CF2B813029
S113589019F00E94CB2B089580E10E94CF2B813018
S11358A019F00E94CB2B089583E00E94CF2B813006
S11358B019F00E94CB2B08950E94CB2B08958F9250
S11358C09F92AF92BF92CF92DF92EF92FF920F938B
S11358D01F93CF93DF93CDB7DEB72897CDBFDEBF3D
S11358E07C016B0180E090E0A6ECB2ECFB018083CC
S11358F09183A283B383F70180839183A283B383CB
S113590080E70E94BF2B813021F00E94CB2B10E056
S113591068C18EEB0E94CF2B813021F00E94CB2BEB
S113592010E05FC188E00E94CF2B813021F00E94FB
S1135930CB2B10E056C180E00E94CF2B813021F0A8
S11359400E94CB2B10E04DC10E94CB2B8FE097E23D
S11359500197F1F700C0000080E70E94BF2B81305F
S113596021F00E94CB2B10E03CC18CEA0E94CF2B8B
S1135970813021F00E94CB2B10E033C183E30E94DD
S1135980CF2B813021F00E94CB2B10E02AC180E084
S11359900E94CF2B813021F00E94CB2B10E021C13B
S11359A00E94CB2B9FEFE9EFF0E09150E040F040F4
S11359B0E1F700C0000080E70E94C52B182F81305A
S11359C021F00E94CB2B10E00CC1AE014F5F5F4F62
S11359D060E081E00E94D42B853021F00E94CB2B23
S11359E010E0FFC08981882324F40E94CB2B10E0AF
S11359F0F8C0AE014E5F5F4F60E081E00E94D42B9F
S1135A00853021F00E94CB2B10E0EBC0AE014D5F3E
S1135A105F4F60E081E00E94D42B853021F00E942A
S1135A20CB2B10E0DEC0AE014C5F5F4F60E081E045
S1135A300E94D42B853021F00E94CB2B10E0D1C0E2
S1135A40AE014B5F5F4F60E081E00E94D42B853054
S1135A5021F00E94CB2B10E0C4C0AE014A5F5F4F1F
S1135A6060E081E00E94D42B853021F00E94CB2B92
S1135A7010E0B7C0AE01495F5F4F61E080E00E9473
S1135A80D42B853021F00E94CB2B10E0AAC066E015
S1135A90CE0101960E94042C88879F8188859813E3
S1135AA09FC06A8170E080E090E00E94443020E072
S1135AB030E0A9010E945F2F20E030E040E853E489
S1135AC00E94F9304B015C016B8170E080E090E052
S1135AD00E944430A50194010E945F2F20E030E031
S1135AE040E851E40E94F9304B015C010C81602FC5
S1135AF070E0759567957595679575956795759536
S1135B006795072E000C880B990B0E944430A50161
S1135B1094010E945F2F20E030E048EC52E40E94A0
S1135B20F93020E030E040E85AE30E94F93020E008
S1135B3030E040E85AE30E94F930F6016083718353
S1135B4082839383602F6F7070E080E090E00E9406
S1135B50443020E030E0A9010E945F2F20E030E0D3
S1135B6040E853E40E94F9304B015C016D8170E020
S1135B7080E090E00E944430A50194010E945F2FD0
S1135B8020E030E040E853E40E94F9304B015C012E
S1135B906E8170E080E090E00E944430A5019401A1
S1135BA00E945F2F20E030E048E453E40E94F93083
S1135BB020E030E040E85AE30E94F93020E030E091
S1135BC040E85AE30E94F93020E030E048E452E42F
S1135BD00E945E2FF701608371838283938301C0E7
S1135BE010E0812F2896CDBFDEBFDF91CF911F91AA
S1135BF00F91FF90EF90DF90CF90BF90AF909F9068
S1135C008F900895CF93DF9300D0CDB7DEB780ECAB
S1135C100E94BF2B813031F00E94CB2B60E070E0FA
S1135C20CB0145C08BE00E94CF2B813031F00E9424
S1135C30CB2B60E070E0CB013AC080EC0E94C52B16
S1135C40813031F00E94CB2B60E070E0CB012FC09B
S1135C50AE014F5F5F4F60E081E00E94D42B85303E
S1135C6031F00E94CB2B60E070E0CB0120C0AE018C
S1135C704E5F5F4F61E080E00E94D42B853031F0AD
S1135C800E94CB2B60E070E0CB0111C06A8170E010
S1135C90762F66278981680F711D80E090E00E944D
S1135CA042302FE632E143E85EE30E94F9300F9080
S1135CB00F90DF91CF910895E0E0F4E081E08183DB
S1135CC082E08283E0E0F8E083E896E080879187D1
S1135CD0A5E0B8E08C9180688C938681806C868383
S1135CE083E0878308958091040885FB882780F9E1
