S00F00006D6C6F676765722E7372656328
S11300000C9450010C946F010C946F010C946F01CB
S11300100C946F010C946F010C9474220C946F0176
S11300200C940A280C9449220C946F010C946F01CF
S11300300C946F010C946F010C946F010C946F017C
S11300400C946F010C946F010C946F010C946F016C
S11300500C946F010C94D0210C946F010C946F01DB
S11300600C946F010C946F010C946F010C946F014C
S11300700C946F010C946F010C946F010C946F013C
S11300800C946F010C946F010C946F010C946F012C
S11300900C946F010C946F010C946F010C946F011C
S11300A00C946F010C946F010C946F010C946F010C
S11300B075188018A51BFD189D19A51BA51B651A8D
S11300C0A51BA51BA51BA51BA51BA51BA51BA51B2C
S11300D0A51BA51BA51BA51BA51BA51BA51BA51B1C
S11300E0A51BA51BA51BA51BA51BA51BA51BA51B0C
S11300F0A51BA51BA51BA51BA51BA51BA51BA51BFC
S1130100A51BA51BA51BA51BA51BA51BA51BA51BEB
S1130110A51BA51BF419FA19121A2A1A4A1A6E1ADF
S1130120E01A4E1B07634236B79BD8A71A396856A4
S113013018AEBAAB558C1D3CB7CC5763BD6DEDFD05
S1130140753EF6177231BF000000803F08000000C2
S1130150BE922449123EABAAAA2ABECDCCCC4C3EB8
S113016000000080BEABAAAAAA3E00000000BF00A7
S11301700000803F0000000000084178D3BB4387A3
S1130180D1133D190E3CC3BD4282AD2B3E68EC82B7
S113019076BED98FE1A93E4C80EFFFBE01C4FF7F3C
S11301A03F000000000000407A10F35A00A0724E95
S11301B018090010A5D4E80000E87648170000E408
S11301C00B54020000CA9A3B000000E1F505000050
S11301D080969800000040420F000000A0860100B5
S11301E00000102700000000E80300000000640085
S11301F0000000000A0000000000010000000000F0
S11302002C76D888DC674F0823DFC1DFAE59E1B113
S1130210B796E5E3E453C63AE651997696E8E6C222
S11302208426EB898C9B62ED407C6FFCEFBC9C9F29
S113023040F2BAA56FA5F490055A2AF75C936B6C4B
S1130240F9676DC11BFCE0E40D47FEF520E6B5003F
S1130250D0ED902E0300943577050080841E0800AD
S113026000204E0A000000C80C333333330F986E5D
S113027012831141EF8D2114893BE65516CFFEE61A
S1130280DB18D1844B381BF77C1D901DA4BBE424E0
S1130290203284725E228100C9F124ECA1E53D275D
S11302A011241FBECFEFCDBFDFE7DEBF11E4A0E016
S11302B0B0E4EAE6F1E800E00BBF02C007900D925B
S11302C0AC38B107D9F72EE5ACE8B1E401C01D9212
S11302D0AF30B207E1F70E942E210C94B3400C9486
S11302E00000CF92DF92EF92FF920F931F93CF9370
S11302F0DF93CDB7DEB72897CDBFDEBF8B01FC01FE
S1130300608171818281938120E831E541E050E090
S11303100E94943869017A012CE330E040E050E017
S11303200E948B4029833A834B835C8389819A8121
S1130330AB81BC81F80160836CE370E00E9477407C
S1130340DC01CB01F801A1838283C601069667E034
S113035070E00E94634084832DEA3EE840E050E070
S1130360C701B6010E948B4029833A836D837E8343
S11303708F83988789819A8124E6289F6001299F29
S1130380D00C11246D817E818F81988525EB35E019
S113039040E050E00E948B4029833A836D837E8342
S11303A0E980FA80EE0CFF1CEE0CFF1CEC0CFD1C2B
S11303B08D819E81F5E6EF16F10410F0019604C0DC
S11303C024E6E216F10419F021E030E002C020E056
S11303D030E0A90144595E4F4817590768F46DE6A7
S11303E071E0821B930B0E947740DC01CB01E80E85
S11303F0F91ECD0120E030E044E6E40EF11CF801E2
S1130400E682F78280879187255C3F4F82179307A6
S113041048F46FE170E00E947740DC01CB01F80101
S1130420858322C069E970E0821B930B0E947740A8
S1130430DC01CB01F82EFF0CFF0CF80E6DE370E02D
S1130440CD010E947740DC01CB01E82EEE0C6FE178
S113045070E0CD010E947740DC01CB0122E0280F3F
S1130460F20EFE0CF801F582A383F80112861386BE
S113047083818F5F83832896CDBFDEBFDF91CF91C9
S11304801F910F91FF90EF90DF90CF900895FC01A2
S1130490218130E0322F22278081A901482BCA0113
S11304A00895FC016381862F90E0A0E0B0E0BA2FAC
S11304B0A92F982F88272281822BBA2FA92F982F12
S11304C088272181822BBA2FA92F982F8827208152
S11304D0BC01CD01622B0895FC01608371830895F2
S11304E0FC0140835183628373830895DC01FB0123
S11304F04115510549F080818C9341505109119661
S1130500319641155105B9F70895FC0160834150B6
S11305105109319641155105C9F70895CF93DF93D9
S1130520DC01FB01ED0121968C9190E0BF016F5F2E
S11305307F4F2081821B91094150510921F0DE0136
S1130540FB01009779F3DF91CF910895FC0101C07D
S113055031968081882329F0282F30E02617370729
S1130560B9F790E00895813848F0803A50F0803E21
S113057058F08D3F60F080E090E0089580E090E0D6
S1130580089581E090E0089580E090E0089581E08E
S113059090E00895803458F08F3760F0803810F080
S11305A08D3F58F0882361F080E090E0089580E06A
S11305B090E0089581E090E0089581E090E008954E
S11305C081E090E00895CF92DF92EF92FF92FC01D8
S11305D09A01AB012250310941095109C788D08CD5
S11305E0E18CF28C82E0C81AD108E108F1082C15DC
S11305F03D054E055F0568F4C3A4D4A4E5A4F6A4A0
S1130600A185B2850E94CE386C0D7D1D8E1D9F1D67
S113061003C060E070E0CB01FF90EF90DF90CF90DB
S11306200895CF92DF92EF92FF920F931F93CF938F
S1130630DF938C01EB01CB014A960E9447026C01C7
S1130640E12CF12CF8018081833069F4CE014496C9
S11306500E944702A0E0B0E0DC0199278827C82A5D
S1130660D92AEA2AFB2AC701B601DF91CF911F914B
S11306700F91FF90EF90DF90CF900895CF92DF928B
S1130680EF92FF920F931F93CF93DF938C01EB01B3
S113069069017A01B901CE014A960E946C02F801FF
S11306A08081833039F4B70188279927CE01449695
S11306B00E946C02DF91CF911F910F91FF90EF90F8
S11306C0DF90CF9008953F924F925F926F927F9206
S11306D08F929F92AF92BF92CF92DF92EF92FF924E
S11306E00F931F93CF93DF933C012B01FB01C08138
S11306F0D1815C01FCE1AF0EB11C4BE050E060E243
S113070070E0C5010E94850288818E3269F540E05F
S113071050E080E090E09C012F5F3F4FFE01E80F26
S1130720F91F80818E3259F42330310540F4F501EC
S1130730E40FF51F8083C9014F5F5F4FECCF8F3209
S113074029F08C3519F0813208F09FC0C20FD31FF5
S1130750F201C083D183813210F484E201C080E2CB
S1130760F30187A380E09EC0C12CD12CE12CF12C95
S11307706894882483F8912C87010F5F1F4FFE0132
S1130780EE0DFF1D3080F0E2F31508F067C08FE234
S1130790381631F09CE539120CC002C00F5F1F4FB0
S11307A0FE01E00FF11F80818F32C1F38C35B1F36C
S11307B055C0EEE23E1619F0C814D90498F0FBE0D7
S11307C08F16910409F463C08EE2381262C0780176
S11307D06894CC24C3F8D12C0F2EFBE08F2E912CDF
S11307E0F02DCACF832D0E94B302892B01F192E030
S11307F0E90EF11CFE01E00FF11F1081812F0E9410
S1130800CA02892B09F447C0C4010197C816D90646
S113081008F043C0F501EC0DFD1D3082F601319660
S1130820EA0DFB1D82E0C80ED11C1083A5CF632DF9
S113083070E087E390E40E94A602892B81F58FE99A
S1130840830D8A3110F490EE390EF501EC0DFD1D87
S11308503082F60131966F0178018ECFC00FD11F1F
S1130860F201C083D183CD28E1F0F301848D853E6C
S113087011F485E0848FF0E2F31510F084E001C0F8
S113088080E0F30187A380E00DC086E00BC086E022
S113089009C086E007C086E005C086E003C086E0A4
S11308A001C086E0DF91CF911F910F91FF90EF90EF
S11308B0DF90CF90BF90AF909F908F907F906F907C
S11308C05F904F903F900895CF93DF93EC01A88100
S11308D0B981109729F48FEF9FEF2AC0319601C098
S11308E0FD019081913210F09A33C1F79A33A9F443
S11308F0CD0101962C9130E0205331092A30310585
S113090078F4E817F90779F42115310579F4822F81
S1130910932F3196E883F9830BC080E090E008C000
S11309208FEF9FEF05C08FEF9FEF02C08FEF9FEF18
S1130930DF91CF910895FC01608371831282138249
S11309401482158208950F931F93CF93DF93EC01C4
S11309508B01892BA9F0E881F981309799F0808186
S1130960882391F02A813B81858196812817390754
S113097069F481810E94E21B80FF0AC089E009C0FA
S113098089E007C089E005C089E003C089E001C0AF
S113099080E0811103C02881398102C020E030E069
S11309A0F80120833183DF91CF911F910F91089536
S11309B08F929F92AF92BF92EF92FF920F931F93E9
S11309C0CF93DF93FC0123812223D1F1EC017C013D
S11309D0F3E3EF0EF11C2FA538A949A95AA901E0A8
S11309E010E0B70189810E94F01B81112BC01B828A
S11309F00FA518A929A93AA98BA19CA1ADA1BEA1B3
S1130A0048015901881A990AAA0ABB0A8B8D9C8D40
S1130A10AD8DBE8D88169906AA06BB06A8F46A8118
S1130A206230A1F4A9019801280F391F4A1F5B1FE6
S1130A3001E010E0B70189810E94F01B80E007C04B
S1130A4080E005C081E003C080E001C080E0DF9168
S1130A50CF911F910F91FF90EF90BF90AF909F9017
S1130A608F9008958F929F92AF92BF92FF920F93AF
S1130A701F93CF93DF93EC014A015B018FA598A9E3
S1130A80A9A9BAA984179507A607B707E9F0CE0163
S1130A900E94D804F82E811118C001E010E0A501CD
S1130AA09401BE016D5C7F4F89810E94E51B882300
S1130AB031F0FF24F39488248A94982C54018FA64F
S1130AC098AAA9AABAAA01C0F12C8F2DDF91CF91BF
S1130AD01F910F91FF90BF90AF909F908F900895BA
S1130AE0CF93DF93EC011B828FEF9FEFDC018FA785
S1130AF098ABA9ABBAABCE010E943205811128C0D4
S1130B00CE018F5C9D4F0E94470285359A4A11F5AC
S1130B108BA9893E29F08B3EF9F48DA98039F1F433
S1130B2043E050E066E470E4CE0187599F4F0E9491
S1130B308E02892BA9F045E050E06AE470E4CE010E
S1130B408B579F4F0E948E02892B61F480E00BC06B
S1130B5084E009C083E007C082E005C082E003C0EE
S1130B6080E001C082E0DF91CF9108954F925F92BF
S1130B706F927F928F929F92AF92BF92CF92DF92A9
S1130B80EF92FF920F931F93CF93DF93CDB7DEB70E
S1130B90A097CDBFDEBF6B01B42EDB011D921C926A
S1130BA00E9464047C0199230CF474C2FC01EE0FCE
S1130BB0FF1FE257FE4B008111810115110509F455
S1130BC06BC2F60100831183FB2DFE7FBF2ED8017B
S1130BD08C91882369F011968C910E94E21B80FD10
S1130BE007C0BB2009F45AC282FD5AC280E07BC20E
S1130BF0F8011082E1828E2D0E94DF1B80FD52C21B
S1130C00BB2011F082FD50C240E050E0BA01C8019F
S1130C100E947005823079F1C12CD12C760157C025
S1130C20F701E295F295F07FFE27E07FFE27E2547C
S1130C30FE4FC801C396E80FF91F8481882329F069
S1130C40CF0108960E94510203C060E070E0CB011E
S1130C50F701EE0FFF1FEE0FFF1F21E030E02C0F16
S1130C603D1FE20FF31F60837183828393833FEF01
S1130C70E31AF30A02C0E12CF12C44E0E416F10477
S1130C8078F2A12CB12CF501EE0FFF1FEE0FFF1F20
S1130C9061E070E06C0F7D1FE60FF71FC080D1800C
S1130CA0E280F380C114D104E104F10431F0B7010E
S1130CB0A601C8010E94700501C083E0823038F0AB
S1130CC07FEFA71AB70A94E0A916B104E0F28430C2
S1130CD009F4ECC1823008F0EBC1C801CE960E9441
S1130CE047028115924009F0E5C1C801875B9F4F17
S1130CF00E9447029C0140E050E0298B3A8B4B8BC9
S1130D005C8B232B242B252B49F4C801895A9F4F34
S1130D100E945102698B7A8B8B8B9C8B49895A89EF
S1130D206B897C89D8015B964D935D936D937C931D
S1130D305E97F801ED5BFF4FA081F801A2838FEF6E
S1130D408A0F823008F0B8C1B0E09A01AB010E946A
S1130D50CE38698F7A8F8B8F9C8FE05CFF4FA08099
S1130D60B12CD8011996AD92BC921A97A114B10472
S1130D7009F4A4C1C50101978A219B21892B09F09B
S1130D809FC1C8018C5B9F4F0E9447024C01F80130
S1130D90878390878F709927892B09F093C1C801A5
S1130DA08A5B9F4F0E9447022C01612C712C4114D5
S1130DB051046104710439F4C8018D5A9F4F0E9493
S1130DC051022B013C01C8018F5B9F4F0E944702D7
S1130DD0009709F479C19C0140E050E02D8F3E8FCB
S1130DE04F8F58A3898D9A8DAB8DBC8D820F931F25
S1130DF0A41FB51F9401329522952F7023273F70AD
S1130E002327AC01BD01420F531F611D711D4D8B82
S1130E105E8B6F8B788F441655066606770608F44A
S1130E2055C1C301B2012D893E894F89588D621B7A
S1130E30730B840B950B950140E050E00E949438AD
S1130E40DA01C901211531054105510509F440C1F3
S1130E50263F6FEF360746076FE0560710F0B12CB8
S1130E6004C00F2EF3E0BF2EF02D863F7FEF9707CF
S1130E70A105B10518F46894BB24B1F8863F9F40DE
S1130E80A105B10510F4BB24B394BB2009F422C11D
S1130E9029013A01F2E04F0E511C611C711CD8016A
S1130EA057964D925D926D927C925A97F801C78E37
S1130EB0D0A2E1A2F2A28D8D9E8DAF8DB8A18C0D32
S1130EC09D1DAE1DBF1D83A394A3A5A3B6A34D89E9
S1130ED05E896F89788D4C0D5D1D6E1D7F1D43A746
S1130EE054A765A776A7F3E0BF1220C0C801835AB0
S1130EF09F4F0E944702892B09F0EEC0892809F010
S1130F00EDC0C801815A9F4F0E945102D8019796A3
S1130F106D937D938D939C939A97440C551C661CFA
S1130F20771C440C551C661C771C2DC0892809F4B9
S1130F30D7C0298D3A8D4B8D5C8D820F931FA41FD2
S1130F40B51FF80187A390A7A1A7B2A7F2E0BF122B
S1130F5005C0440C551C661C771C15C0A3E0B0E00A
S1130F60A30192010E94CE38DC01CB01B695A7956E
S1130F709795879521E04222552466247724480ECC
S1130F80591E6A1E7B1E3FEF430E31E0531E611C47
S1130F90711C032E39E076946794579447943A95DC
S1130FA0D1F7302D49895A896B897C8944155505B7
S1130FB06605770508F496C08FEF9FEFDC01F80112
S1130FC08787908BA18BB28B83879487A587B687FD
S1130FD080E88483F3E0BF1247C0C8018D599F4F56
S1130FE00E944702019709F03FC0B701A6014F5F75
S1130FF05F4F6F4F7F4FC8010E943205811134C08B
S1131000D80114961C92C8018F5C9D4F0E94470220
S113101085359A4A49F5C801C3960E945102623542
S113102072458146914401F5C801895E9D4F0E9435
S113103051026237724781449146B1F4C801855E1A
S11310409D4F0E945102D8011F966D937D938D93FD
S11310509C935297C801815E9D4F0E945102F801F2
S11310606387748785879687D801BC9280918C4169
S113107090918D41019680938C4190938D4115966A
S11310808D939C931697F801138A148A158A168AED
S113109080E029C08BE027C08CE025C080E023C01D
S11310A08AE021C083E01FC08AE01DC081E01BC02C
S11310B08DE019C08DE017C08DE015C08DE013C020
S11310C08DE011C08DE00FC08DE00DC08DE00BC030
S11310D08DE009C08DE007C08DE005C08DE003C040
S11310E08DE001C08DE0A096CDBFDEBFDF91CF9132
S11310F01F910F91FF90EF90DF90CF90BF90AF9032
S11311009F908F907F906F905F904F9008952F9253
S11311103F924F925F926F927F928F929F92AF9283
S1131120BF92CF92DF92EF92FF920F931F93CF93D0
S1131130DF9300D000D0CDB7DEB742305105610552
S1131140710508F4F1C0FC01C788D08CE18CF28CE5
S11311504C155D056E057F0508F0E8C028013901CE
S11311606A017B018B839C838081823009F475C082
S1131170833009F499C0813009F0DAC05A01B69479
S1131180A794A40EB51E43A154A165A176A1C501DF
S1131190892F99278695480F591F611D711DCF010D
S11311A00E943205182F8111C4C02B813C812D5C13
S11311B03F4F29833A8315013FEF231A330A81E015
S11311C0B822E981FA81EA0DFB1D4601570191E03D
S11311D089229924AA24BB24C0FE08C0208130E1BE
S11311E0439EC00111242F70822B01C0842D808363
S11311F081E0EB81FC81838343A154A165A176A1A5
S1131200C101892F99278695480F591F611D711DAA
S1131210CF010E943205182F81118BC0F1E03F22CB
S1131220E981FA81E20DF31D89288A288B2849F087
S1131230689413F876946794579447941694D1F766
S113124006C09081907F852D8F70492E482A408258
S113125081E0EB81FC8183836CC0EB81FC8143A141
S113126054A165A176A1BB27AF2D9E2D8D2D480FCE
S1131270591F6A1F7B1FCF010E943205182F81114D
S113128058C02B813C812D5C3F4FCC0CDD1CC6012A
S11312908E7F9170B201820F931F0E946C0281E0D5
S11312A0EB81FC81838345C0EB81FC8143A154A184
S11312B065A176A1D701C601689416F8B695A795DD
S11312C0979587951694D1F7480F591F6A1F7B1F6E
S11312D0CF010E943205182F81112BC0FFE07F221D
S11312E08B819C81C396CC0CDD1CCC0CDD1C2CEFBB
S11312F0C22221E0D222C80ED91EC6010E94510288
S1131300DC01CB0188279927AA27B07FB301A2016A
S1131310482B592B6A2B7B2BC6010E94700281E05B
S1131320EB81FC81838305C012E003C012E001C09D
S113133012E0812F2496CDBFDEBFDF91CF911F91A4
S11313400F91FF90EF90DF90CF90BF90AF909F9060
S11313508F907F906F905F904F903F902F90089563
S1131360AF92BF92CF92DF92EF92FF920F931F93AF
S1131370CF93DF93FC01C081D181423051056105D7
S1131380710508F4A6C08F89988DA98DBA8D481768
S113139059076A077B0708F0A1C06A017B018881AD
S11313A0823009F450C0833009F46DC0813009F0F3
S11313B09AC08A0116950795040F151F4BA15CA1CD
S11313C06DA17EA1C801892F99278695480F591FC1
S11313D0611D711DCE010E943205811189C0580121
S11313E0FFEFAF1ABF0A1170FE01E00FF11F03A94E
S11313F010E04BA15CA16DA17EA1C501892F9927A5
S11314008695480F591F611D711DCE010E9432053A
S1131410811172C081E0B822CA0DDB1D6BA970E096
S1131420762F6627602B712BC0FE09C072956295DA
S11314306F7067277F70672780E090E068C07F70D7
S113144080E090E064C04BA15CA16DA17EA1BB27AC
S1131450AF2D9E2D8D2D480F591F6A1F7B1FCE0166
S11314600E94320581114CC0CE01C396A601440FDF
S1131470551F4E7F5170840F951F0E944702BC0177
S113148080E090E044C04BA15CA16DA17EA1D70196
S1131490C601689416F8B695A795979587951694FE
S11314A0D1F7480F591F6A1F7B1FCE010E943205D6
S11314B081112AC0E396A601440F551F440F551FFE
S11314C0CA018C7F91708C0F9D1F0E9451029F70E6
S11314D01EC061E070E080E090E019C061E070E05F
S11314E080E090E014C061E070E080E090E00FC024
S11314F06FEF7FEFCB010BC06FEF7FEFCB0107C026
S11315006FEF7FEFCB0103C06FEF7FEFCB01DF9174
S1131510CF911F910F91FF90EF90DF90CF90BF90EC
S1131520AF9008954F925F926F927F928F929F92A5
S1131530AF92BF92CF92DF92EF92FF920F931F93DD
S1131540CF93DF93EC016A017B0108811981411576
S1131550510580E26807710508F0ACC0DB01CA01DF
S11315608F719927AA27BB27892B8A2B8B2B09F0EC
S1131570A3C04E875F87688B798B8E809F80A884F9
S1131580B98481149104A104B10441F4F801808167
S1131590833020F087A090A4A1A4B2A48114910464
S11315A0A104B104F1F4F80187819085A0E0B0E0D2
S11315B0B701A601689414F87695679557954795F1
S11315C01694D1F7481759076A077B0708F076C0C5
S11315D087A190A5A1A5B2A58E8B9F8BA88FB98F4B
S11315E040C0F80141845284612C712C032E39E0EF
S11315F0440C551C661C771C3A95D1F7302D23C03A
S1131600B501A401CE010E94B0094B015C016F3FFA
S11316107F4F8F4F9F4F09F453C082E08816910487
S1131620A104B10408F44EC0F8018789908DA18DFE
S1131630B28D88169906AA06BB0608F045C0C418E0
S1131640D508E608F708C414D504E604F704C0F680
S1131650B501A401C8010E94E3026E8B7F8B888FC1
S1131660998F8A8A9B8AAC8ABD8A8E899F89A88D24
S1131670B98D0097A105B10549F1B701A601032E63
S113168039E076956795579547953A95D1F7302D7A
S1131690840F951FA61FB71F8E8B9F8BA88FB98FA2
S11316A00D5C1F4FF1E0DF22C00ED11ECA8EDB8E0F
S11316B080E00DC082E00BC082E009C082E007C078
S11316C081E005C082E003C082E001C082E0DF91D6
S11316D0CF911F910F91FF90EF90DF90CF90BF902B
S11316E0AF909F908F907F906F905F904F900895F0
S11316F04F925F926F927F928F929F92AF92BF921E
S1131700CF92DF92EF92FF920F931F93CF93DF93C9
S11317108C012A013B01FC01C081D1814115510595
S11317206105710599F48B849C84AD84BE84811415
S11317309104A104B10431F18F89988DA98DBA8DDA
S113174088169906AA06BB0610F525C00E94B009A2
S1131750623071058105910508F4F9C06F3FFFEF10
S11317607F078F079F0709F403C1CF88D88CE98CC2
S1131770FA8C6C157D058E059F0508F4F9C053019C
S1131780420109C0812C912C5401839404C0812C02
S1131790912C540183946F85788989899A8961157C
S11317A071058105910509F4E3C084149504A60428
S11317B0B70409F041C0750164012FEFC21AD20ABF
S11317C0E20AF20A8F89988DA98DBA8DC816D906B6
S11317D0EA06FB0628F0C12CD12C76016894C1F8E6
S11317E0B701A601C8010E94B009613071058105E5
S11317F0910509F4BDC06F3FEFEF7E078E079E078A
S113180009F4B6C0672B682B692B19F18B859C856D
S1131810AD85BE8582309105A105B10588F04F895B
S1131820588D698D7A8D84179507A607B70760F0E0
S1131830C12CD12C76010DC0C12CD12C760109C04C
S1131840C12CD12C760105C04C015D01C12CD12CD9
S11318507601C114D104E104F104C9F575016401F0
S1131860FFEFCF1ADF0AEF0AFF0A8F89988DA98D3F
S1131870BA8DC816D906EA06FB0660F022E0821685
S11318809104A104B10408F467C0C12CD12C7601E1
S11318906894C1F8B701A601C8010E94B009611596
S11318A071058105910599F06130710581059105F6
S11318B009F45EC06F3FEFEF7E078E079E0709F4C1
S11318C057C0C814D904EA04FB0451F649C00FEF09
S11318D01FEF9801B701A601CE010E94870881116C
S11318E00CC0411451046104710439F0970186015C
S11318F0B301A201CE010E948708811122C0CB86C8
S1131900DC86ED86FE864F85588969897A898F89B8
S1131910988DA98DBA8D0297A109B10984179507ED
S1131920A607B70740F041505109610971094F8773
S1131930588B698B7A8B8C8181608C83C701B6014B
S113194017C0813089F46FEF7FEFCB0111C061E0E4
S113195070E080E090E00CC060E070E0CB0108C073
S113196060E070E0CB0104C061E070E080E090E0F2
S1131970DF91CF911F910F91FF90EF90DF90CF9067
S1131980BF90AF909F908F907F906F905F904F909B
S113199008954F925F926F927F92AF92BF92CF92CF
S11319A0DF92EF92FF920F931F93CF93DF935C012B
S11319B06A017B01B901A801FC01C081D181F2E077
S11319C0CF16D104E104F10408F460C08F89988D26
S11319D0A98DBA8DC816D906EA06FB0608F058C0C8
S11319E0012B022B032B41F00FEF1FEF9801CE01C7
S11319F00E948708811153C0B701A601C5010E9446
S1131A00B0092B013C01611571058105910509F4AB
S1131A1041C06130710581059105F1F18FEF4816E0
S1131A20580668067806D1F100E010E09801B70185
S1131A30A601CE010E948708811131C08F85988943
S1131A40A989BA894F89588D698D7A8D6A017B017C
S1131A50E2E0CE1AD108E108F1088C159D05AE0527
S1131A60BF0550F40196A11DB11D8F87988BA98BDA
S1131A70BA8B8C8181608C83730162014416550694
S1131A806606770608F4B8CF80E009C082E007C094
S1131A9082E005C080E003C082E001C081E0DF9104
S1131AA0CF911F910F91FF90EF90DF90CF90BF9057
S1131AB0AF907F906F905F904F9008958F929F9218
S1131AC0AF92BF92CF92DF92EF92FF920F931F9348
S1131AD0CF93DF93EC016A017B010E94D80481114A
S1131AE037C0B701A601CE010E94E3024B015C019D
S1131AF06FA778AB89AB9AAB6E0183E3C80ED11C98
S1131B0040E052E060E070E0C6010E948502E12CF2
S1131B10F12C03C08FEFE81AF80A89859A85E81634
S1131B20F90670F401E010E0A50194012E0D3F1DAB
S1131B30411D511DB60189810E94F01B882351F378
S1131B4029853A8581E0E216F30619F480E001C0A4
S1131B5081E0DF91CF911F910F91FF90EF90DF9083
S1131B60CF90BF90AF909F908F9008954F925F92C7
S1131B706F927F928F929F92AF92BF92EF92FF9259
S1131B800F931F93CF93DF93FC010081118186840F
S1131B909784A088B18820E2820E911CA11CB11CFC
S1131BA086899789A08DB18D0097A105B10509F4A7
S1131BB0B7C08114910420E2A206B10408F0B2C0B7
S1131BC07B01EF01B501A401517066277727452BEE
S1131BD0462B472B09F096C00196A11DB11D868B9B
S1131BE0978BA08FB18F4289538964897589411578
S1131BF0510561057105D9F4F80187819085A0E04C
S1131C00B0E0B501A401689414F8769567955795EA
S1131C1047951694D1F7481759076A077B0708F4C4
S1131C2071C01E8A1F8A188E198E84E088C0F8013C
S1131C308185928501972C01612C712CD501C401F9
S1131C40072E79E0B695A795979587957A95D1F75C
S1131C50702D84219521A621B721892B8A2B8B2BCA
S1131C6009F050C0CE010E94B0092B013C01623042
S1131C7071058105910508F457C06F3F7F4F8F4F61
S1131C809F4F09F453C0F8018789908DA18DB28DBF
S1131C90481659066A067B0640F1EF2831F41E8A7D
S1131CA01F8A188E198E84E04AC04A895B896C8920
S1131CB07D89CE010E94780B2B013C0161157105D1
S1131CC081059105A9F1613071058105910591F1B5
S1131CD06F3F2FEF72078207920771F1AB01BC01CE
S1131CE0C8010E945E0D811129C04A8A5B8A6C8AF0
S1131CF07D8AB301A201C8010E94E3026E8B7F8B2F
S1131D00888F998F8E869F86A88AB98A0D5C1F4F0B
S1131D1081E09822800E911E8A8E9B8E80E00FC0F7
S1131D2084E00DC084E00BC082E009C081E007C0FC
S1131D3087E005C082E003C081E001C081E0DF915B
S1131D40CF911F910F91FF90EF90BF90AF909F9014
S1131D508F907F906F905F904F900895EF92FF92D5
S1131D601F93CF93DF93EC01E880F98040E050E0CB
S1131D70BA010E94920A81112BC04E895F89688D35
S1131D80798DC7010E943205182F81111DC0EA8D7B
S1131D90FB8D80818823C9F083858F738C83838531
S1131DA083FD0AC04BE050E0BE01645E7F4FCF016B
S1131DB00E948E02892B59F060E070E0CE010E94EF
S1131DC0B60D8823D1F204C003C084E001C0812F82
S1131DD0DF91CF911F91FF90EF900895DF92EF92E2
S1131DE0FF920F931F93CF93DF9300D0CDB7DEB74D
S1131DF08C01FB0169837A83DC01ED90FC90808186
S1131E008F3281F08C3571F0F70183899489A5892B
S1131E10B689F80186839783A087B18711C031966C
S1131E20E983FA83E981FA8180818F32C1F38C35A9
S1131E30B1F3D80116961D921D921D921C9219970A
S1131E40E981FA818081803258F480E8F80187A31F
S1131E5040E050E0BA01C8010E94920AD82E48C05E
S1131E60BE016F5F7F4FC8010E946303D82E8111AA
S1131E703FC0C8010E94AE0ED80197969C919797D7
S1131E80882371F0843039F595FF06C092FFE8CFBE
S1131E9080E897968C932CC092FF1FC0D82E28C040
S1131EA092FD20C0F801848184FF1EC08685978539
S1131EB0A089B1899170B7016D5C7F4F680F791F5C
S1131EC0C7010E941103D80116966D937D938D93DB
S1131ED09C931997C5CFD82E0BC00F2EF5E0DF2E9B
S1131EE0F02D06C0D82E04C00F2EF5E0DF2EF02D05
S1131EF08D2D0F900F90DF91CF911F910F91FF9037
S1131F00EF90DF900895CF92DF92EF92FF920F93BC
S1131F101F93CF93DF93EC016B01E880F98040E0DD
S1131F2050E0BA010E94920A811121C000E010E041
S1131F304E895F89688D798DC7010E9432058111B0
S1131F4016C0EA8DFB8D9081953E11F0911106C06B
S1131F500F5F1F4F0C151D0519F409C000E010E0B8
S1131F6061E070E0CE010E94B60D882309F384304D
S1131F7009F487E0DF91CF911F910F91FF90EF90CB
S1131F80DF90CF900895EF92FF921F93CF93DF934A
S1131F90EC01E880F98061E070E00E94830F182F63
S1131FA081111EC04E895F89688D798DC7010E9499
S1131FB03205182F811114C040E250E060E070E057
S1131FC08A8D9B8D0E948502BE01645E7F4F4BE02B
S1131FD050E08A8D9B8D0E94760281E0F701838315
S1131FE0812FDF91CF911F91FF90EF900895CF92B1
S1131FF0DF92FF920F931F93CF93DF93EC010E9424
S1132000D804F82E81115BC08881833009F04DC05B
S11320108C81813009F049C040E052E060E070E01A
S11320206E0183E3C80ED11CC6010E94850265E5DA
S11320307AEACE018F5C9D4F0E946C0242E552E524
S113204061E671E4C6010E94700242E752E761E46E
S113205071E6CE01895E9D4F0E9470024F855889BA
S113206069897A89CE01855E9D4F0E9470024B85F5
S11320705C856D857E85CE01815E9D4F0E947002D8
S11320808F8D98A1A9A1BAA19C01AD012F5F3F4FEB
S11320904F4F5F4F2FA738AB49AB5AAB01E010E06D
S11320A0B60189810E94F01B1C8240E050E060E090
S11320B089810E94FB1B882311F0FF24F3948F2D48
S11320C0DF91CF911F910F91FF90DF90CF900895F2
S11320D01F93CF93DF93CDB7DEB72697CDBFDEBF77
S11320E08B839C836D837E83142F69837A83CE01D3
S11320F001960E946404992324F1FC01EE0FFF1F52
S1132100E257FE4B0190F081E02D309709F01082E8
S1132110EB81FC81309709F01082880F991FFC0134
S1132120E257FE4B8B819C8180839183112359F06C
S113213040E0BE016D5F7F4FCE0105960E94B6055B
S113214003C08BE001C080E02696CDBFDEBFDF91E7
S1132150CF911F9108952F923F924F925F926F9269
S11321607F928F929F92AF92BF92CF92DF92EF9223
S1132170FF920F931F93CF93DF93CDB7DEB7AC9746
S1132180CDBFDEBF6BA77CA7009709F484C1142FD1
S11321906C01842F8F73E82E482FBE01675D7F4F3B
S11321A0CE018B960E94B605F82E81116DC189A5CA
S11321B09AA589839A836BA57CA5CE0101960E947A
S11321C0EE0EF82E811107C088A5882324F40F2E63
S11321D0F6E0FF2EF02D812F8C7109F472C0FF20E0
S11321E061F0E4E0FE1205C0CE0101960E94C30F27
S11321F0F82EFE2DF860EF2E0EC08D81817119F43A
S113220012FD06C008C00F2EF7E0FF2EF02D03C00C
S11322106894FF24F3F8F11066C0E3FE64C06B8D8C
S11322207C8D89A59AA50E9411034B015C010E9433
S1132230001CAB01BC018B8D9C8D0E960E9470021C
S1132240EB8DFC8D80E283876B8D7C8D20E030E00C
S1132250A90189A59AA50E943E038B8D9C8D40E01F
S113226050E0BA014C960E947002E9A5FAA581E0FB
S1132270838381149104A104B104A9F147A450A853
S113228061A872A800E010E09801B501A401CE0194
S113229001960E94C90CF82E811125C0B301A20138
S11322A089A59AA50E943205F82EE9A5FAA581E030
S11322B0881A9108A108B10883869486A586B686F3
S11322C012C0F11010C08D8184FD05C011FF0BC038
S11322D080FD05C008C06894FF24F2F804C00F2EE6
S11322E0F7E0FF2EF02DF11014C0E3FE03C0EE2D35
S11322F0E064EE2EE9A5FAA587A590A9A1A9B2A943
S1132300F601848F958FA68FB78F8B8D9C8D80A3BC
S113231091A3F110B9C08B8C9C8CA9A4BAA4B4016C
S1132320C5010E941103F601668377838087918734
S1132330C4014C960E945102F60162877387848718
S11323409587A082B182F50185819681F601828309
S11323509383E6861786108E118E128E138E108A42
S1132360118A128A138A1601F2E22F0E311C40E000
S113237052E060E070E0C1010E948502E5FE84C085
S1132380F6014284538464847584411451046104C5
S1132390710409F479C0408A518A628A738AE9A572
S11323A0FAA581859285A0E0B0E04C015D01072E7D
S11323B079E0880C991CAA1CBB1C7A95D1F7702D66
S11323C0F601468157816085718519C0C6010E9456
S11323D0B009AB01BC01423051056105710518F427
S11323E06894FF24F1F84F3FFFEF5F076F077F0703
S11323F011F4FF24F394481859086A087B08F11073
S113240005C084149504A604B70400F3F601448BB4
S1132410558B668B778BF11037C0D301C201917055
S1132420AA27BB27892B8A2B8B2B71F189A49AA409
S1132430C4010E94E3026115710581059105F1F063
S1132440032E39E076946794579447943A95D1F7DC
S1132450302D9B01AC01240D351D461D571DF60181
S1132460208F318F428F538F01E010E0B101F401CE
S113247081810E94E51B811105C006C06894FF2478
S1132480F1F802C0FF24F394FF2039F0F601108222
S113249011828F2D03C089E001C08F2DAC96CDBF72
S11324A0DEBFDF91CF911F910F91FF90EF90DF90EE
S11324B0CF90BF90AF909F908F907F906F905F90E0
S11324C04F903F902F9008952F923F924F925F929A
S11324D06F927F928F929F92AF92BF92CF92DF9230
S11324E0EF92FF920F931F93CF93DF93CDB7DEB795
S11324F02897CDBFDEBF7C014B016A015901D90188
S11325001D921C928F83F886BE016F5F7F4F0E94DD
S1132510A304811187C1F7018785811183C1868551
S113252081FF7FC180899189A289B389AC01BD01F2
S11325304C0D5D1D611D711D481759076A077B0706
S113254008F062C16C01C094D0945EC1F701808927
S11325509189A289B389AC01BD015170662777279F
S1132560452B462B472B09F008C1E981FA81618488
S11325707284F1E06F1A7108AC01BD01032E39E0D9
S113258076956795579547953A95D1F7302D6422FE
S113259075226114710409F051C0892B8A2B8B2B8D
S11325A0A1F4D70116966D917D918D919C91199707
S11325B0611571058105910589F440E050E0BA0187
S11325C08F8198850E94780B09C0F7014489558949
S11325D0668977898F8198850E94780B61157105CA
S11325E08105910509F414C16130710581059105D6
S11325F029F482E0D7011F968C9314C16F3FBFEF7B
S11326007B078B079B0721F481E0F70187870AC1C9
S1132610D70154966D937D938D939C9357971696FB
S11326200D911D912D913C911997012B022B032B98
S113263029F4F7016683778380879187D7011E96F3
S11326408C911E978823ECF4E981FA8158962D9198
S11326503D914D915C915B9701E010E0B7016E5D97
S11326607F4F81810E94F01B882321F081E0F701D4
S11326708787D8C0D7011E968C911E978F771E9698
S11326808C93F701448955896689778989819A8170
S11326908D839E830E94E302611571058105910576
S11326A029F482E0D7011F968C93BCC01B012C0136
S11326B0260C371C411C511CF601EF2FFF27E69511
S11326C0EB83FC83309741F1AD81BE8119962D9146
S11326D03C911A97CF01860D971D2817390728F4C6
S11326E0F901E619F709EB83FC830B811C81A20134
S11326F09101B401AD81BE8111968C910E94F01BB1
S1132700882321F081E0F70187878CC06B807C806F
S1132710762C6624770C50C0F701808D918DA28DA4
S1132720B38D281639064A065B0601F140895189A2
S11327306289738982859385A485B585481759076D
S11327406A077B0798F401E010E0A2019101B70148
S11327506E5D7F4FAD81BE8111968C910E94E51B09
S1132760882321F081E0F70187875CC0D701589660
S11327702D923D924D925C925B97F70180899189ED
S1132780A289B389917020E032E03901681A790A8C
S1132790C614D70408F43601A301B40197012E5DD1
S11327A03F4F820F931F0E947602D7011E968C9191
S11327B01E9780681E968C93C618D708F5018081F1
S11327C09181860D971D80839183860C971CF70158
S11327D080899189A289B389860D971DA11DB11D98
S11327E0808B918BA28BB38B4285538564857585D1
S11327F084179507A607B70710F4DB01CA01F70190
S113280082879387A487B587C114D10409F09ECE2B
S1132810D7011E968C911E9780641E968C9380E03F
S113282001C087E02896CDBFDEBFDF91CF911F9115
S11328300F91FF90EF90DF90CF90BF90AF909F905B
S11328408F907F906F905F904F903F902F9008955E
S1132850EF92FF920F931F93CF93DF9300D0CDB7E6
S1132860DEB7FC0122813381332364F18C017901C9
S1132870FFEFEF1AFF0AFC01E20FF31F66838DE3FB
S1132880E816F104BCF09E012F5F3F4FA701B80189
S11328906A5F7F4FF801808191810E94641289816F
S11328A09A81E816F90619F4E12CF12C03C0EE2400
S11328B0EA94FE2CF801E282F382848195810196E8
S11328C0848395830F900F90DF91CF911F910F9187
S11328D0FF90EF9008950F931F93CF93DF9300D051
S11328E0CDB7DEB7FC01428153815523C4F08C017E
S11328F0BC016A5F7F4F9E012F5F3F4F80819181B2
S11329000E94641281110EC0F801228133818981F1
S11329109A812817390749F48481958108C08FEF7B
S11329209FEF05C08FEF9FEF02C08FEF9FEF0F90D7
S11329300F90DF91CF911F910F9108958F929F92E5
S1132940AF92BF92EF92FF920F931F93CF93DF93B7
S113295000D0CDB7DEB77C01BE016F5F7F4F0E9410
S1132960A304811165C0D7011E969C911E9796FF02
S11329705FC09923B4F4E981FA8158962D913D9171
S11329804D915C915B9701E010E0B7016E5D7F4F64
S113299081810E94F01B81114AC0F70186858F77DF
S11329A086870E94001C4B015C01D7015C964D9107
S11329B05D916D917C915F9789819A810E94320526
S11329C0811136C0F70100A111A1D8011B968C9189
S11329D01B9780621B968C93268137814085518595
S11329E0B801808191810E943E03F701428553859D
S11329F064857585C8014C960E947002B501A401D6
S1132A00C80146960E94700260E070E0C8014296D8
S1132A100E946C0289819A8121E0DC0113962C9337
S1132A200E94F70FF70196859F7B968701C081E08E
S1132A300F900F90DF91CF911F910F91FF90EF9026
S1132A40BF90AF909F908F9008950F931F93CF9353
S1132A50DF9300D0CDB7DEB78C010E949E148111A4
S1132A600BC0BE016F5F7F4FC8010E94A304811198
S1132A7003C0F801108211820F900F90DF91CF9163
S1132A801F910F9108950F931F93CF93DF93CDB7A9
S1132A90DEB7C654D109CDBFDEBF8C01CE0101968D
S1132AA00E949B0406C00F5F1F4FCE0101960E9437
S1132AB02814F80160816111F6CFCE0101960E94BD
S1132AC06B14CA5BDF4FCDBFDEBFDF91CF911F9187
S1132AD00F91089582E080939241809192418111F7
S1132AE0FCCFE0E4F4E080818160808380818D7F8D
S1132AF0808380818460808380818860808382E099
S1132B00858384E08583E0E6F9E083E28083808145
S1132B108F7E80830895E0E6F9E080818E7F808354
S1132B2080910640816080930640089580936409F3
S1132B30809163098823E4F7809164090895FC0176
S1132B4001C0F9018FEF809364099091630999237F
S1132B50E4F7A0E6B9E014968C91149780838FEF84
S1132B6014968C93909163099923E4F79F012E5F47
S1132B703F4F8091640981836250710911F7089570
S1132B80FC0101C0F901808180936409909163097B
S1132B909923E4F79F012E5F3F4F8181809364095D
S1132BA0809163098823E4F76250710959F7089505
S1132BB09C01ADECBCEC0E94BF3896958795969528
S1132BC0879596958795809391418FEF0E949615EE
S1132BD08F3F21F0909191419111F7CF91E08F3F78
S1132BE009F090E0892F90E00895E0E4F4E0848116
S1132BF0886084838FEF0E9496150895CF93DF93A6
S1132C00E0E4F4E08481877F84838FEF0E9496154B
S1132C1084EF91E00E94D815EC01892B19F40E94ED
S1132C20F51502C0C1E0D0E0CE01DF91CF91089547
S1132C300F931F93CF93DF93EC018B0184E1809377
S1132C4092418FEF0E9496158F3F21F4909192410B
S1132C509111F7CF8E3F69F4B801CE010E949F1500
S1132C608FEF0E9496158FEF0E94961581E090E0F9
S1132C7002C080E090E0DF91CF911F910F91089501
S1132C800F931F93CF938C01C62F84EF91E00E9482
S1132C90D8150097E9F08C2F0E949615CD3FB1F01E
S1132CA060E072E0C8010E94C0158FEF0E94961583
S1132CB08FEF0E9496158FEF0E9496158F7191E009
S1132CC0853009F090E0892F90E002C081E090E027
S1132CD0CF911F910F910895FF920F931F93CF935C
S1132CE0DF93C82FD42F152F062FF72E88234CF4EB
S1132CF0CF7740E050E0BA0187E30E946C1682303F
S1132D0088F5CC3031F00E94F5150E94FE15892B10
S1132D1041F18C2F80640E9496158F2D0E94961588
S1132D20802F0E949615812F0E9496158D2F0E9448
S1132D309615CC2311F081E001C085E9C83009F46F
S1132D4087E80E949615CC3019F48FEF0E949615EF
S1132D50CAE08FEF0E949615882324F4C150C9F766
S1132D6001C08FEFDF91CF911F910F91FF900895D4
S1132D70EF92FF920F931F93CF93DF9300D000D075
S1132D80CDB7DEB70E948B158AE080939241809183
S1132D9092418111FCCF8091064081FF03C0809154
S1132DA00640B7C00E946A15E0E6F9E080818260BF
S1132DB080831AE004C08FEF0E9496151150111100
S1132DC0FACF40E050E0BA0180E00E946C168130F6
S1132DD009F07EC084E6809392414AEA51E060E0C3
S1132DE070E088E00E946C16813009F04AC00EC081
S1132DF0E02EF12C8FEF0E949615E1E0F0E0EC0F4D
S1132E00FD1FEE0DFF1D80830F5F01C0012F0430F5
S1132E1078F38B81813009F05DC08C818A3A09F0A6
S1132E205BC080919241882349F040E050E060E02B
S1132E3070E489EA0E946C168111F3CF809192416B
S1132E40882309F44BC040E050E0BA018AE30E94B1
S1132E506C16882379F010E048C0E12EF12C8FEF36
S1132E600E949615E1E0F0E0EC0FFD1FEE0DFF1D52
S1132E7080831F5F143088F3898186FF31C01CE092
S1132E8034C040E050E0BA0189EA0E946C168230F6
S1132E9018F412E009EA02C011E001E080919241C5
S1132EA0882341F040E050E0BA01802F0E946C1664
S1132EB08111F4CF809192418823A1F040E052E047
S1132EC060E070E080E10E946C1681110DC00DC0BD
S1132ED010E00BC010E009C010E007C010E005C00E
S1132EE014E003C010E001C010E0109390410E9470
S1132EF0F515112351F0809106408E7F8093064092
S1132F00E0E6F9E08081808302C00E948B15809105
S1132F1006402496CDBFDEBFDF91CF911F910F9164
S1132F20FF90EF900895809106400895FF920F93CB
S1132F301F93CF93DF938C01E9012097E1F18091F6
S1132F40064080FD3AC08091904183FD09C0032E64
S1132F5039E0440F551F661F771F3A95D1F7302D7E
S1132F60C230D10528F00F2EF2E1FF2EF02D04C05F
S1132F700F2EF1E1FF2EF02D8F2D0E946C16811182
S1132F8013C060E072E0C8010E941816892B19F082
S1132F901E5F2197B1F782E1F81206C040E050E0CD
S1132FA0BA018CE00E946C160E94F51581E0CD2BCD
S1132FB029F480E003C084E001C083E0DF91CF9175
S1132FC01F910F91FF900895CF92DF92EF92FF929D
S1132FD00F931F93CF93DF938C016A017B01E90167
S1132FE0209709F452C08091064080FD50C0809122
S1132FF0064082FD4EC08091904183FD09C00B2E96
S1133000B9E0CC0CDD1CEE1CFF1CBA95D1F7B02D39
S1133010C130D10571F4B701A60188E10E946C1694
S113302081112CC06EEFC8010E944016892B09F54E
S113303025C0867031F0AE0160E070E087E90E943F
S11330406C16B701A60189E10E946C16811116C0A5
S11330506CEFC8010E944016892B19F01E5F21975E
S1133060B9F76DEF80E090E00E944016892B21F0C3
S113307005C0C0E0D0E002C0C1E0D0E00E94F51578
S113308081E0CD2B39F480E005C084E003C083E007
S113309001C082E0DF91CF911F910F91FF90EF90DB
S11330A0DF90CF9008958F929F92AF92BF92CF926C
S11330B0DF92EF92FF920F931F93CF93DF93CDB7DD
S11330C0DEB76097CDBFDEBFE82F8B01809106404D
S11330D080FD36C38E2F90E08A33910508F035C306
S11330E0FC01E85AFF4F0C94B6380E94FE15892B58
S11330F011F411E001C010E00E94F515F12E3AC35D
S113310040E050E0BA0189E00E946C1681116EC063
S113311060E170E0CE0101960E941816892B09F433
S113312067C089818295869586958370813031F553
S11331308A85298530E0322F2227280F311D888582
S11331408F7390E0A0E0B0E0DC0199278827820F1C
S1133150931FA11DB11D0196A11DB11D072E7AE07B
S1133160880F991FAA1FBB1F7A95D1F7702DF801FC
S113317080839183A283B38310E03BC02E819B851F
S1133180991F9927991F8A852F70290F8370880F9B
S1133190280F2E5F3985888590E0880F991F880F46
S11331A0991F3295369536953370AC01430F511DF6
S11331B09F819370892F90E0982F8827990F990FFA
S11331C0840F951F0196A0E0B0E030E0295031094A
S11331D004C0880F991FAA1FBB1F2A95D2F7F801B4
S11331E080839183A283B38310E003C011E001C004
S11331F011E00E94F515F12EBDC28091904182FF2D
S113320035C040E050E0BA018DE80E946C1681118F
S11332108BC08FEF0E94961560E170E0CE0101969D
S11332200E941816892B39F411E083C08FEF0E9495
S11332309615FA9404C00F2EF0E3FF2EF02DF11032
S1133240F5CF2B8522952F7080E190E0A0E0B0E0CF
S113325004C0880F991FAA1FBB1F2A95D2F7F80133
S113326080839183A283B38310E063C040E050E085
S1133270BA0189E00E946C16811158C060E170E0C7
S1133280CE0101960E941816892B09F451C0809131
S1133290904181FF1FC08B858F7390E0880F991F29
S11332A02C8527FD019601962E8522952695269537
S11332B0237030E02150310902C0880F991F2A95EC
S11332C0E2F7A0E0B0E0F80180839183A283B383A6
S11332D010E02FC08B858C7790E095958795959518
S11332E0879501964C85242F237030E0220F331FDD
S11332F0220F331F220F331F429546954770240F28
S1133300311D2F5F3F4F289FA001299F500D389FEB
S1133310500D1124CA01A0E0B0E0F801808391832C
S1133320A283B38310E005C011E003C011E001C023
S113333011E00E94F515F12E1DC280919041867016
S113334009F407C2BE016F5F7F4F83E30E945318E5
S1133350F82E811101C289818295869586958370A4
S113336019F48B8586FFFBC1D8014D915D916D9158
S11333707C91139714968D909D90AD90BC90179767
S11333808091904183FD12C0032E39E0440F551FF4
S1133390661F771F3A95D1F7302D072E79E0880CF8
S11333A0991CAA1CBB1C7A95D1F7702D80E20E944F
S11333B06C168111D7C1B501A40181E20E946C167B
S11333C08111D3C140E050E0BA0186E20E946C163C
S11333D08111CEC180E395E70E94D815892B09F0AD
S11333E0C9C1FF24F394C6C180919041FB0180833D
S11333F0F12CC0C140E050E0BA0189E00E946C1693
S1133400811109C060E170E0C8010E941816892B7F
S113341021F411E003C011E001C010E00E94F51591
S1133420F12EA8C140E050E0BA018AE00E946C1677
S1133430811109C060E170E0C8010E941816892B4F
S113344021F411E003C011E001C010E00E94F51561
S1133450F12E90C140E050E0BA018AE30E946C165C
S1133460882371F011E012C06801FFEFCF1ADF0A60
S11334708FEF0E949615D8018C93FA94860103C0AD
S11334806894FF24F2F8F110EFCF10E00E94F515D4
S1133490F12E70C140E050E0BA018DE80E946C1634
S11334A081110CC08FEF0E94961560E470E0C80192
S11334B00E941816892B21F411E003C011E001C009
S11334C010E00E94F515F12E55C10E948B158091D4
S11334D00640816080930640F12C4CC1FB01408181
S11334E050E060E070E0032E3CE1440F551F661F7E
S11334F0771F3A95D1F7302D83819481A581B681C8
S1133500072E79E0880F991FAA1FBB1F7A95D1F760
S1133510702D482B592B6A2B7B2B8181928101972B
S11335209170A0E0B0E0482B592B6A2B7B2B70687C
S113353080E30E946C1681113CC084E68093924122
S11335408FEF0E9496158F3F21F490919241911133
S1133550F7CF8E3F81F5D8011796CD90DC90189760
S11335601196ED90FC9012970DC05601BFEFAB1A67
S1133570BB0A8FEF0E949615F6018083F1E0EF1AE3
S1133580F1086501E114F10481F7D80111968D91D8
S11335909C91129702E012E0081B190B05C08FEFF3
S11335A00E9496150150110901151105C1F710E08B
S11335B003C011E001C011E00E94F515F12EDAC03C
S11335C0FB01408150E060E070E0032E3CE1440FD9
S11335D0551F661F771F3A95D1F7302D838194814B
S11335E0A581B681072E79E0880F991FAA1FBB1FFA
S11335F07A95D1F7702D482B592B6A2B7B2B81811F
S1133600928101979170A0E0B0E0482B592B6A2B6E
S11336107B2B706881E30E946C16811138C08FEF98
S11336200E9496158EEF0E949615D8011796ED917B
S1133630FC9118971196ED90FC9012970BC06F01B6
S1133640BFEFCB1ADB0A80810E949615E1E0EE1AE7
S1133650F108F601E114F10491F7D80111968D9166
S11336609C91129702E012E0081B190B05C08FEF22
S11336700E9496150150110901151105C1F78FEF2C
S11336800E9496158F71853021F011E003C011E07E
S113369001C010E00E94F515F12E6CC0FB014081C1
S11336A050E060E070E0032E3CE1440F551F661FBC
S11336B0771F3A95D1F7302D83819481A581B68106
S11336C0072E79E0880F991FAA1FBB1F7A95D1F79F
S11336D0702D482B592B6A2B7B2B828190E0A0E024
S11336E0B0E0482B592B6A2B7B2B746881E30E9432
S11336F06C1681111EC08FEF0E9496158EEF0E94EA
S11337009615D80111968C910E94961501E012E04D
S113371005C08FEF0E94961501501109011511057E
S1133720C1F78FEF0E9496158F71853021F011E05B
S113373003C011E001C010E00E94F515F12E1AC07B
S11337400F2EF3E0FF2EF02D15C06894FF24F2F83D
S113375011C0FF24F3940EC0FF24F3940BC0FF2484
S1133760F39408C0FF24F39405C0FF24F39402C02B
S1133770FF24F3948F2D6096CDBFDEBFDF91CF91F0
S11337801F910F91FF90EF90DF90CF90BF90AF907B
S11337909F908F90089580919241882319F08150D1
S11337A08093924180919141882319F081508093B4
S11337B0914180910640897F8093064008950E943C
S11337C0B81608950E94931708950F931F93CB0181
S11337D0BA01A90198010E9496171F910F910895AB
S11337E00F931F93CB01BA01A90198010E94E4171A
S11337F01F910F910895862FBA010E9453180895BE
S1133800E5EDFDE5408151814C5B574060E070E09F
S1133810032E39E1440F551F661F771F3A95D1F7E0
S1133820302D828190E0A0E0B0E0072E75E1880F92
S1133830991FAA1FBB1F7A95D1F7702D482B592BBE
S11338406A2B7B2B838190E0A0E0B0E0DC01992718
S11338508827482B592B6A2B7B2B858190E0A0E08D
S1133860B0E0072E7BE0880F991FAA1FBB1F7A9533
S1133870D1F7702D482B592B6A2B7B2B868190E036
S1133880A0E0B0E0880F991FAA1FBB1F880F991FE3
S1133890AA1FBB1F880F991FAA1FBB1F880F991F40
S11338A0AA1FBB1F880F991FAA1FBB1F842B952B10
S11338B0A62BB72B27812695BC01CD01622B089539
S11338C0CF93DF93A0E6B4E020E411962C931197F4
S11338D0C0EAD4E080E28983E0E0F4E0818390E10F
S11338E0918334E031838683968312969C93129756
S11338F012963C9312979A8312968C93129788E0AF
S113390012968C93228380E8828335832583858372
S1133910DF91CF910895E0E0FAE081E0828711829F
S113392081858E7F81878FE19EE486A397A383E0C0
S113393080839EEF88ED84BF90937C008091650026
S113394083FDFCCF88ED9BEF84BF90937C0091E0D6
S113395084BF90937C00809141018111FCCFE0E40D
S1133960F1E082E0878385818160858381E0828BB9
S113397081E7808BE0E5F0E0808184608083808152
S1133980816080830895E0E0F6E084E0808787E842
S113399093E10197F1F700C0000081E082878091F4
S11339A00D0680FFFCCF609110067091110680E037
S11339B090E00E9475369B01AC010E94583520E0CE
S11339C030E040E857E30E9419380895E0E0F6E05B
S11339D082E0808787E893E10197F1F700C0000057
S11339E081E0828780910D0680FFFCCF60911006F4
S11339F07091110680E090E00E9475369B01AC0145
S1133A000E94583520E030E040E857E30E9419381E
S1133A1008958130910521F484E18093080609C05A
S1133A20029721F485E08093080603C083E0809325
S1133A30080687E893E10197F1F700C0000081E0F0
S1133A4080930A0680910D0680FFFCCF60911006DA
S1133A507091110680E090E00E9475369B01AC01E4
S1133A600E94583520E030E040E857E30E941938BE
S1133A7008954F925F926F927F928F929F92AF922E
S1133A80BF92CF92DF92EF92FF920F931F93CF9347
S1133A90DF93CDB7DEB76F97CDBFDEBF43E050E015
S1133AA060E570E481EA9CE50E946F3A892B29F471
S1133AB084E590E40E944C35F6C243E050E06FE5A3
S1133AC070E481EA9CE50E946F3A892B09F078C082
S1133AD01B864AE050E064EA7CE5CE0101960E9430
S1133AE07D3ACE0101960E94383A6093D15D70937D
S1133AF0D25D8093D35D9093D45D81E09091AE5C70
S1133B00943709F080E08093074081E09091AF5CA6
S1133B10943709F080E08093A05C81E09091B05CE0
S1133B20943709F080E080939F5C809119409091D4
S1133B301A4080939D5C90939E5C80911740909175
S1133B40184080939B5C90939C5C8091154090916D
S1133B5016408093995C90939A5C80911340909165
S1133B6014408093975C9093985C8091114090915D
S1133B7012408093955C9093965C80910F40909155
S1133B8010408093935C9093945C80910D4090914D
S1133B900E408093915C9093925C0E94372D83E653
S1133BA090E40E944C352FE788E391E02150804057
S1133BB09040E1F700C0000081E08093D05D73C2C3
S1133BC043E050E068E670E481EA9CE50E946F3AC5
S1133BD0892B09F068C11092D05D81E09091A45CBA
S1133BE0943709F080E080931E4081E09091AA5CB4
S1133BF0943709F080E080931D4081E09091B05C9F
S1133C00943709F080E080931C4081E09091B65C89
S1133C10943709F080E080931B40E1EAFCE50190D1
S1133C200020E9F73197E15AFC45B697C8F081E0E6
S1133C309091C65C943709F080E08093F65D81E052
S1133C409091CC5C943709F080E08093F55D81E03D
S1133C509091D25C943709F080E08093F45D06C0C3
S1133C601092F65D1092F55D1092F45D1F8E45E0A2
S1133C7050E065EA7CE5CE014A960E947D3ACE0189
S1133C804A960E941A3A8093194090931A4045E04C
S1133C9050E06BEA7CE5CE014A960E947D3ACE0163
S1133CA04A960E941A3A809317409093184045E030
S1133CB050E061EB7CE5CE014A960E947D3ACE014C
S1133CC04A960E941A3A809315409093164045E014
S1133CD050E067EB7CE5CE014A960E947D3ACE0126
S1133CE04A960E941A3A8093134090931440E1EA52
S1133CF0FCE501900020E9F73197E15AFC45B697BD
S1133D0088F145E050E067EC7CE5CE014A960E94DC
S1133D107D3ACE014A960E941A3A809311409093BC
S1133D20124045E050E06DEC7CE5CE014A960E94DD
S1133D307D3ACE014A960E941A3A80930F4090939E
S1133D40104045E050E063ED7CE5CE014A960E94C8
S1133D507D3ACE014A960E941A3A80930D40909380
S1133D600E400EC08CE390E080931140909312407B
S1133D7080930F409093104080930D4090930E4099
S1133D80E1EAFCE501900020E9F73197E15AFC45AE
S1133D90B69748F081E09091D85C943709F080E0C0
S1133DA08093F35D02C01092F35D1B864AE050E0FD
S1133DB06CEB7CE5CE0101960E947D3ACE01019622
S1133DC00E94383A6093094070930A4080930B40F4
S1133DD090930C400E94372D4090F35DC0900D40AD
S1133DE0D0900E405090F45DE0900F40F090104061
S1133DF06090F55D00911140109112407090F65D55
S1133E008091094090910A40A0910B40B0910C40E0
S1133E10E0911340F091144080901B406091154054
S1133E207091164090901C4040911740509118405A
S1133E30A0901D402091194030911A40B0901E402E
S1133E401F924F92DF92CF921F925F92FF92EF9256
S1133E501F926F921F930F931F927F92BF93AF9302
S1133E609F938F93FF93EF931F928F927F936F9300
S1133E701F929F925F934F931F92AF923F932F9302
S1133E801F92BF928CE690E49F938F9383E991E411
S1133E909F938F930E94E03ACDBFDEBF83E991E404
S1133EA00E944C3500C143E050E062EA70E481EACC
S1133EB09CE50E946F3A892B09F067C04090F35D3E
S1133EC0C0900D40D0900E405090F45DE0900F40B3
S1133ED0F09010406090F55D0091114010911240F7
S1133EE07090F65D8091094090910A40A0910B403A
S1133EF0B0910C40E0911340F091144080901B402D
S1133F00609115407091164090901C40409117406C
S1133F1050911840A0901D402091194030911A40B2
S1133F20B0901E401F924F92DF92CF921F925F92E9
S1133F30FF92EF921F926F921F930F931F927F92A3
S1133F40BF93AF939F938F93FF93EF931F928F929F
S1133F507F936F931F929F925F934F931F92AF92A1
S1133F603F932F931F92BF9286EA90E49F938F937F
S1133F7083E991E49F938F930E94E03ACDBFDEBF23
S1133F8083E991E40E944C358EC043E050E06CED2F
S1133F9070E481EA9CE50E946F3A892B39F410920F
S1133FA0D05D80EE90E40E944C357DC043E050E04B
S1133FB065EE70E481EA9CE50E946F3A892B79F4FE
S1133FC081EA9CE50E94582965EE70E483E991E456
S1133FD00E94F62B83E991E40E944C3564C043E0CF
S1133FE050E069EE70E481EA9CE50E946F3A892B07
S1133FF059F469EE70E483E991E40E94F62B83E9B5
S113400091E40E944C354FC043E050E06DEE70E403
S113401081EA9CE50E946F3A892B19F544E150E04E
S113402064EA7CE58DED9DE50E947D3A0E94132EA5
S11340308DED9DE59F938F9381EF90E49F938F93F4
S11340408E010F5F1F4F1F930F930E94E03AC80128
S11340500E944C350F900F900F900F900F900F907F
S113406022C043E050E069EF70E481EA9CE50E94DD
S11340706F3A892BC1F48DED9DE59F938F938DEF5E
S113408090E49F938F938E010F5F1F4F1F930F93A5
S11340900E94E03AC8010E944C350F900F900F9097
S11340A00F900F900F901092A15C6F96CDBFDEBF62
S11340B0DF91CF911F910F91FF90EF90DF90CF9000
S11340C0BF90AF909F908F907F906F905F904F9034
S11340D008950F931F93CF9380E090E0FC01EF5578
S11340E0F34A2081222329F08639910520F0C0E08B
S11340F003C0C0E001C0C1E0CC2311F00196EECFB3
S11341008539910511F480E090E000E010E0F801B9
S1134110E95CF24A2081222329F00639110520F0B6
S11341202C2F03C02C2F01C021E02223C9F0053914
S11341301105B1F0F801E95CF24A2081FC01EF5568
S1134140F34A208301960F5F1F4F2D3001F7FC01C6
S1134150EF55F34A10820E94391D80E090E0D7CFDA
S1134160CF911F910F910895AF92BF92CF92DF929A
S1134170EF92FF920F931F93CF93DF93CDB7DEB7E8
S11341806997CDBFDEBFEE86FF86088B198B2A8B1D
S11341903B8B4C8B5D8B6E8B7F8B888F998F909133
S11341A08F5C992309F44CC02DE0CE0101965C018B
S11341B0FC01322F11923A95E9F7E9884E2D0E2C25
S11341C0000C550BFB888F2D0F2C000C990B0196BE
S11341D00C891D890459184F5F93EF929F938F9315
S11341E01F930F9385E091E49F938F931F922F93D6
S11341F0BF92AF920E94A93AE5EDFDE500831183D9
S1134200F394F282E382888985838F8586838E8501
S1134210878382E292E00E94F9388C0142E3B5017F
S11342200E94AB10CDBFDEBF811107C0B801C6012B
S11342300E944315C8010E942515C8010E949139A6
S11342406996CDBFDEBFDF91CF911F910F91FF9093
S1134250EF90DF90CF90BF90AF9008950E94B12F60
S11342600E94601CF894E0E0F6E080818560808321
S113427081818660818382818C60828386E08093E1
S1134280B000E0E0F4E082898160828B0E944E30CD
S11342900E9479340E94EC330E948B1C80E280934C
S11342A0A60483E392E00E94F93880938D5C909396
S11342B08E5C2FE78AE196E0215080409040E1F740
S11342C000C0000078948091F25D8823C9F081E0F9
S11342D08093D05D8093074010929F5C1092A05C05
S11342E08091D15D9091D25DA091D35DB091D45D68
S11342F08093094090930A40A0930B40B0930C40E4
S11343008091D05D811106C080918F5C882321F05B
S113431080E003C080E001C081E0882371F041E0C7
S11343206EE570E480918D5C90918E5C0E946810C3
S1134330811103C081E080938F5C8091D05D8823DC
S113434031F09091A05C992319F080E001C080E0E5
S1134350882339F0E0E5F0E08081897F8460808300
S113436005C0E0E5F0E08081897F80838091D05DA5
S1134370882331F09091A05C992319F080E001C06A
S113438080E0882319F080E28093A504E0E5F0E062
S1134390808181608083889580818E7F8083B0CF87
S11343A01F920F920FB60F9211240BB60F922F93F8
S11343B03F934F935F936F937F938F939F93AF93A9
S11343C0BF93EF93FF93809100088E3731F481E01F
S11343D08093CE5D8093CF5D49C09091CF5D99234A
S11343E009F444C0E091CE5DE130D9F1E23021F42A
S11343F08D5F8093CD5D35C0E33071F4803961F019
S1134400803921F48EE0809308402BC08D3A49F521
S113441084E08093084025C0209108402E1708F5B9
S11344209091CD5DE91790F030E02F5F3F4FF0E0C1
S1134430E21BF30BE95CF24A10821092CF5D1092FA
S1134440CD5D1092CE5D0E9469200BC0E91748F43F
S113445030E02F5F3F4FF0E0E21BF30BE95CF24AE0
S113446080838091CE5D8F5F8093CE5DFF91EF91CD
S1134470BF91AF919F918F917F916F915F914F9178
S11344803F912F910F900BBE0F900FBE0F901F9076
S113449018951F920F920FB60F9211240BB60F921C
S11344A02F933F934F935F936F937F938F939F9338
S11344B0AF93BF93EF93FF930E94CB1B81E0809354
S11344C00B0AFF91EF91BF91AF919F918F917F91D3
S11344D06F915F914F913F912F910F900BBE0F9071
S11344E00FBE0F901F9018951F920F920FB60F9248
S11344F011240BB60F928F929F92AF92BF92CF92DC
S1134500DF92EF92FF920F931F932F933F934F935A
S11345105F936F937F938F939F93AF93BF93EF9327
S1134520FF93CF93DF93CDB7DEB7C855D109CDBF85
S1134530DEBF81E0809353018091D15D9091D25D83
S1134540A091D35DB091D45D0196A11DB11D80935E
S1134550D15D9093D25DA093D35DB093D45D8091EF
S1134560080482FD38C08091294290912A42019624
S11345708093294290932A428091294290912A4221
S1134580049768F11092D05D10928F5CE0E0F4E043
S113459080E2868380E1868380E48093660480E001
S11345A090E0833091050CF012C52FE738E341E029
S11345B0215030404040E1F700C00000E0E6F4E064
S11345C020E42583A7EAB1E61197F1F700C00000C3
S11345D026830196E6CF1092294210922A428091B6
S11345E0D05D882309F4A7C44091D15D5091D25D78
S11345F06091D35D7091D45D8091094090910A409F
S1134600A0910B40B0910C40481759076A077B07EB
S113461008F4DDC480919F5C882339F180912B429A
S11346208F5F80932B42853000F110922B4280E4FF
S11346308093660480E090E018161906B4F0BFE792
S113464028E331E0B15020403040E1F700C00000E1
S1134650E0E6F4E020E42583A7EAB1E61197F1F758
S113466000C0000026830196E7CF80911C40882378
S113467079F020911540309116404091995C509109
S11346809A5C241B350B2431310518F080E001C0FD
S113469080E0882331F0E0E0F4E080E2858380E18B
S11346A085832EE63FE260962EAF3FAF609781E6AA
S11346B090E062968EAF9FAF629743E0EEE4F0E045
S11346C0EC0FFD1F3496DF01542F1D925A95E9F724
S11346D029962EAF3FAF29972B968EAF9FAF2B977E
S11346E0E7E4F0E0EC0FFD1F3496DF01542F1D9238
S11346F05A95E9F722962EAF3FAF229724968EAFB4
S11347009FAF2497FE01EC5BFF4FDF01542F1D92F6
S11347105A95E9F729AF3AAF8BAF9CAF3797DF01D2
S1134720542F1D925A95E9F72AAB3BAB8CAB9DAB4A
S11347303797DF01542F1D925A95E9F72BA73CA711
S11347408DA79EA73797DF01542F1D925A95E9F73D
S11347502D873E878F87988B7E9755E0DF011D92CA
S11347605A95E9F72CA33DA38EA39FA37796DF0167
S1134770542F1D925A95E9F72D8F3E8F8F8F98A352
S11347803797DF01542F1D925A95E9F72E8B3F8BF3
S1134790888F998F3797DF011D924A95E9F78091A9
S11347A0995C90919A5C01968093995C90939A5C41
S11347B080911C40882369F0409115405091164027
S11347C02091995C30919A5C2417350718F480E0A5
S11347D001C080E0882309F46BC00E94E61C6B01D1
S11347E07C018E01055D1F4F24E046E00E94D9380C
S11347F020911F403091204040912140509122400F
S1134800C701B6010E94C93520E030E040E85FE30B
S11348100E945735E62EF72E082F192F20E030E09E
S1134820A9010E94C435882324F4E12CF12C00E072
S113483010E02EEE3CE74FE952E46E2D7F2D802FE1
S1134840912F0E94193829EC36E740E451E40E9484
S113485057359B01AC016E2D7F2D802F912F0E9427
S113486019382CE032E047E150E40E9458359B01AE
S1134870AC016E2D7F2D802F912F0E9419388E014F
S11348800E5C1F4F24E046E00E94D9381092995CD8
S113489010929A5C8091154090911640449750F084
S11348A0E0E0F4E080E2868380E1868321E003C0D7
S11348B020E001C021E080919D5C90919E5C019676
S11348C080939D5C90939E5C80911E40882369F048
S11348D06091194070911A4040919D5C50919E5C8A
S11348E04617570718F480E001C080E0882309F4D4
S11348F0ABC069961CAE1DAE1EAE1FAE6997198281
S11349001A821B821C82BE016F5F7F4FCE018B5ABD
S11349109F4F0E944E32882309F491C06091334026
S113492070913440809135409091364069962CAD19
S11349303DAD4EAD5FAD69970E9419382091075E79
S11349403091085E4091095E50910A5E0E9458358C
S11349506B017C0120E030E048E452E40E944E37D1
S1134960181644F40F2EC12CD12CF8E4EF2EF2E4E7
S1134970FF2EF02D20E030E040E251ECC701B601FB
S11349800E94C435882344F40F2EC12CD12CF0E2AC
S1134990EF2EF1ECFF2EF02D6996CCAEDDAEEEAE2F
S11349A0FFAE699760912F40709130408091314003
S11349B09091324029813A814B815C810E9419385F
S11349C02091035E3091045E4091055E5091065E35
S11349D00E9458354B015C0120E030E048EC52E481
S11349E00E944E37181644F40F2E812C912CF8ECAB
S11349F0AF2EF2E4BF2EF02D20E030E0A901C50176
S1134A00B4010E94C43588231CF4812C912C5401D8
S1134A1089829A82AB82BC828E01025B1F4F22E0A4
S1134A2046E0C701B6010E94D93869817A818B8139
S1134A309C810750110922E046E00E94D938109267
S1134A409D5C10929E5C21E080919B5C90919C5CAB
S1134A50019680939B5C90939C5C80911D4088237D
S1134A6069F0609117407091184040919B5C50919F
S1134A709C5C4617570718F480E001C080E0882347
S1134A8009F45FC00E94C31C6B017C018E01075CAA
S1134A901F4F24E046E00E94D9382DEC3CEC4CEC4E
S1134AA05EE3C701B6010E94573527E73EEB4FE9A5
S1134AB05CE30E94C93520912B4030912C404091F9
S1134AC02D4050912E400E9419382091FF5D309165
S1134AD0005E4091015E5091025E0E9458356B0168
S1134AE07C0120E030E048E452E40E944E3718167E
S1134AF044F40F2EC12CD12CF8E4EF2EF2E4FF2E57
S1134B00F02D20E030E040E251ECC701B6010E94F4
S1134B10C435882344F40F2EC12CD12CF0E2EF2E9F
S1134B20F1ECFF2EF02D8E01005C1F4F22E046E0D9
S1134B30C701B6010E94D93810929B5C10929C5C0C
S1134B4021E08091975C9091985C01968093975CAA
S1134B509093985C80911B40882369F06091134086
S1134B60709114404091975C5091985C4617570798
S1134B7018F480E001C080E0882309F452C08091D9
S1134B80F35D882351F00E9428318E01035F1F4F8B
S1134B9022E048E00E94D9383FC00E94CE302091E4
S1134BA02740309128404091294050912A400E944A
S1134BB019382091FB5D3091FC5D4091FD5D509171
S1134BC0FE5D0E9458356B017C012FEF3FE443ECFE
S1134BD057E40E944E37181654F40F2ECC24CA946E
S1134BE0FFE4DF2EF3ECEF2EF7E4FF2EF02D20E0B0
S1134BF030E0A901C701B6010E94C43588231CF422
S1134C00C12CD12C76018E01035F1F4F22E048E0B6
S1134C10C701B6010E94D9381092975C1092985C33
S1134C2021E08091955C9091965C01968093955CCF
S1134C309093965C8091F65D882369F060911140B1
S1134C40709112404091955C5091965C46175707BD
S1134C5018F480E001C080E0882381F081E090E0D6
S1134C600E94091D8E010C5D1F4F24E046E00E9446
S1134C70D9381092955C1092965C21E08091935CF7
S1134C809091945C01968093935C9093945C809152
S1134C90F55D882369F060910F4070911040409158
S1134CA0935C5091945C4617570718F480E001C058
S1134CB080E0882381F082E090E00E94091D8E014B
S1134CC0035E1F4F24E046E00E94D9381092935CA3
S1134CD01092945C21E08091915C9091925C019699
S1134CE08093915C9093925C8091F45D882369F049
S1134CF060910D4070910E404091915C5091925C96
S1134D004617570718F480E001C080E0882381F03B
S1134D1083E090E00E94091D8E010A5E1F4F24E08B
S1134D2046E00E94D9381092915C1092925C21E086
S1134D30222309F4F9C080910740811102C08091B7
S1134D40A05C882349F080E28093A60487EE93E078
S1134D500197F1F700C000008091D15D9091D25D80
S1134D60A091D35DB091D45D80589344AD46B843CF
S1134D7069968CAF9DAFAEAFBFAF6997BE016F5F51
S1134D807F4FCE018B5A9F4F0E947101C980EC2C3A
S1134D900C2C000CFF08DA800D2D0D2C000C110BCF
S1134DA07B81A72F072E000CBB0B9C80E92D092CBF
S1134DB0000CFF0B8E81082E000C990B01962F819D
S1134DC038852459384F40919F5C442319F04EE5AF
S1134DD050E402C046E151E45E0166E1A60EB11C56
S1134DE0BF92AF925E016DE1A60EB11CBF92AF926D
S1134DF05E0164E2A60EB11CBF92AF925E016BE24B
S1134E00A60EB11CBF92AF925E0169E3A60EB11C5F
S1134E10BF92AF925E016DE0A60EB11CBF92AF923D
S1134E205E0162E3A60EB11CBF92AF925E0160E424
S1134E30A60EB11CBF92AF925E0167E4A60EB11C30
S1134E40BF92AF925E016EE4A60EB11CBF92AF9208
S1134E50FF92CF921F93DF92BF937F93FF939F9212
S1134E609F938F933F932F935F934F938BE191E4A1
S1134E709F938F931F9286E98F9383E991E49F9385
S1134E808F930E94A93A8DE0809327421092284282
S1134E9080910740CDBFDEBF882321F083E991E4F0
S1134EA00E948C348091A05C882321F083E991E4F2
S1134EB00E94F83480919F5C8823B1F180912D4247
S1134EC08D3250F420912C4230E08A81082E000C5F
S1134ED0990B28173907D9F00F2EFEE2CF2EF2E4F2
S1134EE0DF2EF02DE980FA800B811C812D813E811B
S1134EF04F81588569857A858B859C850E94B4206D
S1134F0010922D4210922E428A8180932C4246E9BF
S1134F1050E063E971E48EE292E40E945F3A80918A
S1134F202D428F5F80932D428FE097E20197F1F736
S1134F3000C000004CC0E0E0F4E080E2868390E131
S1134F4096838093A604A7EEB3E01197F1F700C00F
S1134F5000008091905C811107C08AE591E40E9471
S1134F604C3586E08093905C8091905C8150809376
S1134F70905C8091080482FF2AC080918F5C882312
S1134F8019F042E050E002C041E050E0141615066A
S1134F90F4F480E48093660480E090E0841795073D
S1134FA0B4F4BFE728E331E0B15020403040E1F7EA
S1134FB000C00000E0E6F4E020E42583A7EAB1E6BF
S1134FC01197F1F700C0000026830196E7CFC85A75
S1134FD0DF4FCDBFDEBFDF91CF91FF91EF91BF9146
S1134FE0AF919F918F917F916F915F914F913F917D
S1134FF02F911F910F91FF90EF90DF90CF90BF9072
S1135000AF909F908F900F900BBE0F900FBE0F909C
S11350101F9018951F920F920FB60F9211240BB682
S11350200F928F93EF93FF93E0E0F4E084E08187A5
S1135030808582FF04C080E48093660403C080E41A
S113504080936504FF91EF918F910F900BBE0F90A9
S11350500FBE0F901F9018958091021081FDFCCF18
S113506040E050E060E87FE384E590E00E9439404E
S11350708091021081FDFCCF40E050E0BA0180E550
S113508090E00E9439408091021081FDFCCF40E005
S113509050E060E87FE38CE490E00E943940809126
S11350A0021081FDFCCF40E050E0BA0188E490E0BA
S11350B00E9439408091021081FDFCCF40E050E015
S11350C060E87FE384E490E00E943940809102101C
S11350D081FDFCCF40E050E0BA0180E490E00E9402
S11350E039408091021081FDFCCF40E050E060E83F
S11350F07FE38CE390E00E9439408091021081FDAF
S1135100FCCF40E050E0BA0188E390E00E943940CF
S11351108091021081FDFCCF40E050E060E87FE325
S113512084E390E00E9439408091021081FDFCCF1D
S113513040E050E0BA0180E390E00E943940809161
S1135140021081FDFCCF4AE959E969EB7FE38CE267
S113515090E00E9439408091021081FDFCCF64E50B
S11351608BE290E00E942E408091021081FDFCCFE2
S113517064E58AE290E00E942E408091021081FD55
S1135180FCCF64E589E290E00E942E4080910210F9
S113519081FDFCCF64E588E290E00E942E4080917E
S11351A0021081FDFCCF66E487E290E00E942E406D
S11351B08091021081FDFCCF66E486E290E00E94BB
S11351C02E408091021081FDFCCF66E485E290E0E0
S11351D00E942E408091021081FDFCCF66E484E29F
S11351E090E00E942E408091021081FDFCCF6CE380
S11351F070E082E290E00E9445408091021081FDBF
S1135200FCCF6CE370E080E290E00E944540809126
S1135210021081FDFCCF6CE370E08EE190E00E940F
S113522045408091021081FDFCCF6CE370E08CE17D
S113523090E00E9445408091021081FDFCCF6CE318
S113524070E08AE190E00E9445408091021081FD67
S1135250FCCF6CE370E088E190E00E9445408091CF
S1135260021081FDFCCF6CE370E086E190E00E94C7
S113527045408091021081FDFCCF66E485E190E019
S11352800E944B408091021081FDFCCF44E150E02C
S113529060E070E08FE591E40E941E40809102106E
S11352A081FDFCCF64E588E590E00E944B400895C1
S11352B0CF92DF92EF92FF920F931F93CF93DF93DE
S11352C0CDB7DEB72597CDBFDEBF8C011D82BC01F3
S11352D06D5F7F4F44E050E0CE0101960E947D3A1D
S11352E0CE0101960E94383A0E9477362FE632E1C9
S11352F043E85AE30E9419386B017C012DEC3CEC25
S11353004CE45FE30E944E378823E4F02AE939E94C
S113531049E95FE3C701B6010E94C435181694F049
S1135320C0923340D0923440E0923540F0923640FF
S11353308091021081FDFCCFB701A60184E590E0C5
S11353400E94394044E050E0B801695F7F4FCE01CC
S113535001960E947D3ACE0101960E94383A0E943D
S113536077362AE037ED43E25CE30E9419386B019B
S11353707C0120E030E040E450EC0E944E3788236A
S1135380E4F020E030E040E450E4C701B6010E94BC
S1135390C435181694F0C092075ED092085EE0926D
S11353A0095EF0920A5E8091021081FDFCCFB70184
S11353B0A60180E590E00E94394044E050E0B80145
S11353C0655F7F4FCE0101960E947D3ACE01019622
S11353D00E94383A0E9477362FE632E143E85AE3D6
S11353E00E9419386B017C012DEC3CEC4CE45FE32A
S11353F00E944E378823E4F02AE939E949E95FE35A
S1135400C701B6010E94C435181694F0C0922F400B
S1135410D0923040E0923140F092324080910210BC
S113542081FDFCCFB701A6018CE490E00E943940D5
S113543044E050E0B801615F7F4FCE0101960E94C5
S11354407D3ACE0101960E94383A0E9477362AE0CE
S113545037ED43E25CE30E9419386B017C012AE0DA
S113546037ED4FE151EC0E944E378823E4F02AE0F7
S113547037ED4FE151E4C701B6010E94C435181657
S113548094F0C092035ED092045EE092055EF092C6
S1135490065E8091021081FDFCCFB701A60188E46D
S11354A090E00E94394044E050E0B8016D5E7F4FC7
S11354B0CE0101960E947D3ACE0101960E94383AAF
S11354C00E9477362FE632E143E85AE30E94193806
S11354D06B017C012DEC3CEC4CE45FE30E944E3705
S11354E08823E4F02AE939E949E95FE3C701B60111
S11354F00E94C435181694F0C0922B40D0922C40D0
S1135500E0922D40F0922E408091021081FDFCCF5C
S1135510B701A60184E490E00E94394044E050E0E1
S1135520B801695E7F4FCE0101960E947D3ACE019B
S113553001960E94383A0E9477362AE037ED43E21A
S11355405CE30E9419386B017C0120E030E040E408
S113555050EC0E944E378823E4F020E030E040E431
S113556050E4C701B6010E94C435181694F0C092E5
S1135570FF5DD092005EE092015EF092025E809147
S1135580021081FDFCCFB701A60180E490E00E94E7
S1135590394044E050E0B801655E7F4FCE0101968A
S11355A00E947D3ACE0101960E94383A0E947736D5
S11355B02FE632E143E85AE30E9419386B017C017B
S11355C02DEC3CEC4CE45FE30E944E378823E4F07E
S11355D02AE939E949E95FE3C701B6010E94C43504
S11355E0181694F0C0922740D0922840E0922940A7
S11355F0F0922A408091021081FDFCCFB701A601F0
S11356008CE390E00E94394044E050E0B801615ED0
S11356107F4FCE0101960E947D3ACE0101960E94F1
S1135620383A0E9477366B017C0120E030EC49E780
S113563054EC0E944E378823E4F020E030EC49E734
S113564054E4C701B6010E94C435181694F0C09200
S1135650FB5DD092FC5DE092FD5DF092FE5D809179
S1135660021081FDFCCFB701A60188E390E00E94FF
S1135670394044E050E0B8016D5D7F4FCE010196A2
S11356800E947D3ACE0101960E94383A0E947736F4
S11356902FE632E143E85AE30E9419386B017C019A
S11356A02DEC3CEC4CE45FE30E944E378823E4F09D
S11356B02AE939E949E95FE3C701B6010E94C43523
S11356C0181694F0C0922340D0922440E0922540D2
S11356D0F09226408091021081FDFCCFB701A60113
S11356E084E390E00E94394044E050E0B801695DF1
S11356F07F4FCE0101960E947D3ACE0101960E9411
S1135700383A0E9477362FE632E143E85AE30E94A2
S113571019386B017C0120E030E040E05FEB0E942F
S11357204E378823E4F020E030E040E05FE3C70137
S1135730B6010E94C435181694F0C092F75DD09259
S1135740F85DE092F95DF092FA5D8091021081FDBE
S1135750FCCFB701A60180E390E00E943940B80174
S1135760655D7F4F44E050E0CE0101960E947D3A92
S1135770CE0101960E94383A0E9477362FE632E134
S113578043E85AE30E9419386B017C0123E333E3B5
S113579043EB5FE30E944E378823E4F020E030E0DF
S11357A040EC5FE3C701B6010E94C435181694F0BB
S11357B0C0921F40D0922040E0922140F0922240BB
S11357C08091021081FDFCCFB701A6018CE290E02C
S11357D00E9439402596CDBFDEBFDF91CF911F9146
S11357E00F91FF90EF90DF90CF9008952F923F920A
S11357F04F925F926F927F928F929F92AF92BF92DD
S1135800CF92DF92EF92FF920F931F93CF93DF9388
S1135810CDB7DEB7CC54D109CDBFDEBF2A968FAF4A
S11358202A972B969FAF2B972C966FAF2C972D967C
S11358307FAF2D9760913340709134408091354013
S1135840909136408E010F5F1F4F23E045E00E9488
S1135850D9386091075E7091085E8091095E9091DD
S11358600A5E1E0127E0220E311C810122E045E080
S11358700E94D93860912F4070913040809131401E
S1135880909132402E013DE0430E511C820123E0F1
S113589045E00E94D9386091035E7091045E809166
S11358A0055E9091065E9E012D5E3F4F25962EAFBC
S11358B03FAF2597890122E045E00E94D9386091E5
S11358C02B4070912C4080912D4090912E409E0150
S11358D0275E3F4F27962EAF3FAF2797890123E0DE
S11358E045E00E94D9386091FF5D7091005E80911F
S11358F0015E9091025E9E01215E3F4F29962EAF7C
S11359003FAF2997890122E045E00E94D938609190
S11359102740709128408091294090912A407E012F
S113592035E2E30EF11C870123E045E00E94D938FB
S11359306091FB5D7091FC5D8091FD5D9091FE5DD9
S11359406E012BE2C20ED11C860120E044E00E94CD
S1135950D9386091234070912440809125409091E2
S113596026405E0130E3A30EB11C850123E045E02F
S11359700E94D9386091F75D7091F85D8091F95D6E
S11359809091FA5D4E0126E3820E911C840123E07E
S113599046E00E94D93860911F4070912040809168
S11359A02140909122403E013DE3630E711C83012E
S11359B023E045E00E94D9387F926F929F928F92A4
S11359C0BF92AF92DF92CF92FF92EF9229968FAD62
S11359D029978F9328969FAD28979F9327962FAD4D
S11359E027972F9326963FAD26973F9325968FAD05
S11359F025978F9324969FAD24979F935F924F9200
S1135A003F922F9221E030E02C0F3D1F3F932F93C4
S1135A102D963FAD2D973F932C968FAD2C978F935A
S1135A2087E691E49F938F932B969FAD2B979F933B
S1135A302A962FAD2A972F930E94E03ACDBFDEBF5E
S1135A40C45BDF4FCDBFDEBFDF91CF911F910F91BC
S1135A50FF90EF90DF90CF90BF90AF909F908F908A
S1135A607F906F905F904F903F902F90089580911A
S1135A70021081FDFCCF8091F25D882311F064E572
S1135A8001C066E485E190E00E942E4080910210FE
S1135A9081FDFCCF80911E40882311F064E501C094
S1135AA066E48BE290E00E942E408091021081FD1A
S1135AB0FCCF6091194070911A4082E290E00E94FC
S1135AC045408091021081FDFCCF80911D408823C8
S1135AD011F064E501C066E48AE290E00E942E4081
S1135AE08091021081FDFCCF6091174070911840A5
S1135AF080E290E00E9445408091021081FDFCCF3D
S1135B0080911C40882311F064E501C066E489E2B9
S1135B1090E00E942E408091021081FDFCCF6091A4
S1135B201540709116408EE190E00E9445408091AE
S1135B30021081FDFCCF80911B40882311F064E5A5
S1135B4001C066E488E290E00E942E408091021039
S1135B5081FDFCCF60911340709114408CE190E082
S1135B600E9445408091021081FDFCCF8091F65D3A
S1135B70882311F064E501C066E487E290E00E94A6
S1135B802E408091021081FDFCCF609111407091F4
S1135B9012408AE190E00E9445408091021081FD0C
S1135BA0FCCF8091F55D882311F064E501C066E4C3
S1135BB086E290E00E942E408091021081FDFCCF8D
S1135BC060910F407091104088E190E00E94454040
S1135BD08091021081FDFCCF8091F45D882311F047
S1135BE064E501C066E485E290E00E942E40809165
S1135BF0021081FDFCCF60910D4070910E4086E152
S1135C0090E00E9445408091021081FDFCCF80917C
S1135C10F35D882311F064E501C066E484E290E05A
S1135C200E942E4008958091021081FDFCCF45E131
S1135C3050E060E070E08DED9DE50E941E40089507
S1135C408091021081FDFCCF84E590E00E94124017
S1135C506093334070933440809335409093364042
S1135C608091021081FDFCCF80E590E00E941240FB
S1135C706093075E7093085E8093095E90930A5E5A
S1135C808091021081FDFCCF8CE490E00E941240D0
S1135C9060932F4070933040809331409093324012
S1135CA08091021081FDFCCF88E490E00E941240B4
S1135CB06093035E7093045E8093055E9093065E2A
S1135CC08091021081FDFCCF84E490E00E94124098
S1135CD060932B4070932C4080932D4090932E40E2
S1135CE08091021081FDFCCF80E490E00E9412407C
